:020000040800F2
:10000000E00600202902000827160008850E0008D7
:10001000251600081F040008D93900080000000058
:100020000000000000000000000000002B16000887
:100030002104000800000000291600082D16000801
:10004000430200084302000843020008430200087C
:10005000430200084302000843020008430200086C
:10006000430200084302000843020008430200085C
:10007000430200084302000843020008430200084C
:10008000430200084302000843020008430200083C
:10009000430200084302000843020008430200082C
:1000A000430200084302000843020008430200081C
:1000B000430200084302000843020008430200080C
:1000C00043020008430200084302000843020008FC
:1000D00043020008430200084302000843020008EC
:1000E00043020008430200084302000843020008DC
:1000F00043020008430200084302000843020008CC
:1001000043020008430200084302000843020008BB
:1001100043020008430200084302000843020008AB
:10012000430200084302000843020008430200089B
:10013000430200084302000843020008430200088B
:10014000430200084302000843020008430200087B
:10015000430200084302000843020008430200086B
:10016000430200084302000843020008430200085B
:100170004302000843020008430200080000000098
:10018000430200084302000800F002F800F03CF8C7
:100190000AA090E8000C82448344AAF10107DA45E2
:1001A00001D100F031F8AFF2090EBAE80F0013F0F8
:1001B000010F18BFFB1A43F0010318472C3B000046
:1001C0004C3B0000103A24BF78C878C1FAD85207D7
:1001D00024BF30C830C144BF04680C6070470000C1
:1001E0000023002400250026103A28BF78C1FBD840
:1001F000520728BF30C148BF0B6070471FB503F0DE
:1002000065FD1FBD10B510BD00F0CFF81146FFF71A
:10021000F5FF03F0F2FB00F0EDF803B4FFF7F2FF97
:1002200003BC00F0F5F80000094880470948004782
:10023000FEE7FEE7FEE7FEE7FEE7FEE7FEE7FEE796
:10024000FEE7FEE704480549054A064B70470000F3
:10025000C516000889010008E0000020E006002023
:10026000E0020020E002002053EA020C00F0698066
:100270002DE9F04B4FF00006002B1FBFB3FA83F5BA
:1002800003FA05F424FA05F65E4012BF1643B2FAEB
:1002900082F502FA05F4C5F120051EBF22FA05FC1D
:1002A00044EA0C04203556EA044C4FEA144418BFC3
:1002B000641C4FF000084FF00009904271EB030CF2
:1002C00039D3002919BFB1FA81F701FA07F6B0FA5C
:1002D00080F700FA07F6C7F120071EBF20FA07FCD7
:1002E00046EA0C062037B6FBF4FCA7EB0507103FE7
:1002F00007F01F0BCBF120060CFA0BFB2CFA06F6CD
:1003000044BFB3460026202FA4BF5E464FF0000B2B
:100310005BEA060C08BF4FF0010B19EB0B09ABFBB6
:10032000027C48EB0608C01B06FB02CC0BFB03CC8F
:1003300071EB0C01C1E70B46024641464846BDE859
:10034000F08B13B54FF000004FF00001AFF30080C9
:10035000BDE81C4070474FF0000200B513469446BC
:100360009646203922BFA0E80C50A0E80C50B1F10D
:100370002001BFF4F7AF090728BFA0E80C5048BF21
:100380000CC05DF804EB890028BF40F8042B08BFBF
:10039000704748BF20F8022B11F0804F18BF00F8BB
:1003A000012B7047704770477047754600F02CF876
:1003B000AE4605006946534620F00700854618B052
:1003C00020B5FFF73FFFBDE820404FF000064FF09B
:1003D00000074FF000084FF0000B21F00701AC467A
:1003E000ACE8C009ACE8C009ACE8C009ACE8C00999
:1003F0008D46704710B50446AFF300802046BDE837
:100400001040FFF70ABF000000487047800000203E
:1004100001491820ABBEFEE7260002007047FEE748
:10042000704772B6FEE7000030B5B3F5804F05D0D7
:100430006FF0704140F82210002030BD8C690B68CD
:100440008D6823434C688989240144EA05242343A9
:1004500043EA014150F82230014C23401943E9E7B7
:100460000000F0CF10B50A6850F8223023F00103E5
:1004700040F822308C68082C23D000234A6822439D
:10048000CC681C430B6922431A434B690E4C1A4338
:10049000CB691A430B6A1A434B6A1A438B6A1A4395
:1004A000CB6A1A430B6B1A438B691343CA6B0968F7
:1004B0001A4350F82130A343134340F82130002061
:1004C00010BD4023DAE700007FFF0F0030B5D1E90F
:1004D000003443EA04138C688D89240244EA0544FD
:1004E00023430C8A094D00EB820005EB045423439F
:1004F0000C7D6D0105EB0464896923430B4341685E
:1005000001F040410B434360002030BD0000F0FF8C
:1005100070B5044600F060F90546601C02D004483E
:100520000078044400F058F9401BA042FAD370BD93
:10053000100000202DE9F04186B014216846FFF735
:100540000AFF20480168002939D1012101601E48B5
:100550000024016841F00101016000684FF48058F7
:1005600000F001000C27CDF80080CDE904700326CF
:1005700002250396CDE901546946144800F02EF88F
:100580004FF68070CDE9000502AA694682E8D000E6
:100590000F4800F023F84CF23370CDE9000502AAB1
:1005A000694682E8D0000B4800F018F802AA6946B4
:1005B00082E8D000CDE90085074800F00FF806B0CA
:1005C000BDE8F081080000203838024000140240E5
:1005D00000100240000C0240001802402DE9F84FC4
:1005E000DFF8BCA10022012503264FF00F090AF114
:1005F000040BAAF1040E00BF0B6805FA02F42340B5
:10060000A34270D10F7907F00307012F01D0022F09
:1006100016D187684FEA420806FA08FC27EA0C0759
:10062000D1F80CC00CFA08FC4CEA070CC0F808C062
:100630004768A7430C79C4F3001494403C434460DA
:100640000C79E443A4070AD0C4684FEA420C06FAC6
:100650000CF7BC438F6807FA0CF72743C7600C7987
:1006600004F00304022C12D1D40800EB840CDCF853
:1006700020405707FF0E09FA07F824EA0804D1F8CA
:10068000108008FA07F848EA0408CCF820800468CB
:100690004FEA420C06FA0CF7BC430F7907F0030748
:1006A00007FA0CF7274307604C6814F4403F70D0FA
:1006B0003C4C276847F480472760246822F00307F2
:1006C00004F480440094384C07EB040CDCF8084830
:1006D00097074FEA177809FA08F7BC43334FB84237
:1006E00002D1002724E054E0314FB84201D1012764
:1006F0001EE0304FB84201D1022719E02E4FB84218
:1007000001D1032714E02D4FB84201D104270FE097
:100710002B4FB84201D105270AE02A4FB84201D138
:10072000062705E0284FB84201D1072700E0082737
:1007300007FA08F72743CCF80878DAF8004057465C
:10074000D1F804C09C435FEACC2C00D51C433C602C
:10075000DBF800405F46D1F804C09C435FEA8C2C74
:1007600000D51C433C60DEF800407746D1F804C059
:100770009C435FEA8C3C00D51C433C60084F083F1B
:100780003C68D1F804C09C435FEACC3C00D51C43D4
:100790003C60521C102AFFF42FAFBDE8F88F000018
:1007A000083C014044380240003001400000024053
:1007B0000004024000080240000C02400010024009
:1007C0000014024000180240001C02400AB181617E
:1007D00070470904FBE7000001488068704700008B
:1007E000100000200248816802781144816070473F
:1007F000100000200B4810B5016841F40071016041
:10080000016841F480610160016841F48071016018
:10081000032000F061F80F2000F006F800F024F843
:10082000002010BD003C024070B50D4D04464FF451
:100830007A712878B1FBF0F00A490968B1FBF0F051
:1008400000F00CFB48B9102C07D200222146501EA4
:1008500000F022F800206C6070BD012070BD000027
:10086000100000201C0000200A4808B5016841F46F
:1008700080410160006800F4804000900548001F3E
:10088000016841F080510160006800F080500090E4
:1008900008BD000044380240F0B40E4B1B680C4603
:1008A000C3F30223C3F10705042D00D90425191D44
:1008B000072901D2002300E0DB1E012606FA05F11C
:1008C000491E214099409E40761E16403143F0BC9F
:1008D00003F083B80CED00E0064900F00702086859
:1008E0004FF6FF03184040EA0220034A1043086015
:1008F000704700000CED00E00000FA052DE9F0471C
:100900000E46050065D0DFF81481D8F80000F7B274
:1009100000F00700B04207D288F80070D8F8000055
:1009200000F00700B04254D128683D4C810712D531
:10093000400703D5206840F4E05020602878000785
:1009400003D5206840F4604020602068A96820F04A
:10095000F000084320602878C0072DD0304968682F
:100960000839012812D0022813D0032811D00968B1
:10097000890700292DDA216821F003010143216054
:10098000FFF72AFF814641F2883A0EE009688903A1
:10099000EFE709688901ECE7FFF71EFFA0EB09010B
:1009A000514502D90320BDE8F0872068696800F04E
:1009B0000C00B0EB810FEFD1D8F80010404601F0E9
:1009C0000701B14207D90770006800F00700B04284
:1009D00001D00120E7E72878400705D52068E968BD
:1009E00020F4E050084320602878000706D52068EE
:1009F000296920F4604040EAC100206000F018F846
:100A00002168084AC1F30311515CC84006490860D7
:100A100006480068FFF708FF0020C4E7003C0240DA
:100A200008380240D63C00081C00002014000020BA
:100A3000154810B5006810F00C02144813D041108E
:100A4000042A0FD0082A0ED10F4C241F22682368D5
:100A500002F03F025B0207D52068C0F38810A0FBBC
:100A6000010106E0084610BD2168C1F38811A1FB11
:100A700000010023FFF7F8FB2168C1F30141491C85
:100A80004900B0FBF1F010BD083802400024F4002A
:100A90002DE9F84F04006ED02078DFF84C93C007A2
:100AA000A9F104054AD009F104000168C1F38101EC
:100AB000012908D00068C0F3810002280AD1D9F8C2
:100AC0000000400206D52868800337D560680028FA
:100AD000E1D033E06068B0F5803F10D0B0F5A02FD2
:100AE000286810D020F480302860286820F4802006
:100AF00028606068A8B1FFF76FFE06460DE0286821
:100B000040F48030F4E740F480202860F7E700BF2D
:100B1000FFF762FE801B642873D828688003F7D52E
:100B20000CE0FFF759FE064605E000BFFFF754FE54
:100B3000801B6428F0D828688003F7D42078DFF879
:100B4000AC8280074FF0000A3ED5A748001D01681F
:100B500011F00C0F08D00068C0F3810002280BD1FF
:100B6000D9F80000400207D42868800716D5E0684D
:100B7000012800D112E033E1E068B8B10120C8F8E3
:100B80000000FFF729FE064605E000BFFFF724FE40
:100B9000801B0228C0D828688007F7D528682169FB
:100BA00020F0F80040EAC10028600DE0C8F800A07D
:100BB000FFF712FE064604E0FFF70EFE801B022838
:100BC0001FD828688007F7D42078000722D5864FE1
:100BD00087486169703771B101210160FFF7FCFD41
:100BE000064604E0FFF7F8FD801B022809D83868A4
:100BF0008007F7D50EE0C0F800A0FFF7EDFD064630
:100C000005E082E0FFF7E8FD801B02287DD8386808
:100C10008007F7D42078400768D5DFF8CCB10027EB
:100C20000BF13C0BDBF80000C0000BD4DBF800102C
:100C300041F08051CBF80010DBF80000012700F0F4
:100C4000805000906B4E3068C00510D4306840F47E
:100C500080703060FFF7C0FD009005E0FFF7BCFD3D
:100C60000099401A022850D83068C005F6D55E4E6B
:100C7000A0686C3601280FD00528306810D020F00D
:100C800001003060306820F004003060A068B8B126
:100C9000FFF7A2FD00900FE0306840F00100F4E79C
:100CA00040F004003060F7E7FFF796FD0099411A25
:100CB00041F28830814266D830688007F4D50EE072
:100CC000FFF78AFD009007E0FFF786FD0099411AC3
:100CD00041F28830814256D830688007F4D42FB171
:100CE000DBF8001021F08051CBF80010A069C8B3E8
:100CF0003D49091D0968C1F3810102294AD0022832
:100D0000504607D0C8F8600000E03CE0FFF764FD03
:100D100004463BE04746C8F86000FFF75DFD064625
:100D200005E000BFFFF758FD801B02282BD828687C
:100D30008001F7D4D4E907010843A16A2E4A490883
:100D400002EB0141626A41EA8211084394F82C10D7
:100D500040EA0161C9F8001001203866FFF73CFD48
:100D6000044606E03EE000BFFFF736FD001B022808
:100D700009D828688001F7D534E000BFFFF72CFDC3
:100D8000001B022802D90320BDE8F88F28688001E3
:100D9000F4D427E00128F7D0D9F80000E26900F484
:100DA000800191421CD1226A00F03F01914217D18B
:100DB00047F6C071626A0140B1EB821F10D1A26A8E
:100DC0004FF0FF3300F4403103EB5202B1EB024F1E
:100DD00006D194F82C1000F07060B0EB016F01D0D8
:100DE0000120D1E70020CFE704380240000047424D
:100DF000800E4742007000400000FFFF70B51546AE
:100E00000E46040003D094F8490010B107E0012019
:100E100070BD002084F84800204600F01DF804F161
:100E200008012068FFF71EFB3146A2682068FFF723
:100E30004DFBD4E901022946236BFFF7F5FA21683F
:100E4000A06851F8202042F0010241F82020012042
:100E500084F84900002070BDFFF76CBB10B5401E40
:100E6000B0F1807F01D3012010BD4FF0E02460611C
:100E70000F21601702F0B1FD0020A0610720206162
:100E8000002010BDFEE7000070B50B4906460024A7
:100E900008884D8821464543204600F07DFA00F041
:100EA00015FBB0B24FF0D84103E000BFA1F88000BD
:100EB000641CAC42FAD370BD200000202DE9F04F35
:100EC00033492C240A4688712A2592882B2645F21C
:100ED000105B4FF4305E4FF448774FF0F00949F261
:100EE000413A4FF4A07845F2103C4FF4F07358B1FA
:100EF000A1F80080A1F80290524501D0624529D1A5
:100F00000C814D818E8139E0A1F80090A1F802801A
:100F1000524501D0624508D10C814D818E816245D8
:100F200031D1A1F800804B802DE05A4508D1A1F8BD
:100F300008E04FF4285048814FF42C50888106E097
:100F4000A2F5C85063381ED10C814E818D810B8073
:100F50004F8018E05A4508D1A1F808E04FF4285016
:100F600048814FF42C50888106E0A2F5C8506338C0
:100F700004D10C814D818E810F804B80624502D15E
:100F80000B80A1F80280BDE8F04F002000F028B9E6
:100F9000200000202DE9FE4F161ACDE900104FF079
:100FA00000085D1A47464FF0FF30002E02DD4FF07B
:100FB000010102E003D14FF000018B4602E08346BD
:100FC000C6F10006002D02DD4FF0010002E003D162
:100FD0004FF00000824602E08246C5F10005AE42B5
:100FE00001DD344600E02C46601C4FF00009029001
:100FF00018E0009881B2019880B200F019F8B0446E
:101000002F44A04504DD0198A8EB04085844019042
:10101000A74203DD00983F1B5044009009F10100F6
:101020001FFA80F902998945E3DDBDE8FE8F0000D3
:1010300000B500F0B1F900F049FA03484FF0D8418B
:101040000088A1F8800000BD00000020F0B51C461B
:1010500015460E4607460B46FFF79CFF3A462346C9
:1010600031461046FFF796FF23462A461946384672
:10107000FFF790FF2A4623463146BDE8F040104670
:10108000FFF788BF2DE9FC4F80460025144603205A
:101090000F46A0EB440649E0381B81B208EB050A75
:1010A00001901FFA8AF0FFF7C3FF781B81B208EBAB
:1010B000040900901FFA89F0FFF7BAFF07EB050B50
:1010C0001FFA8BF11FFA89F0FFF7B2FF07EB040953
:1010D0001FFA89F11FFA8AF0FFF7AAFFA8EB050AA9
:1010E0001FFA89F11FFA8AF0FFF7A2FFA8EB0409A3
:1010F0001FFA8BF11FFA89F0FFF79AFF019881B26E
:101100001FFA8AF0FFF794FF009881B21FFA89F066
:10111000FFF78EFF6D1C002E03DA06EB8506B61D69
:1011200004E0281B06EB8006641E0A36A542B3DDE8
:10113000BDE8FC8F2DE9F0438146A2EB0902079838
:10114000521C1F4695B20C4686B24FF0D84811E0AB
:101150002146484600F020F900F0B8F90020414649
:1011600004E000BFA1F88060401C80B2A842F9D31F
:10117000641CA4B2BC42EBD9BDE8F08308B54FF0C3
:10118000D840B0F88000ADF80000BDF8000008BD00
:1011900010B50246BE2000F08DF9052000F07EF962
:1011A000104602F082FC9FED0C1B53EC112B02F059
:1011B0008FFC02F04DFC80B200F070F9012000F0CD
:1011C0006DF9FF2000F06AF9002000F067F9BDE832
:1011D0001040002000F062B96666666666660440EC
:1011E000F0B56C4C00232146A279898841F663163C
:1011F000012A01D01AB11BE0B14202D118E0B1427C
:1012000016D1082814D2DFE800F00406080A0C0EF4
:10121000101206200CE007200AE0042008E0052058
:1012200006E0012004E0002002E0032000E00220AC
:10123000A1F5134745F2103245F21055413F05D054
:10124000914203D0A94201D0B14277D1082812D2ED
:10125000DFE800F0110406080A0C0E1080230AE0F3
:10126000402308E0C02306E0202304E0602302E0DE
:10127000A02300E0E023A94202D14FF4585000E03F
:101280003620914205D0A94203D0B14201D043F0AB
:101290000803194600F024F9A188B1420AD0980643
:1012A0002088628802D5904202D303E0904201D99F
:1012B000228060806089A94241D100F0FBF80020C3
:1012C00000F0ECF86089401C80B200F0F3F80020D8
:1012D00000F0E4F86089801C80B200F0EBF8208810
:1012E000401EC0F30F2000F0D9F86089C01C80B206
:1012F00000F0E0F82078401EC0B200F0CFF8A089DE
:1013000000F0D8F8002000F0C9F8A089401C80B295
:1013100000F0D0F8002000F0C1F8A089801C80B255
:1013200000F0C8F86088401EC0F30F2000F0B6F847
:10133000A089C01C80B200F0BDF822E028E000F0D7
:10134000B9F8002000F0AAF8002000F0A7F82088E3
:10135000401EC0F30F2000F0A1F82078401EC0B25C
:1013600000F09CF8A08900F0A5F8002000F096F8A5
:10137000002000F093F86088401EC0F30F2000F0BA
:101380008DF8A078BDE8F040401EC0B200F086B8ED
:10139000F0BD000020000020F0B53F4A0D46044695
:1013A000060A918810462F0A4089A1F51343413B54
:1013B00028D0A1F5A643103B24D0A1F5C853633B28
:1013C0002FD0A1F5AA43103B64D100F073F830464A
:1013D00000F064F85089401C80B200F06BF8E0B275
:1013E00000F05CF8908900F065F8384600F056F897
:1013F0009089401C80B200F05DF8E8B2BDE8F04092
:1014000000F04CB800F056F8304600F047F8E0B273
:1014100000F044F8908900F04DF8384600F03EF8AE
:10142000EBE7917929B300F045F8304600F036F843
:10143000E0B200F033F81088401EC0F30F2000F037
:101440002DF81078401EC0B200F028F8908900F006
:1014500031F8384600F022F8E8B200F01FF8508862
:10146000401EC0F30F2000F019F89078401EC0B263
:10147000C4E71188091B491E8CB200F01BF800203C
:1014800000F00CF8002000F009F8200A00F006F83F
:10149000E0B2D9E7F0BD00002000002001B5BDF8A2
:1014A0000000ADF80000BDF800004FF0D841A1F8F1
:1014B000800008BD01B5BDF80000ADF80000BDF822
:1014C00000004FF0D841A1F87E0008BD03484FF05E
:1014D000D8410089A1F87E0070470000200000205C
:1014E0004FF0D84222F87E0F5180704710B58EB071
:1014F0001C216846FEF72FFF1C2107A8FEF72BFFD3
:101500001A484FF02041102201601949416006211C
:1015100081600021C160C0E904128161C1611302D0
:101520000162C0E909139302C0E90B1341638163AF
:1015300041640F203C230090CDE9010303AC11234B
:1015400084E80E0009240691CDE9074009AC082083
:1015500084E80F000D9107AA69460448FFF74EFC86
:10156000002801D0FEF75DFF0EB010BD3000002056
:10157000040100A070B586B014216846FEF7EBFEAA
:1015800026480025016841F080010160016801F0F2
:1015900080010591016841F020010160016801F0BE
:1015A00020010591016841F010010160016801F01E
:1015B00010010591016841F002010160016801F02C
:1015C00002010591016841F008010160016801F024
:1015D00008010591016841F001010160016801F015
:1015E00001010591016841F04001016000680C4E65
:1015F00000F040004FF400440590002221463046A0
:10160000FFF7E4F80121CDE90041CDE90215694673
:101610003046FEF7E3FF06B070BD000030380240F0
:1016200000040240FEE7FEE770477047FFF7DAB8B4
:1016300030B593B030216846FEF78DFE14210CA81A
:10164000FEF789FE1D480025016841F080510160C8
:10165000006800F0805011901948016841F4804101
:1016600001600068022400F4804011900120009085
:10167000000401908001CDE9064008AA0420A821B9
:1016800082E813000B906846FFF702FA08B172B6C1
:10169000FEE70CA90F2081E831004FF4A0500F9015
:1016A0004FF48050109005210CA8FFF727F900286F
:1016B00001D072B6FEE713B030BD000040380240E2
:1016C000007000400248016841F4700101607047F9
:1016D00088ED00E02DE9F05F3220FEF719FFD320FE
:1016E000FFF7E8FEFFF74AFDFE4CA080FFF746FD3E
:1016F000A080FFF743FD4FF6FF7909EA0020A080A4
:10170000FFF73CFDA18849F241360843A08045F22D
:10171000103745F2105541F66318B04247D0D42037
:10172000FFF7C8FEFFF72AFDA080FFF727FDA08086
:10173000FFF724FD09EA00204A46A080FFF71EFDBE
:10174000A1880843A080B84231D04FF45A40FFF737
:10175000B1FEFFF713FDA0804FF45B40FFF7AAFE38
:10176000FFF70CFD02EA0020A0804FF45C40FFF779
:10177000A1FEFFF703FDA1880843A080B0F5004F4C
:101780007DD0A84213D0A120FFF794FEFFF7F6FC0E
:10179000A080FFF7F3FC02EA0020A080FFF7EEFC38
:1017A000A1880843A0F5AE41A080613968D080B21D
:1017B000B04266D1CF20FFF77DFE0020FFF76EFE1E
:1017C000C120FFF76BFE3020FFF768FEED20FFF72A
:1017D00071FE6420FFF762FE0320FFF75FFE122018
:1017E000FFF75CFE8120FFF759FEE820FFF762FE5D
:1017F0008520FFF753FE1020FFF750FE7A20FFF7F9
:101800004DFECB20FFF756FE3920FFF747FE2C2078
:10181000FFF744FE0020FFF741FE3420FFF73EFEB5
:101820000220FFF73BFEF720FFF744FE2020FFF7E2
:1018300035FEEA20FFF73EFE0020FFF72FFE0020D6
:10184000FFF72CFEC020FFF735FE1B20FFF726FE1A
:10185000C120FFF72FFE0120FFF720FEC520FFF774
:1018600029FE3020FFF71AFE3020FFF717FEC720B1
:10187000FFF720FEB720FFF711FE362002E0B5E0AB
:10188000B0E0B5E0FFF716FE4820FFF707FE3A206C
:10189000FFF710FE5520FFF701FEB120FFF70AFE0B
:1018A0000020FFF7FBFD1A20FFF7F8FDB620FFF739
:1018B00001FE0A20FFF7F2FDA220FFF7EFFDF22064
:1018C000FFF7F8FD0020FFF7E9FD2620FFF7F2FD06
:1018D0000120FFF7E3FDE020FFF7ECFD0F20FFF70D
:1018E000DDFD2A20FFF7DAFD2820FFF7D7FD0820CD
:1018F000FFF7D4FD0E20FFF7D1FD0820FFF7CEFD46
:101900005420FFF7CBFDA920FFF7C8FD4320FFF7C8
:10191000C5FD0A20FFF7C2FD0F20FFF7BFFD002025
:10192000FFF7BCFD0020FFF7B9FD0020FFF7B6FD73
:101930000020FFF7B3FDE120FFF7BCFD0020FFF71B
:10194000ADFD1520FFF7AAFD1720FFF7A7FD072023
:10195000FFF7A4FD1120FFF7A1FD0620FFF79EFD74
:101960002B20FFF79BFD5620FFF798FD3C20FFF74B
:1019700095FD0520FFF792FD1020FFF78FFD0F204A
:10198000FFF78CFD3F20FFF789FD3F20FFF786FD25
:101990000F20FFF783FD2B20FFF78CFD0020FFF7C2
:1019A0007DFD0020FFF77AFD0120FFF777FD3F2046
:1019B000FFF774FD2A20FFF77DFD0020FFF76EFD85
:1019C0000020FFF76BFD0020FFF768FDEF20FFF719
:1019D00065FD1120FFF76EFD7820FEF799FD2920A7
:1019E00001F009BFA4F8048001F00ABFA580FDE35F
:1019F000B84276D1ED20FFF75DFD0120FFF74EFDE7
:101A0000FE20FFF74BFDEE20FFF754FDDE20FFF731
:101A100045FD2120FFF742FDF120FFF74BFD01209E
:101A2000FFF73CFDDF20FFF745FD1020FFF736FDF7
:101A3000C420FFF73FFD8F20FFF730FDC620FFF7E2
:101A400039FD0020FFF72AFDE220FFF727FDE22005
:101A5000FFF724FDE220FFF721FDBF20FFF72AFD5D
:101A6000AA20FFF71BFDB020FFF724FD0D20FFF794
:101A700015FD0020FFF712FD0D20FFF70FFD0020E0
:101A8000FFF70CFD1120FFF709FD0020FFF706FD11
:101A90001920FFF703FD0020FFF700FD2120FFF7CD
:101AA000FDFC0020FFF7FAFC2D20FFF7F7FC0020DB
:101AB000FFF7F4FC3D20FFF7F1FC0020FFF7EEFC00
:101AC0005D20FFF7EBFC0020FFF7E8FC5D20FFF74F
:101AD000E5FC0020FFF7E2FCB120FFF7EBFC8020E3
:101AE00002E0FDE320000020FFF7D8FC0020FFF714
:101AF000D5FC8B20FFF7D2FC0020FFF7CFFC96200F
:101B0000FFF7CCFC0020FFF7C9FCB220FFF7D2FCA6
:101B10000020FFF7C3FC0020FFF7C0FC0220FFF706
:101B2000BDFC0020FFF7BAFC0320FFF7B7FC002044
:101B3000FFF7B4FCB320FFF7BDFC0020FFF7AEFCBD
:101B40000020FFF7ABFC0020FFF7A8FC0020FFF708
:101B5000A5FC0020FFF7A2FC0020FFF79FFC00205F
:101B6000FFF79CFC0020FFF799FC0020FFF796FC94
:101B70000020FFF793FC0020FFF790FC0020FFF708
:101B80008DFC0020FFF78AFC0020FFF787FC002077
:101B9000FFF784FC0020FFF781FC0020FFF77EFCAC
:101BA0000020FFF77BFC0020FFF778FC0020FFF708
:101BB00075FC0020FFF772FC0020FFF76FFC00208F
:101BC000FFF76CFC0020FFF769FCB420FFF772FC04
:101BD0008B20FFF763FC0020FFF760FC9620FFF7E7
:101BE0005DFC0020FFF75AFCA120FFF757FC002006
:101BF000FFF754FCB520FFF75DFC0220FFF74EFC19
:101C00000020FFF74BFC0320FFF748FC0020FFF704
:101C100045FC0420FFF742FC0020FFF73FFCB62004
:101C2000FFF748FC0020FFF739FC0020FFF736FCE7
:101C3000B720FFF73FFC0020FFF730FC0020FFF744
:101C40002DFC3F20FFF72AFC0020FFF727FC5E2039
:101C5000FFF724FC0020FFF721FC6420FFF71EFCA7
:101C60000020FFF71BFC8C20FFF718FC0020FFF77B
:101C700015FCAC20FFF712FC0020FFF70FFCDC2066
:101C8000FFF70CFC0020FFF709FC7020FFF706FCB3
:101C90000020FFF703FC9020FFF700FC0020FFF777
:101CA000FDFBEB20FFF7FAFB0020FFF7F7FBDC2042
:101CB000FFF7F4FB0020FFF7F1FBB820FFF7FAFB7A
:101CC0000020FFF7EBFB0020FFF7E8FB0020FFF709
:101CD000E5FB0020FFF7E2FB0020FFF7DFFB002021
:101CE000FFF7DCFB0020FFF7D9FB0020FFF7D6FB56
:101CF000BA20FFF7DFFB2420FFF7D0FB0020FFF71F
:101D0000CDFB0020FFF7CAFB0020FFF7C7FBC12077
:101D1000FFF7D0FB2020FFF7C1FB0020FFF7BEFB41
:101D20005420FFF7BBFB0020FFF7B8FBFF20FFF7B5
:101D3000B5FB0020FFF7B2FBC220FFF7BBFB0A2078
:101D4000FFF7ACFB0020FFF7A9FB0420FFF7A6FB81
:101D50000020FFF7A3FBC320FFF7ACFB3C20FFF7FD
:101D60009DFB0020FFF79AFB3A20FFF797FB00202E
:101D7000FFF794FB3920FFF791FB0020FFF78EFB64
:101D80003720FFF78BFB0020FFF788FB3C20FFF795
:101D900085FB0020FFF782FB3620FFF77FFB00204A
:101DA000FFF77CFB3220FFF779FB0020FFF776FB83
:101DB0002F20FFF773FB0020FFF770FB2C20FFF7AD
:101DC0006DFB0020FFF76AFB2920FFF767FB00206F
:101DD000FFF764FB2620FFF761FB0020FFF75EFBA7
:101DE0002420FFF75BFB0020FFF758FB2420FFF7C0
:101DF00055FB0020FFF752FB2320FFF74FFB00208D
:101E0000FFF74CFB3C20FFF749FB0020FFF746FBA8
:101E10003620FFF743FB0020FFF740FB3220FFF79F
:101E20003DFB0020FFF73AFB2F20FFF737FB002098
:101E3000FFF734FB2C20FFF731FB0020FFF72EFBD0
:101E40002920FFF72BFB0020FFF728FB2620FFF7B8
:101E500025FB0020FFF722FB2420FFF71FFB0020BB
:101E6000FFF71CFB2420FFF719FB0020FFF716FBF0
:101E70002320FFF713FB0020FFF710FBC420FFF720
:101E800019FB6220FFF70AFB0020FFF707FB052084
:101E9000FFF704FB0020FFF701FB8420FFF7FEFAA9
:101EA0000020FFF7FBFAF020FFF7F8FA0020FFF719
:101EB000F5FA1820FFF7F2FA0020FFF7EFFAA42056
:101EC000FFF7ECFA0020FFF7E9FA1820FFF7E6FA2F
:101ED0000020FFF7E3FA5020FFF7E0FA0020FFF7B9
:101EE000DDFA0C20FFF7DAFA0020FFF7D7FA172007
:101EF000FFF7D4FA0020FFF7D1FA9520FFF7CEFACA
:101F00000020FFF7CBFAF320FFF7C8FA0020FFF715
:101F1000C5FAE620FFF7C2FA0020FFF7BFFAC52096
:101F2000FFF7C8FA3220FFF7B9FA0020FFF7B6FA38
:101F30004420FFF7B3FA0020FFF7B0FA6520FFF75F
:101F4000ADFA0020FFF7AAFA7620FFF7A7FA0020E3
:101F5000FFF7A4FA8820FFF7A1FA0020FFF79EFA06
:101F6000C620FFF7A7FA2020FFF798FA0020FFF716
:101F700095FA1720FFF792FA0020FFF78FFA012059
:101F8000FFF78CFA0020FFF789FAC720FFF792FAD3
:101F90000020FFF783FA0020FFF780FA0020FFF708
:101FA0007DFA0020FFF77AFAC820FFF783FA0020B5
:101FB000FFF774FA0020FFF771FA0020FFF76EFABE
:101FC0000020FFF76BFAC920FFF774FA0020FFF733
:101FD00065FA0020FFF762FA0020FFF75FFA0020A1
:101FE000FFF75CFA0020FFF759FA0020FFF756FAD6
:101FF0000020FFF753FA0020FFF750FA0020FFF708
:102000004DFA0020FFF74AFA0020FFF747FA0020B8
:10201000FFF744FA0020FFF741FA0020FFF73EFAED
:102020000020FFF73BFA0020FFF738FAE020FFF727
:1020300041FA1620FFF732FA0020FFF72FFA1C2092
:10204000FFF72CFA0020FFF729FA2120FFF726FAE4
:102050000020FFF723FA3620FFF720FA0020FFF7D1
:102060001DFA4620FFF71AFA0020FFF717FA522050
:10207000FFF714FA0020FFF711FA6420FFF70EFAB9
:102080000020FFF70BFA7A20FFF708FA0020FFF78D
:1020900005FA8B20FFF702FA0020FFF7FFF99920DD
:1020A000FFF7FCF90020FFF7F9F9A820FFF7F6F990
:1020B0000020FFF7F3F9B920FFF7F0F90020FFF750
:1020C000EDF9C420FFF7EAF90020FFF7E7F9CA208D
:1020D000FFF7E4F90020FFF7E1F9D220FFF7DEF97E
:1020E0000020FFF7DBF9D920FFF7D8F90020FFF730
:1020F000D5F9E020FFF7D2F90020FFF7CFF9F32060
:10210000FFF7CCF90020FFF7C9F9E120FFF7D2F97A
:102110001620FFF7C3F90020FFF7C0F91C20FFF7D6
:10212000BDF90020FFF7BAF92220FFF7B7F9002028
:10213000FFF7B4F93620FFF7B1F90020FFF7AEF949
:102140004520FFF7ABF90020FFF7A8F95220FFF771
:10215000A5F90020FFF7A2F96420FFF79FF90020FE
:10216000FFF79CF97A20FFF799F90020FFF796F91D
:102170008B20FFF793F90020FFF790F99920FFF7E4
:102180008DF90020FFF78AF9A820FFF787F90020D2
:10219000FFF784F9B920FFF781F90020FFF77EF9F6
:1021A000C420FFF77BF90020FFF778F9CA20FFF77A
:1021B00075F90020FFF772F9D220FFF76FF90020C0
:1021C000FFF76CF9D820FFF769F90020FFF766F9EF
:1021D000E020FFF763F90020FFF760F9F320FFF735
:1021E0005DF90020FFF75AF9E22000E082E3FFF7F3
:1021F00061F90520FFF752F90020FFF74FF90B2096
:10220000FFF74CF90020FFF749F91B20FFF746F9CB
:102210000020FFF743F93420FFF740F90020FFF7D3
:102220003DF94420FFF73AF90020FFF737F94F2036
:10223000FFF734F90020FFF731F96120FFF72EF99D
:102240000020FFF72BF97920FFF728F90020FFF78E
:1022500025F98820FFF722F90020FFF71FF99720C2
:10226000FFF71CF90020FFF719F9A620FFF716F970
:102270000020FFF713F9B720FFF710F90020FFF750
:102280000DF9C220FFF70AF90020FFF707F9C72070
:10229000FFF704F90020FFF701F9D120FFF7FEF85E
:1022A0000020FFF7FBF8D620FFF7F8F80020FFF733
:1022B000F5F8DD20FFF7F2F80020FFF7EFF8F32044
:1022C000FFF7ECF80020FFF7E9F8E320FFF7F2F85A
:1022D0000520FFF7E3F80020FFF7E0F80A2000E010
:1022E00006E3FFF7DBF80020FFF7D8F81C20FFF724
:1022F000D5F80020FFF7D2F83320FFF7CFF8002001
:10230000FFF7CCF84420FFF7C9F80020FFF7C6F824
:102310005020FFF7C3F80020FFF7C0F86220FFF756
:10232000BDF80020FFF7BAF87820FFF7B7F80020D3
:10233000FFF7B4F88820FFF7B1F80020FFF7AEF8F8
:102340009720FFF7ABF80020FFF7A8F8A620FFF7CB
:10235000A5F80020FFF7A2F8B720FFF79FF80020AC
:10236000FFF79CF8C220FFF799F80020FFF796F8D6
:10237000C720FFF793F80020FFF790F8D120FFF770
:102380008DF80020FFF78AF8D520FFF787F80020A6
:10239000FFF784F8DD20FFF781F80020FFF77EF8D3
:1023A000F320FFF77BF80020FFF778F8E420FFF731
:1023B00081F80120FFF772F80020FFF76FF8012085
:1023C000FFF76CF80020FFF769F80220FFF766F8C6
:1023D0000020FFF763F82A20FFF760F80020FFF7DE
:1023E0005DF83C20FFF75AF80020FFF757F84B2024
:1023F000FFF754F80020FFF751F85D20FFF74EF883
:102400000020FFF74BF87420FFF748F80020FFF793
:1024100045F88420FFF742F80020FFF73FF89320AB
:10242000FFF73CF80020FFF739F8A220FFF736F855
:102430000020FFF733F8B320FFF730F80020FFF754
:102440002DF8BE20FFF72AF80020FFF727F8C42058
:10245000FFF724F80020FFF721F8CD20FFF71EF842
:102460000020FFF71BF8D320FFF718F80020FFF734
:1024700015F8DD20FFF712F80020FFF70FF8F32022
:10248000FFF70CF80020FFF709F8E520FFF712F836
:102490000020FFF703F80020FFF700F80020FEF708
:1024A000FDFF0020FEF7FAFF0220FEF7F7FF0020F5
:1024B000FEF7F4FF2920FEF7F1FF0020FEF7EEFF04
:1024C0003C20FEF7EBFF0020FEF7E8FF4B20FEF775
:1024D000E5FF0020FEF7E2FF5D20FEF7DFFF0020B2
:1024E000FEF7DCFF7420FEF7D9FF0020FEF7D6FFD1
:1024F0008420FEF7D3FF0020FEF7D0FF9320FEF7E5
:10250000CDFF0020FEF7CAFFA220FEF7C7FF002084
:10251000FEF7C4FFB320FEF7C1FF0020FEF7BEFFA9
:10252000BE20FEF7BBFF0020FEF7B8FFC420FEF779
:10253000B5FF0020FEF7B2FFCD20FEF7AFFF002071
:10254000FEF7ACFFD320FEF7A9FF0020FEF7A6FFA1
:10255000DC20FEF7A3FF0020FEF7A0FFF320FEF72C
:102560009DFF0020FEF79AFFE620FEF7A3FF112053
:10257000FEF794FF0020FEF791FF3420FEF78EFF58
:102580000020FEF78BFF5620FEF788FF0020FEF7A5
:1025900085FF7620FEF782FF0020FEF77FFF772081
:1025A000FEF77CFF0020FEF779FF6620FEF776FF3E
:1025B0000020FEF773FF8820FEF770FF0020FEF773
:1025C0006DFF9920FEF76AFF0020FEF767FFBB2032
:1025D000FEF764FF0020FEF761FF9920FEF75EFF23
:1025E0000020FEF75BFF6620FEF758FF0020FEF795
:1025F00055FF5520FEF752FF0020FEF74FFF5520F4
:10260000FEF74CFF0020FEF749FF4520FEF746FF8E
:102610000020FEF743FF4320FEF740FF0020FEF7B7
:102620003DFF4420FEF73AFF0020FEF737FFE7208A
:10263000FEF740FF3220FEF731FF0020FEF72EFFAD
:102640005520FEF72BFF0020FEF728FF7620FEF72F
:1026500025FF0020FEF722FF6620FEF71FFF002067
:10266000FEF71CFF6720FEF719FF0020FEF716FF9C
:102670006720FEF713FF0020FEF710FF8720FEF70C
:102680000DFF0020FEF70AFF9920FEF707FF00204C
:10269000FEF704FFBB20FEF701FF0020FEF7FEFE61
:1026A0009920FEF7FBFE0020FEF7F8FE7720FEF7EC
:1026B000F5FE0020FEF7F2FE4420FEF7EFFE0020BC
:1026C000FEF7ECFE5620FEF7E9FE0020FEF7E6FEE0
:1026D0002320FEF7E3FE0020FEF7E0FE3320FEF7A6
:1026E000DDFE0020FEF7DAFE4520FEF7D7FE0020D3
:1026F000FEF7D4FEE820FEF7DDFE0020FEF7CEFE5A
:102700000020FEF7CBFE9920FEF7C8FE0020FEF762
:10271000C5FE8720FEF7C2FE0020FEF7BFFE882020
:10272000FEF7BCFE0020FEF7B9FE7720FEF7B6FEEE
:102730000020FEF7B3FE6620FEF7B0FE0020FEF795
:10274000ADFE8820FEF7AAFE0020FEF7A7FEAA2015
:10275000FEF7A4FE0020FEF7A1FEBB20FEF79EFEC2
:102760000020FEF79BFE9920FEF798FE0020FEF762
:1027700095FE6620FEF792FE0020FEF78FFE5520A4
:10278000FEF78CFE0020FEF789FE5520FEF786FE40
:102790000020FEF783FE4420FEF780FE0020FEF7B7
:1027A0007DFE4420FEF77AFE0020FEF777FE5520DE
:1027B000FEF774FE0020FEF771FEE920FEF77AFEB8
:1027C000AA20FEF76BFE0020FEF768FE0020FEF751
:1027D00065FE0020FEF762FE0020FEF76BFEAA20D9
:1027E000FEF75CFECF20FEF765FE0020FEF756FEEA
:1027F0000020FEF753FE0020FEF750FE0020FEF7FB
:102800004DFE0020FEF74AFE0020FEF747FE0020A6
:10281000FEF744FE0020FEF741FE0020FEF73EFEDC
:102820000020FEF73BFE0020FEF738FE0020FEF7FA
:1028300035FE0020FEF732FE0020FEF72FFE0020BE
:10284000FEF72CFE0020FEF729FE0020FEF726FEF4
:10285000F020FEF72FFE0020FEF720FE5020FEF7AE
:102860001DFE0020FEF71AFE0020FEF717FE0020D6
:10287000FEF714FEF320FEF71DFE0020FEF70EFE0D
:10288000F920FEF717FE0620FEF708FE1020FEF7DF
:1028900005FE2920FEF702FE0020FEF7FFFD3A208C
:1028A000FEF708FE5520FEF7F9FD1120FEF702FEA7
:1028B0006420FDF72DFE2920FEF7FCFD3520FEF7F4
:1028C000F9FD0020FEF7EAFD5120FEF7F3FDFF20A1
:1028D000FEF7E4FD5320FEF7EDFD2C20FEF7DEFDB4
:1028E0005520FEF7E7FD8220FEF7D8FD2C20FCE303
:1028F000A8427CD14FF4704355211846FEF7F0FDF5
:102900004FF2010AAA215046FEF7EAFD4FF2020BF0
:1029100052215846FEF7E4FD08214FF20300FEF76E
:10292000DFFD01214FF20400FEF7DAFD0D214FF427
:102930003040FEF7D5FD0D214BF20100FEF7D0FD32
:102940000D214BF20200FEF7CBFD34214FF436404F
:10295000FEF7C6FD34214BF20160FEF7C1FD3421C4
:102960004BF20260FEF7BCFD0D214FF43140FEF743
:10297000B7FD0D214BF20110FEF7B2FD0D214BF218
:102980000210FEF7ADFD34214FF43740FEF7A8FDED
:1029900034214BF20170FEF7A3FD34214BF202709B
:1029A000FEF79EFD00214FF43240FEF799FD002115
:1029B0004BF20120FEF794FD00214BF20220FEF7BE
:1029C0008FFD24214FF43840FEF78AFD24214BF679
:1029D0000100FEF785FD24214BF60200FEF780FD85
:1029E00001214FF43F40FEF77BFD0F2100E0FDE3A6
:1029F0004FF43340FEF774FD0F214BF20130FEF728
:102A00006FFD0F214BF20230FEF76AFD34214FF4C7
:102A10003940FEF765FD34214BF60110FEF760FDED
:102A200034214BF60210FEF75BFD08214FF43540D0
:102A3000FEF756FD08214BF20150FEF751FD08212B
:102A40004BF20250FEF74CFD03214FF44240FEF7DB
:102A500047FD24214FF43A40FEF742FD24214BF676
:102A60000120FEF73DFD24214BF60220FEF738FD44
:102A700000214FF43C40FEF733FD78214BF6014036
:102A8000FEF72EFD00214BF60240FEF729FD002146
:102A90004FF43D40FEF724FD78214BF60150FEF740
:102AA0001FFD00214BF60250FEF71AFD00214FF4E6
:102AB0003E40FEF715FD64214BF60160FEF710FD68
:102AC00000214FF45140FEF70BFD33214DF2011070
:102AD000FEF706FD00214DF20210FEF701FD342144
:102AE0004DF20310FEF7FCFC00214DF20410FEF73E
:102AF000F7FC3A214DF20510FEF7F2FC00214DF2F1
:102B00000610FEF7EDFC4A214DF20710FEF7E8FC37
:102B100000214DF20810FEF7E3FC5C214DF2091094
:102B2000FEF7DEFC00214DF20A10FEF7D9FC8121F0
:102B30004DF20B10FEF7D4FC00214DF20C10FEF705
:102B4000CFFCA6214DF20D10FEF7CAFC00214DF27C
:102B50000E10FEF7C5FCE5214DF20F10FEF7C0FC8C
:102B600001214DF21010FEF7BBFC13214DF21110A4
:102B7000FEF7B6FC01214DF21210FEF7B1FC542114
:102B80004DF21310FEF7ACFC01214DF21410FEF7CC
:102B9000A7FC82214DF21510FEF7A2FC01214DF297
:102BA0001610FEF79DFCCA214DF21710FEF798FC97
:102BB00002214DF21810FEF793FC00214DF219107E
:102BC000FEF78EFC02214DF21A10FEF789FC01215E
:102BD0004DF21B10FEF784FC02214DF21C10FEF793
:102BE0007FFC34214DF21D10FEF77AFC02214DF2DC
:102BF0001E10FEF775FC67214DF21F10FEF770FCEA
:102C000002214DF22010FEF76BFC84214DF22110C1
:102C1000FEF766FC02214DF22210FEF761FCA421B2
:102C20004DF22310FEF75CFC02214DF22410FEF75A
:102C300057FCB7214DF22510FEF752FC02214DF250
:102C40002610FEF74DFCCF214DF22710FEF748FC71
:102C500002214DF22810FEF743FCDE214DF229102F
:102C6000FEF73EFC02214DF22A10FEF739FCF2215C
:102C70004DF22B10FEF734FC02214DF22C10FEF722
:102C80002FFCFE214DF22D10FEF72AFC03214DF200
:102C90002E10FEF725FC10214DF22F10FEF720FC20
:102CA00003214DF23010FEF71BFC33214DF23110A1
:102CB000FEF716FC03214DF23210FEF711FC6D21D8
:102CC0004DF23310FEF70CFC00214FF45240FEF79A
:102CD00007FC33214DF20120FEF702FC00214DF2EA
:102CE0000220FEF7FDFB34214DF20320FEF7F8FB36
:102CF00000214DF20420FEF7F3FB3A214DF20520AE
:102D0000FEF7EEFB00214DF20620FEF7E9FB4A211B
:102D10004DF20720FEF7E4FB00214DF20820FEF7FC
:102D2000DFFB5C214DF20920FEF7DAFB00214DF2BA
:102D30000A20FEF7D5FB81214DF20B20FEF7D0FBD8
:102D400000214DF20C20FEF7CBFBA6214DF20D2009
:102D5000FEF7C6FB00214DF20E20FEF7C1FBE52178
:102D60004DF20F20FEF7BCFB01214DF21020FEF7C3
:102D7000B7FB13214DF21120FEF7B2FB01214DF2FA
:102D80001220FEF7ADFB54214DF21320FEF7A8FBF5
:102D900001214DF21420FEF7A3FB82214DF21520F4
:102DA000FEF79EFB01214DF21620FEF799FBCA218A
:102DB0004DF21720FEF794FB02214DF21820FEF78A
:102DC0008FFB00214DF21920FEF78AFB02214DF204
:102DD0001A20FEF785FB01214DF21B20FEF780FB38
:102DE00002214DF21C20FEF77BFB34214DF21D2009
:102DF000FEF776FB02214DF21E20FEF771FB6721E4
:102E00004DF21F20FEF76CFB02214DF22020FEF751
:102E100067FB84214DF22120FEF762FB02214DF277
:102E20002220FEF75DFBA4214DF22320FEF758FB84
:102E300002214DF22420FEF753FBB7214DF225204D
:102E4000FEF74EFB02214DF22620FEF749FBCF2173
:102E50004DF22720FEF744FB02214DF22820FEF719
:102E60003FFBDE214DF22920FEF73AFB02214DF215
:102E70002A20FEF735FBF2214DF22B20FEF730FB26
:102E800002214DF22C20FEF72BFBFE214DF22D20CE
:102E9000FEF726FB03214DF22E20FEF721FB102129
:102EA0004DF22F20FEF71CFB03214DF23020FEF7E0
:102EB00017FB33214DF23120FEF712FB03214DF2B7
:102EC0003220FEF70DFB6D214DF23320FEF708FB9B
:102ED00000214FF45340FEF703FB33214DF2013044
:102EE000FEF7FEFA00214DF20230FEF7F9FA342126
:102EF0004DF20330FEF7F4FA00214DF20430FEF7F4
:102F0000EFFA3A214DF20530FEF7EAFA00214DF2D0
:102F10000630FEF7E5FA4A214DF20730FEF7E0FAF7
:102F200000214DF20830FEF7DBFA5C214DF209304A
:102F3000FEF7D6FA00214DF20A30FEF7D1FA8121D0
:102F40004DF20B30FEF7CCFA00214DF20C30FEF7BB
:102F5000C7FAA6214DF20D30FEF7C2FA00214DF25C
:102F60000E30FEF7BDFAE5214DF20F30FEF7B8FA4C
:102F700001214DF21030FEF7B3FA13214DF211305A
:102F8000FEF7AEFA01214DF21230FEF7A9FA5421F4
:102F90004DF21330FEF7A4FA01214DF21430FEF782
:102FA0009FFA82214DF21530FEF79AFA01214DF277
:102FB0001630FEF795FACA214DF21730FEF790FA57
:102FC00002214DF21830FEF78BFA00214DF2193034
:102FD000FEF786FA02214DF21A30FEF781FA01213E
:102FE0004DF21B30FEF77CFA02214DF21C30FEF749
:102FF00077FA34214DF21D30FEF772FA02214DF2BC
:103000001E30FEF76DFA67214DF21F30FEF768FAA9
:1030100002214DF22030FEF763FA84214DF2213077
:10302000FEF75EFA02214DF22230FEF759FAA42192
:103030004DF22330FEF754FA02214DF22430FEF710
:103040004FFAB7214DF22530FEF74AFA02214DF230
:103050002630FEF745FACF214DF22730FEF740FA31
:1030600002214DF22830FEF73BFADE214DF22930E5
:10307000FEF736FA02214DF22A30FEF731FAF2213C
:103080004DF22B30FEF72CFA02214DF22C30FEF7D8
:1030900027FAFE214DF22D30FEF722FA03214DF2E0
:1030A0002E30FEF71DFA10214DF22F30FEF718FAE0
:1030B00003214DF23030FEF713FA33214DF2313057
:1030C000FEF70EFA03214DF23230FEF709FA6D21B8
:1030D0004DF23330FEF704FA00214FF45440FEF76E
:1030E000FFF933214DF2014000E084E3FEF7F8F9E7
:1030F00000214DF20240FEF7F3F934214DF2034076
:10310000FEF7EEF900214DF20440FEF7E9F93A210D
:103110004DF20540FEF7E4F900214DF20640FEF7BE
:10312000DFF94A214DF20740FEF7DAF900214DF2AE
:103130000840FEF7D5F95C214DF20940FEF7D0F9C1
:1031400000214DF20A40FEF7CBF981214DF20B40F0
:10315000FEF7C6F900214DF20C40FEF7C1F9A62199
:103160004DF20D40FEF7BCF900214DF20E40FEF786
:10317000B7F9E5214DF20F40FEF7B2F901214DF20A
:103180001040FEF7ADF913214DF21140FEF7A8F9FA
:1031900001214DF21240FEF7A3F954214DF21340E4
:1031A000FEF79EF901214DF21440FEF799F98221B4
:1031B0004DF21540FEF794F901214DF21640FEF74D
:1031C0008FF9CA214DF21740FEF78AF902214DF21C
:1031D0001840FEF785F900214DF21940FEF780F9FD
:1031E00002214DF21A40FEF77BF900E006E30121CF
:1031F0004DF21B40FEF774F902214DF21C40FEF720
:103200006FF934214DF21D40FEF76AF902214DF2AB
:103210001E40FEF765F967214DF21F40FEF760F989
:1032200002214DF22040FEF75BF984214DF221404E
:10323000FEF756F902214DF22240FEF751F9A42182
:103240004DF22340FEF74CF902214DF22440FEF7E7
:1032500047F9B7214DF22540FEF742F902214DF220
:103260002640FEF73DF9CF214DF22740FEF738F911
:1032700002214DF22840FEF733F9DE214DF22940BC
:10328000FEF72EF902214DF22A40FEF729F9F2212C
:103290004DF22B40FEF724F902214DF22C40FEF7AF
:1032A0001FF9FE214DF22D40FEF71AF903214DF2D0
:1032B0002E40FEF715F910214DF22F40FEF710F9C0
:1032C00003214DF23040FEF70BF933214DF231402E
:1032D000FEF706F903214DF23240FEF701F96D21A8
:1032E0004DF23340FEF7FCF800214FF45540FEF755
:1032F000F7F833214DF20150FEF7F2F800214DF2BC
:103300000250FEF7EDF834214DF20350FEF7E8F8D5
:1033100000214DF20450FEF7E3F83A214DF205503A
:10332000FEF7DEF800214DF20650FEF7D9F84A21EB
:103330004DF20750FEF7D4F800214DF20850FEF789
:10334000CFF85C214DF20950FEF7CAF800214DF28A
:103350000A50FEF7C5F881214DF20B50FEF7C0F878
:1033600000214DF20C50FEF7BBF8A6214DF20D5096
:10337000FEF7B6F800214DF20E50FEF7B1F8E52148
:103380004DF20F50FEF7ACF801214DF21050FEF750
:10339000A7F813214DF21150FEF7A2F801214DF2CA
:1033A0001250FEF79DF854214DF21350FEF798F895
:1033B00001214DF21450FEF793F882214DF2155081
:1033C000FEF78EF801214DF21650FEF789F8CA215A
:1033D0004DF21750FEF784F802214DF21850FEF717
:1033E0007FF800214DF21950FEF77AF802214DF2D4
:1033F0001A50FEF775F801214DF21B50FEF770F8D8
:1034000002214DF21C50FEF76BF834214DF21D5095
:10341000FEF766F802214DF21E50FEF761F86721B3
:103420004DF21F50FEF75CF802214DF22050FEF7DE
:1034300057F884214DF22150FEF752F802214DF247
:103440002250FEF74DF8A4214DF22350FEF748F824
:1034500002214DF22450FEF743F8B7214DF22550DA
:10346000FEF73EF802214DF22650FEF739F8CF2143
:103470004DF22750FEF734F802214DF22850FEF7A6
:103480002FF8DE214DF22950FEF72AF802214DF2E5
:103490002A50FEF725F8F2214DF22B50FEF720F8C6
:1034A00002214DF22C50FEF71BF8FE214DF22D505B
:1034B000FEF716F803214DF22E50FEF711F81021F9
:1034C0004DF22F50FEF70CF803214DF23050FEF76D
:1034D00007F833214DF23150FEF702F803214DF287
:1034E0003250FDF7FDFF6D214DF23350FDF7F8FF2F
:1034F00000214FF45640FDF7F3FF33214DF20160F8
:10350000FDF7EEFF00214DF20260FDF7E9FF3421E7
:103510004DF20360FDF7E4FF00214DF20460FDF77A
:10352000DFFF3A214DF20560FDF7DAFF00214DF291
:103530000660FDF7D5FF4A214DF20760FDF7D0FF89
:1035400000214DF20860FDF7CBFF5C214DF20960D0
:10355000FDF7C6FF00214DF20A60FDF7C1FF812192
:103560004DF20B60FDF7BCFF00214DF20C60FDF742
:10357000B7FFA6214DF20D60FDF7B2FF00214DF21D
:103580000E60FDF7ADFFE5214DF20F60FDF7A8FFDE
:1035900001214DF21060FDF7A3FF13214DF21160E0
:1035A000FDF79EFF01214DF21260FDF799FF5421B6
:1035B0004DF21360FDF794FF01214DF21460FDF709
:1035C0008FFF82214DF21560FDF78AFF01214DF238
:1035D0001660FDF785FFCA214DF21760FDF780FFE9
:1035E00002214DF21860FDF77BFF00214DF21960BA
:1035F000FDF776FF02214DF21A60FDF771FF012100
:103600004DF21B60FDF76CFF02214DF21C60FDF7CF
:1036100067FF34214DF21D60FDF762FF02214DF27C
:103620001E60FDF75DFF67214DF21F60FDF758FF3B
:1036300002214DF22060FDF753FF84214DF22160FD
:10364000FDF74EFF02214DF22260FDF749FFA42154
:103650004DF22360FDF744FF02214DF22460FDF797
:103660003FFFB7214DF22560FDF73AFF02214DF2F1
:103670002660FDF735FFCF214DF22760FDF730FFC3
:1036800002214DF22860FDF72BFFDE214DF229606B
:10369000FDF726FF02214DF22A60FDF721FFF221FE
:1036A0004DF22B60FDF71CFF02214DF22C60FDF75F
:1036B00017FFFE214DF22D60FDF712FF03214DF2A1
:1036C0002E60FDF70DFF10214DF22F60FDF708FF72
:1036D00003214DF23060FDF703FF33214DF23160DD
:1036E000FDF7FEFE03214DF23260FDF7F9FE6D217C
:1036F0004DF23360FDF7F4FE55211846FDF7F0FE5C
:10370000AA215046FDF7ECFE52215846FDF7E8FE8F
:1037100008214FF20300FDF7E3FE00214FF2040001
:10372000FDF7DEFECC214FF43140FDF7D9FE00213C
:103730004BF20110FDF7D4FE05214FF43640FDF7A2
:10374000CFFE70214FF43740FDF7CAFE70214BF2D7
:103750000170FDF7C5FE01214FF43840FDF7C0FEB2
:1037600003214BF60100FDF7BBFE03214BF60200DF
:10377000FDF7B6FE03214BF60300FDF7B1FE022173
:103780004FF43C40FDF7ACFE00214BF60140FDF745
:10379000A7FE00214BF60240FDF7A2FED0214FF418
:1037A0004940FDF79DFE02214CF60110FDF798FE01
:1037B00050214CF60210FDF793FE50214CF60310F9
:1037C000FDF78EFE50214CF60410FDF789FE002116
:1037D0004FF45450FDF784FE55214FF46850FDF727
:1037E0007FFE4FF48850FDF765FE7720401EC0B283
:1037F000FCD24FF42450FDF75DFEBAE04045FCD109
:10380000E220FDF757FE1D20FDF748FE0220FDF7E0
:1038100045FE0420FDF742FE6320401EC0B2FCD2EC
:10382000E020FDF747FE0120FDF738FE0A20FCF7F7
:103830006FFEE020FDF73EFE0320FDF72FFE0C207B
:10384000FCF766FE0120FDF735FE0A20FCF760FE5E
:10385000E620FDF72FFE2F20FDF720FEFF20FDF7CD
:103860001DFEFF20FDF71AFEB020FDF723FE2020ED
:10387000FDF714FE0020FDF711FE0320FDF70EFEFC
:1038800040F21F30FDF70AFE0120FDF707FE40F26F
:10389000DF10FDF703FE0020FDF700FEB420FDF76A
:1038A00009FE0420FDF7FAFD40F21F40FDF7F6FD8A
:1038B0000020FDF7F3FD2E20FDF7F0FD0020FDF7C1
:1038C000EDFD0020FDF7EAFD0020FDF7E7FD0020FB
:1038D000FDF7E4FDB620FDF7EDFD0220FDF7DEFD6E
:1038E0004FF40370FDF7DAFD0020FDF7D7FD172038
:1038F000FDF7D4FD1520FDF7D1FD0020FDF7CEFD2D
:103900000020FDF7CBFDF020FDF7D4FD0320FDF7EF
:10391000C5FD2920FDF7CEFDD020FDF7CBFD002011
:10392000FDF7BCFDBE20FDF7C5FD0520FDF7B6FD8A
:10393000FE20FDF7B3FD0120FDF7B0FD0020FDF7EF
:10394000ADFD0020FDF7AAFD0020FDF7A7FDB82082
:10395000FDF7B0FD0320FDF7A1FD0120FDF79EFD61
:10396000BA20FDF7A7FD0120FDF798FD6420FDF7C3
:103970000FFCA088B04205D0B84203D0A84201D0C5
:10398000404519D14FF02040D0F81C1121F00F0113
:10399000C0F81C11D0F81C1121F47061C0F81C1182
:1039A000D0F81C1141F00301C0F81C11D0F81C1113
:1039B00041F40071C0F81C110020FDF77FFA0548A2
:1039C000016841F4004101604846BDE8F05FFDF741
:1039D0005BBA000014040240FEE70907090E002844
:1039E00004DB00F1E02080F80014704700F00F00C5
:1039F00000F1E02080F8141D704708B5FCF7FAFECE
:103A0000FDF716FEFDF7B6FDFDF770FDFDF762FE52
:103A10004FF6FF70FDF738FA4FF6A854642221469E
:103A2000C820FDF72FFB4FF6D4654FF496762B4652
:103A3000324621466420FDF709FB48F230400090F1
:103A40002B46324621466420FDF774FBFEE700005A
:103A50004FEA1153A3F58063D3F11E03A8BFD3F13E
:103A6000200C08DB4FF0004242EAC12252EA5052D9
:103A700032FA03F0704709420BD4102BC4BF002068
:103A8000704703F5787CBCF1FF3F05D04FF0FF3065
:103A900070474FF00000704770B500F0C3F800BFEA
:103AA0004992248000207047F0E7B0FA80F310FAC2
:103AB00003F10AD0C3F11D0303F580634FEA4150BF
:103AC0004FEA035202EBD12170474FF000007047DC
:103AD000DFF848C170B51CEA111E1EBF1CEA1315A1
:103AE0009EEA0C0F95EA0C0F00F06F8081EA030448
:103AF00023EA4C134EEAD47E21EA4C1141F48011A2
:103B000043F48013AE44A1FB024CA0FB0365AEF16D
:103B10007F7E361955EB0C05A1FB034C4CF10003DD
:103B2000A0FB021C16EB0C06654153F10003094291
:103B300018BF46F0010613F4007F0BD14FEA0331A2
:103B40004FEA0530340341EA155140EA16506FF050
:103B500003020AE04FEAC3214FEAC520F40241EA1A
:103B6000555140EA56506FF0020202EB2E4201EB33
:103B7000025585EACE710AD05FEA440C18BF24F0E2
:103B8000004450F1000041F1000120EAD47040F2FD
:103B9000FE7C624500D270BDA84214BF4FF0804445
:103BA0004FF04044002E08BF0024BEF1806FA8BF34
:103BB000A1F1C041BDE8704080F282804FF000006A
:103BC00001F1C04101F0004170479EEA0C0F0CEA80
:103BD000131518BF95EA0C0F06D04FF0000081EACC
:103BE000030E0EF0004170BD00F01CF88900013E8C
:103BF00000F007B800F009B84FEA430C5FEA5C5CDC
:103C000008D081EA030100F05BB84FEA410C5FEA9B
:103C10005C5CF6D14FF00000014970470000FF07DF
:103C20000000F87F0EF1020E2EF0030E5EF8046B1A
:103C3000364205D4012A43EB030515F5001F12D8BF
:103C4000012841EB010C1CF5001F0CD80ED14FEAE6
:103C5000D17C15F5001F0CEB4C0C0CF1020C08BFCD
:103C60004CEBD37C04E04FF0080C01E04FEAD37C2E
:103C70000CEB4C0526FA05F606F00706B6F1040C27
:103C800006D20EEB860CBDE870404CF0010C60478C
:103C9000DFE80CF0090B02024FF000414FF000008A
:103CA000A1F5002170BD19461046012851EB010411
:103CB00018BFD4F5001484BF002001F0004170BD8E
:103CC0000808A0F500114FEA310170474FF040702D
:103CD000E1EE100A70470000000000000000010241
:103CE0000304060708090000083D00080000002042
:103CF00020000000C4010008283D0008200000202A
:103D0000C0060000E0010008000000FFFFFFFFFF09
:103D10000000000000000000010000001000000092
:083D2000000000000024F40083
:040000050800018965
:00000001FF
