:020000040800F2
:10000000B0050020F10100083F3000082727000854
:100010003D3000086D0800086D3A0008000000003F
:10002000000000000000000000000000F93300089C
:100030006F0800080000000041300008FB33000892
:100040000B0200080B0200080B0200080B0200085C
:100050000B0200080B0200080B0200080B0200084C
:100060000B0200080B0200080B0200080B0200083C
:100070000B0200080B0200080B0200080B0200082C
:100080000B020008000000000B0200080B02000831
:100090000B0200080B0200080B0200080B0200080C
:1000A0000B0200080B0200080B0200080B020008FC
:1000B0000B0200080B0200080B0200080B020008EC
:1000C0000B0200080B0200080B0200080B020008DC
:1000D0000B020008613A00080B0200080B0200083E
:1000E0000B0200080B0200080B0200080B020008BC
:1000F0000B0200080B0200080B02000800000000C1
:10010000000000000B020008000000000B020008C5
:100110000B020008000000000B0200087534000804
:100120000B0200080B0200080B0200080B0200087B
:100130000B02000800000000000000000B02000895
:100140000B0200080B020008000000000000000085
:10015000000000000000000000000000000000009F
:100160000000000000000000000000000B0200087A
:100170000B0200080000000000000000000000006A
:10018000000000000B02000800000000000000005A
:10019000000000000000000000000000000000005F
:1001A00000000000000000000B0200080B02000825
:1001B0000B0200080B0200080B0200080000000000
:1001C000000000000B02000800000000000000001A
:1001D0000B0200080B020008DFF810D000F0CCFA88
:1001E0000048004729450008AFF30080B005002013
:1001F0000648804706480047FEE7FEE7FEE7FEE7C1
:10020000FEE7FEE7FEE7FEE7FEE7FEE765340008EF
:10021000D90100082DE9F05F0546002092469B4673
:1002200088460646814640241BE02846414647460C
:10023000224600F0EEF853465A46C01A914110D3B8
:1002400011461846224600F0D5F82D1A67EB010832
:100250004F4622460120002100F0CCF817EB0009A0
:100260004E41201EA4F10104DFDC484631462A46F7
:100270004346BDE8F09FD2B201E000F8012B491ED1
:10028000FBD270470022F6E710B513460A46044633
:100290001946FFF7F0FF204610BD2DE9FE4F81EA19
:1002A000030404F0004421F0004100944FF0000BDF
:1002B00023F0004350EA01045ED052EA03045BD00D
:1002C000C3F30A54C1F30A552C44A4F2F334019445
:1002D000A0FB0254C1F3130141F48011C3F31303D3
:1002E00043F4801301FB024400FB034E840A970A87
:1002F00044EA815447EA8357A4FB076802958D0AB4
:1003000005FB07854FEA932C04FB0C542705029D3F
:100310004FEA065847EA1637B5EB08056EEB070CAF
:10032000870E920E47EA811742EA8312A7FB020169
:10033000B6EB0B0164EB00042B0D43EA0C335E18A3
:1003400044EB1C50DA465146E7FB0201C5F31304A7
:100350004FEA0B3343EA14534FEA0432019C43EA59
:100360000603A4F10C040294009CCDE900B400F053
:100370006FF803B0BDE8F08F00200146F9E70EB535
:1003800040F2334102910021CDE900110A460B46AB
:1003900000F05EF803B000BD30B5041E71F100043A
:1003A00004DB4FF00044404264EB0101141E73F182
:1003B000000405DB1C464FF00043524263EB04038C
:1003C0008B4208BF824230BD30B50B46014600204B
:1003D0002022012409E021FA02F59D4205D303FA07
:1003E00002F5491B04FA02F52844151EA2F1010288
:1003F000F1DC30BD202A04DB203A00FA02F10020B3
:1004000070479140C2F1200320FA03F31943904052
:100410007047202A04DB203A21FA02F000217047BD
:1004200021FA02F3D040C2F120029140084319465C
:10043000704710B5141E73F1000408DA401C41F136
:10044000000192185B411A4301D120F0010010BD58
:100450002DE9F04D92469B4611B1B1FA81F202E0CE
:10046000B0FA80F220329046FFF7C4FF04460F46F0
:1004700040EA0A0041EA0B0153465A46084313D0AA
:10048000114653EA010019D0C8F140025046FFF767
:10049000C0FF05460E46504659464246FFF7AAFFA2
:1004A000084305D0012004E020463946BDE8F08D20
:1004B0000020054346EAE0762C4337430A9863055B
:1004C000E40AA0EB08000022FD0A44EA47540A307F
:1004D00002D500200146E9E7010510196941DDE96F
:1004E000084500196941BDE8F04DA2E72DE9FE4F2E
:1004F000804681EA0300C00F0C46009021F00041C5
:1005000023F00045B8EB0200A94105D24046214640
:1005100090461C460B46024623F00040104347D04D
:10052000270DC7F30A00C3F30A510290401A019045
:1005300040286BDAC3F3130040F4801B0098924606
:1005400020B10023D2EB030A63EB0B0B0198594651
:10055000C0F140025046FFF74DFF06460D4650469B
:100560005946019A00F01AF910EB08006141002485
:1005700087EA115284EAE7731A4340D0009A62B3C3
:10058000019A012A4FEA075215DC001B61EB0201B8
:100590004FF0004202EA0752CDE90042001C41F54B
:1005A000801132462B46FFF753FF03B0BDE8F08FB2
:1005B00040462146F9E7001B61EB0201001C41F5B2
:1005C000801300185B412018A2F5001747EB0301C8
:1005D00040EAD570B6196D4111E06D084FEA360654
:1005E00045EAC0754FEA0752001B61EB0201001C8F
:1005F00041F5801149084FEA300000195141324657
:100600002B4603B0BDE8F04FFFF713BF009801225F
:1006100040000023D0EB020263EBE0730098214618
:100620004FEAE074B8EB000061EB0401E9E783F006
:1006300000435BE781F0004158E72DE9F04D81EA86
:10064000030404F0004B21F0004514464FF0000A6B
:1006500023F0004150EA050220D054EA01021DD0E7
:10066000C5F30A570246C5F31303C1F31300C1F3E0
:100670000A5640F4801543F48013A7EB0608101BBC
:10068000D64608F2FD3873EB050002D308F10108E5
:1006900001E092185B41B8F1000F03DA0020014637
:1006A000BDE8F08D00204FF48011064684460EE030
:1006B000171B73EB050705D3121B63EB05030643FA
:1006C0004CEA010C49084FEA300092185B4150EAAD
:1006D0000107EDD152EA030012D082EA040083EA56
:1006E0000501084305D0101BAB4106D201220023AF
:1006F00006E000224FF0004302E06FF001025310C9
:100700001AEB06004CEB085110EB0A0041EB0B0111
:10071000BDE8F04DFFF78DBEC1F30A52C1F31301DE
:1007200040F2FF3341F480119A4202DA0020014680
:10073000704740F233439A42A2F2334202DC524203
:10074000FFF767BEFFF756BE30B5041E71F1000417
:1007500004DB4FF00044404264EB0101141E73F1CE
:10076000000405DB1C464FF00043524263EB0403D8
:10077000994208BF904230BD064C074D06E0E06844
:1007800040F0010394E8070098471034AC42F6D3D8
:10079000FFF726FD645A0008845A0008202A06DB69
:1007A000CB17203A41FA02F043EAE07306E041FA3F
:1007B00002F3D040C2F1200291400843194670472D
:1007C000F8B50446002000902068816811F0010F00
:1007D00041D18168214A11422ED18168D5432940F7
:1007E000491C81601E48806800F0E07000020DD551
:1007F0001C481D490068B0FBF1F0401C00EB4000B4
:10080000800000E0401E00900028FBD100F0B8FD01
:1008100006461BE0816811F0010F03D18168294071
:10082000491C816000F0ACFD801B02280ED92068B5
:100830000068C043C00709D0E06D40F01000E065DB
:10084000206E40F0010020660120F8BD206801689C
:10085000C943C907DED10020F8BD00003F00008079
:100860000003005024000020400D0300FEE7704705
:10087000002240F6B83306E00021491C89B29942B3
:10088000FBD3521C92B28242F6D3704772B6FEE797
:100890002DE9F84F00270446009790F85800DFF83C
:1008A000E0930D46B846012811D0012684F858601F
:1008B000206802F083FA60B1E06D40F02000E0654E
:1008C0005FF0010784F858803846BDE8F88F0220B1
:1008D000FBE7D5E900210C23206803EA91131844B3
:1008E000036B01F01F014FF01F0C0CFA01FCC2F367
:1008F000846223EA0C038A4013430363206802F0F6
:100900005DFA8246206802F055FA5AEA00003CD1AE
:10091000AA6829682068B2F1004F37D002F052FA75
:100920002068416921F00041416120686969C2681D
:10093000C2F3C102520091402A69042A31D000EB6F
:1009400082002B68026EDFF83CC303F0F84302EA32
:100950000C020B431A4342F00041016620682A69E9
:10096000A96900EB8200026E22F080720A430266DF
:10097000297F22682869012910D0002102EB80001C
:10098000026E22F000720A4302667DE0002202F04D
:1009900019FA2068416941F00041C5E74FF0007144
:1009A000ECE7002102F000FA400320684FF000015C
:1009B00072D002F0F9F990FAA0F0B0FA80F128684C
:1009C00042036ED090FAA0F0B0FA80F0814204D1D8
:1009D00000221146206802F004FA0121206802F08A
:1009E000E3F9400320684FF001015DD002F0DCF92B
:1009F00090FAA0F0B0FA80F12868420359D090FA3A
:100A0000A0F0B0FA80F0814204D1002201212068D8
:100A100002F0E7F90221206802F0C6F940032068DD
:100A20004FF0020148D002F0BFF990FAA0F0B0FAFE
:100A300080F12868420344D090FAA0F0B0FA80F028
:100A4000814204D100220221206802F0CAF9032168
:100A5000206802F0A9F9400320684FF0030133D069
:100A600002F0A2F990FAA0F0B0FA80F128684203EF
:100A70002FD090FAA0F0B0FA80F0814204D1002289
:100A80000321206802F0ADF92068816811F0010FA0
:100A900022D0ACE000E004E002F086F9C0F384610B
:100AA0008DE7C0F3846091E702F07EF9C0F38461C2
:100AB000A2E7C0F38460A6E702F076F9C0F3846190
:100AC000B7E7C0F38460BBE702F06EF9C0F384615E
:100AD000CCE7C0F38460D0E72A7B296850F8B03FA8
:100AE000C1F3120C23EA0C0302F0180C664A22FA36
:100AF0000CF20A4013430360E968494577D128683E
:100B000041031CD090FAA0F1B1FA81F1491C01F027
:100B10001F0109294FEA403132D8002912D000BF05
:100B200090FAA0F1B1FA81F101F1010101F01F0188
:100B300006FA01F609D100BFC0F3846109E0C0F3F1
:100B40008461E3E7C0F38461EEE790FAA0F1B1FAC3
:100B500081F101F1010101F01F0146EA816102D139
:100B6000C0F3846003E090FAA0F0B0FA80F000F1E6
:100B7000010000F01F0000EB400041EA005132E0AC
:100B800000290ED090FAA0F1B1FA81F101F1010132
:100B900001F01F0106FA01F606D100BFC0F384611F
:100BA00006E0C0F38461F1E790FAA0F1B1FA81F1B7
:100BB00001F1010101F01F0146EA816102D1C0F398
:100BC000846003E090FAA0F0B0FA80F000F1010038
:100BD00000F01F002D4A00EB400002EB005041EAFC
:100BE000000141F00071AA68206802F0EBF8284883
:100BF0002A6802423FF466AE26488168264B01F01F
:100C0000E0719A4202D0254B9A421CD10B021AD4B1
:100C10002268B2F1A04F7FF455AE826841F4000122
:100C200022F0E0720A4382601D481E490068B0FB52
:100C3000F1F0401C00EB4000800000E0401E0090FE
:100C40000028FBD13EE6184D184BAA4207D1CD0132
:100C500005D422689A42F5D041F0807109E0144D24
:100C6000AA42EFD14A02EDD422689A42EAD041F476
:100C70008001826822F0E0720A43826022E600006E
:100C800000007F4000F0FF03FFFF0700000020FE90
:100C90000000088000030050000021C31000C09035
:100CA00024000020400D0300000052C70001005046
:100CB000000084CB0068006C70470000F8B54FF06E
:100CC000000504002E46009502D0E06D10B107E04B
:100CD0000120F8BD204600F0EBF8266684F8586045
:100CE00020688168C1F3407119B18168684A114078
:100CF000816020688168C1F3007189B98168654AA3
:100D0000114041F080518160634864490068B0FB44
:100D1000F1F04000801C00E0401E00900028FBD154
:100D200020688168C1F3007141B9E16D41F01001A3
:100D3000E165216E41F001012166012502F03EF8D6
:100D4000E16DC90600D430B1E06D40F01000E065FF
:100D500001252846F8BDE06D20F4807040F00200C7
:100D6000E0652068806810F0010F11D14FF0A040BD
:100D700080684B4900F00100896801F001010843D7
:100D800006D148486168826822F47C120A43826076
:100D9000E168E06B627F0843A16841EA42310843A1
:100DA00094F8241040EA0140012904D1218D3E4AE3
:100DB00002EB41410843E16A29B101F47871226BE9
:100DC000014342EA01002268D168384B19400143CF
:100DD000D16020680169626B21F0406111430161BB
:100DE000206801F0E7FF70BB207F94F83810800383
:100DF00040EA41022168C86844F202039843104364
:100E0000C86020690028206801690AD041F4803157
:100E10000161206850F8C01F22696FF30D01114372
:100E200007E021F480310161206850F8C01F6FF3A2
:100E30000D01016094F8400001280CD02068016980
:100E400021F001010161606901282068016B21F036
:100E50000F0111D013E0D4E911010843D4E91312B2
:100E60001143084321680A6940F2FC739A43104316
:100E700040F001000861E6E7226A521E1143016357
:100E8000E06D20F0020040F00100E06561E7000045
:100E9000C0FFFF5FC0FFFF7F24000020400D030064
:100EA00000010050000300500000FEFF0740F0FF6B
:100EB00010B598B00446142111A8FFF7E3F94421B6
:100EC0006846FFF7DFF915492068884223D1C4013D
:100ED000400500940F90684600F050FB08B1FFF702
:100EE000D5FC0F48C16C41F40051C164C16C01F4E0
:100EF00000511691C16C41F00201C164C06C11A98E
:100F000000F0020016900320CDE91140002013905C
:100F1000044800F007F918B010BD000000010050AF
:100F200000100240000400482DE9F0410446384812
:100F3000806800F01F05206801F040FF18B1022111
:100F40000846BDE8F08194F8580001280CD0012033
:100F500084F858002046FFF733FC01004FF00003EF
:100F600004D084F85830EBE70220EAE7E06D40F661
:100F70000162904340F48070E065264A20684FF09B
:100F8000A046904201D1374600E00746874200D094
:100F90001DB9E76D27F48017E765E76DFF0404D5F9
:100FA000276E27F00607276600E023661C270760E8
:100FB00084F858302068904201D1334600E003465F
:100FC000834215D0A5B1052D12D0092D10D0E36DA7
:100FD00043F48013E365904200D13046C06880013D
:100FE000AED5E06D20F4005040F48050E065A7E7F6
:100FF000C268920105D5E26D22F4005242F480529B
:10100000E2658268044B1A40121D826098E7000076
:101010000003005000010050C0FFFF7F10B590F8A2
:10102000253000210122022B03D00421C1630121BC
:1010300022E003681C6824F00E041C60836C1C68AA
:1010400024F480741C6003681C6824F001041C6094
:1010500090F84430046C03F01F0302FA03F363605A
:10106000D0E913345C60436D33B11C6824F48074A0
:101070001C60D0E916345C6080F82520002280F8DE
:101080002420084610BD70B590F8252000240121C9
:101090002346022A07D00422C26380F8251080F874
:1010A0002430012429E00268156825F00E0515603A
:1010B0000268156825F001051560826C156825F435
:1010C0008075156090F84420056C02F01F0201FA4B
:1010D00002F26A60D0E913255560426D32B115689D
:1010E00025F480751560D0E91625556080F8251027
:1010F00080F82430816B01B18847204670BD000024
:1011000070B5044600F03CF90546601C02D0044866
:101110004068044400F034F9401BA042FAD370BD8B
:10112000180000202DE9F04FDFF82092002301265F
:101130000324A9F1040B85B00F2709F1040AABF1D0
:10114000040EFAE006FA03F52A407CD091F804C0B8
:101150000CF0030CBCF1010F02D0BCF1020F26D140
:10116000D0F808C0CDF800C04FEA430C04FA0CF8E0
:10117000CDF810C0DDF800C02CEA080CCDF800C096
:10118000D1F80C80DDF810C008FA0CF8DDF800C0CA
:1011900048EA0C08C0F80880D0F804C02CEA050C16
:1011A0000D79C5F300159D4045EA0C0545600D79A4
:1011B000ED43AD070ED0C5684FEA430804FA08FCBA
:1011C00025EA0C05D1F808C00CFA08FC4CEA050C1D
:1011D000C0F80CC00D7905F00305022D16D1DD080D
:1011E00000EB850CCDF808C0DCF820805D074FEAE5
:1011F000D56C07FA0CF528EA05080D6905FA0CF517
:10120000DDF808C045EA0805CCF8205005684FEA2B
:10121000430CCDF808C004FA0CFC25EA0C0591F843
:1012200004C00CF00308DDF808C008FA0CF848EA1E
:101230000508C0F800804D6815F4403F7CD0444D4F
:10124000D5F860C000E077E04CF0010CC5F860C054
:101250002D6E23F0030C05F0010500953D4D65440E
:101260000295AD684FEA837C4FEA1C7807FA08FCC8
:1012700025EA0C05B0F1904F06D0DFF8DCC06045E0
:1012800005D14FF0010C20E04FF0000C1DE0DFF81D
:10129000CCC0604502D14FF0020C16E0DFF8C0C0B0
:1012A000604502D14FF0030C0FE0DFF8B8C0604595
:1012B00002D14FF0040C08E0DFF8ACC0604502D169
:1012C0004FF0050C01E04FF0060C0CFA08FC4CEA5C
:1012D000050C029DC5F808C0D9F80050CC46D1F8DD
:1012E000048095435FEAC82800D51543CCF8005028
:1012F000DAF80050D446D1F8048095435FEA882894
:1013000000D51543CCF80050DBF80050DC46D1F88E
:10131000048095435FEA883800D51543CCF8005027
:10132000DEF80050F446D1F8048095435FEAC838EF
:1013300000D51543CCF800505B1C0A6832FA03F55F
:101340007FF400AF05B0BDE8F08F00000804014055
:10135000001002400000014000040048000800485E
:10136000000C0048001000480014004800690840C4
:1013700000D0012070470AB18161704781627047D7
:10138000014880687047000018000020024881680A
:1013900042681144816070471800002010B5002495
:1013A000032000F073F80F2000F008F808B10124C2
:1013B00001E000F025F8204610BD000070B50E4E8B
:1013C00005460024706898B14FF47A71B1FBF0F0D3
:1013D0000A490968B1FBF0F000F060FD40B9102D3A
:1013E00006D200222946501E00F030F8356000E099
:1013F0000124204670BD00001800002024000020B9
:101400000A4882B0016E41F001010166016E01F0EF
:1014100001010091816D41F080518165806D00F086
:101420008050009002B000F0A1B80000001002400F
:10143000002809DB00F01F020121914040098000D3
:1014400000F1E020C0F8001170470000F0B40E4B2E
:101450001B680C46C3F30223C3F10705042D00D912
:101460000425191D072901D2002300E0DB1E0126F7
:1014700006FA05F1491E214099409E40761E16400D
:101480003143F0BC02F008BB0CED00E0064900F06F
:10149000070208684FF6FF03184040EA0220034A9B
:1014A00010430860704700000CED00E00000FA05F2
:1014B0002B492C4B0A6832214A432B4940B1B0F5E5
:1014C000007F086829D020F4C06040F480602CE0E0
:1014D0000868C0F34120022804D051F8800F20F49E
:1014E000807022E0D1F8800020F48070C1F8800084
:1014F000086820F4C06040F400700860B2FBF3F0AC
:10150000401C00E0401E4A69520501D50028F9D16F
:10151000486940050AD503207047C0F341200228DE
:1015200006D051F8800F40F48070086000207047AA
:10153000D1F8800040F48070C1F88000086820F481
:10154000C06040F400700860B2FBF3F0401C00E0A3
:10155000401E4A695205DBD50028F9D1D8E70000C2
:101560002400002040420F000070004002488168C3
:1015700041F4804181607047007000402DE9F843DC
:101580000446006800269D4D00035ED5A86D002727
:10159000C00008D4A86D40F08050A865A86D012750
:1015A00000F080500090DFF85892D9F8001041F414
:1015B0008071C9F80010FFF7E3FE804606E000BF27
:1015C000FFF7DEFEA0EB080002282BD8D9F80000B8
:1015D000C005F5D5D5F8900010F4407014D0216CFA
:1015E000814211D0D5F89000D5F8901020F44070C9
:1015F00041F48031C5F89010D5F8901021F4803175
:10160000C5F89010C5F89000C00711D0FFF7B8FEDC
:10161000804641F2883907E0FFF7B2FEA0EB0801EF
:10162000494501D903260BE0D5F890008007F3D592
:10163000D5F89000216C20F440700843C5F8900064
:101640001FB1A86D20F08050A8652078C00707D092
:10165000D5F88800616820F003000843C5F88800C9
:101660002078800707D5D5F88800A16820F00C0005
:101670000843C5F888002078400707D5D5F88800CA
:10168000E16820F030000843C5F8880020780007A2
:1016900007D5D5F88800216920F0C0000843C5F8B7
:1016A00088002078800607D5D5F88800616920F485
:1016B00040600843C5F888002078400607D5D5F873
:1016C0008800A16920F440500843C5F888002078BC
:1016D000000607D5D5F88800E16920F440400843AA
:1016E000C5F888002088C00507D5D5F88800216A8C
:1016F00020F440300843C5F888002088800507D5CD
:10170000D5F88800616A20F440200843C5F88800B5
:10171000208840050FD5D5F88800A16A20F4401034
:101720000843C5F88800A06AB0F5801F03D1E868B7
:1017300040F48010E860208800050FD5D5F88800B7
:10174000E16A20F440000843C5F88800E06AB0F57B
:10175000800F03D1E86840F48010E8602088C0045E
:101760000FD5D5F88800216B20F040700843C5F8EC
:101770008800206BB0F1807F03D1E86840F48010CE
:10178000E86020884FF0006180040ED5D5F888000D
:10179000626B20F040601043C5F88800606B88429F
:1017A00003D1E86840F48010E860208840040ED53A
:1017B000D5F88800A26B20F040601043C5F888007F
:1017C000A06B884203D1E86840F48010E86020886C
:1017D00000040FD5D5F88800E16B20F04050084395
:1017E000C5F88800E06BB0F1805F03D1E86840F491
:1017F0008030E8603046BDE8F88300000010024009
:10180000007000402DE9F0470E4605004FF000073C
:1018100025D0DFF8AC81D8F8000000F00F00B0420E
:101820000CD2D8F8001021F00F013143C8F8001095
:10183000D8F8000000F00F00B04210D12968614CC8
:10184000C80741F2883A5AD06868DFF87C910328CB
:1018500008D0022820682DD0400500282CDB01206C
:10186000BDE8F08720688001F9D5E06800F0030248
:10187000E068C0F30310401C032A19D0534A00BF8C
:10188000B2FBF0F0E268C2F306225043E268C2F312
:101890004162521C5200B0FBF2F0484517D9A068D3
:1018A00010F0F00F0CD0880711D5A86840B10EE0F9
:1018B000474AE5E78003D0E700F0B6F8484506D987
:1018C000A06820F0F00040F08000A0608027A068B1
:1018D000696820F003000843A060FFF751FD8146CE
:1018E00006E000BFFFF74CFDA0EB090151453AD8D7
:1018F000A068696800F00C00B0EB810FF2D1286895
:10190000810714D5400703D5A06840F4E060A060CB
:101910002878000705D5A06820F4605040F4E06006
:10192000A060A068A96820F0F000084304E0802FC0
:1019300003D1A06820F0F000A060D8F80010404665
:1019400001F00F01B14216D9016821F00F013143B6
:101950000160FFF715FD074607E000BFFFF710FD28
:10196000C11B514501D903207AE7D8F8000000F0E7
:101970000F00B042F2D12878400705D5A068E96889
:1019800020F4E0600843A0602878000706D5A0682E
:10199000296920F4605040EAC100A06000F044F8DA
:1019A000A1680C4AC1F30311515C01F01F01C8404A
:1019B0000949086009480068BDE8F047FFF7FEBC28
:1019C000002002400010024000B4C4040024F400CF
:1019D00000366E014C5A0008240000201800002038
:1019E0000548064900688968054AC1F30221515C2F
:1019F00001F01F01C8407047240000200010024081
:101A00005C5A00080548064900688968054AC1F320
:101A1000C221515C01F01F01C84070472400002022
:101A2000001002405C5A0008184910B58868C0F3DD
:101A300081021748012A0BD08A68164BC2F3810233
:101A4000022A06D08A68C2F38102032A03D000204A
:101A500010BD184610BDCA6802F00304CA68C2F37C
:101A60000312521C032C02D0B0FBF2F001E0B3FBD6
:101A7000F2F0CA68C968C2F306225043C1F341615B
:101A8000491C4900B0FBF1F010BD000000100240FD
:101A90000024F40000366E012DE9F84304007AD0EA
:101AA0002078F84DC00747D0A868E96800F00C001E
:101AB00001F003010C2802D0082817D001E0032907
:101AC00014D06068B0F5803F17D0B0F5A02F28681B
:101AD00017D020F480302860286820F48020286007
:101AE0006068E0B1FFF74CFC064614E0286880030C
:101AF00022D560680028D2D01EE0286840F48030EB
:101B0000EDE740F480202860F7E700BFFFF738FCDE
:101B1000801B642870D828688003F7D50CE0FFF795
:101B20002FFC064605E000BFFFF72AFC801B642857
:101B3000F0D828688003F7D4207880074CD5A868AF
:101B4000E96800F00C0001F003010C2802D0042821
:101B50000DD001E002290AD0E068002828682BD0C7
:101B600040F480702860FFF70BFC064619E02868F7
:101B7000400502D5E068002891D06868217C20F0FB
:101B8000FE4040EA01606860BF480068FFF716FC4D
:101B9000002800D120E072E1FFF7F2FB801B022851
:101BA000B8D828684005F7D56868217C20F0FE4049
:101BB00040EA016068600FE020F480702860FFF761
:101BC000DFFB064605E000BFFFF7DAFB801B0228BB
:101BD000A0D828684005F7D42078000729D5606987
:101BE0000028D5F8940013D040F00100C5F8940007
:101BF000FFF7C6FB064606E090E000BFFFF7C0FB1C
:101C0000801B022886D8D5F894008007F6D510E00E
:101C100020F00100C5F89400FFF7B2FB064604E08F
:101C2000FFF7AEFB801B022878D8D5F89400800718
:101C3000F6D42078400761D5A86D0026C00008D4EE
:101C4000A86D40F08050A865A86D012600F0805076
:101C500000908E480168C90511D40168804641F49E
:101C600080710160FFF78CFB074604E0FFF788FBFB
:101C7000C01B022852D8D8F80000C005F6D5A068CD
:101C8000012815D00528D5F8900016D020F00100C5
:101C9000C5F89000D5F8900020F00400C5F8900039
:101CA000A06841F28838B8B1FFF76AFB07460EE03A
:101CB000D5F8900040F00100F0E740F00400C5F8CE
:101CC0009000F5E7FFF75CFBC11B414526D8D5F82E
:101CD00090008007F6D50CE0FFF752FB074604E0C2
:101CE000FFF74EFBC11B414518D8D5F8900080077F
:101CF000F6D41EB1A86D20F08050A865207880062B
:101D000029D5A0690028D5F8980013D040F001002B
:101D1000C5F89800FFF734FB064606E075E000BF03
:101D2000FFF72EFB801B02286FD8D5F8980080079C
:101D3000F6D510E020F00100C5F89800FFF720FB71
:101D4000064604E0FFF71CFB801B02285DD8D5F88F
:101D500098008007F6D4E069F0B3A968C1F3810167
:101D600003295DD00228286820F08070286003D005
:101D7000FFF706FB04464BE0FFF702FB064604E0D4
:101D8000FFF7FEFA801B02283FD828688001F7D4AD
:101D9000F4E908016FF00F0202EB01110843218AF8
:101DA0005204490802EB4151A26841EA022108436A
:101DB000217D4FF07E42490802EB41610843217BBF
:101DC00040EAC160E968324A11400843E860286887
:101DD00040F08070286000E05EE0E86840F08070CD
:101DE000E860FFF7CDFA044605E000BFFFF7C8FA48
:101DF000001B022809D828688001F7D54CE000BFF5
:101E0000FFF7BEFA001B022802D90320BDE8F883C1
:101E100028688001F4D4E8681E490840E8603BE087
:101E20000128F3D0E868226A00F00301914226D12C
:101E3000616A00F0F0020901103991421FD1A26AD3
:101E400000F4FE41B1EB022F19D194F82C2000F0E0
:101E50007841B1EBC26F12D1218E00F4C002490863
:101E60004905A1F50011914209D194F8341000F010
:101E7000C06049084906A1F1007181420CD00120DF
:101E8000C4E700000010024018000020007000406D
:101E90000C809F01FCFFEEFE0020B7E710B5401E4E
:101EA000B0F1807F01D3012010BD4FF0E0246061CC
:101EB0000F21601701F0F0FD0020A06107202061D4
:101EC000002010BD704770477047704770477047DB
:101ED000F0B590F83C20012A3AD0012580F83C501A
:101EE000022280F83D2003685A689C68194E1A4FF8
:101EF000B34201D0BB4204D122F4700C4A6842EADA
:101F00000C02DFF858C002EA0C02D1F800C04CEA1B
:101F1000020CC3F804C00268B2420DD0B2F1804F87
:101F20000AD00F4B9A4207D00E4B9A4204D0BA42C5
:101F300002D00D4B9A4204D1896824F080031943E2
:101F4000916080F83D50002180F83C100846F0BDBB
:101F50000220F0BD002C0140003401408FFFFFFD46
:101F6000000400400008004000400140704710B5E8
:101F7000040003D094F83D0010B107E0012010BD2B
:101F8000002084F83C00204600F022F8022084F86B
:101F90003D00211D206801F073FA012084F84800FB
:101FA00084F83E0084F83F0084F8400084F8410043
:101FB00084F8420084F8430084F8440084F8450023
:101FC00084F8460084F8470084F83D00002010BDE6
:101FD00008B500680B49884212D10B48816D41F069
:101FE00020018165806D002200F0200000901146E4
:101FF0003720FFF72BFABDE808403720FFF718BA63
:1020000008BD0000001400400010024090F83D1090
:10201000012901D001207047022180F83D1001689C
:10202000CA6842F00102CA600068104988420ED0B6
:10203000B0F1804F0BD00E49884208D00D4988423C
:1020400005D00D49884202D00C49884207D18168E9
:102050000B4A1140062906D0B1F5803F03D0016834
:1020600041F001010160002070470000002C014098
:1020700000040040000800400034014000400140DE
:102080000700010070472DE9F04104460068C6686A
:1020900005694FF00007A90713D5B10711D5F91E3F
:1020A000016101202077206880698007204602D0E6
:1020B000FFF7E8FF04E000F0B7F8204600F0B5F8BD
:1020C0002777680716D5700714D521686FF00400CC
:1020D0000861022020772068806910F4407F204644
:1020E00002D0FFF7CFFF04E000F09EF8204600F09A
:1020F0009CF82777280715D5300713D521686FF08E
:1021000008000861042020772068C0698007204605
:1021100002D0FFF7B7FF04E000F086F8204600F099
:1021200084F82777E80616D5F00614D521686FF0F5
:1021300010000861082020772068C06910F4407FF3
:10214000204602D0FFF79EFF04E000F06DF8204625
:1021500000F06BF82777E80708D0F00706D0216871
:102160006FF001000861204600F060F8280601D4F5
:10217000A80408D5300606D521686FF4025008611E
:102180002046FFF7A0FEE80508D5300606D52168F1
:102190006FF4807008612046FFF794FE680608D54A
:1021A000700606D521686FF040000861204600F0F7
:1021B0003EF8A80608D5B00606D521686FF02000C5
:1021C00008612046FFF780FEE80208D5F00206D538
:1021D00021686FF4801008612046FFF777FEA8029F
:1021E00008D5B00206D521686FF4001008612046BA
:1021F000FFF76BFE680208D5700206D521686FF400
:10220000800008612046FFF762FE28020AD53002EE
:1022100008D521686FF4000008612046BDE8F04150
:10222000FFF7A4BEBDE8F081704770477047704764
:1022300090F88410012918D0012180F884102421FD
:10224000C0F8881001680A680B6823F001030B606E
:1022500022F0005100224266036819602021C0F874
:10226000881080F88420104670470220704770471D
:10227000704770B5044690F8840001281DD00120F5
:1022800084F884002420C4F8880020680568026867
:1022900022F0010202602068826822F060620A4334
:1022A0008260204601F04AF9206805602020C4F8C9
:1022B0008800002084F8840070BD022070BD70B5D5
:1022C000044690F8840001281DD0012084F8840081
:1022D0002420C4F8880020680568026822F0010202
:1022E00002602068826822F060420A4382602046D1
:1022F00001F024F9206805602020C4F8880000203F
:1023000084F8840070BD022070BD7047704770472C
:102310002DE9F04103680446D86919689A6840F6C7
:102320000F0528424FF000054FF002060AD187063C
:102330007ED501F0200702F0805C57EA0C0777D0C9
:10234000616F42E1B64FDFF8DCC2174001EA0C0CC6
:1023500057EA0C0C6CD05FEAC07C0CD05FEAC15C21
:1023600009D54FF0010CC3F820C0D4F8903043F0E9
:102370000103C4F89030830709D5D30707D0236839
:102380001E62D4F8903043F00403C4F89030430741
:102390000AD5D30708D0266804233362D4F89030D6
:1023A00043F00203C4F8903003070CD501F020037A
:1023B0003B4308D0266808233362D4F8903043F0BA
:1023C0000803C4F8903003050BD54B0109D52668E6
:1023D0004FF400633362D4F8903043F02003C4F824
:1023E0009030D4F89030002B3DD0800609D501F014
:1023F000200002F08051084303D0616F09B12046EC
:102400008847D4F8900021688968490602D410F002
:10241000280F2AD0204601F075F920688068400610
:102420001ED52068083050E8001F21F0400100E070
:1024300021E040E80012002AF3D1D4F8800078B1FE
:1024400079498163D4F88000FEF71DFE00280AD088
:10245000D4F88000816B00E02046BDE8F0410847D9
:102460002046FFF754FFBDE8F0812046FFF74FFFFD
:10247000C4F89050F7E7D4F86CC02027BCF1010FE6
:102480007ED15FEAC06C7BD55FEAC16C78D5102045
:10249000186220688068400651D5D4F880100A6818
:1024A00050680004000C3ED0B4F85C3083423AD946
:1024B000A4F85E000868006880062CD4216851E802
:1024C000000F20F4807041E80002002AF6D1206855
:1024D000083050E8001F21F0010140E80012002AF6
:1024E000F5D12068083050E8001F21F0400140E895
:1024F0000012002AF5D1C4F88C70E566216851E815
:10250000000F20F0100041E80002002AF6D1D4F8B4
:102510008000FEF783FD2667B4F85C00B4F85E1017
:10252000401A81B207E0B4F85C1081429BD1106878
:10253000800698D526672046FFF799FE93E7B4F802
:102540005C00B4F85E10401A81B2B4F85E00002856
:1025500089D0002987D0226852E8000F20F49070BB
:1025600042E80003002BF6D12D4BDB4320680830F6
:1025700050E8002F1A4040E8002CBCF1000F00E0AA
:102580000EE0F3D1C4F88C70E5666567206850E80A
:10259000002F22F0100240E80023002BF6D1C9E7FB
:1025A000C60209D5560207D54FF48010186220469E
:1025B000BDE8F041FFF7AABE03060AD501F080038B
:1025C00002F40002134304D0A16F00297FF444AF4A
:1025D00049E7420611D54A060FD52046016851E861
:1025E000002F22F0400241E80023002BF6D1C0F872
:1025F0008870856700F096F835E7020206D54A0034
:1026000004D52046BDE8F041FFF77FBEC00195D557
:10261000002993DA2046BDE8F041FFF729BE00000B
:102620000100001020010004F536000810B5040078
:1026300003D0D4F8880010B107E0012010BD0020BD
:1026400084F88400204600F027F82420C4F888008D
:102650002068016821F001010160A06A10B12046E4
:1026600000F08EFF204601F077F80128E6D02068C0
:10267000416821F4904141602068816821F02A017D
:1026800081602068016841F0010101602046BDE8D9
:10269000104000F0D9BF000010B598B004461421D6
:1026A00011A8FDF7EFFD44216846FDF7EBFD1B493E
:1026B0002068884230D101200024CDE9000468461A
:1026C000FEF75CFF08B1FEF7E1F81548016E41F432
:1026D00080410166016E01F480411691C16C41F0A8
:1026E0000101C164C06C11A900F0010016904FF403
:1026F000C06011900220CDE912040720CDE91440FA
:102700004FF09040FEF70EFD002211462520FEF707
:102710009DFE2520FEF78CFE18B010BD003801404C
:10272000001002407047FEE700B585B014216846EE
:10273000FDF7A8FDC020009001200190029002202A
:10274000039069460248FEF7EDFC05B000BD0000AD
:102750000004004870B50446082516E000F0FCFDB2
:10276000142001F043FE04F0800000F023FE14204A
:1027700001F03CFE6006040E142001F037FE01203B
:1027800000F0EAFD142001F031FE6D1EEDB24FF0B5
:102790000000E3D200F0E0FDBDE87040142001F03D
:1027A00025BE10B5012000F005FE142001F01EFE2C
:1027B000012000F0D1FD142001F018FE002000F0EF
:1027C000F9FD142001F012FE002000F0C5FDBDE867
:1027D0001040142001F00ABE10B5002000F0BCFD2E
:1027E000142001F003FE002000F0E4FD142001F0AD
:1027F000FDFD012000F0B0FD142001F0F7FD0120E7
:1028000000F0D8FDBDE81040142001F0EFBD10B578
:10281000052400F0B9FD142001F0E8FD012000F0CE
:102820009BFD142001F0E2FD05E0641EA4B214201B
:1028300001F0DCFD6CB100F09BFD0028F5D100F04B
:10284000C5FD002000F088FD142001F0CFFD002020
:1028500010BD00F0BBFDFFF7BFFF012010BD000061
:1028600070B5012823D11C4CA079401CC0B2A071C6
:1028700003281CD12179002604F10A05C1B10129E0
:1028800015D1032813D1E81C0178297042786A70A9
:102890008078A870002001F0AFFD6978012001F078
:1028A000ABFDA978022001F0A7FD2671A67170BDCD
:1028B0002878217888420AD168786178884206D1E0
:1028C000A878A178884202D101202071EEE72A2061
:1028D00020706070A070E9E70600002000B585B0A8
:1028E00014216846FDF7CEFC4FF6FF7000900020E3
:1028F0000321CDE90201019069460248FEF712FC6E
:1029000005B000BD0008004800B585B01421684638
:10291000FDF7B8FC4FF6FF700090012001900320F6
:1029200003900020029069460248FEF7FBFB05B0C9
:1029300000BD00000008004870B50024064621468E
:10294000204600F003F900F041F94FF49635304687
:1029500000F010F9641CAC42F9D370BD70B586B0BC
:1029600014216846FDF78EFC1E48C16C41F004013D
:10297000C164C16C01F004010591C16C41F0010119
:10298000C164C16C01F001010591C16C41F002010B
:10299000C164C06C032500F0020005904FF448703C
:1029A0000124002603958DE8510069460E48FEF784
:1029B000B9FB200203958DE851004FF09044694621
:1029C0002046FEF7AFFBFFF79FFFA06940F4807041
:1029D000A06105481830016841F40871016006B033
:1029E00070BD00000010024000040048203AD2B23E
:1029F000034B02EB420203EB021200F019B8000095
:102A000054480008F0B50E460746002540F23F1432
:102A100007E021463846FFF7E9FF103C6D1CA4B2E1
:102A2000761C3278002A01D0142DF2D3F0BD0000BC
:102A30002DE9F04791468A460026044600F086F8C4
:102A4000DFF84080012700BF00F0C0F85FF000050C
:102A500039F8160007FA05F10842404601D14088CE
:102A600000E0008800F086F86D1C102DF0D3641C87
:102A7000E4B25146204600F069F8761C182EE3D3E4
:102A8000BDE8F0870000002010B5FFF767FF0020C9
:102A900000F014F8084CA080A088A0F5024130395D
:102AA00006D000F057FB002000F008F8A08010BD11
:102AB00000F0C7FAF7E700000000002070B51D49DC
:102AC0000A6842F400720A600A6842F480720A607E
:102AD000184C103C226842F020022260164A106016
:102AE000086840F02000086000BF00BF00BF2068F9
:102AF00040F020002060206840F480702060FFF7E4
:102B0000EDFE4FF09041886A40F48070886200BF0B
:102B100000BF00BF0848001F006885B2886940F404
:102B200080708861FFF7F0FE206840F4007020603C
:102B3000284670BD280400481408004801B5BDF8B7
:102B400000000149488008BD0000002010B50C4677
:102B50000146202000F068F82146BDE81040212001
:102B600000F062B801B5BDF800000149088008BD59
:102B700000000020134A116841F4007111601149EE
:102B800010390B6843F480730B600B6843F020032B
:102B90000B600D4B1860106840F02000106000BF03
:102BA00000BF00BF086840F020000860086840F4DB
:102BB0008070086000BF00BF00BF086840F400706C
:102BC0000860704728040048140800481449086841
:102BD00040F400700860086840F480700860104895
:102BE0001038026842F0200202600E4B22221A6066
:102BF0000A6842F020020A6000BF00BF00BF0168FF
:102C000041F020010160016841F48071016000BF62
:102C100000BF00BF016841F400710160704700000F
:102C20002804004814080048184B10B51A6842F4EC
:102C300000721A601A6842F480721A60134A103ADD
:102C4000146844F020041460114C2060186840F0AF
:102C50002000186000BF00BF00BF106840F02000D7
:102C60001060106840F4807010602160186840F0B7
:102C70002000186000BF00BF00BF106840F02000B7
:102C80001060106840F48070106010BD2804004887
:102C90001408004838B5154C2079C8B1012824D152
:102CA00013A13020FFF7AEFE17A16020FFF7AAFEA8
:102CB00004F10D00817800914378027818A1204832
:102CC00000F0D6FEBDE838401D499020FFF79ABEBF
:102CD0001CA13020FFF796FE20A16020FFF792FE96
:102CE000A078009063782278E8E738BD06000020DD
:102CF0002020202020202020532065207420202008
:102D00002020202020000000202020202020202023
:102D10004368616E676520202020202000000000AD
:102D20002020202020202020256320202563202013
:102D300025632020202020202020202000000000CB
:102D400028000020202020202020204C206F2063FD
:102D5000206B2020202020200000000020202020A8
:102D60002020205061737320576F72642020202030
:102D7000202000000B480146027949792AB121F050
:102D800001014171012A09D002E041F001014171C4
:102D900001F0FD014171C8B201F0A6BB41F0020192
:102DA000F8E700000600002000EB8100006E00F054
:102DB000F84070478068C0F3C00070478068C0F377
:102DC00080007047042303EAD15310B518444369C7
:102DD000C1F3045107248C40A3438A401343436149
:102DE00010BD00EB8100016E21F00041114301662E
:102DF0007047000030B589B020216846FDF742FADF
:102E000019481849002401604902C0E90114C4604E
:102E100004250461C0E90545047744770121016276
:102E200080F82440C462046380F83840C46380F8AA
:102E30004040FDF743FF08B1FDF728FD0B48009027
:102E40000620CDE901047F200594CDE903056946FC
:102E50000548FDF71DFD002801D0FDF717FD09B05D
:102E600030BD000000010050640000200080F03EF2
:102E70002DE9F04F87B014216846FDF703FA3F486B
:102E8000C16C41F00401C164C16C01F00401059101
:102E9000C16C41F02001C164C16C01F020010591B9
:102EA000C16C41F00101C164C16C01F001010591E7
:102EB000C16C41F00201C164C16C01F002010591D5
:102EC000C16C41F00801C164C06CDFF8B48000F04F
:102ED00008004FF6FF740590002221464046FEF799
:102EE0004AFA4FF480764FF0904900223146484626
:102EF000FEF741FADFF88CA0002204215046FEF7CD
:102F00003AFADFF884B04FF4487700223946584641
:102F1000FEF731FA0125CDE9004500240294694607
:102F200040460394FEF7FEF8CDE900546946484652
:102F30000295FEF7F7F807208DE8310069465846FC
:102F4000FEF7F0F80096CDE901546946484603942F
:102F5000FEF7E8F804200090CDE901546946504698
:102F60000394FEF7DFF80097CDE90154694658460F
:102F70000394FEF7D7F807B0BDE8F08F00100240C9
:102F800000080048000C0048000400483EB500243A
:102F90000F48009401940D490294016041F63F717D
:102FA000C0E9011442F20F718461C160FEF7DFFFD6
:102FB00008B1FDF76BFC0094694605480294FEF7E2
:102FC00087FF002801D0FDF761FC3EBD00140040E2
:102FD000D0000020184810B5164901604FF4E131C7
:102FE0004160002181600C22C160C0E9041281614E
:102FF000C161016241628162FFF718FB08B1FDF710
:1030000045FC00210C48FFF75AF908B1FDF73EFCDA
:1030100000210948FFF72DF908B1FDF737FC0648F4
:10302000FFF706F9002803D0BDE81040FDF72EBCDD
:1030300010BD0000003801401C010020FEE7FEE743
:10304000704730B501210020FFF7EEFD4FF47A7094
:10305000FDF70EFC00210120FFF7E6FD41F2907123
:103060001020FFF7E1FD4FF41C516020FFF7DCFD5D
:1030700001216120FFF7D8FD02214620FFF7D4FD92
:1030800048F210011320FFF7CFFD48F2FE01122095
:10309000FFF7CAFD4FF4A0610220FFF7C5FD41F222
:1030A00030010320FFF7C0FD40F2033421463020F9
:1030B000FFF7BAFD21463120FFF7B6FD2146322049
:1030C000FFF7B2FDE51E29463320FFF7ADFD0321D2
:1030D0003420FFF7A9FD21463520FFF7A5FD142177
:1030E0003620FFF7A1FD21463720FFF79DFD214641
:1030F0003820FFF799FD21463920FFF795FD294635
:103100003A20FFF791FD03213B20FFF78DFD21467B
:103110003C20FFF789FD4FF4A0513D20FFF784FDCF
:103120004FF400719220FFF77FFD21469320FFF7B7
:103130007BFD40F60D019020FFF776FD41F218016E
:103140000320FFF771FDBDE8304040F27311072006
:10315000FFF76ABD10B543F20801E320FFF764FDF5
:103160001221E720FFF760FD41F23121EF20FFF748
:103170005BFD00210120FFF757FD4FF4E0610220C5
:10318000FFF752FD41F230010320FFF74DFD002112
:103190000420FFF749FD40F207210820FFF744FD16
:1031A00000210920FFF740FD00210A20FFF73CFD28
:1031B00000210C20FFF738FD00210D20FFF734FD22
:1031C00000210F20FFF730FD00211020FFF72CFD1C
:1031D00007211120FFF728FD00211220FFF724FD11
:1031E00000211320FFF720FDC820FDF789FF41F2E1
:1031F00090611020FFF718FD40F227211120FFF702
:1032000013FD3220FDF77CFF1D211220FFF70CFD7E
:103210003220FDF775FF4FF400611320FFF704FD26
:1032200014212920FFF700FD0B212B20FFF7FCFCC8
:103230003220FDF765FF00212020FFF7F5FC00217B
:103240002120FFF7F1FC07213020FFF7EDFC40F2D1
:1032500007713120FFF7E8FC06213220FFF7E4FC7C
:1032600040F204713520FFF7DFFC41F6047136208F
:10327000FFF7DAFC04213720FFF7D6FC00213820C5
:10328000FFF7D2FC40F206713920FFF7CDFC40F287
:1032900001713C20FFF7C8FC0F213D20FFF7C4FC63
:1032A00000215020FFF7C0FCEF215120FFF7BCFCAC
:1032B00000215220FFF7B8FC40F23F115320FFF7E6
:1032C000B3FC4FF41C516020FFF7AEFC01216120DC
:1032D000FFF7AAFC00216A20FFF7A6FC002180204E
:1032E000FFF7A2FC00218120FFF79EFC0021822035
:1032F000FFF79AFC00218320FFF796FC0021842031
:10330000FFF792FC00218520FFF78EFC1021902012
:10331000FFF78AFC00219220FFF786FC032193200F
:10332000FFF782FC4FF488719520FFF77DFC0021A8
:103330009720FFF779FC00219820FFF775FC41F2F8
:1033400018010320FFF770FCBDE8104040F2731134
:103350000720FFF769BC000008B1044801E00348FA
:103360001030016841F040010160704718040048C6
:1033700010B580210348FDF7F9FF012800D0002097
:1033800010BD00000004004800B585B01421684657
:10339000FCF778FF8020009000200190012002902F
:1033A0000220039069460248FDF7BCFE05B000BD4F
:1033B0000004004808B1044801E0034810300168E7
:1033C00041F08001016070471804004800B585B0E5
:1033D00014216846FCF756FF8020009011200190D0
:1033E000002002900220039069460248FDF79AFEF1
:1033F00005B000BD000400487047FDF7C7BF10B519
:1034000094B038216846FCF73DFF14210EA8FCF764
:1034100039FF4FF40070FEF74BF8012000900004D4
:10342000019002200324CDE907041421CDE90A10FC
:103430000C900D9009946846FEF72EFB08B172B609
:10344000FEE70F20CDE90E0400201090119012909D
:1034500002210EA8FEF7D6F9002801D072B6FEE7C9
:1034600014B010BD0248016841F47001016070475A
:1034700088ED00E00148FEF706BE0000D000002005
:103480002DE9F0430268264B264D274E274C4FF07E
:103490008049984207D0484505D0A84203D0B042A1
:1034A00001D0A04203D122F070074A683A43204F6E
:1034B000DFF880C0DFF8808098420DD048450BD0FF
:1034C000A84209D0B04207D0A04205D0B84203D0EC
:1034D000604501D0404503D122F44075CA682A43B3
:1034E0004D6922F080022A4302608A68C2620A683B
:1034F0008262984207D0A04205D0B84203D060450E
:1035000001D0404501D1096901630121416101698F
:10351000C90703D0016921F001010161BDE8F08311
:10352000002C01400004004000080040003401402D
:1035300000400140004401400048014030B5416E68
:10354000B9B1026891689268C1F342610B4B520FA6
:103550009C5CE50003F10804A25CB5FBF2F2A0F864
:103560006A205A5C615CD200B2FBF1F1A0F86810ED
:1035700030BD0121A0F86A10F8E700003C5A0008AD
:1035800090F82810090706D501684A68836B22F471
:1035900000421A434A6090F82810C90706D0016813
:1035A0004A68C36A22F400321A434A6090F828102D
:1035B000890706D501684A68036B22F480321A43F2
:1035C0004A6090F82810490706D501684A68436B9D
:1035D00022F480221A434A6090F82810C90606D5C2
:1035E00001688A68C36B22F480521A438A6090F89B
:1035F0002810890606D501688A68036C22F40052F7
:103600001A438A6090F82810490611D501684A6863
:10361000436C22F480121A434A60416CB1F5801F5A
:1036200006D101684A68836C22F4C0021A434A60DA
:1036300090F82810090606D501684A68C06C22F483
:10364000002202434A6070472DE9F84300260446F1
:10365000C0F89060FDF794FE8046206800684FF047
:10366000200500076FF07E4713D54346002229044A
:103670002046009700F0AAF958B1216851E8000FE0
:1036800020F0800041E80002002AF6D1C4F88850FA
:1036900021E020680068400722D5434600224FF40D
:1036A00080012046009700F091F9C8B1216851E8E7
:1036B000000F20F4907041E80002002AF6D1206843
:1036C000083050E8001F21F0010140E80012002AF4
:1036D000F5D1C4F88C5084F884600320BDE8F883E9
:1036E000C4F88850C4F88C5044F86C6F6660267635
:1036F0000020F3E710B5806A0021A0F85E10FEF705
:1037000006FE10BD10B5026852E8001F21F490714A
:1037100042E80013002BF6D10E4B0268083252E843
:10372000001F194042E80014002CF6D1C16E012997
:1037300008D1016851E8002F22F0100241E800236F
:10374000002BF6D12021C0F88C100021C166416702
:1037500010BD0000FEFFFFEF2DE9F04104460168B7
:1037600080682269E3691043626900251A431043A7
:10377000DFF82CC20A688B4B1A4002430A602068AB
:103780004168E26821F44051114341602168A06919
:10379000614501D0226A10438A68834B1A40024374
:1037A0008A602068C16A626A21F00F011143C16218
:1037B0007E4923687E488B420DD1D0F8880010F0F6
:1037C000030006D0012855D0022842D003283FD15B
:1037D00052E001203DE077498B420BD1D0F88800C0
:1037E00010F00C0035D0042833D0082840D00C2825
:1037F0002ED141E070498B420BD1D0F8880010F0F7
:10380000300026D0102835D0202831D030281FD1C4
:1038100032E06A498B420BD1D0F8880010F0C0002A
:1038200017D0402826D0802822D0C02810D123E0ED
:1038300063450DD1D0F8880010F4406009D0B0F590
:10384000806F17D0B0F5006F12D0B0F5406F13D075
:1038500010205B495B4F00264FF4004263453BD18B
:1038600060B1022813D004280BD0082872D10DE0D3
:103870000220EEE70420ECE70820EAE7FEF7B0F8C4
:1038800001E0FEF7D1F8010001D17CE01146606A49
:1038900037F810206768B1FBF2F007EB470383426B
:1038A00070D8B0EB073F6DD8002308461946FCF7E7
:1038B000B1FC090241EA1061020278081018714156
:1038C0003A460023FCF7A6FC3F4AA0F5407191421E
:1038D00058D82168C86056E0E3694FF6EF78934204
:1038E0002CD109284ED2DFE800F00508114D0D4D0E
:1038F0004D4D1000FEF774F801E0FEF783F801006B
:1039000004D140E0FEF790F8F9E71146606A37F815
:103910001000B1FBF0F04100606801EB5001B1FB19
:10392000F0F0A0F1100141452CD84FF6F0710140A4
:10393000C0F3420001432068C16024E0092821D27D
:10394000DFE800F0050912200E2020201100FEF70C
:1039500047F802E016E0FEF755F8010004D112E046
:10396000FEF762F8F9E71146606A37F81000B1FB1C
:10397000F0F1606801EB5001B1FBF0F0A0F1100133
:1039800041450AD901250120A4F86A0024F8680FEE
:103990002846E6602661BDE8F08180B299E7000024
:1039A00000800040F369FFCFFFF4FF1100380140B1
:1039B000001002400044004000480040004C00401D
:1039C0000024F400245A0008FFFC0F002DE9F04702
:1039D000994617460D4604464FF00008089E33E00E
:1039E000701C31D0FDF7CCFCA0EB0900B04218D818
:1039F000BEB120680168490726D5802D24D0402D0E
:103A000022D0C169C94309070DD4082505622046A3
:103A1000FFF778FEC4F8905084F884800120BDE858
:103A2000F0870320FBE7C069C04300050CD4216880
:103A30004FF4006008622046FFF764FE2020C4F8BF
:103A4000900084F88480ECE72068C06935EA0000C3
:103A500004D00020B842C3D00020E0E70120F9E7FD
:103A60000148FEF755BC00001C010020FEE70000E5
:103A70000FB4084B10B504A902AA039800F0EEF8A1
:103A8000044602A9002000F06CFC204610BC5DF842
:103A900014FB0000634300080907090E002804DB3B
:103AA00000F1E02080F80014704700F00F0000F1F2
:103AB000E02080F8141D704702E008C8121F08C1FA
:103AC000002AFAD170477047002001E001C1121F9F
:103AD000002AFBD1704700002DE9FF5F82B0002172
:103AE000DDE90430020DDDF840B0034318D044F6A0
:103AF0001050A2F2FF3242431514119801281FD032
:103B0000A5EB0B00401C5FEA000A4FF000064E4F89
:103B1000DFF83891B046504615D5CAF1000413E0DD
:103B2000119801244AA3012801D16FEA0B010298E0
:103B3000119AC0E90031C0E9024206B0BDE8F09F29
:103B4000CBF10000DFE704460021404A491842EB70
:103B50000450CDE9001012E0E00707D032463B46A2
:103B600040464946FCF799FB8046894632463B462B
:103B700010461946FCF791FB06460F466410002CD0
:103B8000EAD1DDE90401DDE90023BAF1000F06DA2C
:103B9000FCF783FB42464B46FCF77FFB05E0FCF756
:103BA0004CFD42464B46FCF748FD04460E460022BB
:103BB000284BFCF7C9FD03D84FF0FF30014607E062
:103BC0000022254B20463146FCF790FCFCF7A4FD73
:103BD000102409E0002C0ADB0A220023FCF71AFB60
:103BE000039B30321A55641E50EA0102F2D1641C64
:103BF000039AC4F111031444119A012A03D001223B
:103C000008430DD10AE0084304D000204FF0110B07
:103C1000119072E7A3EB0B056D1E0DE05B4504DD13
:103C20004FF0000205F1010504E003DA4FF0000255
:103C3000A5F10105002AECD002981199C0E90231E2
:103C4000C0E9004579E70000000014400000F03FA3
:103C5000300000000000F0430000E03F2DE9FF4F7E
:103C600095B09A46884606460025EEE1252877D18C
:103C700000242746F94A0121039400E0044316F882
:103C8000013F203B01FA03F01042F7D130782A2897
:103C900011D06FF02F033078A0F13002092A16D826
:103CA000039A44F0020402EB820203EB4202104446
:103CB000761C0390EFE758F8042B0392002A03DAEE
:103CC000504244F40054039044F00204761C3078CF
:103CD0002E2816D116F8010F44F004042A280DD01E
:103CE0006FF02F023078A0F13003092B09D807EBD1
:103CF000870302EB4303C718761CF3E758F8047BED
:103D0000761C30786C280FD006DC4C2817D0682839
:103D10000DD06A2814D104E0742810D07A280FD16D
:103D20000DE044F400140AE044F4801401E044F48B
:103D300040147278824202D104F58014761C761CFD
:103D4000307866280BD013DC582877D009DC00289F
:103D500075D04528F6D04628F4D047281AD193E1EB
:103D600018E0632835D0642879D0652812D18BE11A
:103D7000702873D008DC6728F1D069286FD06E28CE
:103D80000DD06F2806D1ACE073282CD0752874D0E4
:103D9000782853D05246179990476D1C54E1C4F3CC
:103DA0000250022809D003280DD0D8F800100428AA
:103DB0000DD00D6008F1040846E1D8F80010EA17AC
:103DC000C1E90052F6E7D8F800100D80F2E70D7057
:103DD000F0E718F8041B8DF8001000208DF80100A2
:103DE000EB46012003E058F804BB4FF0FF306107B9
:103DF0004FF0000102D40DE009F101018946B942FA
:103E00000FDA8145F8DB1BF809100029F4D108E02E
:103E100009F1010189468142FADB1BF809100029EA
:103E2000F6D103985346A0EB090721463846179A66
:103E300000F080FA284400EB090507E044E008E1BF
:103E40000DE01BF8010B524617999047B9F1010993
:103E5000F7D2534621463846179AF2E039E00A2154
:103E6000C4F302524FF0000B0091022A06D058F81A
:103E7000040BC117032A09D00AE023E008F1070068
:103E800020F00702F2E80201904605E000B2C117F7
:103E9000042A01D140B2C117002906DA0A460021DE
:103EA000404261EB02012D2202E0220504D52B22C3
:103EB0008DF80420012203E0E20701D02022F7E779
:103EC000914657E00A2100E010214FF0000B0091CD
:103ED0000BE010214FF0000B44F004040827009180
:103EE00003E008204FF0000B0090C4F30252022AB6
:103EF00005D058F8040B0021032A08D008E008F187
:103F0000070020F00702F2E80201904603E080B2C9
:103F1000042A00D1C0B24FF0000922072AD5327816
:103F2000702A07D0DDF800C08CF0100C5CEA0B0C96
:103F300005D00EE040228DF80420012208E050EA6E
:103F4000010306D030238DF804308DF805200222BD
:103F50009146009B83F0080353EA0B030AD150EA11
:103F6000010201D1620705D530228DF804204FF0FF
:103F700001097F1E3278582A04D039A20C920CAA6B
:103F800002920BE03BA2F9E75B46009AFCF742F98C
:103F90000C9B9B5C029A521E0292137050EA010223
:103FA000F2D1029804A9081A00F1200B600702D58B
:103FB00024F4803400E001275F4502DDA7EB0B000D
:103FC00000E0002000EB0B01009003984944401AE8
:103FD0000390E00306D453462146179A039800F055
:103FE000A9F90544002706E001A85246C05D1799CB
:103FF00090476D1C7F1C4F45F6DBE0030CD5534604
:104000002146179A039800F095F9054404E0302002
:104010005246179990476D1C0099481E0090002940
:10402000F5DC08E00298029952460078491C02919A
:10403000179990476D1CBBF10001ABF1010BF1DC4E
:104040005BE100F065F90544761C307800287FF4C8
:104050000DAE19B02846BDE8F08F00000928010018
:1040600030313233343536373839616263646566EE
:1040700000000000303132333435363738394142B0
:104080004344454600000000600700D4062708F1BD
:10409000070020F00700F0E80223804603F0004C00
:1040A0005FEA0C0001D097A009E0200501D596A099
:1040B00005E0E00701D095A001E0AFF24C001390BD
:1040C000307823F0004365280CD006DC452809D061
:1040D00046281DD047287FD13BE0662818D06728A6
:1040E0007AD136E00021112F01DB112000E0781C8D
:1040F000CDE9000104A90CA8FFF7EEFCDDE90D01F4
:104100000C9A4FF0000B07F10109109200914EE05C
:104110004FF000400097CDE9011004A90CA8FFF76B
:10412000DBFCDDE90D020C9B0F994FF0000B914673
:104130001093009211B9791C00EB0109B7EB09004B
:1041400003D4C0F1FF3B07F10109A9EB070001907F
:1041500042E0012F00DA01270021112F01DD11209B
:1041600000E03846CDE9000104A90CA8FFF7B4FC33
:10417000DDE90D010C9A00914FF0000BB946109249
:1041800021070FD4009A4A4503DA914601E0A9F1CC
:104190000109B9F1010F05DD109AA9F10101515C86
:1041A0003029F4D0B84202DA10F1040F03DA012109
:1041B000CDE9011010E0002803DC8344A9EB0001E5
:1041C00002E0411C494500DD8946A0EB0B00401C84
:1041D00001904FF000400290200705D40198484517
:1041E00002DB4FF0FF30019000208DF84B00029869
:1041F0000DF14B07B0F1004F25D002200C902B2081
:104200000D90029800280CDA404202902D200D906B
:1042100007E00A210298FCF7D7F83031029007F83E
:10422000011D0C99481E0C900029F2DC0298002810
:10423000EFD1791E0D980870307800F0200040F022
:10424000450007F8020D11A8C01BC01D029013986D
:10425000007800B1012000EB0901019801EBE07149
:10426000029801440398401A401E0390E00306D4CC
:1042700053462146179A039800F05CF805441398BA
:10428000007818B15246179990476D1CE00323D56A
:1042900053462146179A039800F04CF805441BE05A
:1042A000BBF1000F07DB0098584504DD1098179903
:1042B00010F80B0001E01799302052469047019802
:1042C0000BF1010B401E05F10105019004D12E20D8
:1042D0005246179990476D1CB9F10001A9F10109E7
:1042E000DEDC05E017F8010B5246179990476D1C6C
:1042F0000299481E02900029F4DC53462146179A81
:1043000003989EE62D0000002B0000002000000016
:104310002DE9F041044600251E461746880404D4C2
:1043200005E039462020B0476D1C641EF9D52846AB
:10433000BDE8F0812DE9F041044600251E46904677
:10434000C80301D5302700E02027880404D505E004
:1043500041463846B0476D1C641EF9D52846BDE875
:10436000F0810A68531C0B601070704710B512483A
:10437000FCF7DAFD1048FCF79DFC104980B208817B
:10438000FBF7FDFF9FED0E1B53EC112BFBF785FF99
:104390009FED0D1B53EC112BFBF77FFF41EC100B36
:1043A0000BA153EC102B1048FFF762FBBDE8104047
:1043B0000D49C020FEF726BB640000200600002047
:1043C0006666666666660A40000000000000303FD0
:1043D00020202020202076616C75653A252E3266DB
:1043E00020202020202000003C000020002100E0B0
:1043F000491C8142FCD3704770B50D460446FEF758
:10440000D0F9A020FEF7A6F9FEF701FA2046FEF744
:10441000A1F9FEF7FCF92846FEF79CF9FEF7F7F93B
:10442000BDE87040FEF7D8B970B50A20FCF768FE09
:104430002B4D2C4C4FF09046E878012829D10121D2
:104440002046FCF793FF70B102212046FCF78EFF57
:1044500048B104212046FCF789FF20B101213046F4
:10446000FCF784FFA8B90020E87001212046FCF782
:104470007DFF88B102212046FCF778FF70B104214E
:104480002046FCF773FF58B101213046FCF76EFF60
:1044900040B1E87840B120E0012070BD022070BD3D
:1044A000032070BD042070BD01212046FCF75EFF93
:1044B000012812D102212046FCF758FF01280CD117
:1044C00004212046FCF752FF012806D10121304685
:1044D000FCF74CFF012800D1E870002070BD0000FF
:1044E000060000200004004870B50D4D044601226E
:1044F00004212846FCF73FFF0A4E01224FF47F417A
:104500003046FCF738FF210200223046FCF733FF2B
:104510002846BDE8704000220421FCF72CBF0000B3
:10452000000C004800080048FCF738FFFEF767FF62
:10453000FEF79EFCFEF74EFDFEF75CFCFEF726FD47
:10454000FEF7A2FAFEF7F0F80020FEF7F5F90020DA
:10455000FEF7F4FA4FF61F00FEF704FB0C48FCF7D9
:10456000E3FC0C48FDF752FD012204210A48FCF748
:1045700002FF0A4CFFF758FFE071FEF771F9FFF7F1
:10458000F5FEFEF787FBFEF7F5FB00F009F8F1E713
:1045900064000020D0000020000C0048060000202D
:1045A0002DE9F041A24C2DED088BA079217908432B
:1045B0009FEDA0AB4FF030069FEDA0BB4FF0310751
:1045C0004FF032089FED9F8B9FEDA09B2DD120894E
:1045D000FBF7D5FE53EC182BFBF75FFE53EC192BC2
:1045E000FBF75BFE53EC1A2BFBF7D6FE01D82670C7
:1045F0001BE02089FBF7C3FEB0EE481AF0EE681A04
:1046000053EC112BFBF749FEB0EE491AF0EE691A94
:1046100053EC112BFBF741FE53EC1B2BFBF7BCFEBD
:1046200001D8277001E084F80080814DA0790D3514
:10463000012830D12079002878D12089FBF79FFE0E
:1046400053EC182BFBF729FE53EC192BFBF725FE37
:1046500053EC1A2BFBF7A0FE01D866701BE02089F3
:10466000FBF78DFEB0EE481AF0EE681A53EC112BF2
:10467000FBF713FEB0EE491AF0EE691A53EC112B5A
:10468000FBF70BFE53EC1B2BFBF786FE01D8677084
:1046900001E084F80180A079022830D12079002837
:1046A00079D12089FBF76BFE53EC182BFBF7F5FD56
:1046B00053EC192BFBF7F1FD53EC1A2BFBF76CFEB7
:1046C00001D8A6701BE02089FBF759FEB0EE481A0E
:1046D000F0EE681A53EC112BFBF7DFFDB0EE491A30
:1046E000F0EE691A53EC112BFBF7D7FD53EC1B2BA3
:1046F000FBF752FE01D8A77001E084F80280A07990
:1047000070BB207901287AD12089FBF738FE53EC61
:10471000182BFBF7C2FD53EC192BFBF7BEFD53EC36
:104720001A2BFBF739FE02D82E701CE01EE0208900
:10473000FBF725FEB0EE481AF0EE681A53EC112B89
:10474000FBF7ABFDB0EE491AF0EE691A53EC112BF2
:10475000FBF7A3FD53EC1B2BFBF71EFE01D82F70BC
:1047600001E085F80080A079012831D12079012865
:1047700045D12089FBF703FE53EC182BFBF78DFD89
:1047800053EC192BFBF789FD53EC1A2BFBF704FEB6
:1047900002D86E701CE01EE02089FBF7F0FDB0EE41
:1047A000481AF0EE681A53EC112BFBF776FDB0EEC9
:1047B000491AF0EE691A53EC112BFBF76EFD53EC1E
:1047C0001B2BFBF7E9FD01D86F7001E085F8018034
:1047D000A079022813D12079012810D12089FBF774
:1047E000CEFD53EC182BFBF758FD53EC192BFBF7C0
:1047F00054FD53EC1A2BFBF7CFFD04D8AE70BDEC83
:10480000088BBDE8F0812089FBF7B9FD53EC182B2C
:10481000FBF743FD53EC192BFBF73FFD53EC1B2B30
:10482000FBF7BAFD01D8AF70E9E785F80280E6E74B
:1048300006000020000000000000F83F000000001B
:10484000000004406666666666660A400000000076
:104850000000303F000000000000000000000000E9
:104860000000000000000000000000000000000048
:104870000000000000000000000000000000000038
:1048800000000000000080018001800180018001A3
:104890008001800180018001800180018001800110
:1048A0000000000080018001000000000000000006
:1048B0000000000000000000CC00CC00CC00CC00C8
:1048C000CC00CC0000000000000000000000000050
:1048D00000000000000000000000000000000000D8
:1048E00000000000000000000000000000000000C8
:1048F000600C600C600C30063006FE1FFE1F300698
:1049000038071803FE1FFE1F180318038C018C01C3
:104910008C01000000008000E003F80F9C0E8C1C4E
:104920008C188C009800F801E007800E801C8C1811
:104930008C189C18B80CF00FE00380008000000079
:10494000000000000000000000000E181B0C110CFD
:1049500011061106110311039B018E01C038C06CB2
:1049600060446044304430441844186C0C380000F3
:10497000000000000000E001F003380718061806E8
:104980003003F001F000F8009C310E33061E061CC7
:10499000061C063FFC73F021000000000000000030
:1049A00000000000000000000C000C000C000C00D7
:1049B0000C000C00000000000000000000000000DF
:1049C00000000000000000000000000000000000E7
:1049D000000000000000000200038001C000C000D1
:1049E00060006000300030003000300030003000E7
:1049F0003000300060006000C000C0008001000393
:104A000000020000000020006000C0008001800162
:104A1000000300030006000600060006000600066C
:104A2000000600060003000380018001C000600052
:104A30002000000000000000000000000000000056
:104A4000C000C000D806F807E001300338070000B6
:104A50000000000000000000000000000000000056
:104A60000000000000000000000000000000000046
:104A700080018001800180018001FC3FFC3F8001BA
:104A80008001800180018001000000000000000022
:104A90000000000000000000000000000000000016
:104AA0000000000000000000000000000000000006
:104AB0000000000000008001800100010001800072
:104AC00000000000000000000000000000000000E6
:104AD000000000000000000000000000E007E00708
:104AE00000000000000000000000000000000000C6
:104AF00000000000000000000000000000000000B6
:104B000000000000000000000000000000000000A5
:104B1000000000000000C000C00000000000000015
:104B2000000000000000000C000C0006000600065B
:104B30000003000300038003800180018001C000A6
:104B4000C000C00060006000000000000000000025
:104B5000000000000000E003F007380E180C0C18ED
:104B60000C180C180C180C180C180C180C180C1825
:104B7000180C380EF007E0030000000000000000F1
:104B800000000000000000018001C001F001980158
:104B90008801800180018001800180018001800105
:104BA0008001800180018001000000000000000001
:104BB000000000000000E003F80F180C0C180C189F
:104BC00000180018000C000600038001C0006000FF
:104BD00030001800FC1FFC1F000000000000000057
:104BE000000000000000E001F807180E0C0C0C0C8F
:104BF000000C0006C003C007000C001800180C18B9
:104C00000C18180CF807E00300000000000000007A
:104C1000000000000000000C000E000F000F800DCF
:104C2000C00C600C600C300C180C0C0CFC3FFC3FF2
:104C3000000C000C000C000C000000000000000044
:104C4000000000000000F80FF80F180018000C001A
:104C5000EC03FC071C0E001C0018001800180C18B0
:104C60001C0C180EF807E003000000000000000014
:104C7000000000000000C007F00F381C18181800D2
:104C80000C00CC03EC0F3C0E1C1C0C180C180C1860
:104C9000181C380EF007E0030000000000000000C0
:104CA000000000000000FC1FFC1F000C00060006B6
:104CB000000380038001C001C000E00060006000CC
:104CC00070003000300030000000000000000000E4
:104CD000000000000000E003F007380E180C180C6C
:104CE000180C3806F007F007180C0C180C180C18E4
:104CF0000C18380CF80FE003000000000000000062
:104D0000000000000000E003F007380E1C0C0C1837
:104D10000C180C181C1C381EF81BE0190018000C8D
:104D2000000C1C0EF807F00100000000000000005D
:104D30000000000000000000000000000000000073
:104D40008001800100000000000000000000000061
:104D50000000000080018001000000000000000051
:104D60000000000000000000000000000000000043
:104D70008001800100000000000000000000000031
:104D8000000000008001800100010001800000009F
:104D90000000000000000000000000000000000013
:104DA000000000000010001C800FE003F800180055
:104DB000F800E003800F001C00100000000000005D
:104DC00000000000000000000000000000000000E3
:104DD00000000000F81F000000000000F81F0000A5
:104DE00000000000000000000000000000000000C3
:104DF00000000000000000000000000000000000B3
:104E00000000000008003800F001C007001F001873
:104E1000001FC007F001380008000000000000007B
:104E2000000000000000E003F80F180C0C180C182C
:104E30000018000C000600038001C000C000C00084
:104E400000000000C000C0000000000000000000E2
:104E50000000000000000000E00718180420C2292C
:104E6000224A114409440944094409221113E20C5D
:104E7000024004201818E0070000000000000000B5
:104E800000000000000080038003C006C006C006CA
:104E9000600C600C301830183018F83FF83F1C7068
:104EA0000C600C6006C006C000000000000000009E
:104EB000000000000000FC03FC0F0C0C0C180C1888
:104EC0000C180C0CFC07FC0F0C180C300C300C30C0
:104ED0000C300C18FC1FFC07000000000000000054
:104EE000000000000000C007F01F38381C300C70B4
:104EF00006600600060006000600060006000660C2
:104F00000C701C30F01FE0070000000000000000E3
:104F1000000000000000FE03FE0F060E0618061833
:104F200006300630063006300630063006300618E9
:104F30000618060EFE0FFE03000000000000000031
:104F4000000000000000FC3FFC3F0C000C000C00C7
:104F50000C000C00FC1FFC1F0C000C000C000C00D3
:104F60000C000C00FC3FFC3F0000000000000000B3
:104F7000000000000000F83FF83F1800180018007B
:104F800018001800F81FF81F180018001800180063
:104F900018001800180018000000000000000000B1
:104FA000000000000000E00FF83F3C780E6006E0D3
:104FB00007C00300030003FE03FE03C007C006C0D2
:104FC0000EC03CF0F83FE00F0000000000000000C1
:104FD0000000000000000C300C300C300C300C30A5
:104FE0000C300C30FC3FFC3F0C300C300C300C30E3
:104FF0000C300C300C300C300000000000000000C1
:10500000000000000000800180018001800180011B
:105010008001800180018001800180018001800188
:10502000800180018001800100000000000000007C
:105030000000000000000006000600060006000652
:105040000006000600060006000600060006180618
:1050500018063807F003E00100000000000000001F
:1050600000000000000006300618060C06060603C5
:105070008601C60066007600DE008E010603060685
:10508000060C061806300660000000000000000054
:105090000000000000001800180018001800180098
:1050A0001800180018001800180018001800180040
:1050B00018001800F81FF81F000000000000000092
:1050C0000000000000000EE01EF01EF01EF036D8BA
:1050D00036D836D836D866CC66CC66CCC6C6C6C6F8
:1050E000C6C6C6C686C386C3000000000000000016
:1050F0000000000000000C301C303C303C306C30B4
:105100006C30CC30CC308C310C330C330C360C364C
:105110000C3C0C3C0C380C3000000000000000007F
:10512000000000000000E007F81F1C380E70066049
:1051300003C003C003C003C003C003C003C00660B4
:105140000E701C38F81FE00700000000000000008F
:10515000000000000000FC0FFC1F0C380C300C306D
:105160000C300C300C18FC1FFC070C000C000C0061
:105170000C000C000C000C000000000000000000FF
:10518000000000000000E007F81F1C380E700660E9
:1051900003E003C003C003C003C003C007E006630D
:1051A0000E3F1C3CF83FE0F700C00000000000008C
:1051B000000000000000FE0FFE1F0638063006301B
:1051C00006300638FE1FFE0706030606060C061804
:1051D00006180630063006600000000000000000DF
:1051E000000000000000E003F80F1C0C0C180C1865
:1051F0000C001C00F803E00F001E003806300630DB
:105200000E301C1CF80FE00700000000000000003A
:10521000000000000000FE7FFE7F80018001800111
:105220008001800180018001800180018001800176
:10523000800180018001800100000000000000006A
:105240000000000000000C300C300C300C300C3032
:105250000C300C300C300C300C300C300C300C306E
:105260000C301818F81FE0070000000000000000D4
:1052700000000000000003600630063006300C1805
:105280000C180C18180C180C380E30063006700765
:1052900060036003C001C0010000000000000000C6
:1052A0000000000000000360C361C361C361663396
:1052B000663366336633663366336C1B6C1B6C1B5C
:1052C0002C1A3C1E380E380E0000000000000000B2
:1052D0000000000000000FE00C7018303018700C57
:1052E000600EC00780038003C003E006700C301C12
:1052F00018180C300E6007E00000000000000000ED
:1053000000000000000003C006600C301C38381894
:10531000300C6006E007C00380018001800180013D
:105320008001800180018001000000000000000079
:10533000000000000000FC7FFC7F006000300018CF
:10534000000C000600038001C0006000300018005F
:105350000C000600FE7FFE7F000000000000000041
:10536000000000000000E003E00360006000600057
:10537000600060006000600060006000600060002D
:105380006000600060006000600060006000E0039A
:10539000E0030000000030003000600060006000AA
:1053A000C000C000C000C001800180018001000376
:1053B00000030003000600060000000000000000DB
:1053C000000000000000E003E0030003000300030E
:1053D00000030003000300030003000300030003B5
:1053E0000003000300030003000300030003E003C5
:1053F000E003000000000000C001C0016003600382
:10540000600330063006180C180C00000000000085
:10541000000000000000000000000000000000008C
:10542000000000000000000000000000000000007C
:10543000000000000000000000000000000000006C
:10544000000000000000FFFFFFFF00000000000060
:105450000000000000000C000C000C000C000C0010
:105460000C00000000000000000000000000000030
:10547000000000000000000000000000000000002C
:10548000000000000000000000000000000000001C
:10549000F003F8071C0C0C0C000FF00FF80C0C0CB0
:1054A0000C0C1C0FF80FF0180000000000000000AA
:1054B0000000000000001800180018001800180074
:1054C000D803F80F380C18181818181818181818C6
:1054D0001818380CF80FD803000000000000000076
:1054E00000000000000000000000000000000000BC
:1054F000C003F007300E180C180018001800180030
:10550000180C300EF007C00300000000000000007F
:105510000000000000000018001800180018001813
:10552000C01BF01F301C1818181818181818181855
:105530001818301CF01FC01B000000000000000005
:10554000000000000000000000000000000000005B
:10555000C003F00F300C1818F81FF81F18001800BF
:105560003818301CF00FC0070000000000000000D9
:10557000000000000000800FC00FC000C000C0008D
:10558000F007F007C000C000C000C000C000C000AD
:10559000C000C000C000C00000000000000000000B
:1055A00000000000000000000000000000000000FB
:1055B000E00DF80F180E0C0C0C0C0C0C0C0C0C0C59
:1055C0000C0C180EF80FE00D000C0C0C1C06F80764
:1055D000F001000000001800180018001800180062
:1055E000D807F80F381C1818181818181818181891
:1055F00018181818181818180000000000000000EB
:10560000000000000000C000C0000000000000001A
:10561000C000C000C000C000C000C000C000C0008A
:10562000C000C000C000C00000000000000000007A
:10563000000000000000C000C000000000000000EA
:10564000C000C000C000C000C000C000C000C0005A
:10565000C000C000C000C000C000C000C000F80012
:105660007800000000000C000C000C000C000C0086
:105670000C0C0C060C038C01CC006C00FC009C0193
:105680008C030C030C060C0C000000000000000052
:10569000000000000000C000C000C000C000C0004A
:1056A000C000C000C000C000C000C000C000C000FA
:1056B000C000C000C000C0000000000000000000EA
:1056C00000000000000000000000000000000000DA
:1056D0007C3CFF7EC7E383C183C183C183C183C197
:1056E00083C183C183C183C10000000000000000AA
:1056F00000000000000000000000000000000000AA
:105700009807F80F381C18181818181818181818AF
:1057100018181818181818180000000000000000C9
:105720000000000000000000000000000000000079
:10573000C003F00F300C181818181818181818187B
:105740001818300CF00FC00300000000000000002B
:105750000000000000000000000000000000000049
:10576000D803F80F380C1818181818181818181823
:105770001818380CF80FD803180018001800180073
:105780001800000000000000000000000000000001
:10579000C01BF01F301C18181818181818181818E3
:1057A0001818301CF01FC01B001800180018001833
:1057B00000180000000000000000000000000000D1
:1057C000B007F003700030003000300030003000CF
:1057D0003000300030003000000000000000000009
:1057E00000000000000000000000000000000000B9
:1057F000E003F003380E180C3800F003C007000C6B
:10580000180C380EF007E003000000000000000054
:1058100000000000000000008000C000C000C000C8
:10582000F007F007C000C000C000C000C000C0000A
:10583000C000C000C007800700000000000000009A
:105840000000000000000000000000000000000058
:1058500018181818181818181818181818181818C8
:105860001818381CF01FE0190000000000000000AC
:105870000000000000000000000000000000000028
:105880000C18180C180C180C300630063006600383
:1058900060036003C001C0010000000000000000C0
:1058A00000000000000000000000000000000000F8
:1058B000C141C141C3616363636363633636363696
:1058C00036361C1C1C1C1C1C0000000000000000C4
:1058D00000000000000000000000000000000000C8
:1058E0001C38381C300C60066003600360036003E2
:1058F0006006300C381C1C3800000000000000005E
:105900000000000000000000000000000000000097
:105910001830301830187018600C600CE00CC0069D
:10592000C00680038003800380018001C001F00075
:1059300070000000000000000000000000000000F7
:10594000FC1FFC1F000C000600038001C00060006B
:1059500030001800FC1FFC1F0000000000000000C9
:1059600000000000000000038001C000C000C00073
:10597000C000C000C0006000600030006000400057
:10598000C000C000C000C000C000C0008001000313
:105990000000000000008001800180018001800182
:1059A00080018001800180018001800180018001EF
:1059B00080018001800180018001800180018001DF
:1059C0008001000000006000C000C0018001800173
:1059D0008001800180010003000300060003000134
:1059E000800180018001800180018001C000600091
:1059F00000000000000000000000000000000000A7
:105A000000000000F010F81F080F00000000000068
:105A10000000000000000000000000000000000086
:105A200000000000010002000400060008000A0057
:105A30000C00100020004000800000010101010363
:105A40000701000008040204080101010000000031
:105A5000000000000102030406070809000000001E
:105A600001020304845A00080000002028000000FE
:105A7000B83A0008AC5A0008280000208805000049
:105A8000C83A00080000FFFF00002A2A2A0100008F
:105A9000000000003031322A2A2A000010000000E5
:0C5AA00001000000000000000024F400E1
:04000005080001D915
:00000001FF
