:020000040800F2
:1000000020060020F10100085B260008E51F00081B
:10001000592600089F07000831330008000000003F
:10002000000000000000000000000000732900082C
:10003000A1070008000000005D26000875290008DF
:100040000B0200080B0200080B0200080B0200085C
:100050000B0200080B0200080B0200080B0200084C
:100060000B0200080B0200080B0200080B0200083C
:100070000B0200080B0200080B0200080B0200082C
:100080000B020008000000000B0200080B02000831
:100090000B0200080B0200080B0200080B0200080C
:1000A0000B0200080B0200080B0200080B020008FC
:1000B0000B0200080B0200080B0200080B020008EC
:1000C0000B0200080B0200080B0200080B020008DC
:1000D0000B020008193300080B0200080B0200088D
:1000E0000B0200080B0200080B0200080B020008BC
:1000F0000B0200080B0200080B02000800000000C1
:10010000000000000B020008000000000B020008C5
:100110000B020008000000000B0200080B020008A0
:100120000B0200080B0200080B0200080B0200087B
:100130000B02000800000000000000000B02000895
:100140000B0200080B020008000000000000000085
:10015000000000000000000000000000000000009F
:100160000000000000000000000000000B0200087A
:100170000B0200080000000000000000000000006A
:10018000000000000B02000800000000000000005A
:10019000000000000000000000000000000000005F
:1001A00000000000000000000B0200080B02000825
:1001B0000B0200080B0200080B0200080000000000
:1001C000000000000B02000800000000000000001A
:1001D0000B0200080B020008DFF810D000F05EFAF6
:1001E00000480047ED3E0008AFF3008020060020E5
:1001F0000648804706480047FEE7FEE7FEE7FEE7C1
:10020000FEE7FEE7FEE7FEE7FEE7FEE7E12900087E
:10021000D90100082DE9F05F0546002092469B4673
:1002200088460646814640241BE02846414647460C
:10023000224600F06AF853465A46C01A914110D33C
:1002400011461846224600F051F82D1A67EB0108B6
:100250004F4622460120002100F048F817EB000924
:100260004E41201EA4F10104DFDC484631462A46F7
:100270004346BDE8F09FD2B201E000F8012B491ED1
:10028000FBD270470022F6E710B513460A46044633
:100290001946FFF7F0FF204610BD00F0004230F095
:1002A00000400AD0C10D01F56071C0F3160042EAAA
:1002B0000151C208400711437047002001467047B2
:1002C00030B50B46014600202022012409E021FA26
:1002D00002F59D4205D303FA02F5491B04FA02F523
:1002E0002844151EA2F10102F1DC30BD202A04DBF6
:1002F000203A00FA02F1002070479140C2F1200339
:1003000020FA03F3194390407047202A04DB203A77
:1003100021FA02F00021704721FA02F3D040C2F125
:10032000200291400843194670472DE9FE4F804650
:1003300081EA0300C00F0C46009021F0004123F039
:100340000045B8EB0200A94105D24046214690463F
:100350001C460B46024623F00040104347D0270DB1
:10036000C7F30A00C3F30A510290401A01904028D3
:100370006BDAC3F3130040F4801B0098924620B15F
:100380000023D2EB030A63EB0B0B01985946C0F133
:1003900040025046FFF7AAFF06460D465046594612
:1003A000019A00F08DF910EB08006141002487EA02
:1003B000115284EAE7731A4340D0009A62B3019A5B
:1003C000012A4FEA075215DC001B61EB02014FF0D6
:1003D000004202EA0752CDE90042001C41F58011BB
:1003E00032462B4600F08DF903B0BDE8F08F404651
:1003F0002146F9E7001B61EB0201001C41F5801367
:1004000000185B412018A2F5001747EB030140EAF2
:10041000D570B6196D4111E06D084FEA360645EA10
:10042000C0754FEA0752001B61EB0201001C41F549
:10043000801149084FEA30000019514132462B46DD
:1004400003B0BDE8F04F00F04DB900980122400024
:100450000023D0EB020263EBE073009821464FEAE1
:10046000E074B8EB000061EB0401E9E783F00043BE
:100470005BE781F0004158E72DE9FE4F81EA030474
:1004800004F0004421F0004100944FF0000B23F0F1
:10049000004350EA01045ED052EA03045BD0C3F388
:1004A0000A54C1F30A552C44A4F2F3340194A0FB7E
:1004B0000254C1F3130141F48011C3F3130343F455
:1004C000801301FB024400FB034E840A970A44EAAE
:1004D000815447EA8357A4FB076802958D0A05FB00
:1004E00007854FEA932C04FB0C542705029D4FEA25
:1004F000065847EA1637B5EB08056EEB070C870E72
:10050000920E47EA811742EA8312A7FB0201B6EB7B
:100510000B0164EB00042B0D43EA0C335E1844EB33
:100520001C50DA465146E7FB0201C5F313044FEABB
:100530000B3343EA14534FEA0432019C43EA0603A7
:10054000A4F10C040294009CCDE900B400F0D9F8A9
:1005500003B0BDE8F08F00200146F9E72DE9F04D2A
:1005600081EA030404F0004B21F0004514464FF0EB
:10057000000A23F0004150EA050220D054EA0102AB
:100580001DD0C5F30A570246C5F31303C1F3130088
:10059000C1F30A5640F4801543F48013A7EB060814
:1005A000101BD64608F2FD3873EB050002D308F1A4
:1005B000010801E092185B41B8F1000F03DA002056
:1005C0000146BDE8F08D00204FF4801106468446B8
:1005D0000EE0171B73EB050705D3121B63EB050336
:1005E00006434CEA010C49084FEA300092185B417F
:1005F00050EA0107EDD152EA030012D082EA04006A
:1006000083EA0501084305D0101BAB4106D2012245
:10061000002306E000224FF0004302E06FF00102E9
:1006200053101AEB06004CEB085110EB0A0041EB9B
:100630000B01BDE8F04D00F055B8C1F30A52C1F30B
:10064000130140F2FF3341F480119A4202DA002094
:100650000146704740F233439A42A2F2334202DC31
:100660005242FFF752BEFFF741BE000030B5041EF4
:1006700071F1000404DB4FF00044404264EB0101DF
:10068000141E73F1000405DB1C464FF00043524278
:1006900063EB0403994208BF904230BD064C074DFE
:1006A00006E0E06840F0010394E807009847103442
:1006B000AC42F6D3FFF794FD80530008A053000826
:1006C000202A06DBCB17203A41FA02F043EAE07316
:1006D00006E041FA02F3D040C2F120029140084303
:1006E0001946704710B5141E73F1000408DA401C57
:1006F00041F1000192185B411A4301D120F0010041
:1007000010BD2DE9F04D92469B4611B1B1FA81F230
:1007100002E0B0FA80F220329046FFF7E7FD04468F
:100720000F4640EA0A0041EA0B0153465A46084385
:1007300013D0114653EA010019D0C8F140025046C7
:10074000FFF7E3FD05460E46504659464246FFF781
:10075000CDFD084305D0012004E020463946BDE820
:10076000F08D0020054346EAE0762C4337430A9893
:100770006305E40AA0EB08000022FD0A44EA47549E
:100780000A3002D500200146E9E701051019694148
:10079000DDE9084500196941BDE8F04DA2E7FEE733
:1007A0007047002240F6B83306E00021491C89B2A8
:1007B0009942FBD3521C92B28242F6D3704772B672
:1007C000FEE710B590F8253000210122022B03D05E
:1007D0000421C163012122E003681C6824F00E0497
:1007E0001C60836C1C6824F480741C6003681C68A3
:1007F00024F001041C6090F84430046C03F01F03E3
:1008000002FA03F36360D0E913345C60436D33B1E3
:100810001C6824F480741C60D0E916345C6080F895
:100820002520002280F82420084610BD70B590F8DD
:100830002520002401212346022A07D00422C26376
:1008400080F8251080F82430012429E0026815681A
:1008500025F00E0515600268156825F00105156084
:10086000826C156825F48075156090F84420056C3D
:1008700002F01F0201FA02F26A60D0E91325556006
:10088000426D32B1156825F480751560D0E91625E2
:10089000556080F8251080F82430816B01B18847BD
:1008A000204670BD70B5044600F03CF90546601C5A
:1008B00002D004484068044400F034F9401BA042D0
:1008C000FAD370BD280000202DE9F04FDFF8209208
:1008D000002301260324A9F1040B85B00F2709F199
:1008E000040AABF1040EFAE006FA03F52A407CD0C4
:1008F00091F804C00CF0030CBCF1010F02D0BCF164
:10090000020F26D1D0F808C0CDF800C04FEA430C42
:1009100004FA0CF8CDF810C0DDF800C02CEA080C81
:10092000CDF800C0D1F80C80DDF810C008FA0CF842
:10093000DDF800C048EA0C08C0F80880D0F804C010
:100940002CEA050C0D79C5F300159D4045EA0C0510
:1009500045600D79ED43AD070ED0C5684FEA4308F9
:1009600004FA08FC25EA0C05D1F808C00CFA08FCCA
:100970004CEA050CC0F80CC00D7905F00305022DFA
:1009800016D1DD0800EB850CCDF808C0DCF820801E
:100990005D074FEAD56C07FA0CF528EA05080D69E2
:1009A00005FA0CF5DDF808C045EA0805CCF820503A
:1009B00005684FEA430CCDF808C004FA0CFC25EAA0
:1009C0000C0591F804C00CF00308DDF808C008FA23
:1009D0000CF848EA0508C0F800804D6815F4403F5F
:1009E0007CD0444DD5F860C000E077E04CF0010CBD
:1009F000C5F860C02D6E23F0030C05F001050095CD
:100A00003D4D65440295AD684FEA837C4FEA1C7802
:100A100007FA08FC25EA0C05B0F1904F06D0DFF884
:100A2000DCC0604505D14FF0010C20E04FF0000C18
:100A30001DE0DFF8CCC0604502D14FF0020C16E09B
:100A4000DFF8C0C0604502D14FF0030C0FE0DFF8C3
:100A5000B8C0604502D14FF0040C08E0DFF8ACC02C
:100A6000604502D14FF0050C01E04FF0060C0CFA86
:100A700008FC4CEA050C029DC5F808C0D9F80050E6
:100A8000CC46D1F8048095435FEAC82800D51543C9
:100A9000CCF80050DAF80050D446D1F804809543E1
:100AA0005FEA882800D51543CCF80050DBF80050E9
:100AB000DC46D1F8048095435FEA883800D51543B9
:100AC000CCF80050DEF80050F446D1F8048095438D
:100AD0005FEAC83800D51543CCF800505B1C0A68A3
:100AE00032FA03F57FF400AF05B0BDE8F08F0000E7
:100AF00008040140001002400000014000040048CA
:100B000000080048000C004800100048001400488D
:100B10000069084000D0012070470AB18161704728
:100B200081627047014880687047000028000020FB
:100B300002488168426811448160704728000020A3
:100B400010B50024032000F073F80F2000F008F81F
:100B500008B1012401E000F025F8204610BD000096
:100B600070B50E4E05460024706898B14FF47A7146
:100B7000B1FBF0F00A490968B1FBF0F000F060FD4C
:100B800040B9102D06D200222946501E00F030F840
:100B9000356000E00124204670BD000028000020E0
:100BA000340000200A4882B0016E41F00101016664
:100BB000016E01F001010091816D41F0805181656C
:100BC000806D00F08050009002B000F0A1B80000ED
:100BD00000100240002809DB00F01F0201219140B3
:100BE0004009800000F1E020C0F8001170470000CB
:100BF000F0B40E4B1B680C46C3F30223C3F1070588
:100C0000042D00D90425191D072901D2002300E075
:100C1000DB1E012606FA05F1491E214099409E403F
:100C2000761E16403143F0BC02F0A8BB0CED00E08C
:100C3000064900F0070208684FF6FF03184040EA33
:100C40000220034A10430860704700000CED00E0EA
:100C50000000FA052B492C4B0A6832214A432B49E4
:100C600040B1B0F5007F086829D020F4C06040F49E
:100C700080602CE00868C0F34120022804D051F8BD
:100C8000800F20F4807022E0D1F8800020F4807082
:100C9000C1F88000086820F4C06040F4007008606B
:100CA000B2FBF3F0401C00E0401E4A69520501D53A
:100CB0000028F9D1486940050AD503207047C0F3E0
:100CC0004120022806D051F8800F40F4807008605F
:100CD00000207047D1F8800040F48070C1F8800097
:100CE000086820F4C06040F400700860B2FBF3F0C4
:100CF000401C00E0401E4A695205DBD50028F9D1AE
:100D0000D8E700003400002040420F00007000408F
:100D10000248816841F48041816070470070004062
:100D20002DE9F8430446006800269D4D00035ED57A
:100D3000A86D0027C00008D4A86D40F08050A865B9
:100D4000A86D012700F080500090DFF85892D9F884
:100D5000001041F48071C9F80010FFF7E3FE8046EF
:100D600006E000BFFFF7DEFEA0EB080002282BD84C
:100D7000D9F80000C005F5D5D5F8900010F4407002
:100D800014D0216C814211D0D5F89000D5F8901084
:100D900020F4407041F48031C5F89010D5F89010DF
:100DA00021F48031C5F89010C5F89000C00711D02B
:100DB000FFF7B8FE804641F2883907E0FFF7B2FE40
:100DC000A0EB0801494501D903260BE0D5F89000B6
:100DD0008007F3D5D5F89000216C20F440700843CB
:100DE000C5F890001FB1A86D20F08050A86520784C
:100DF000C00707D0D5F88800616820F003000843D9
:100E0000C5F888002078800707D5D5F88800A16844
:100E100020F00C000843C5F888002078400707D56B
:100E2000D5F88800E16820F030000843C5F8880054
:100E30002078000707D5D5F88800216920F0C00088
:100E40000843C5F888002078800607D5D5F88800C3
:100E5000616920F440600843C5F8880020784006A6
:100E600007D5D5F88800A16920F440500843C5F89B
:100E700088002078000607D5D5F88800E16920F4BD
:100E800040400843C5F888002088C00507D5D5F83C
:100E90008800216A20F440300843C5F88800208883
:100EA000800507D5D5F88800616A20F44020084302
:100EB000C5F88800208840050FD5D5F88800A16ABC
:100EC00020F440100843C5F88800A06AB0F5801FE0
:100ED00003D1E86840F48010E860208800050FD551
:100EE000D5F88800E16A20F440000843C5F888007E
:100EF000E06AB0F5800F03D1E86840F48010E86044
:100F00002088C0040FD5D5F88800216B20F04070F0
:100F10000843C5F88800206BB0F1807F03D1E868F2
:100F200040F48010E86020884FF0006180040ED506
:100F3000D5F88800626B20F040601043C5F8880047
:100F4000606B884203D1E86840F48010E860208834
:100F500040040ED5D5F88800A26B20F04060104305
:100F6000C5F88800A06B884203D1E86840F480107F
:100F7000E860208800040FD5D5F88800E16B20F0E8
:100F800040500843C5F88800E06BB0F1805F03D1A2
:100F9000E86840F48030E8603046BDE8F88300003F
:100FA00000100240007000402DE9F0470E46050099
:100FB0004FF0000725D0DFF8AC81D8F8000000F032
:100FC0000F00B0420CD2D8F8001021F00F013143CD
:100FD000C8F80010D8F8000000F00F00B04210D19F
:100FE0002968614CC80741F2883A5AD06868DFF82E
:100FF0007C91032808D0022820682DD040050028C5
:101000002CDB0120BDE8F08720688001F9D5E0687D
:1010100000F00302E068C0F30310401C032A19D05B
:10102000534A00BFB2FBF0F0E268C2F3062250431D
:10103000E268C2F34162521C5200B0FBF2F0484534
:1010400017D9A06810F0F00F0CD0880711D5A86848
:1010500040B10EE0474AE5E78003D0E700F0B6F87C
:10106000484506D9A06820F0F00040F08000A0605C
:101070008027A068696820F003000843A060FFF79C
:1010800051FD814606E000BFFFF74CFDA0EB0901D2
:1010900051453AD8A068696800F00C00B0EB810FA8
:1010A000F2D12868810714D5400703D5A06840F421
:1010B000E060A0602878000705D5A06820F46050A3
:1010C00040F4E060A060A068A96820F0F000084348
:1010D00004E0802F03D1A06820F0F000A060D8F8D1
:1010E0000010404601F00F01B14216D9016821F00D
:1010F0000F0131430160FFF715FD074607E000BF10
:10110000FFF710FDC11B514501D903207AE7D8F83C
:10111000000000F00F00B042F2D12878400705D55A
:10112000A068E96820F4E0600843A0602878000720
:1011300006D5A068296920F4605040EAC100A0608B
:1011400000F044F8A1680C4AC1F30311515C01F0AE
:101150001F01C8400949086009480068BDE8F04718
:10116000FFF7FEBC002002400010024000B4C4049F
:101170000024F40000366E0168530008340000209B
:10118000280000200548064900688968054AC1F31F
:101190000221515C01F01F01C8407047340000205B
:1011A0000010024078530008054806490068896825
:1011B000054AC1F3C221515C01F01F01C8407047CC
:1011C000340000200010024078530008184910B580
:1011D0008868C0F381021748012A0BD08A68164B31
:1011E000C2F38102022A06D08A68C2F38102032A6E
:1011F00003D0002010BD184610BDCA6802F00304D9
:10120000CA68C2F30312521C032C02D0B0FBF2F0E6
:1012100001E0B3FBF2F0CA68C968C2F3062250438A
:10122000C1F34161491C4900B0FBF1F010BD000061
:10123000001002400024F40000366E012DE9F8434E
:1012400004007AD02078F84DC00747D0A868E96834
:1012500000F00C0001F003010C2802D0082817D080
:1012600001E0032914D06068B0F5803F17D0B0F5D5
:10127000A02F286817D020F480302860286820F438
:10128000802028606068E0B1FFF74CFC064614E05F
:101290002868800322D560680028D2D01EE0286824
:1012A00040F48030EDE740F480202860F7E700BF8D
:1012B000FFF738FC801B642870D828688003F7D5B6
:1012C0000CE0FFF72FFC064605E000BFFFF72AFC05
:1012D000801B6428F0D828688003F7D42078800722
:1012E0004CD5A868E96800F00C0001F003010C2857
:1012F00002D004280DD001E002290AD0E0680028BD
:1013000028682BD040F480702860FFF70BFC06465D
:1013100019E02868400502D5E068002891D0686887
:10132000217C20F0FE4040EA01606860BF48006810
:10133000FFF716FC002800D120E072E1FFF7F2FB76
:10134000801B0228B8D828684005F7D56868217C3A
:1013500020F0FE4040EA016068600FE020F48070F9
:101360002860FFF7DFFB064605E000BFFFF7DAFB6A
:10137000801B0228A0D828684005F7D420780007F1
:1013800029D560690028D5F8940013D040F00100F9
:10139000C5F89400FFF7C6FB064606E090E000BFE4
:1013A000FFF7C0FB801B022886D8D5F89400800781
:1013B000F6D510E020F00100C5F89400FFF7B2FB6D
:1013C000064604E0FFF7AEFB801B022878D8D5F86C
:1013D00094008007F6D42078400761D5A86D0026D8
:1013E000C00008D4A86D40F08050A865A86D012603
:1013F00000F0805000908E480168C90511D4016842
:10140000804641F480710160FFF78CFB074604E0E1
:10141000FFF788FBC01B022852D8D8F80000C0058F
:10142000F6D5A068012815D00528D5F8900016D06B
:1014300020F00100C5F89000D5F8900020F00400DD
:10144000C5F89000A06841F28838B8B1FFF76AFB90
:1014500007460EE0D5F8900040F00100F0E740F0BC
:101460000400C5F89000F5E7FFF75CFBC11B4145A0
:1014700026D8D5F890008007F6D50CE0FFF752FB90
:10148000074604E0FFF74EFBC11B414518D8D5F8CD
:1014900090008007F6D41EB1A86D20F08050A8659A
:1014A0002078800629D5A0690028D5F8980013D0A7
:1014B00040F00100C5F89800FFF734FB064606E04F
:1014C00075E000BFFFF72EFB801B02286FD8D5F810
:1014D00098008007F6D510E020F00100C5F89800CC
:1014E000FFF720FB064604E0FFF71CFB801B0228E9
:1014F0005DD8D5F898008007F6D4E069F0B3A96804
:10150000C1F3810103295DD00228286820F0807092
:10151000286003D0FFF706FB04464BE0FFF702FB11
:10152000064604E0FFF7FEFA801B02283FD8286831
:101530008001F7D4F4E908016FF00F0202EB01110A
:101540000843218A5204490802EB4151A26841EA4A
:1015500002210843217D4FF07E42490802EB4161A0
:101560000843217B40EAC160E968324A11400843E0
:10157000E860286840F08070286000E05EE0E8687D
:1015800040F08070E860FFF7CDFA044605E000BF48
:10159000FFF7C8FA001B022809D828688001F7D590
:1015A0004CE000BFFFF7BEFA001B022802D903205F
:1015B000BDE8F88328688001F4D4E8681E49084033
:1015C000E8603BE00128F3D0E868226A00F00301FC
:1015D000914226D1616A00F0F0020901103991426E
:1015E0001FD1A26A00F4FE41B1EB022F19D194F889
:1015F0002C2000F07841B1EBC26F12D1218E00F4A3
:10160000C00249084905A1F50011914209D194F899
:10161000341000F0C06049084906A1F10071814210
:101620000CD00120C4E70000001002402800002078
:10163000007000400C809F01FCFFEEFE0020B7E729
:1016400010B5401EB0F1807F01D3012010BD4FF0D6
:10165000E02460610F21601701F090FE0020A0617E
:1016600007202061002010BDF0B590F83C20012A31
:101670003AD0012580F83C50022280F83D200368D2
:101680005A689C68194E1A4FB34201D0BB4204D12C
:1016900022F4700C4A6842EA0C02DFF858C002EAF1
:1016A0000C02D1F800C04CEA020CC3F804C0026876
:1016B000B2420DD0B2F1804F0AD00F4B9A4207D000
:1016C0000E4B9A4204D0BA4202D00D4B9A4204D13A
:1016D000896824F080031943916080F83D5000210F
:1016E00080F83C100846F0BD0220F0BD002C0140FF
:1016F000003401408FFFFFFD00040040000800405F
:101700000040014010B586B0044614216846FEF73B
:10171000B9FD0E492068884215D10D48C16C41F0D1
:101720000101C164C06C002100F00100059080201F
:1017300000900220CDE90101CDE9031069464FF088
:101740009040FFF7C1F806B010BD00000004004053
:101750000010024070B5044690F83C0000260D468B
:1017600001280BD0012084F83C000C2A4AD007DC69
:1017700082B1042A20D0082A06D131E0022070BDAF
:10178000102A53D0142A63D00126002084F83C008C
:10179000304670BD206801F097F92068816941F0FA
:1017A000080181612068816921F00401816120685C
:1017B00081692A69114311E0206801F0D3F920689A
:1017C000816941F4006181612068816921F480614F
:1017D0008161206881692A6941EA02218161D4E737
:1017E000206801F007FA2068C16941F00801C16171
:1017F0002068C16921F00401C1612068C1692A69BA
:10180000114311E0206801F03DFA2068C16941F4FC
:101810000061C1612068C16921F48061C1612068F3
:10182000C1692A6941EA0221C161AEE7206801F07D
:1018300071FA2068016D41F0080101652068016DB1
:1018400021F0040101652068016D2A69114311E04E
:10185000206801F097FA2068016D41F4006101658C
:101860002068016D21F4806101652068016D2A699D
:1018700041EA0221016588E710B5040003D094F81D
:101880003D0010B107E0012010BD002084F83C00AD
:10189000204600F023F8022084F83D00211D206836
:1018A00001F0A6F8012084F8480084F83E0084F88E
:1018B0003F0084F8400084F8410084F8420084F836
:1018C000430084F8440084F8450084F8460084F816
:1018D000470084F83D00002010BD000008B50068F6
:1018E0000649884208D10648816D41F002018165B0
:1018F000806D00F00200009008BD00000004004070
:101900000010024030B50446022269B1042912D009
:10191000082917D00C291CD0102921D094F8430095
:10192000012824D0012030BD94F83E000128F9D1CF
:1019300084F83E201DE094F83F000128F2D184F89D
:101940003F2016E094F840000128EBD184F84020B5
:101950000FE094F841000128E4D184F8412008E028
:1019600094F842000128DDD184F8422001E084F897
:1019700043200122206801F099F8194B2068194989
:10198000194A984209D0884207D0904205D0174D95
:10199000A84202D0164DA84203D1456C45F400453B
:1019A0004564206898420CD0B0F1804F09D0114BAB
:1019B000984206D0104B984203D0884201D0904202
:1019C00007D181680D4A1140062906D0B1F5803F44
:1019D00003D0016841F001010160002030BD00002A
:1019E000002C01400034014000400140004401400F
:1019F00000480140000400400008004007000100CA
:101A000090F88410012918D0012180F88410242135
:101A1000C0F8881001680A680B6823F001030B60A6
:101A200022F0005100224266036819602021C0F8AC
:101A3000881080F884201046704702207047704755
:101A4000704770B5044690F8840001281DD001202D
:101A500084F884002420C4F888002068056802689F
:101A600022F0010202602068826822F060620A436C
:101A70008260204601F0BEF9206805602020C4F88D
:101A80008800002084F8840070BD022070BD70B50D
:101A9000044690F8840001281DD0012084F88400B9
:101AA0002420C4F8880020680568026822F001023A
:101AB00002602068826822F060420A438260204609
:101AC00001F098F9206805602020C4F88800002003
:101AD00084F8840070BD022070BD70477047704765
:101AE0002DE9F04103680446D86919689A6840F600
:101AF0000F0528424FF000054FF002060AD1870675
:101B00007ED501F0200702F0805C57EA0C0777D001
:101B1000616F42E1B64FDFF8DCC2174001EA0C0CFE
:101B200057EA0C0C6CD05FEAC07C0CD05FEAC15C59
:101B300009D54FF0010CC3F820C0D4F8903043F021
:101B40000103C4F89030830709D5D30707D0236871
:101B50001E62D4F8903043F00403C4F89030430779
:101B60000AD5D30708D0266804233362D4F890300E
:101B700043F00203C4F8903003070CD501F02003B2
:101B80003B4308D0266808233362D4F8903043F0F2
:101B90000803C4F8903003050BD54B0109D526681E
:101BA0004FF400633362D4F8903043F02003C4F85C
:101BB0009030D4F89030002B3DD0800609D501F04C
:101BC000200002F08051084303D0616F09B1204624
:101BD0008847D4F8900021688968490602D410F03B
:101BE000280F2AD0204601F0E9F9206880684006D5
:101BF0001ED52068083050E8001F21F0400100E0A9
:101C000021E040E80012002AF3D1D4F8800078B136
:101C100079498163D4F88000FEF708FE00280AD0D5
:101C2000D4F88000816B00E02046BDE8F041084711
:101C30002046FFF754FFBDE8F0812046FFF74FFF35
:101C4000C4F89050F7E7D4F86CC02027BCF1010F1E
:101C50007ED15FEAC06C7BD55FEAC16C78D510207D
:101C6000186220688068400651D5D4F880100A6850
:101C700050680004000C3ED0B4F85C3083423AD97E
:101C8000A4F85E000868006880062CD4216851E83A
:101C9000000F20F4807041E80002002AF6D120688D
:101CA000083050E8001F21F0010140E80012002A2E
:101CB000F5D12068083050E8001F21F0400140E8CD
:101CC0000012002AF5D1C4F88C70E566216851E84D
:101CD000000F20F0100041E80002002AF6D1D4F8ED
:101CE0008000FEF76EFD2667B4F85C00B4F85E1065
:101CF000401A81B207E0B4F85C1081429BD11068B1
:101D0000800698D526672046FFF799FE93E7B4F83A
:101D10005C00B4F85E10401A81B2B4F85E0000288E
:101D200089D0002987D0226852E8000F20F49070F3
:101D300042E80003002BF6D12D4BDB43206808302E
:101D400050E8002F1A4040E8002CBCF1000F00E0E2
:101D50000EE0F3D1C4F88C70E5666567206850E842
:101D6000002F22F0100240E80023002BF6D1C9E733
:101D7000C60209D5560207D54FF4801018622046D6
:101D8000BDE8F041FFF7AABE03060AD501F08003C3
:101D900002F40002134304D0A16F00297FF444AF82
:101DA00049E7420611D54A060FD52046016851E899
:101DB000002F22F0400241E80023002BF6D1C0F8AA
:101DC0008870856700F00DF935E7020206D54A00F4
:101DD00004D52046BDE8F041FFF77FBEC00195D590
:101DE000002993DA2046BDE8F041FFF729BE000044
:101DF0000100001020010004AD2F000810B5040000
:101E000003D0D4F8880010B107E0012010BD0020F5
:101E100084F88400204600F027F82420C4F88800C5
:101E20002068016821F001010160A06A10B120461C
:101E300001F002F8204601F0EBF80128E6D0206816
:101E4000416821F4904141602068816821F02A01B5
:101E500081602068016841F0010101602046BDE811
:101E6000104001F04DB8000010B598B004461421A0
:101E700011A8FEF707FA44216846FEF703FA1B494A
:101E80002068884230D101200024CDE90004684652
:101E9000FEF746FF08B1FEF792FC1548016E41F4CB
:101EA00080410166016E01F480411691C16C41F0E0
:101EB0000101C164C06C11A900F0010016904FF43B
:101EC000C06011900220CDE912040720CDE9144032
:101ED0004FF09040FEF7F8FC002201212520FEF78C
:101EE00087FE2520FEF776FE18B010BD00380140B1
:101EF0000010024010B500680A49884211D10A4812
:101F00000268536A0A48094CC1786354491CC9B233
:101F1000C170202313622C2903D10021C17001213B
:101F2000C17310BD003801408C0100203C0000202E
:101F3000080000202DE9F8430446D0F888009846B0
:101F400016460D46202802D00220BDE8F883A5B130
:101F50009EB10020C4F890002120C4F888001834F5
:101F6000FEF7E0FDA6878146E68754F8100C20278F
:101F7000183CB0F5805F02D003E00120E5E720695E
:101F800010B12E46002510E000260EE080212046EC
:101F900001F078F9C0B9DEB116F8010B216888624A
:101FA000B4F85600401EA4F85600B4F856004B464C
:101FB0004FF00002CDF800800028E7D14FF040013B
:101FC000204601F05FF940B1C4F888700320BCE7F7
:101FD00035F8020BC0F30800E0E7C4F88870002071
:101FE000B3E77047FEE7000070B50A20FEF75AFC21
:101FF0002B4D2C4C4FF090462879012829D10121F6
:102000002046FEF785FD70B102212046FEF780FDD7
:1020100048B104212046FEF77BFD20B10121304666
:10202000FEF776FDA8B90020287101212046FEF7B1
:102030006FFD88B102212046FEF76AFD70B10421D0
:102040002046FEF765FD58B101213046FEF760FDE0
:1020500040B1287940B120E0012070BD022070BD60
:10206000032070BD042070BD01212046FEF750FD05
:10207000012812D102212046FEF74AFD01280CD189
:1020800004212046FEF744FD012806D101213046F7
:10209000FEF73EFD012800D12871002070BD000030
:1020A000080000200004004800B585B014216846EF
:1020B000FEF7E8F84FF6FF70009000200321CDE90D
:1020C0000201019069460248FEF7FEFB05B000BD23
:1020D0000008004800B585B014216846FEF7D2F824
:1020E0004FF6FF7000900120019003200390002024
:1020F000029069460248FEF7E7FB05B000BD00000C
:102100000008004870B5002406462146204600F02D
:1021100003F900F041F94FF49635304600F010F91C
:10212000641CAC42F9D370BD30B587B01421684649
:10213000FEF7A8F81E48C16C41F00401C164C16CEF
:1021400001F004010591C16C41F00101C164C16C51
:1021500001F001010591C16C41F00201C164C06C44
:10216000012500F0020005904FF44870CDE900050C
:1021700000240394694602940E48FEF7A5FB28024A
:1021800003940090CDE901544FF0904469462046F5
:10219000FEF79AFBFFF79EFFA06940F48070A061F4
:1021A00004481830016841F40871016007B030BD7F
:1021B0000010024000040048203AD2B2034B02EB68
:1021C000420203EB021200F019B80000704100084F
:1021D000F0B50E460746002540F23F1407E02146C1
:1021E0003846FFF7E9FF103C6D1CA4B2761C32782C
:1021F000002A01D0142DF2D3F0BD00002DE9F047E4
:1022000091468A460026044600F086F8DFF84080B2
:10221000012700BF00F0C0F85FF0000539F8160094
:1022200007FA05F10842404601D1408800E00088E5
:1022300000F086F86D1C102DF0D3641CE4B25146FA
:10224000204600F069F8761C182EE3D3BDE8F0872D
:102250000000002010B5FFF767FF002000F014F821
:10226000084CA080A088A0F50241303906D000F0CB
:102270007FFA002000F008F8A08010BD00F0EFF910
:10228000F7E700000000002070B51D490A6842F41D
:1022900000720A600A6842F480720A60184C103CAE
:1022A000226842F020022260164A1060086840F05E
:1022B0002000086000BF00BF00BF206840F0200081
:1022C0002060206840F480702060FFF7EDFE4FF042
:1022D0009041886A40F48070886200BF00BF00BFF0
:1022E0000848001F006885B2886940F480708861E2
:1022F000FFF7F0FE206840F400702060284670BDB3
:10230000280400481408004801B5BDF80000014940
:10231000488008BD0000002010B50C460146202072
:1023200000F068F82146BDE81040212000F062B8B6
:1023300001B5BDF800000149088008BD000000207B
:10234000134A116841F400711160114910390B688A
:1023500043F480730B600B6843F020030B600D4B5C
:102360001860106840F02000106000BF00BF00BF80
:10237000086840F020000860086840F48070086039
:1023800000BF00BF00BF086840F4007008607047DD
:1023900028040048140800481449086840F40070F4
:1023A0000860086840F480700860104810380268BF
:1023B00042F0200202600E4B22221A600A6842F0AC
:1023C00020020A6000BF00BF00BF016841F0200189
:1023D0000160016841F48071016000BF00BF00BF6F
:1023E000016841F400710160704700002804004852
:1023F00014080048184B10B51A6842F400721A60AD
:102400001A6842F480721A60134A103A146844F051
:1024100020041460114C2060186840F020001860FF
:1024200000BF00BF00BF106840F0200010601068BF
:1024300040F4807010602160186840F0200018603F
:1024400000BF00BF00BF106840F02000106010689F
:1024500040F48070106010BD280400481408004843
:102460002DE9F04F87B014216846FDF70BFF3F4878
:10247000C16C41F00401C164C16C01F0040105911B
:10248000C16C41F02001C164C16C01F020010591D3
:10249000C16C41F00101C164C16C01F00101059101
:1024A000C16C41F00201C164C16C01F002010591EF
:1024B000C16C41F00801C164C06CDFF8B48000F069
:1024C00008004FF6FF740590002221464046FEF7B3
:1024D00024FB4FF480764FF0904900223146484665
:1024E000FEF71BFBDFF88CA0002204215046FEF70C
:1024F00014FBDFF884B04FF4487700223946584681
:10250000FEF70BFB0125CDE9004500240294694646
:1025100040460394FEF7D8F9CDE900546946484691
:102520000295FEF7D1F907208DE83100694658463B
:10253000FEF7CAF90096CDE901546946484603946E
:10254000FEF7C2F904200090CDE9015469465046D7
:102550000394FEF7B9F90097CDE90154694658464E
:102560000394FEF7B1F907B0BDE8F08F0010024008
:1025700000080048000C00480004004810B58AB06C
:102580000024079408941C2168460994FDF77AFEFC
:102590001648154901604F21C0E9011440F2F311BA
:1025A000C0E903148461FFF767F908B1FEF707F982
:1025B000079407A90D480994FFF756F808B1FEF7EC
:1025C000FEF86020CDE90004029404226946074821
:1025D0000494FFF7BFF808B1FEF7F1F80348FFF7DE
:1025E00091F80AB010BD0000000400404001002036
:1025F000184810B5164901604FF4E13141600021DF
:1026000081600C22C160C0E904128161C161016274
:1026100041628162FFF7F2FB08B1FEF7D0F80021BA
:102620000C48FFF734FA08B1FEF7C9F80021094851
:10263000FFF707FA08B1FEF7C2F80648FFF7E0F91E
:10264000002803D0BDE81040FEF7B9B810BD000067
:10265000003801408C010020FEE7FEE7704730B5EE
:1026600001210020FFF7C6FE4FF47A70FEF799F8BB
:1026700000210120FFF7BEFE41F290711020FFF70C
:10268000B9FE4FF41C516020FFF7B4FE0121612018
:10269000FFF7B0FE02214620FFF7ACFE48F2100122
:1026A0001320FFF7A7FE48F2FE011220FFF7A2FE5B
:1026B0004FF4A0610220FFF79DFE41F2300103209C
:1026C000FFF798FE40F2033421463020FFF792FED8
:1026D00021463120FFF78EFE21463220FFF78AFE89
:1026E000E51E29463320FFF785FE03213420FFF73E
:1026F00081FE21463520FFF77DFE14213620FFF7AD
:1027000079FE21463720FFF775FE21463820FFF776
:1027100071FE21463920FFF76DFE29463A20FFF76A
:1027200069FE03213B20FFF765FE21463C20FFF7B1
:1027300061FE4FF4A0513D20FFF75CFE4FF40071A5
:102740009220FFF757FE21469320FFF753FE40F6F5
:102750000D019020FFF74EFE41F218010320FFF714
:1027600049FEBDE8304040F273110720FFF742BE3A
:1027700010B543F20801E320FFF73CFE1221E720E9
:10278000FFF738FE41F23121EF20FFF733FE002141
:102790000120FFF72FFE4FF4E0610220FFF72AFE31
:1027A00041F230010320FFF725FE00210420FFF74E
:1027B00021FE40F207210820FFF71CFE002109201E
:1027C000FFF718FE00210A20FFF714FE00210C205D
:1027D000FFF710FE00210D20FFF70CFE00210F2057
:1027E000FFF708FE00211020FFF704FE072111204B
:1027F000FFF700FE00211220FFF7FCFD002113204F
:10280000FFF7F8FDC820FEF74DF841F29061102067
:10281000FFF7F0FD40F227211120FFF7EBFD3220FA
:10282000FEF740F81D211220FFF7E4FD3220FEF7ED
:1028300039F84FF400611320FFF7DCFD1421292043
:10284000FFF7D8FD0B212B20FFF7D4FD3220FEF738
:1028500029F800212020FFF7CDFD00212120FFF7DE
:10286000C9FD07213020FFF7C5FD40F20771312077
:10287000FFF7C0FD06213220FFF7BCFD40F20471D6
:102880003520FFF7B7FD41F604713620FFF7B2FDA2
:1028900004213720FFF7AEFD00213820FFF7AAFD05
:1028A00040F206713920FFF7A5FD40F201713C208E
:1028B000FFF7A0FD0F213D20FFF79CFD00215020D8
:1028C000FFF798FDEF215120FFF794FD00215220E2
:1028D000FFF790FD40F23F115320FFF78BFD4FF4BF
:1028E0001C516020FFF786FD01216120FFF782FD6A
:1028F00000216A20FFF77EFD00218020FFF77AFD8E
:1029000000218120FFF776FD00218220FFF772FD74
:1029100000218320FFF76EFD00218420FFF76AFD70
:1029200000218520FFF766FD10219020FFF762FD52
:1029300000219220FFF75EFD03219320FFF75AFD4F
:102940004FF488719520FFF755FD00219720FFF780
:1029500051FD00219820FFF74DFD41F218010320A1
:10296000FFF748FDBDE8104040F273110720FFF764
:1029700041BD7047FEF7DCB810B594B03821684609
:10298000FDF780FC14210EA8FDF77CFC4FF40070CD
:10299000FEF760F90120009000040190022003245A
:1029A000CDE907041421CDE90A100C900D9009948B
:1029B0006846FEF743FC08B172B6FEE70F20CDE98A
:1029C0000E04002010901190129002210EA8FEF724
:1029D000EBFA002801D072B6FEE714B010BD00007B
:1029E0000248016841F470010160704788ED00E021
:1029F0002DE9F0430268264B264D274E274C4FF019
:102A00008049984207D0484505D0A84203D0B0423B
:102A100001D0A04203D122F070074A683A43204F08
:102A2000DFF880C0DFF8808098420DD048450BD099
:102A3000A84209D0B04207D0A04205D0B84203D086
:102A4000604501D0404503D122F44075CA682A434D
:102A50004D6922F080022A4302608A68C2620A68D5
:102A60008262984207D0A04205D0B84203D06045A8
:102A700001D0404501D1096901630121416101692A
:102A8000C90703D0016921F001010161BDE8F083AC
:102A9000002C0140000400400008004000340140C8
:102AA00000400140004401400048014010B501F0E1
:102AB0001F030121046A99408C430462016A9A4011
:102AC0001143016210BD00002DE9F043056A026A5E
:102AD00022F001020262436882691C4C25F0020563
:102AE00022400C6822F0030214438A68194E2A43DC
:102AF000174D194FDFF864C0DFF86490A84207D083
:102B0000B04205D0B84203D0604501D0484506D157
:102B100022F00808CA6842EA080222F00402A84229
:102B200007D0B04205D0B84203D0604501D0484537
:102B300005D14D6923F440731D438B692B434360DA
:102B40008461496841630262BDE8F0838FFFFEFF44
:102B5000002C01400034014000400140004401408D
:102B600000480140F0B5056A026A22F010020262D4
:102B700042688369194C1B4E23400C6823F4407350
:102B800043EA042425F020038D6843EA0513144D1D
:102B9000A84201D0B04206D1CF6823F0800343EAB7
:102BA000071323F04003A8420AD0B04208D00E4DCC
:102BB000A84205D00D4DA84202D00D4DA84207D124
:102BC0004D6922F4406242EA85028D6942EA85023B
:102BD00042608461496881630362F0BDFF8FFFFE3C
:102BE000002C0140003401400040014000440140FD
:102BF00000480140F0B5056A026A22F48072026260
:102C00004368C269194C1B4E22400C6822F0030233
:102C1000144325F400728D6842EA0522144DA8423F
:102C200001D0B04206D1CF6822F4006242EA072206
:102C300022F48062A8420AD0B04208D00E4DA842C9
:102C400005D00E4DA84202D00D4DA84207D14D69C6
:102C500023F4405343EA05138D6943EA05134360A7
:102C6000C4614968C1630262F0BD00008FFFFEFFCE
:102C7000002C01400034014000400140004401406C
:102C800000480140F0B5056A026A22F480520262EF
:102C90004268C369194C1B4E23400C6823F44073EF
:102CA00043EA042425F400538D6843EA0533144DA8
:102CB000A84201D0B04206D1CF6823F4004343EAD2
:102CC000073323F48043A8420AD0B04208D00E4D07
:102CD000A84205D00D4DA84202D00D4DA84207D103
:102CE0004D6922F4404242EA85128D6942EA85121A
:102CF0004260C461496801640362F0BDFF8FFFFE5A
:102D0000002C0140003401400040014000440140DB
:102D10000048014030B5056A026A22F4803202623E
:102D20004268036D114C23400C681C4325F40033AA
:102D30000D8943EA05430E4DA8420BD00D4DA84224
:102D400008D00D4DA84205D00C4DA84202D00C4D24
:102D5000A84204D14D6922F4803242EA0522426041
:102D6000046549688164036230BD00008FFFFEFF87
:102D7000002C01400034014000400140004401406B
:102D80000048014030B5046A026A22F480120262EF
:102D90004268036D114D24F400142B400D6843EA82
:102DA00005230D8944EA05540D4DA8420BD00D4D65
:102DB000A84208D00C4DA84205D00C4DA84202D024
:102DC0000B4DA84204D14D6922F4802242EA8522AB
:102DD000426003654968C164046230BDFF8FFFFE35
:102DE000002C0140003401400040014000440140FB
:102DF0000048014030B5416EB9B1026891689268EF
:102E0000C1F342610B4B520F9C5CE50003F10804D7
:102E1000A25CB5FBF2F2A0F86A205A5C615CD200B9
:102E2000B2FBF1F1A0F8681030BD0121A0F86A10E2
:102E3000F8E700005853000890F82810090706D555
:102E400001684A68836B22F400421A434A6090F892
:102E50002810C90706D001684A68C36A22F4003204
:102E60001A434A6090F82810890706D501684A6815
:102E7000036B22F480321A434A6090F82810490705
:102E800006D501684A68436B22F480221A434A60DF
:102E900090F82810C90606D501688A68C36B22F429
:102EA00080521A438A6090F82810890606D5016876
:102EB0008A68036C22F400521A438A6090F8281042
:102EC000490611D501684A68436C22F480121A43FE
:102ED0004A60416CB1F5801F06D101684A68836C75
:102EE00022F4C0021A434A6090F82810090606D559
:102EF00001684A68C06C22F4002202434A607047AD
:102F00002DE9F84300260446C0F89060FDF70AFE5C
:102F10008046206800684FF0200500076FF07E476C
:102F200013D54346002229042046009700F0AAF951
:102F300058B1216851E8000F20F0800041E80002FC
:102F4000002AF6D1C4F8885021E0206800684007C4
:102F500022D5434600224FF480012046009700F01E
:102F600091F9C8B1216851E8000F20F4907041E850
:102F70000002002AF6D12068083050E8001F21F036
:102F8000010140E80012002AF5D1C4F88C5084F801
:102F900084600320BDE8F883C4F88850C4F88C50DE
:102FA00044F86C6F666026760020F3E710B5806AFF
:102FB0000021A0F85E10FEF792FD10BD10B502686A
:102FC00052E8001F21F4907142E80013002BF6D163
:102FD0000E4B0268083252E8001F194042E8001404
:102FE000002CF6D1C16E012908D1016851E8002FEB
:102FF00022F0100241E80023002BF6D12021C0F876
:103000008C100021C166416710BD0000FEFFFFEF7C
:103010002DE9F0410446016880682269E3691043A4
:10302000626900251A431043DFF82CC20A688B4BF3
:103030001A4002430A6020684168E26821F4405166
:10304000114341602168A069614501D0226A1043A3
:103050008A68834B1A4002438A602068C16A626AA8
:1030600021F00F011143C1627E4923687E488B42E3
:103070000DD1D0F8880010F0030006D0012855D0FB
:10308000022842D003283FD152E001203DE0774999
:103090008B420BD1D0F8880010F00C0035D00428FA
:1030A00033D0082840D00C282ED141E070498B4203
:1030B0000BD1D0F8880010F0300026D0102835D081
:1030C000202831D030281FD132E06A498B420BD101
:1030D000D0F8880010F0C00017D0402826D08028F3
:1030E00022D0C02810D123E063450DD1D0F888004C
:1030F00010F4406009D0B0F5806F17D0B0F5006FC4
:1031000012D0B0F5406F13D010205B495B4F002602
:103110004FF4004263453BD160B1022813D004282C
:103120000BD0082872D10DE00220EEE70420ECE776
:103130000820EAE7FEF726F801E0FEF747F801006D
:1031400001D17CE01146606A37F810206768B1FB56
:10315000F2F007EB4703834270D8B0EB073F6DD81E
:10316000002308461946FDF755F8090241EA1061A7
:1031700002027808101871413A460023FDF74AF818
:103180003F4AA0F54071914258D82168C86056E086
:10319000E3694FF6EF7893422CD109284ED2DFE84D
:1031A00000F00508114D0D4D4D4D1000FDF7EAFFE3
:1031B00001E0FDF7F9FF010004D140E0FEF706F859
:1031C000F9E71146606A37F81000B1FBF0F04100F2
:1031D000606801EB5001B1FBF0F0A0F11001414536
:1031E0002CD84FF6F0710140C0F342000143206833
:1031F000C16024E0092821D2DFE800F0050912208F
:103200000E2020201100FDF7BDFF02E016E0FDF7C3
:10321000CBFF010004D112E0FDF7D8FFF9E711461A
:10322000606A37F81000B1FBF0F1606801EB500103
:10323000B1FBF0F0A0F1100141450AD901250120B0
:10324000A4F86A0024F8680F2846E6602661BDE805
:10325000F08180B299E7000000800040F369FFCF61
:10326000FFF4FF110038014000100240004400400C
:1032700000480040004C00400024F4004053000887
:10328000FFFC0F002DE9F047994617460D4604460E
:103290004FF00008089E33E0701C31D0FDF742FC6F
:1032A000A0EB0900B04218D8BEB1206801684907F8
:1032B00026D5802D24D0402D22D0C169C9430907CD
:1032C0000DD4082505622046FFF778FEC4F890501B
:1032D00084F884800120BDE8F0870320FBE7C06903
:1032E000C04300050CD421684FF4006008622046FA
:1032F000FFF764FE2020C4F8900084F88480ECE797
:103300002068C06935EA000004D00020B842C3D06C
:103310000020E0E70120F9E710B50448FEF7EAFDD8
:10332000BDE810400148FEF7DBBB00008C01002027
:10333000FEE700000FB4054B10B503A9044A02983C
:1033400000F0FEF810BC5DF814FB0000513C0008D2
:10335000380000200FB4084B10B504A902AA039846
:1033600000F0EEF8044602A9002000F06CFC2046B4
:1033700010BC5DF814FB0000473C00080907090E6B
:10338000002804DB00F1E02080F80014704700F012
:103390000F0000F1E02080F8141D704702E008C81B
:1033A000121F08C1002AFAD170477047002001E0BF
:1033B00001C1121F002AFBD1704700002DE9FF5FF9
:1033C00082B00021DDE90430020DDDF840B0034396
:1033D00018D044F61050A2F2FF324243151411984F
:1033E00001281FD0A5EB0B00401C5FEA000A4FF03C
:1033F00000064E4FDFF83891B046504615D5CAF159
:10340000000413E0119801244AA3012801D16FEAB6
:103410000B010298119AC0E90031C0E9024206B0DE
:10342000BDE8F09FCBF10000DFE704460021404AF1
:10343000491842EB0450CDE9001012E0E00707D034
:1034400032463B4640464946FDF716F880468946D7
:1034500032463B4610461946FDF70EF806460F4623
:103460006410002CEAD1DDE90401DDE90023BAF1A2
:10347000000F06DAFDF700F842464B46FCF7FCFF6A
:1034800005E0FDF76BF842464B46FDF767F804464A
:103490000E460022284BFDF7E9F803D84FF0FF3025
:1034A000014607E00022254B20463146FCF73DFF50
:1034B000FDF7C3F8102409E0002C0ADB0A220023E0
:1034C000FCF7A8FE039B30321A55641E50EA010235
:1034D000F2D1641C039AC4F111031444119A012A15
:1034E00003D0012208430DD10AE0084304D0002094
:1034F0004FF0110B119072E7A3EB0B056D1E0DE061
:103500005B4504DD4FF0000205F1010504E003DA3C
:103510004FF00002A5F10105002AECD002981199A4
:10352000C0E90231C0E9004579E70000000014401D
:103530000000F03F300000000000F0430000E03FDA
:103540002DE9FF4F95B09A46884606460025EEE1E4
:10355000252877D100242746F94A0121039400E069
:10356000044316F8013F203B01FA03F01042F7D163
:1035700030782A2811D06FF02F033078A0F1300274
:10358000092A16D8039A44F0020402EB820203EBE4
:1035900042021044761C0390EFE758F8042B039284
:1035A000002A03DA504244F40054039044F0020429
:1035B000761C30782E2816D116F8010F44F004043A
:1035C0002A280DD06FF02F023078A0F13003092B9C
:1035D00009D807EB870302EB4303C718761CF3E710
:1035E00058F8047B761C30786C280FD006DC4C2809
:1035F00017D068280DD06A2814D104E0742810D0A0
:103600007A280FD10DE044F400140AE044F4801449
:1036100001E044F440147278824202D104F580142F
:10362000761C761C307866280BD013DC582877D0AF
:1036300009DC002875D04528F6D04628F4D0472864
:103640001AD193E118E0632835D0642879D0652831
:1036500012D18BE1702873D008DC6728F1D069287B
:103660006FD06E280DD06F2806D1ACE073282CD017
:10367000752874D0782853D05246179990476D1CFE
:1036800054E1C4F30250022809D003280DD0D8F821
:10369000001004280DD00D6008F1040846E1D8F8A8
:1036A0000010EA17C1E90052F6E7D8F800100D80C3
:1036B000F2E70D70F0E718F8041B8DF800100020F9
:1036C0008DF80100EB46012003E058F804BB4FF0F1
:1036D000FF3061074FF0000102D40DE009F1010154
:1036E0008946B9420FDA8145F8DB1BF80910002939
:1036F000F4D108E009F1010189468142FADB1BF8A7
:1037000009100029F6D103985346A0EB090721467A
:103710003846179A00F080FA284400EB090507E0C4
:1037200044E008E10DE01BF8010B52461799904761
:10373000B9F10109F7D2534621463846179AF2E00B
:1037400039E00A21C4F302524FF0000B0091022A23
:1037500006D058F8040BC117032A09D00AE023E069
:1037600008F1070020F00702F2E80201904605E0A8
:1037700000B2C117042A01D140B2C117002906DAEC
:103780000A460021404261EB02012D2202E022059F
:1037900004D52B228DF80420012203E0E20701D09A
:1037A0002022F7E7914657E00A2100E010214FF070
:1037B000000B00910BE010214FF0000B44F00404CB
:1037C0000827009103E008204FF0000B0090C4F39D
:1037D0000252022A05D058F8040B0021032A08D00F
:1037E00008E008F1070020F00702F2E80201904625
:1037F00003E080B2042A00D1C0B24FF000092207D2
:103800002AD53278702A07D0DDF800C08CF0100C71
:103810005CEA0B0C05D00EE040228DF8042001225A
:1038200008E050EA010306D030238DF804308DF80B
:10383000052002229146009B83F0080353EA0B0304
:103840000AD150EA010201D1620705D530228DF874
:1038500004204FF001097F1E3278582A04D039A283
:103860000C920CAA02920BE03BA2F9E75B46009A8D
:10387000FCF7D0FC0C9B9B5C029A521E02921370C8
:1038800050EA0102F2D1029804A9081A00F1200BB3
:10389000600702D524F4803400E001275F4502DD93
:1038A000A7EB0B0000E0002000EB0B010090039859
:1038B0004944401A0390E00306D453462146179A20
:1038C000039800F0A9F90544002706E001A8524634
:1038D000C05D179990476D1C7F1C4F45F6DBE003D8
:1038E0000CD553462146179A039800F095F90544E4
:1038F00004E030205246179990476D1C0099481EED
:1039000000900029F5DC08E0029802995246007800
:10391000491C0291179990476D1CBBF10001ABF156
:10392000010BF1DC5BE100F065F90544761C3078B1
:1039300000287FF40DAE19B02846BDE8F08F0000D6
:103940000928010030313233343536373839616275
:103950006364656600000000303132333435363739
:10396000383941424344454600000000600700D416
:10397000062708F1070020F00700F0E80223804640
:1039800003F0004C5FEA0C0001D097A009E020058D
:1039900001D596A005E0E00701D095A001E0AFF2C7
:1039A0004C001390307823F0004365280CD006DCDF
:1039B000452809D046281DD047287FD13BE06628FE
:1039C00018D067287AD136E00021112F01DB1120B1
:1039D00000E0781CCDE9000104A90CA8FFF7EEFC7B
:1039E000DDE90D010C9A4FF0000B07F1010910926F
:1039F00000914EE04FF000400097CDE9011004A97E
:103A00000CA8FFF7DBFCDDE90D020C9B0F994FF0D2
:103A1000000B91461093009211B9791C00EB01093B
:103A2000B7EB090003D4C0F1FF3B07F10109A9EB93
:103A30000700019042E0012F00DA01270021112F39
:103A400001DD112000E03846CDE9000104A90CA8F1
:103A5000FFF7B4FCDDE90D010C9A00914FF0000B6B
:103A6000B946109221070FD4009A4A4503DA9146CD
:103A700001E0A9F10109B9F1010F05DD109AA9F1E1
:103A80000101515C3029F4D0B84202DA10F1040F80
:103A900003DA0121CDE9011010E0002803DC8344A2
:103AA000A9EB000102E0411C494500DD8946A0EB7D
:103AB0000B00401C01904FF000400290200705D4FD
:103AC0000198484502DB4FF0FF30019000208DF84F
:103AD0004B0002980DF14B07B0F1004F25D00220AA
:103AE0000C902B200D90029800280CDA4042029096
:103AF0002D200D9007E00A210298FCF7E1FB303100
:103B0000029007F8011D0C99481E0C900029F2DC68
:103B100002980028EFD1791E0D980870307800F0D7
:103B2000200040F0450007F8020D11A8C01BC01D81
:103B300002901398007800B1012000EB0901019870
:103B400001EBE071029801440398401A401E039073
:103B5000E00306D453462146179A039800F05CF818
:103B600005441398007818B15246179990476D1C78
:103B7000E00323D553462146179A039800F04CF8EA
:103B800005441BE0BBF1000F07DB0098584504DD3E
:103B90001098179910F80B0001E017993020524641
:103BA000904701980BF1010B401E05F101050190B2
:103BB00004D12E205246179990476D1CB9F100018F
:103BC000A9F10109DEDC05E017F8010B524617994F
:103BD00090476D1C0299481E02900029F4DC534660
:103BE0002146179A03989EE62D0000002B00000046
:103BF000200000002DE9F041044600251E4617462E
:103C0000880404D405E039462020B0476D1C641EAA
:103C1000F9D52846BDE8F0812DE9F041044600259C
:103C20001E469046C80301D5302700E020278804AF
:103C300004D505E041463846B0476D1C641EF9D5F1
:103C40002846BDE8F0810A68531C0B60107070476D
:103C500013B53223012269460248FEF76BF900983A
:103C60001CBD00008C0100201F4910B58A7900237B
:103C700001281CD00C46B6EE000A94ED041AD4EDCF
:103C8000050A02281AD0032821D004280ED1C879A9
:103C9000401CC0B2C871012800D9CB711348C97942
:103CA0000068F9B1012901D16421816310BD521C62
:103CB000D0B288710128F9D98B7110BD012AFCD1CD
:103CC00031EE001A30EE800A81ED041A07E0012A75
:103CD000F3D131EE401A30EEC00A81ED041A81EDC5
:103CE000050A10BD836310BD0800002040010020BC
:103CF00010B52C4CA079002829D0012850D12AA138
:103D00003020FEF765FA2069FCF7C7FA41EC100B8A
:103D10002BA153EC102B3048FFF71CFB2E496020E1
:103D2000FEF756FA6069FCF7B8FA41EC100B2BA1CC
:103D300053EC102B2848FFF70DFB27499020FEF786
:103D400047FABDE810402BA1C020FEF741BA4FF45E
:103D50007840FEF7D9FA2EA13020FEF739FA227802
:103D600031A11D48FFF7F6FA1B496020FEF730FA33
:103D7000627833A11848FFF7EDFA17499020FEF753
:103D800027FAA27834A11448FFF7E4FA1249C020B8
:103D9000FEF71EFABDE810404FF6FF70FEF7B4BA0A
:103DA00010BD0000080000202020202020202050EE
:103DB00041524120202020202020202020202000AF
:103DC000202020202020434E42523A202020252E21
:103DD00032662020000000002C010020202020203E
:103DE0002020564E42523A202020252E3266202096
:103DF0000000000020202020202020202020202043
:103E00002020202020202020202020202000000012
:103E10002020202020202044415441202020202008
:103E20002020202020202000202020202020434E61
:103E300042523A202020256420202020000000004B
:103E4000202020202020564E42523A202020256457
:103E50002020202000000000202020202020494495
:103E60004C453A202020256420202020000000001E
:103E700070B50D4D0446012204212846FCF74DFE85
:103E80000A4E01224FF47F413046FCF746FE2102E4
:103E900000223046FCF741FE2846BDE87040002273
:103EA0000421FCF73ABE0000000C0048000800485E
:103EB0000D480146C279097A012A01D01AB105E0FC
:103EC00041F0020101E021F0020101728178002934
:103ED000017A02D041F0010101E001F0010101721B
:103EE000C8B2FFF7C5BF000008000020FCF728FE9D
:103EF000FEF742FDFEF7B4FAFEF740FBFEF778FB53
:103F0000FEF7A8F94FF6FF742046FEF7FBF82046AF
:103F1000FEF7FAF90020FEF70BFA04210E48FDF730
:103F2000F1FC0E480068016841F0200101600C4C72
:103F30000025607980F001006071FEF755F8FFF709
:103F400093FEFFF7D5FEFFF7B3FFE07B0128F0D12A
:103F500000F008F8E573ECE7400100208C01002038
:103F6000080000202DE9FF5F71480278817D8A42B8
:103F70007ED14378C47DA342FAD18378047EA342E4
:103F8000F6D1C378447EA342F2D14379C47E9946E8
:103F9000A342EDD18379047F9846A342E8D1C77943
:103FA000437F9F42E4D1057A837F9D42E0D1DFF8D1
:103FB00084B182466FF02F04432A50D143297DD12A
:103FC000017C427C303901EB810104EB4101531843
:103FD0008BF80930827CC67C303A02EB820204EB1B
:103FE000420232448BF80A2090F8266090F827C0ED
:103FF000303E06EB860604EB460666448BF80B6003
:1040000090F829C09AF828005946303800EB800013
:1040100004EB400060440873F31A801ADBB2C0B2AC
:104020004B7388733C2801D25B1C4B73DEB200EEED
:10403000106AD1ED040AB8EE400A20EE200A8BED9A
:10404000060A10EE100AFCF728F9CDE90201CDE9C5
:1040500000563B464246494637A0FFF76BF99AF8AF
:104060000000554656285AD1A87D562857D100E061
:1040700057E0FF20FFF7FCFE287C697C303800EB1E
:10408000800004EB40000E188BF80960A97CEA7CE4
:10409000303901EB810104EB41010A448BF80A201D
:1040A00095F8261095F82730303901EB810104EBA3
:1040B0004101194458468BF80B1000E02FE095F8A9
:1040C000283095F82970303B03EB830304EB43035E
:1040D0003B44891B9A1A0373C9B2D2B241738273EB
:1040E0003C2A02D20AB1491C4173CCB200EE104AFC
:1040F000D0ED050AB8EE400A20EE200A8BED070A43
:1041000010EE100AFCF7C9F8CDE90201287ACDE9D2
:104110000004EB79AA7969790DA0FFF70BF9BDE8E6
:10412000FF9F04B010A0BDE8F05FFFF703B90000E7
:104130003C00002008000020434E42523A256325EF
:1041400063256325633A25643A252E32660D0A00FD
:10415000564E42523A25632563256325633A25640A
:104160003A252E32660D0A004572726F720D0A00F2
:10417000000000000000000000000000000000003F
:10418000000000000000000000000000000000002F
:10419000000000000000000000000000000000001F
:1041A0000000800180018001800180018001800188
:1041B00080018001800180018001800100000000F9
:1041C00080018001000000000000000000000000ED
:1041D00000000000CC00CC00CC00CC00CC00CC0017
:1041E00000000000000000000000000000000000CF
:1041F00000000000000000000000000000000000BF
:10420000000000000000000000000000600C600CD6
:10421000600C30063006FE1FFE1F300638071803FC
:10422000FE1FFE1F180318038C018C018C01000077
:1042300000008000E003F80F9C0E8C1C8C188C0092
:104240009800F801E007800E801C8C188C189C18D0
:10425000B80CF00FE00380008000000000000000B8
:104260000000000000000E181B0C110C11061106B6
:10427000110311039B018E01C038C06C604460447F
:10428000304430441844186C0C3800000000000022
:104290000000E001F0033807180618063003F001AB
:1042A000F000F8009C310E33061E061C061C063F6B
:1042B000FC73F0210000000000000000000000007E
:1042C000000000000C000C000C000C000C000C00A6
:1042D00000000000000000000000000000000000DE
:1042E00000000000000000000000000000000000CE
:1042F0000000000200038001C000C00060006000F8
:10430000300030003000300030003000300030002D
:1043100060006000C000C0008001000300020000D7
:10432000000020006000C000800180010003000345
:10433000000600060006000600060006000600064D
:104340000003000380018001C00060002000000025
:10435000000000000000000000000000C000C000DD
:10436000D806F807E001300338070000000000001D
:10437000000000000000000000000000000000003D
:10438000000000000000000000000000800180012B
:10439000800180018001FC3FFC3F800180018001A1
:1043A000800180010000000000000000000000000B
:1043B00000000000000000000000000000000000FD
:1043C00000000000000000000000000000000000ED
:1043D0000000800180010001000180000000000059
:1043E00000000000000000000000000000000000CD
:1043F0000000000000000000E007E00700000000EF
:1044000000000000000000000000000000000000AC
:10441000000000000000000000000000000000009C
:10442000000000000000000000000000000000008C
:104430000000C000C00000000000000000000000FC
:104440000000000C000C000600060006000300033C
:1044500000038003800180018001C000C000C00013
:10446000600060000000000000000000000000008C
:104470000000E003F007380E180C0C180C180C188C
:104480000C180C180C180C180C180C18180C380EEA
:10449000F007E00300000000000000000000000042
:1044A000000000018001C001F00198018801800135
:1044B00080018001800180018001800180018001F4
:1044C00080018001000000000000000000000000EA
:1044D0000000E003F80F180C0C180C180018001856
:1044E000000C000600038001C000600030001800CE
:1044F000FC1FFC1F00000000000000000000000086
:104500000000E001F807180E0C0C0C0C000C000663
:10451000C003C007000C001800180C180C18180C69
:10452000F807E003000000000000000000000000A9
:104530000000000C000E000F000F800DC00C600C7E
:10454000600C300C180C0C0CFC3FFC3F000C000CF9
:10455000000C000C00000000000000000000000043
:104560000000F80FF80F180018000C00EC03FC070F
:104570001C0E001C0018001800180C181C0C180E3B
:10458000F807E00300000000000000000000000049
:104590000000C007F00F381C181818000C00CC03DE
:1045A000EC0F3C0E1C1C0C180C180C18181C380EA8
:1045B000F007E00300000000000000000000000021
:1045C0000000FC1FFC1F000C000600060003800317
:1045D0008001C001C000E000600060007000300099
:1045E000300030000000000000000000000000006B
:1045F0000000E003F007380E180C180C180C3806F1
:10460000F007F007180C0C180C180C180C18380CC4
:10461000F80FE003000000000000000000000000B0
:104620000000E003F007380E1C0C0C180C180C18D6
:104630001C1C381EF81BE0190018000C000C1C0E86
:10464000F807F0010000000000000000000000007A
:104650000000000000000000000000008001800158
:10466000000000000000000000000000000000004A
:104670008001800100000000000000000000000038
:104680000000000000000000000000008001800128
:10469000000000000000000000000000000000001A
:1046A0008001800100010001800000000000000086
:1046B00000000000000000000000000000000000FA
:1046C0000010001C800FE003F8001800F800E00361
:1046D000800F001C0010000000000000000000001F
:1046E00000000000000000000000000000000000CA
:1046F000F81F000000000000F81F0000000000008C
:1047000000000000000000000000000000000000A9
:104710000000000000000000000000000000000099
:1047200008003800F001C007001F0018001FC00774
:10473000F001380008000000000000000000000048
:104740000000E003F80F180C0C180C180018000CEF
:10475000000600038001C000C000C000000000008F
:10476000C000C000000000000000000000000000C9
:1047700000000000E00718180420C229224A114452
:1047800009440944094409221113E20C024004209F
:104790001818E00700000000000000000000000002
:1047A000000080038003C006C006C006600C600CD9
:1047B000301830183018F83FF83F1C700C600C604F
:1047C00006C006C00000000000000000000000005D
:1047D0000000FC03FC0F0C0C0C180C180C180C0C33
:1047E000FC07FC0F0C180C300C300C300C300C1883
:1047F000FC1FFC070000000000000000000000009B
:104800000000C007F01F38381C300C70066006002E
:104810000600060006000600060006600C701C304C
:10482000F01FE00700000000000000000000000092
:104830000000FE03FE0F060E0618061806300630AE
:104840000630063006300630063006180618060E0A
:10485000FE0FFE030000000000000000000000004A
:104860000000FC3FFC3F0C000C000C000C000C0096
:10487000FC1FFC1F0C000C000C000C000C000C00BA
:10488000FC3FFC3F000000000000000000000000B2
:104890000000F83FF83F1800180018001800180032
:1048A000F81FF81F1800180018001800180018004A
:1048B00018001800000000000000000000000000C8
:1048C0000000E00FF83F3C780E6006E007C00300F0
:1048D000030003FE03FE03C007C006C00EC03CF089
:1048E000F83FE00F000000000000000000000000A2
:1048F00000000C300C300C300C300C300C300C3014
:10490000FC3FFC3F0C300C300C300C300C300C30C9
:104910000C300C300000000000000000000000001F
:104920000000800180018001800180018001800100
:10493000800180018001800180018001800180016F
:104940008001800100000000000000000000000065
:10495000000000060006000600060006000600062D
:1049600000060006000600060006180618063807AE
:10497000F003E00100000000000000000000000063
:10498000000006300618060C060606038601C6005F
:1049900066007600DE008E0106030606060C061889
:1049A000063006600000000000000000000000006B
:1049B000000018001800180018001800180018004F
:1049C0001800180018001800180018001800180027
:1049D000F81FF81F000000000000000000000000A9
:1049E00000000EE01EF01EF01EF036D836D836D885
:1049F00036D866CC66CC66CCC6C6C6C6C6C6C6C6E3
:104A000086C386C300000000000000000000000014
:104A100000000C301C303C303C306C306C30CC3002
:104A2000CC308C310C330C330C360C360C3C0C3C3B
:104A30000C380C30000000000000000000000000F6
:104A40000000E007F81F1C380E70066003C003C0AA
:104A500003C003C003C003C003C006600E701C384F
:104A6000F81FE00700000000000000000000000048
:104A70000000FC0FFC1F0C380C300C300C300C30DC
:104A80000C18FC1FFC070C000C000C000C000C00A8
:104A90000C000C00000000000000000000000000FE
:104AA0000000E007F81F1C380E70066003E003C02A
:104AB00003C003C003C003C007E006630E3F1C3CF5
:104AC000F83FE0F700C00000000000000000000018
:104AD0000000FE0FFE1F063806300630063006388E
:104AE000FE1FFE0706030606060C0618061806300B
:104AF000063006600000000000000000000000001A
:104B00000000E003F80F1C0C0C180C180C001C0023
:104B1000F803E00F001E0038063006300E301C1C73
:104B2000F80FE00700000000000000000000000097
:104B30000000FE7FFE7F80018001800180018001F6
:104B4000800180018001800180018001800180015D
:104B50008001800100000000000000000000000053
:104B600000000C300C300C300C300C300C300C30A1
:104B70000C300C300C300C300C300C300C30181861
:104B8000F81FE00700000000000000000000000027
:104B9000000003600630063006300C180C180C18A4
:104BA000180C180C380E30063006700760036003CE
:104BB000C001C00100000000000000000000000073
:104BC00000000360C361C361C3616633663366334B
:104BD0006633663366336C1B6C1B6C1B2C1A3C1ED5
:104BE000380E380E00000000000000000000000039
:104BF00000000FE00C7018303018700C600EC00709
:104C000080038003C003E006700C301C18180C30C1
:104C10000E6007E00000000000000000000000003F
:104C2000000003C006600C301C383818300C6006D9
:104C3000E007C003800180018001800180018001C4
:104C40008001800100000000000000000000000062
:104C50000000FC7FFC7F006000300018000C0006A4
:104C600000038001C0006000300018000C00060046
:104C7000FE7FFE7F0000000000000000000000003A
:104C80000000E003E003600060006000600060007E
:104C90006000600060006000600060006000600014
:104CA00060006000600060006000E003E00300005E
:104CB000000030003000600060006000C000C000F4
:104CC000C000C001800180018001000300030003D7
:104CD00000060006000000000000000000000000C8
:104CE0000000E003E00300030003000300030003EF
:104CF000000300030003000300030003000300039C
:104D000000030003000300030003E003E0030000CE
:104D100000000000C001C0016003600360033006B2
:104D20003006180C180C0000000000000000000005
:104D30000000000000000000000000000000000073
:104D40000000000000000000000000000000000063
:104D50000000000000000000000000000000000053
:104D60000000FFFFFFFF0000000000000000000047
:104D700000000C000C000C000C000C000C000000EB
:104D80000000000000000000000000000000000023
:104D90000000000000000000000000000000000013
:104DA000000000000000000000000000F003F80711
:104DB0001C0C0C0C000FF00FF80C0C0C0C0C1C0F46
:104DC000F80FF018000000000000000000000000D4
:104DD000000018001800180018001800D803F80F79
:104DE000380C181818181818181818181818380C1B
:104DF000F80FD803000000000000000000000000D1
:104E0000000000000000000000000000C003F007E8
:104E1000300E180C1800180018001800180C300E6E
:104E2000F007C003000000000000000000000000C8
:104E3000000000180018001800180018C01BF01F10
:104E4000301C181818181818181818181818301CAA
:104E5000F01FC01B00000000000000000000000068
:104E6000000000000000000000000000C003F00F80
:104E7000300C1818F81FF81F180018003818301CCC
:104E8000F00FC0070000000000000000000000005C
:104E90000000800FC00FC000C000C000F007F00786
:104EA000C000C000C000C000C000C000C000C00002
:104EB000C000C00000000000000000000000000072
:104EC000000000000000000000000000E00DF80FEE
:104ED000180E0C0C0C0C0C0C0C0C0C0C0C0C180EF6
:104EE000F80FE00D000C0C0C1C06F807F001000098
:104EF000000018001800180018001800D807F80F54
:104F0000381C1818181818181818181818181818FD
:104F10001818181800000000000000000000000031
:104F20000000C000C000000000000000C000C00081
:104F3000C000C000C000C000C000C000C000C00071
:104F4000C000C000000000000000000000000000E1
:104F50000000C000C000000000000000C000C00051
:104F6000C000C000C000C000C000C000C000C00041
:104F7000C000C000C000C000C000F8007800000001
:104F800000000C000C000C000C000C000C0C0C06BB
:104F90000C038C01CC006C00FC009C018C030C0306
:104FA0000C060C0C000000000000000000000000D7
:104FB0000000C000C000C000C000C000C000C000B1
:104FC000C000C000C000C000C000C000C000C000E1
:104FD000C000C00000000000000000000000000051
:104FE0000000000000000000000000007C3CFF7E8C
:104FF000C7E383C183C183C183C183C183C183C12B
:1050000083C183C100000000000000000000000018
:105010000000000000000000000000009807F80FEA
:10502000381C1818181818181818181818181818DC
:105030001818181800000000000000000000000010
:10504000000000000000000000000000C003F00F9E
:10505000300C181818181818181818181818300CB8
:10506000F00FC0030000000000000000000000007E
:10507000000000000000000000000000D803F80F4E
:10508000380C181818181818181818181818380C78
:10509000F80FD803180018001800180018000000B6
:1050A000000000000000000000000000C01BF01F16
:1050B000301C181818181818181818181818301C38
:1050C000F01FC01B0018001800180018001800007E
:1050D000000000000000000000000000B007F00326
:1050E0007000300030003000300030003000300000
:1050F0003000300000000000000000000000000050
:10510000000000000000000000000000E003F003C9
:10511000380E180C3800F003C007000C180C380EBD
:10512000F007E003000000000000000000000000A5
:10513000000000008000C000C000C000F007F007C1
:10514000C000C000C000C000C000C000C000C0005F
:10515000C007800700000000000000000000000001
:1051600000000000000000000000000018181818DF
:105170001818181818181818181818181818381C8B
:10518000F01FE01900000000000000000000000017
:105190000000000000000000000000000C18180CC7
:1051A000180C180C300630063006600360036003EC
:1051B000C001C0010000000000000000000000006D
:1051C000000000000000000000000000C141C141DB
:1051D000C3616363636363633636363636361C1CDD
:1051E0001C1C1C1C0000000000000000000000004F
:1051F0000000000000000000000000001C38381C07
:10520000300C600660036003600360036006300CCE
:10521000381C1C38000000000000000000000000E6
:1052200000000000000000000000000018303018EE
:1052300030187018600C600CE00CC006C0068003CB
:105240008003800380018001C001F0007000000035
:10525000000000000000000000000000FC1FFC1F18
:10526000000C000600038001C00060003000180040
:10527000FC1FFC1F000000000000000000000000F8
:10528000000000038001C000C000C000C000C000DA
:10529000C00060006000300060004000C000C0003E
:1052A000C000C000C000C00080010003000000007A
:1052B0000000800180018001800180018001800167
:1052C00080018001800180018001800180018001D6
:1052D0008001800180018001800180018001000047
:1052E00000006000C000C0018001800180018001D9
:1052F000800100030003000600030001800180011B
:105300008001800180018001C00060000000000079
:10531000000000000000000000000000000000008D
:10532000F010F81F080F000000000000000000004F
:10533000000000000000000000000000000000006D
:10534000010002000400060008000A000C00100022
:10535000200040008000000101010103070100005E
:105360000804020408010101000000000000000020
:1053700001020304060708090000000001020304FB
:10538000A0530008000000203C0000009C330008EF
:10539000DC5300083C000020E4050000AC330008AA
:1053A0000000FFFF000000000204020001000000F6
:1053B000000000000000000000006040000000400D
:1053C00000000000000000001000000001000000CC
:0C53D000000000000024F40000000000B9
:04000005080001D915
:00000001FF
