:020000040800F2
:100000008807002081020008871E00089518000854
:10001000851E00087F0500081F240008000000005E
:100020000000000000000000000000009F21000808
:100030008105000800000000891E0008A1210008B9
:100040009B0200089B0200089B0200089B0200081C
:100050009B0200089B0200089B0200089B0200080C
:100060009B0200089B0200089B0200089B020008FC
:100070009B0200089B0200089B0200089B020008EC
:100080009B020008000000009B0200089B02000881
:100090009B0200089B0200089B0200089B020008CC
:1000A0009B0200089B0200089B0200089B020008BC
:1000B0001D220008292200089B0200089B0200085C
:1000C0009B0200089B0200089B0200089B0200089C
:1000D0009B0200089B0200089B0200089B0200088C
:1000E0009B0200089B0200089B0200089B0200087C
:1000F0009B0200089B0200089B0200080000000011
:10010000000000009B020008000000009B020008A5
:100110009B020008000000009B0200089B020008F0
:100120009B0200089B0200089B0200089B0200083B
:100130009B02000800000000000000009B02000875
:100140009B0200089B020008000000000000000065
:10015000000000000000000000000000000000009F
:100160000000000000000000000000009B020008EA
:100170009B020008000000000000000000000000DA
:10018000000000009B0200080000000000000000CA
:10019000000000000000000000000000000000005F
:1001A00000000000000000009B0200089B02000805
:1001B0009B0200089B0200089B0200080000000050
:1001C000000000009B02000800000000000000008A
:1001D0009B0200089B02000800F002F800F041F8C2
:1001E0000AA090E8000C82448344AAF10107DA4592
:1001F00001D100F036F8AFF2090EBAE80F0013F0A3
:10020000010F18BFFB1A43F001031847AC38000078
:10021000CC380000103A24BF78C878C1FAD8520709
:1002200024BF30C830C144BF04680C607047000070
:100230000023002400250026103A28BF78C1FBD8EF
:10024000520728BF30C148BF0B607047642900F0D7
:100250007F80002070471FB502F038FB1FBD10B52E
:1002600010BD00F052F91146FFF7F5FF02F0E8F873
:1002700000F070F903B4FFF7F2FF03BC00F078F967
:100280000948804709480047FEE7FEE7FEE7FEE72A
:10029000FEE7FEE7FEE7FEE7FEE7FEE70448054966
:1002A000054A064B704700000D220008D9010008DE
:1002B0008801002088070020880300208803002090
:1002C0000FB41CB5074B06AA7B44694600900598FD
:1002D00000F003F90020694600F012F91CBC5DF83B
:1002E00014FB0000350200002DE9F0410E460446E3
:1002F000002020622046E168884730B3252805D0D9
:10030000D4E901219047206A401CF2E7E1682046C9
:1003100000278847050018D0A5F14100192802D808
:1003200020354FF400673246294620462760FFF704
:100330008DFF40B1012804D0F61D26F007060836CF
:10034000D8E7361DD6E72846DAE7206ABDE8F0810F
:100350002DE9F0410646002410687529314616A59E
:1003600010D0AFF30080002802DA404213A507E066
:1003700031688A0701D512A502E0490704D511A505
:10038000012401E0AFF3008000210A2206F12407D6
:1003900009E0B0FBF2FCB0FBF2F302FB1C003030D2
:1003A00078541846491C0028F3D123462A46304683
:1003B000BDE8F04100F032B8000000002D00000060
:1003C0002B000000200000004FF0000200B5134693
:1003D00094469646203922BFA0E80C50A0E80C5065
:1003E000B1F12001BFF4F7AF090728BFA0E80C5016
:1003F00048BF0CC05DF804EB890028BF40F8042B0F
:1004000008BF704748BF20F8022B11F0804F18BF7B
:1004100000F8012B70477047704770472DE9F0478F
:100420000D4699469246044600F124080168880664
:1004300004D5E06921F01001216000E00120A8420C
:1004400001DD471B00E00027A1697A1902EB0900D2
:10045000081AA0612078C00602D42046AFF30080BD
:10046000002608E0D4E901211AF806009047206A26
:10047000401C761C20624E45F4DB2078C0060AD56D
:100480002046AFF3008006E0D4E9012130209047F8
:10049000206A401C2062381EA7F10107F4DC07E047
:1004A000D4E9012118F805009047206A401C206219
:1004B000281EA5F10105F3DC2046AFF3008020786B
:1004C000000602D50220BDE8F0870120FBE700000E
:1004D00001694A1C02610878704700B58FB0CDE908
:1004E00001310021059105497944CDE903101146F8
:1004F0006846FFF7F9FE0FB000BD0000E5FFFFFF03
:100500000A6802F8010B0A607047754600F02CF883
:10051000AE4605006946534620F00700854618B0F0
:1005200020B5FFF7BBFEBDE820404FF000064FF0BE
:1005300000074FF000084FF0000B21F00701AC4618
:10054000ACE8C009ACE8C009ACE8C009ACE8C00937
:100550008D46704710B50446AFF300802046BDE8D5
:100560001040FFF787BE00000048704728010020B8
:1005700001491820ABBEFEE7260002007047FEE7E7
:100580007047002240F6B83306E00021491C89B2CA
:100590009942FBD3521C92B28242F6D3704772B694
:1005A000FEE7000070B5044600F038F90546601C0F
:1005B00002D004484068044400F030F9401BA042D7
:1005C000FAD370BD180000202DE9F04FDFF820921B
:1005D000002301260324A9F1040B85B00F2709F19C
:1005E000040AABF1040EFAE006FA03F52A407CD0C7
:1005F00091F804C00CF0030CBCF1010F02D0BCF167
:10060000020F26D1D0F808C0CDF800C04FEA430C45
:1006100004FA0CF8CDF810C0DDF800C02CEA080C84
:10062000CDF800C0D1F80C80DDF810C008FA0CF845
:10063000DDF800C048EA0C08C0F80880D0F804C013
:100640002CEA050C0D79C5F300159D4045EA0C0513
:1006500045600D79ED43AD070ED0C5684FEA4308FC
:1006600004FA08FC25EA0C05D1F808C00CFA08FCCD
:100670004CEA050CC0F80CC00D7905F00305022DFD
:1006800016D1DD0800EB850CCDF808C0DCF8208021
:100690005D074FEAD56C07FA0CF528EA05080D69E5
:1006A00005FA0CF5DDF808C045EA0805CCF820503D
:1006B00005684FEA430CCDF808C004FA0CFC25EAA3
:1006C0000C0591F804C00CF00308DDF808C008FA26
:1006D0000CF848EA0508C0F800804D6815F4403F62
:1006E0007CD0444DD5F860C000E077E04CF0010CC0
:1006F000C5F860C02D6E23F0030C05F001050095D0
:100700003D4D65440295AD684FEA837C4FEA1C7805
:1007100007FA08FC25EA0C05B0F1904F06D0DFF887
:10072000DCC0604505D14FF0010C20E04FF0000C1B
:100730001DE0DFF8CCC0604502D14FF0020C16E09E
:10074000DFF8C0C0604502D14FF0030C0FE0DFF8C6
:10075000B8C0604502D14FF0040C08E0DFF8ACC02F
:10076000604502D14FF0050C01E04FF0060C0CFA89
:1007700008FC4CEA050C029DC5F808C0D9F80050E9
:10078000CC46D1F8048095435FEAC82800D51543CC
:10079000CCF80050DAF80050D446D1F804809543E4
:1007A0005FEA882800D51543CCF80050DBF80050EC
:1007B000DC46D1F8048095435FEA883800D51543BC
:1007C000CCF80050DEF80050F446D1F80480954390
:1007D0005FEAC83800D51543CCF800505B1C0A68A6
:1007E00032FA03F57FF400AF05B0BDE8F08F0000EA
:1007F00008040140001002400000014000040048CD
:1008000000080048000C0048001000480014004890
:100810000AB18161704781627047000001488068B9
:1008200070470000180000200248816842681144A7
:10083000816070471800002010B50024032000F0EC
:1008400073F80F2000F008F808B1012401E000F06F
:1008500025F8204610BD000070B50E4E0546002458
:10086000706898B14FF47A71B1FBF0F00A490968E9
:10087000B1FBF0F000F0F8FB40B9102D06D20022D9
:100880002946501E00F030F8356000E00124204673
:1008900070BD000018000020240000200A4882B02B
:1008A000016E41F001010166016E01F0010100914C
:1008B000816D41F080518165806D00F08050009025
:1008C00002B000F0A1B8000000100240002809DBCF
:1008D00000F01F02012191404009800000F1E0205A
:1008E000C0F8001170470000F0B40E4B1B680C46B6
:1008F000C3F30223C3F10705042D00D90425191DF4
:10090000072901D2002300E0DB1E012606FA05F1CB
:10091000491E214099409E40761E16403143F0BC4E
:1009200001F07EBD0CED00E0064900F0070208680A
:100930004FF6FF03184040EA0220034A10430860C4
:10094000704700000CED00E00000FA052B492C4B2D
:100950000A6832214A432B4940B1B0F5007F08684C
:1009600029D020F4C06040F480602CE00868C0F317
:100970004120022804D051F8800F20F4807022E03A
:10098000D1F8800020F48070C1F88000086820F45D
:10099000C06040F400700860B2FBF3F0401C00E05F
:1009A000401E4A69520501D50028F9D14869400521
:1009B0000AD503207047C0F34120022806D051F821
:1009C000800F40F48070086000207047D1F88000EC
:1009D00040F48070C1F88000086820F4C06040F4E2
:1009E00000700860B2FBF3F0401C00E0401E4A6952
:1009F0005205DBD50028F9D1D8E7000024000020FB
:100A000040420F00007000400248816841F480417C
:100A100081607047007000402DE9F0470E460500E8
:100A20004FF0000725D0DFF8AC81D8F8000000F0C7
:100A30000F00B0420CD2D8F8001021F00F01314362
:100A4000C8F80010D8F8000000F00F00B04210D134
:100A50002968614CC80741F2883A5AD06868DFF8C3
:100A60007C91032808D0022820682DD0400500285A
:100A70002CDB0120BDE8F08720688001F9D5E06813
:100A800000F00302E068C0F30310401C032A19D0F1
:100A9000534A00BFB2FBF0F0E268C2F306225043B3
:100AA000E268C2F34162521C5200B0FBF2F04845CA
:100AB00017D9A06810F0F00F0CD0880711D5A868DE
:100AC00040B10EE0474AE5E78003D0E700F092F836
:100AD000484506D9A06820F0F00040F08000A060F2
:100AE0008027A068696820F003000843A060FFF732
:100AF00095FE814606E000BFFFF790FEA0EB0901DE
:100B000051453AD8A068696800F00C00B0EB810F3D
:100B1000F2D12868810714D5400703D5A06840F4B6
:100B2000E060A0602878000705D5A06820F4605038
:100B300040F4E060A060A068A96820F0F0000843DD
:100B400004E0802F03D1A06820F0F000A060D8F866
:100B50000010404601F00F01B14216D9016821F0A2
:100B60000F0131430160FFF759FE074607E000BF60
:100B7000FFF754FEC11B514501D903207AE7D8F88D
:100B8000000000F00F00B042F2D12878400705D5F0
:100B9000A068E96820F4E0600843A06028780007B6
:100BA00006D5A068296920F4605040EAC100A06021
:100BB00000F020F8A1680C4AC1F30311515C01F068
:100BC0001F01C8400949086009480068BDE8F047AE
:100BD000FFF742BE002002400010024000B4C404EF
:100BE0000024F40000366E01A63A0008240000201C
:100BF00018000020184910B58868C0F38102174812
:100C0000012A0BD08A68164BC2F38102022A06D051
:100C10008A68C2F38102032A03D0002010BD18465F
:100C200010BDCA6802F00304CA68C2F30312521C62
:100C3000032C02D0B0FBF2F001E0B3FBF2F0CA6883
:100C4000C968C2F306225043C1F34161491C4900FF
:100C5000B0FBF1F010BD0000001002400024F400D1
:100C600000366E012DE9F84304007AD02078F84D63
:100C7000C00747D0A868E96800F00C0001F0030144
:100C80000C2802D0082817D001E0032914D060688E
:100C9000B0F5803F17D0B0F5A02F286817D020F40A
:100CA00080302860286820F4802028606068E0B1E7
:100CB000FFF7B4FD064614E02868800322D560687B
:100CC0000028D2D01EE0286840F48030EDE740F4E0
:100CD00080202860F7E700BFFFF7A0FD801B642895
:100CE00070D828688003F7D50CE0FFF797FD06461B
:100CF00005E000BFFFF792FD801B6428F0D828684C
:100D00008003F7D4207880074CD5A868E96800F004
:100D10000C0001F003010C2802D004280DD001E0E2
:100D200002290AD0E068002828682BD040F480709F
:100D30002860FFF773FD064619E02868400502D5D4
:100D4000E068002891D06868217C20F0FE4040EAED
:100D500001606860BF480068FFF77EFD002800D191
:100D600020E072E1FFF75AFD801B0228B8D82868FE
:100D70004005F7D56868217C20F0FE4040EA01601C
:100D800068600FE020F480702860FFF747FD06469A
:100D900005E000BFFFF742FD801B0228A0D82868AD
:100DA0004005F7D42078000729D560690028D5F8D8
:100DB000940013D040F00100C5F89400FFF72EFD19
:100DC000064606E090E000BFFFF728FD801B0228E2
:100DD00086D8D5F894008007F6D510E020F0010001
:100DE000C5F89400FFF71AFD064604E0FFF716FD6C
:100DF000801B022878D8D5F894008007F6D4207894
:100E0000400761D5A86D0026C00008D4A86D40F049
:100E10008050A865A86D012600F0805000908E4893
:100E20000168C90511D40168804641F480710160F0
:100E3000FFF7F4FC074604E0FFF7F0FCC01B0228B4
:100E400052D8D8F80000C005F6D5A068012815D002
:100E50000528D5F8900016D020F00100C5F89000C4
:100E6000D5F8900020F00400C5F89000A06841F289
:100E70008838B8B1FFF7D2FC07460EE0D5F89000ED
:100E800040F00100F0E740F00400C5F89000F5E7FD
:100E9000FFF7C4FCC11B414526D8D5F89000800758
:100EA000F6D50CE0FFF7BAFC074604E0FFF7B6FC06
:100EB000C11B414518D8D5F890008007F6D41EB163
:100EC000A86D20F08050A8652078800629D5A069FB
:100ED0000028D5F8980013D040F00100C5F898001C
:100EE000FFF79CFC064606E075E000BFFFF796FCA6
:100EF000801B02286FD8D5F898008007F6D510E03F
:100F000020F00100C5F89800FFF788FC064604E0D1
:100F1000FFF784FC801B02285DD8D5F89800800775
:100F2000F6D4E069F0B3A968C1F3810103295DD06B
:100F30000228286820F08070286003D0FFF76EFC3C
:100F400004464BE0FFF76AFC064604E0FFF766FC48
:100F5000801B02283FD828688001F7D4F4E90801F3
:100F60006FF00F0202EB01110843218A5204490875
:100F700002EB4151A26841EA02210843217D4FF072
:100F80007E42490802EB41610843217B40EAC1608F
:100F9000E968324A11400843E860286840F08070F0
:100FA000286000E05EE0E86840F08070E860FFF7ED
:100FB00035FC044605E000BFFFF730FC001B0228AB
:100FC00009D828688001F7D54CE000BFFFF726FC60
:100FD000001B022802D90320BDE8F883286880019D
:100FE000F4D4E8681E490840E8603BE00128F3D0EB
:100FF000E868226A00F00301914226D1616A00F09C
:10100000F0020901103991421FD1A26A00F4FE4199
:10101000B1EB022F19D194F82C2000F07841B1EBFC
:10102000C26F12D1218E00F4C00249084905A1F512
:101030000011914209D194F8341000F0C0604908C1
:101040004906A1F1007181420CD00120C4E70000E3
:101050000010024018000020007000400C809F012A
:10106000FCFFEEFE0020B7E710B5401EB0F1807F18
:1010700001D3012010BD4FF0E02460610F21601703
:1010800001F0CEF90020A06107202061002010BDF2
:10109000704770477047704770477047F0B590F8D9
:1010A0003C20012A3AD0012580F83C50022280F8E9
:1010B0003D2003685A689C68194E1A4FB34201D00C
:1010C000BB4204D122F4700C4A6842EA0C02DFF8F9
:1010D00058C002EA0C02D1F800C04CEA020CC3F876
:1010E00004C00268B2420DD0B2F1804F0AD00F4B5B
:1010F0009A4207D00E4B9A4204D0BA4202D00D4B0E
:101100009A4204D1896824F080031943916080F8E1
:101110003D50002180F83C100846F0BD0220F0BD93
:10112000002C0140003401408FFFFFFD000400400F
:101130000008004000400140704710B5040003D093
:1011400094F83D0010B107E0012010BD002084F8A4
:101150003C00204600F022F8022084F83D00211DCA
:10116000206801F067F8012084F8480084F83E0008
:1011700084F83F0084F8400084F8410084F842007D
:1011800084F8430084F8440084F8450084F846005D
:1011900084F8470084F83D00002010BD10B586B0EB
:1011A000044614216846FFF70FF9236800212848F8
:1011B0000222B3F1804F27D0264CA34222D1836D67
:1011C00043F002038365836D03F002030593C36C50
:1011D00043F00203C364C06C00F0020005901020CD
:1011E0000090CDE90121CDE9031269461A48FFF7C5
:1011F000EBF9002211461D20FFF776FB5FF01D0082
:10120000FFF764FB06B010BD836D43F001038365F7
:10121000836D03F001030593C36C43F00103C364C2
:10122000C06C00F0010005904FF400400090CDE943
:1012300001210120CDE9031069464FF09040FFF7EE
:10124000C3F9002211461C20FFF74EFB1C20D7E7F4
:1012500000100240000400400004004870B504463D
:1012600090F83C000025012814D0012684F83C6049
:10127000022084F83D0022689068364B184020F424
:101280007F409060086870282ED010DC10F00F0F9F
:1012900003D021E04FF0020070BD4FEA2012072A70
:1012A0001AD2DFE802F0525252524A3840002A4B1A
:1012B000C21A984249D009DCB0F5805F0DD0B0F574
:1012C000005F1CD0B0F1101F06D13EE0102A3CD0C8
:1012D000202A3AD0502A38D0012584F83D600020D9
:1012E00084F83C00284670BDCB68D1E90121206814
:1012F00001F00BF82068816841F0770109E0CB68C4
:10130000D1E90121206801F000F82068816841F4EA
:1013100080418160E1E7CA684968206801F00AF805
:101320005021206806E0CA684968206801F04AF840
:101330006021206800F0F4FFCFE7CA6849682068A0
:1013400000F0F8FF40212068F4E7226801461046CB
:10135000F0E7000088FFCEFF2000100070B50546C2
:101360002DED028B00260068224C9FED238BB0F1FF
:10137000804F19D10021224800F076FA2049401C04
:10138000206009684E6201F03AFA41EC100B51EC12
:10139000180B53EC102B01F0ADF801F003FAA0602C
:1013A0000021174800F0F6F81649286888421DD138
:1013B0000021154800F058FA1349401C6060096884
:1013C0004E6201F01CFA41EC100B51EC180B53EC7F
:1013D000102B01F08FF801F0E5F9E0600021BDEC81
:1013E000028B0948BDE8704000F0D4B8BDEC028B18
:1013F00070BD0000080000200000000080842E4125
:101400009000002000040040DC0000202DE9F041A5
:10141000054690F83C0000260C46012810D001201B
:1014200085F83C0072B1042A1CD0082A2CD00C2A62
:1014300050D00126002085F83C003046BDE8F08100
:101440000220FBE7D4E90012E368286800F084FF7B
:101450002868816921F00C01816128688169A2688E
:1014600011430FE0D4E90012E368286800F0BCFFE4
:101470002868816921F44061816128688169A268D6
:1014800041EA02218161D5E72868D4E9002C277B55
:10149000036A016A21F480710162C16923F4206347
:1014A00021F0030141EA0C0121F0F00C39074FF45F
:1014B00020674CEA116107EA02221A43C161026205
:1014C0002868C16921F00C01C1612868C169A2685E
:1014D00011432BE02868D4E90021E768036AD0F8BB
:1014E00020C02CF4805CC0F820C0D0F81CC023F4CD
:1014F00020432CF4407C4CEA012121F4704C4FF63F
:10150000FF7101EA07314FF4204741EA0C0107EA75
:1015100002321A43C16102622868C16921F4406144
:10152000C1612868C169A26841EA0221C16181E7FD
:1015300010B5040003D094F83D0010B107E001207D
:1015400010BD002084F83C00204600F022F8022064
:1015500084F83D00211D206800F06CFE012084F815
:10156000480084F83E0084F83F0084F8400084F886
:10157000410084F8420084F8430084F8440084F871
:10158000450084F8460084F8470084F83D000020B8
:1015900010BD704730B50446002571B1042911D043
:1015A000082914D00C2917D0102918D094F843001A
:1015B00094F84720012817D114E094F83E0094F8DD
:1015C0004420F7E794F83F0094F84520F2E794F8B8
:1015D000400094F84620EDE794F84100E8E794F8DD
:1015E0004200E5E7012A01D0012030BD022079B197
:1015F000042916D008291DD00C2949D010294AD019
:1016000084F8430084F847000C2947D001253DE0C9
:1016100084F83E0084F844002068C26842F0020268
:1016200010E084F83F0084F845002068C26842F06A
:10163000040207E084F8400084F846002068C2688D
:1016400042F00802C2600122206800F051FE1649F3
:10165000206888420ED0B0F1804F0BD013498842E9
:1016600008D01349884205D01249884202D0124955
:10167000884207D18168114A1140062906D0B1F588
:10168000803F03D0016841F001010160284630BD70
:1016900084F84100B6E784F84200B3E72068C268E6
:1016A00042F01002CEE70000002C01400004004090
:1016B00000080040003401400040014007000100E4
:1016C0002DE9F04104460068C66805694FF000073F
:1016D000A90713D5B10711D5F91E016101202077A3
:1016E000206880698007204602D0FFF737FE04E0BB
:1016F00000F0B7F8204600F0B5F82777680716D550
:10170000700714D521686FF004000861022020776B
:101710002068806910F4407F204602D0FFF71EFE4B
:1017200004E000F09EF8204600F09CF82777280798
:1017300015D5300713D521686FF008000861042023
:1017400020772068C0698007204602D0FFF706FE98
:1017500004E000F086F8204600F084F82777E806D9
:1017600016D5F00614D521686FF010000861082026
:1017700020772068C06910F4407F204602D0FFF730
:10178000EDFD04E000F06DF8204600F06BF82777DF
:10179000E80708D0F00706D021686FF00100086163
:1017A000204600F060F8280601D4A80408D53006C9
:1017B00006D521686FF4025008612046FFF769FCE6
:1017C000E80508D5300606D521686FF480700861F9
:1017D0002046FFF75DFC680608D5700606D521682F
:1017E0006FF040000861204600F053F8A80608D5C5
:1017F000B00606D521686FF0200008612046FFF78B
:1018000049FCE80208D5F00206D521686FF4801083
:1018100008612046FFF740FCA80208D5B00206D5B3
:1018200021686FF4001008612046FFF734FC68025D
:1018300008D5700206D521686FF480000861204643
:10184000FFF72BFC28020AD5300208D521686FF477
:10185000000008612046BDE8F041FFF76DBCBDE81F
:10186000F0817047704770470246002041B104295B
:1018700009D008290AD00C2901D11068006C7047E2
:101880001068406B70471068806B70471068C06BC1
:1018900070477047FEE7000000B585B01421684628
:1018A000FEF792FD4FF6FF70009000200321CDE976
:1018B0000201019069460248FEF786FE05B000BDB0
:1018C0000008004800B585B014216846FEF77CFD8D
:1018D0004FF6FF700090012001900320039000203C
:1018E000029069460248FEF76FFE05B000BD000099
:1018F0000008004870B5002406462146204600F046
:1019000003F900F041F94FF49635304600F010F934
:10191000641CAC42F9D370BD30B587B01421684661
:10192000FEF752FD1E48C16C41F00401C164C16C58
:1019300001F004010591C16C41F00101C164C16C69
:1019400001F001010591C16C41F00201C164C06C5C
:10195000012500F0020005904FF44870CDE9000524
:1019600000240394694602940E48FEF72DFE2802D7
:1019700003940090CDE901544FF09044694620460D
:10198000FEF722FEFFF79EFFA06940F48070A06181
:1019900004481830016841F40871016007B030BD97
:1019A0000010024000040048203AD2B2034B02EB80
:1019B000420203EB021200F019B80000D62800081A
:1019C000F0B50E460746002540F23F1407E02146D9
:1019D0003846FFF7E9FF103C6D1CA4B2761C327844
:1019E000002A01D0142DF2D3F0BD00002DE9F047FC
:1019F00091468A460026044600F086F8DFF84080CB
:101A0000012700BF00F0C0F85FF0000539F81600AC
:101A100007FA05F10842404601D1408800E00088FD
:101A200000F086F86D1C102DF0D3641CE4B2514612
:101A3000204600F069F8761C182EE3D3BDE8F08745
:101A40000000002010B5FFF767FF002000F014F839
:101A5000084CA080A088A0F50241303906D000F0E3
:101A60009DFA002000F008F8A08010BD00F00DFAEB
:101A7000F7E700000000002070B51D490A6842F435
:101A800000720A600A6842F480720A60184C103CC6
:101A9000226842F020022260164A1060086840F076
:101AA0002000086000BF00BF00BF206840F0200099
:101AB0002060206840F480702060FFF7EDFE4FF05A
:101AC0009041886A40F48070886200BF00BF00BF08
:101AD0000848001F006885B2886940F480708861FA
:101AE000FFF7F0FE206840F400702060284670BDCB
:101AF000280400481408004801B5BDF80000014959
:101B0000488008BD0000002010B50C46014620208A
:101B100000F068F82146BDE81040212000F062B8CE
:101B200001B5BDF800000149088008BD0000002093
:101B3000134A116841F400711160114910390B68A2
:101B400043F480730B600B6843F020030B600D4B74
:101B50001860106840F02000106000BF00BF00BF98
:101B6000086840F020000860086840F48070086051
:101B700000BF00BF00BF086840F4007008607047F5
:101B800028040048140800481449086840F400700C
:101B90000860086840F480700860104810380268D7
:101BA00042F0200202600E4B22221A600A6842F0C4
:101BB00020020A6000BF00BF00BF016841F02001A1
:101BC0000160016841F48071016000BF00BF00BF87
:101BD000016841F40071016070470000280400486A
:101BE00014080048184B10B51A6842F400721A60C5
:101BF0001A6842F480721A60134A103A146844F06A
:101C000020041460114C2060186840F02000186017
:101C100000BF00BF00BF106840F0200010601068D7
:101C200040F4807010602160186840F02000186057
:101C300000BF00BF00BF106840F0200010601068B7
:101C400040F48070106010BD28040048140800485B
:101C50002DE9F04F87B014216846FEF7B5FB3848F0
:101C6000C16C41F00401C164C16C01F00401059133
:101C7000C16C41F02001C164C16C01F020010591EB
:101C8000C16C41F00101C164C16C01F00101059119
:101C9000C16C41F00801C164C16C01F008010591FB
:101CA000C16C41F00201C164C06CDFF8988000F0A3
:101CB00002004FF6FF740590002221464046FEF7D1
:101CC000A7FD4FF480764FF09049002231464846F8
:101CD000FEF79EFDDFF870A0002204215046FEF7BB
:101CE00097FDDFF868B04FF4487700223946584630
:101CF000FEF78EFD0125CDE90045002402946946DA
:101D000040460394FEF760FC0096CDE90154694615
:101D100048460394FEF758FC04200090CDE9015496
:101D2000694650460394FEF74FFC0097CDE90154F5
:101D3000694658460394FEF747FC07B0BDE8F08FAC
:101D40000010024000080048000C00480004004851
:101D500010B58CB00024059422480494069407948E
:101D600008940A9409940094019402944FF08041DD
:101D7000039401604F21C0E901141B49C0E9031419
:101D80008461FFF7DAF908B1FEF709FC4FF48050DF
:101D9000049004A91348FFF761FA08B1FEF7FFFBAE
:101DA0001048FFF7C5FB08B1FEF7F9FB089408A936
:101DB0000C480A94FFF772F908B1FEF7F0FB012016
:101DC000CDE9004002940022694606480394FFF7DB
:101DD0001DFB08B1FEF7E3FB00210248FFF7DAFB29
:101DE0000CB010BD90000020AF000A0010B58CB000
:101DF00000240594224804940694079408940A94B5
:101E000009940094019402941C49039401604F21A9
:101E1000C0E901144FF6FF71C0E903148461FFF7B4
:101E20008CF908B1FEF7BBFB4FF48050049004A975
:101E30001348FFF713FA08B1FEF7B1FB1048FFF79C
:101E400077FB08B1FEF7ABFB089408A90C480A948D
:101E5000FFF724F908B1FEF7A2FB0120CDE900400D
:101E600002940022694606480394FFF7CFFA00283F
:101E700001D0FEF794FB0CB010BD00000004004040
:101E8000DC000020FEE7FEE7704730B501210020AE
:101E9000FFF7A8FE4FF47A70FEF773FB00210120D4
:101EA000FFF7A0FE41F290711020FFF79BFE4FF468
:101EB0001C516020FFF796FE01216120FFF792FE82
:101EC00002214620FFF78EFE48F210011320FFF793
:101ED00089FE48F2FE011220FFF784FE4FF4A06154
:101EE0000220FFF77FFE41F230010320FFF77AFE68
:101EF00040F2033421463020FFF774FE21463120A2
:101F0000FFF770FE21463220FFF76CFEE51E2946E2
:101F10003320FFF767FE03213420FFF763FE2146DD
:101F20003520FFF75FFE14213620FFF75BFE2146C8
:101F30003720FFF757FE21463820FFF753FE214692
:101F40003920FFF74FFE29463A20FFF74BFE0321C9
:101F50003B20FFF747FE21463C20FFF743FE4FF4AE
:101F6000A0513D20FFF73EFE4FF400719220FFF795
:101F700039FE21469320FFF735FE40F60D019020F3
:101F8000FFF730FE41F218010320FFF72BFEBDE8FA
:101F9000304040F273110720FFF724BE10B543F222
:101FA0000801E320FFF71EFE1221E720FFF71AFECB
:101FB00041F23121EF20FFF715FE00210120FFF74C
:101FC00011FE4FF4E0610220FFF70CFE41F23001F8
:101FD0000320FFF707FE00210420FFF703FE40F275
:101FE00007210820FFF7FEFD00210920FFF7FAFD79
:101FF00000210A20FFF7F6FD00210C20FFF7F2FD7B
:1020000000210D20FFF7EEFD00210F20FFF7EAFD74
:1020100000211020FFF7E6FD07211120FFF7E2FD68
:1020200000211220FFF7DEFD00211320FFF7DAFD6B
:10203000C820FEF7B7FA41F290611020FFF7D2FDF9
:1020400040F227211120FFF7CDFD3220FEF7AAFA3A
:102050001D211220FFF7C6FD3220FEF7A3FA4FF430
:1020600000611320FFF7BEFD14212920FFF7BAFD00
:102070000B212B20FFF7B6FD3220FEF793FA00214B
:102080002020FFF7AFFD00212120FFF7ABFD072146
:102090003020FFF7A7FD40F207713120FFF7A2FDC6
:1020A00006213220FFF79EFD40F204713520FFF734
:1020B00099FD41F604713620FFF794FD0421372085
:1020C000FFF790FD00213820FFF78CFD40F20671EC
:1020D0003920FFF787FD40F201713C20FFF782FDB8
:1020E0000F213D20FFF77EFD00215020FFF77AFDF4
:1020F000EF215120FFF776FD00215220FFF772FDFE
:1021000040F23F115320FFF76DFD4FF41C5160204A
:10211000FFF768FD01216120FFF764FD00216A20BF
:10212000FFF760FD00218020FFF75CFD002181208A
:10213000FFF758FD00218220FFF754FD0021832086
:10214000FFF750FD00218420FFF74CFD0021852082
:10215000FFF748FD10219020FFF744FD0021922059
:10216000FFF740FD03219320FFF73CFD4FF48871FA
:102170009520FFF737FD00219720FFF733FD002161
:102180009820FFF72FFD41F218010320FFF72AFDE9
:10219000BDE8104040F273110720FFF723BD7047E0
:1021A000FEF742BB10B594B038216846FEF70CF933
:1021B00014210EA8FEF708F94FF40070FEF7C6FBD5
:1021C000012000900004019002200324CDE90704BF
:1021D0001421CDE90A100C900D9009946846FEF781
:1021E00041FD08B172B6FEE70F20CDE90E040020D4
:1021F00010901190129002210EA8FEF70DFC0028FD
:1022000001D072B6FEE714B010BD000002480168AC
:1022100041F470010160704788ED00E00148FFF76C
:102220004FBA0000900000200148FFF749BA0000B3
:10223000DC0000202DE9F0430268264B264D274E96
:10224000274C4FF08049984207D0484505D0A84216
:1022500003D0B04201D0A04203D122F070074A68F7
:102260003A43204FDFF880C0DFF8808098420DD0DD
:1022700048450BD0A84209D0B04207D0A04205D0B3
:10228000B84203D0604501D0404503D122F44075E7
:10229000CA682A434D6922F080022A4302608A6894
:1022A000C2620A688262984207D0A04205D0B84252
:1022B00003D0604501D0404501D109690163012186
:1022C00041610169C90703D0016921F00101016180
:1022D000BDE8F083002C01400004004000080040ED
:1022E00000340140004001400044014000480140EA
:1022F00010B501F01F030121046A99408C43046268
:10230000016A9A401143016210BD10B5846842EA27
:10231000032224F47F440A432243826010BD00005C
:102320008268034B1A400A4342F0070181607047FC
:102330008FFFCFFF10B5036A046A24F00104046222
:10234000846924F0F00444EA021423F00A020A43E8
:102350008461026210BD000070B5056A046A24F051
:10236000010404628469124EB0420ED0B0F1804F75
:102370000BD0104EB04208D00F4EB04205D00F4ED9
:10238000B04202D00E4EB04203D124F003041443F5
:1023900001E044F001041A0724F0F00444EA126258
:1023A00025F00A0301F00A0119438261016270BD40
:1023B000002C0140000400400008004000340140AF
:1023C0000040014010B5036A046A24F0100404625E
:1023D000846923F0A00324F4704444EA023243EAFF
:1023E00001118261016210BD30B5046A056A25F0F1
:1023F00010050562856925F4407545EA022222F43C
:1024000070454FF6FF7202EA033224F0A0032A431C
:10241000A02404EA011119438261016230BDFEE784
:102420000907090E002804DB00F1E02080F8001401
:10243000704700F00F0000F1E02080F8141D704795
:10244000FEF7FAF9FFF7AEFEFFF702FCFFF780FC9C
:10245000FFF7CCFCFFF7F6FA4FF478442046FFF77D
:1024600049FA2046FFF748FB4FF6FF70FFF758FB8D
:10247000002204211048FEF7CBF900210F48FFF796
:1024800089F800210E48FFF785F80E4C0EA113487D
:10249000A268FDF715FF1149C020FFF791FA0F4818
:1024A0000FA14030E268FDF70BFF0C49D820403106
:1024B000FFF786FAEAE70000000C004890000020D1
:1024C000DC0000200800002054494D3228523430EE
:1024D000293A20256420487A202020002800002066
:1024E00054494D3328523339293A202564487A20FB
:1024F000202020002DE9C04130B4DFF8A0C23CEA22
:10250000111418BF3CEA131400F0EC8081EA0305B3
:102510001CEA111444EAD57418BF1CEA131500F024
:10252000C780A4EB05044FF0004545EAC12145EA08
:10253000C32341EA505143EA525304F17F74994254
:1025400004F500344FEAC0204FEAC22208BF90428F
:1025500000F09C804FEA13650FF24016765D4FEA5B
:10256000134506FB05F7C7F1807706FB07F74FEA2F
:10257000D737A7FB03687642C8F58038A7FB06CE9D
:1025800038BFA8F1010807FB08E64FF0000EA6FBD4
:10259000028CE6FB03CEDCF1000CCEF1004E38BF1E
:1025A000AEF1010EA6FB0C584FF000074FF00005EE
:1025B000E6FB0E87A1FB08C6A0FB07CE16EB0E06B6
:1025C00045F10005E1FB076515F1E04E7EBFA4F57E
:1025D00080345FEA46066D4116F1800745F100053B
:1025E0004FEA17274FEA066647EA0567A6F1DE4677
:1025F000B6F1805F4FEA15251FD9384624F0010C4B
:1026000005EBC471BCF1FE6F01EB0C1102D8F0BCFC
:10261000BDE8008124425CBF01F5801E9EEAC47FB4
:1026200002D4F0BCBDE80081244238D4F0BCA1F152
:10263000C041BDE8004100F043B94FEAD22242EA6E
:1026400043524FEAD323A7FB02864FEAD02040EA49
:10265000415007FB03661EEA0E0F4FEAD12105FB2E
:10266000026658BFA6EB0056B6EB00564FEA520E74
:102670004EEAC37E18EB0E0E56EB530EBDD518EB8B
:1026800002085E417F1C55F10005B6E74FF4801546
:102690004FF000074FF000064FF00008ADE7F0BC28
:1026A0004FF0000001F1C04101F00041BDE80081A0
:1026B00011EA0C1F0CEA131500D00CE013EA0C1FF2
:1026C00000F025804FF00000F0BC81EA030101F02A
:1026D0000041BDE80081F0BCBDE8004181EA030192
:1026E00000F0EEB8F0BCBDE8004170B500F09AF81B
:1026F000097EFC3E00F007B881EA03014FF00000BC
:1027000001F00041704781EA030100F0D9B8F0BC44
:10271000BDE800414FF0000021497047FFFDFBF983
:10272000F7F5F4F2F0EEEDEBE9E8E6E4E3E1E0DE04
:10273000DDDBDAD8D7D5D4D3D1D0CFCDCCCBCAC876
:10274000C7C6C5C4C2C1C0BFBEBDBCBBBAB9B8B79D
:10275000B6B5B4B3B2B1B0AFAEADACABAAA9A8A890
:10276000A7A6A5A4A3A3A2A1A09F9F9E9D9C9C9B5E
:102770009A99999897979695959493939291919009
:102780008F8F8E8E8D8C8C8B8B8A8989888887879A
:102790008685858484838382828181800000FF070F
:1027A0000000F87F4FEA1153A3F58063D3F11E03B5
:1027B000A8BFD3F1200C08DB4FF0004242EAC1224F
:1027C00052EA505232FA03F0704709420BD4102BF0
:1027D000C4BF0020704703F5787CBCF1FF3F05D0F3
:1027E0004FF0FF3070474FF00000704770B500F0B9
:1027F00019F800BF4992248000207047F0E7B0FA32
:1028000080F310FA03F10AD0C3F11D0303F58063CE
:102810004FEA41504FEA035202EBD12170474FF08B
:10282000000070470EF1020E2EF0030E5EF8046BEE
:10283000364205D4012A43EB030515F5001F12D8D3
:10284000012841EB010C1CF5001F0CD80ED14FEAFA
:10285000D17C15F5001F0CEB4C0C0CF1020C08BFE1
:102860004CEBD37C04E04FF0080C01E04FEAD37C42
:102870000CEB4C0526FA05F606F00706B6F1040C3B
:1028800006D20EEB860CBDE870404CF0010C6047A0
:10289000DFE80CF0090B02024FF000414FF000009E
:1028A000A1F5002170BD19461046012851EB010425
:1028B00018BFD4F5001484BF002001F0004170BDA2
:1028C0000808A0F500114FEA310170474FF0407041
:1028D000E1EE100A70470000000000000000000058
:1028E00000000000000000000000000000000000E8
:1028F00000000000000000000000000000000000D8
:1029000000000000000000008001800180018001C3
:1029100080018001800180018001800180018001AF
:102920008001000000008001800100000000000024
:1029300000000000000000000000CC00CC00CC0033
:10294000CC00CC00CC000000000000000000000023
:102950000000000000000000000000000000000077
:102960000000000000000000000000000000000067
:102970000000600C600C600C30063006FE1FFE1F6D
:10298000300638071803FE1FFE1F180318038C01BA
:102990008C018C01000000008000E003F80F9C0E09
:1029A0008C1C8C188C009800F801E007800E801CAD
:1029B0008C188C189C18B80CF00FE0038000800075
:1029C0000000000000000000000000000E181B0CBA
:1029D000110C11061106110311039B018E01C03861
:1029E000C06C60446044304430441844186C0C3867
:1029F0000000000000000000E001F00338071806A6
:102A000018063003F001F000F8009C310E33061E6A
:102A1000061C061C063FFC73F021000000000000AD
:102A2000000000000000000000000C000C000C0082
:102A30000C000C000C000000000000000000000072
:102A40000000000000000000000000000000000086
:102A50000000000000000000000200038001C00030
:102A6000C0006000600030003000300030003000F6
:102A700030003000300060006000C000C000800105
:102A8000000300020000000020006000C000800180
:102A90008001000300030006000600060006000691
:102AA0000006000600060003000380018001C0004C
:102AB0006000200000000000000000000000000096
:102AC0000000C000C000D806F807E0013003380756
:102AD00000000000000000000000000000000000F6
:102AE00000000000000000000000000000000000E6
:102AF000000080018001800180018001FC3FFC3FDB
:102B00008001800180018001800100000000000040
:102B100000000000000000000000000000000000B5
:102B200000000000000000000000000000000000A5
:102B30000000000000000000800180010001000191
:102B40008000000000000000000000000000000005
:102B50000000000000000000000000000000E0078E
:102B6000E00700000000000000000000000000007E
:102B70000000000000000000000000000000000055
:102B80000000000000000000000000000000000045
:102B90000000000000000000C000C00000000000B5
:102BA0000000000000000000000C000C0006000601
:102BB0000006000300030003800380018001800100
:102BC000C000C000C0006000600000000000000005
:102BD0000000000000000000E003F007380E180CB1
:102BE0000C180C180C180C180C180C180C180C18C5
:102BF0000C18180C380EF007E0030000000000006D
:102C0000000000000000000000018001C001F00190
:102C1000980188018001800180018001800180018C
:102C2000800180018001800180010000000000001F
:102C30000000000000000000E003F80F180C0C1862
:102C40000C1800180018000C000600038001C000DA
:102C5000600030001800FC1FFC1F00000000000096
:102C60000000000000000000E001F807180E0C0C46
:102C70000C0C000C0006C003C007000C0018001864
:102C80000C180C18180CF807E003000000000000F6
:102C90000000000000000000000C000E000F000FFC
:102CA000800DC00C600C600C300C180C0C0CFC3F40
:102CB000FC3F000C000C000C000C000000000000A9
:102CC0000000000000000000F80FF80F18001800C6
:102CD0000C00EC03FC071C0E001C00180018001868
:102CE0000C181C0C180EF807E00300000000000090
:102CF0000000000000000000C007F00F381C18188A
:102D000018000C00CC03EC0F3C0E1C1C0C180C180B
:102D10000C18181C380EF007E0030000000000003B
:102D20000000000000000000FC1FFC1F000C00065B
:102D30000006000380038001C001C000E0006000C5
:102D40006000700030003000300000000000000023
:102D50000000000000000000E003F007380E180C2F
:102D6000180C180C3806F007F007180C0C180C1883
:102D70000C180C18380CF80FE003000000000000DD
:102D80000000000000000000E003F007380E1C0CFB
:102D90000C180C180C181C1C381EF81BE019001815
:102DA000000C000C1C0EF807F001000000000000F1
:102DB0000000000000000000000000000000000013
:102DC0000000800180010000000000000000000001
:102DD00000000000000080018001000000000000F1
:102DE00000000000000000000000000000000000E3
:102DF00000008001800100000000000000000000D1
:102E0000000000000000800180010001000180003E
:102E100000000000000000000000000000000000B2
:102E20000000000000000010001C800FE003F8000C
:102E30001800F800E003800F001C001000000000E4
:102E40000000000000000000000000000000000082
:102E5000000000000000F81F000000000000F81F44
:102E60000000000000000000000000000000000062
:102E70000000000000000000000000000000000052
:102E800000000000000008003800F001C007001F2B
:102E90000018001FC007F001380008000000000003
:102EA0000000000000000000E003F80F180C0C18F0
:102EB0000C180018000C000600038001C000C000C0
:102EC000C00000000000C000C000000000000000C2
:102ED00000000000000000000000E00718180420B7
:102EE000C229224A11440944094409440922111300
:102EF000E20C024004201818E00700000000000067
:102F0000000000000000000080038003C006C0062F
:102F1000C006600C600C301830183018F83FF83FCD
:102F20001C700C600C6006C006C0000000000000B1
:102F30000000000000000000FC03FC0F0C0C0C184B
:102F40000C180C180C0CFC07FC0F0C180C300C3077
:102F50000C300C300C18FC1FFC07000000000000B7
:102F60000000000000000000C007F01F38381C30CF
:102F70000C7006600600060006000600060006004B
:102F800006600C701C30F01FE0070000000000001D
:102F90000000000000000000FE03FE0F060E0618F1
:102FA0000618063006300630063006300630063089
:102FB00006180618060EFE0FFE03000000000000B3
:102FC0000000000000000000FC3FFC3F0C000C0073
:102FD0000C000C000C00FC1FFC1F0C000C000C0073
:102FE0000C000C000C00FC3FFC3F00000000000047
:102FF0000000000000000000F83FF83F1800180033
:10300000180018001800F81FF81F18001800180002
:103010001800180018001800180000000000000038
:103020000000000000000000E00FF83F3C780E6058
:1030300006E007C00300030003FE03FE03C007C051
:1030400006C00EC03CF0F83FE00F0000000000009A
:1030500000000000000000000C300C300C300C3080
:103060000C300C300C30FC3FFC3F0C300C300C3082
:103070000C300C300C300C300C3000000000000024
:10308000000000000000000080018001800180013C
:103090008001800180018001800180018001800128
:1030A000800180018001800180010000000000009B
:1030B00000000000000000000006000600060006F8
:1030C00000060006000600060006000600060006D0
:1030D000180618063807F003E001000000000000A1
:1030E000000000000000000006300618060C06066E
:1030F00006038601C60066007600DE008E01060328
:103100000606060C061806300660000000000000E7
:10311000000000000000000018001800180018004F
:1031200018001800180018001800180018001800DF
:10313000180018001800F81FF81F00000000000019
:1031400000000000000000000EE01EF01EF01EF067
:1031500036D836D836D836D866CC66CC66CCC6C615
:10316000C6C6C6C6C6C686C386C300000000000029
:1031700000000000000000000C301C303C303C30EF
:103180006C306C30CC30CC308C310C330C330C3692
:103190000C360C3C0C3C0C380C30000000000000DD
:1031A0000000000000000000E007F81F1C380E704F
:1031B000066003C003C003C003C003C003C003C054
:1031C00006600E701C38F81FE007000000000000C9
:1031D0000000000000000000FC0FFC1F0C380C3049
:1031E0000C300C300C300C18FC1FFC070C000C00D1
:1031F0000C000C000C000C000C0000000000000093
:103200000000000000000000E007F81F1C380E70EE
:10321000066003E003C003C003C003C003C007E0AF
:1032200006630E3F1C3CF83FE0F700C000000000C2
:103230000000000000000000FE0FFE1F06380630F0
:10324000063006300638FE1FFE0706030606060C8B
:103250000618061806300630066000000000000060
:103260000000000000000000E003F80F1C0C0C1828
:103270000C180C001C00F803E00F001E003806308C
:1032800006300E301C1CF80FE007000000000000A4
:103290000000000000000000FE7FFE7F8001800132
:1032A0008001800180018001800180018001800116
:1032B0008001800180018001800100000000000089
:1032C00000000000000000000C300C300C300C300E
:1032D0000C300C300C300C300C300C300C300C300E
:1032E0000C300C301818F81FE00700000000000038
:1032F00000000000000000000360063006300630C9
:103300000C180C180C18180C180C380E3006300657
:10331000700760036003C001C001000000000000EE
:1033200000000000000000000360C361C361C361CE
:103330006633663366336633663366336C1B6C1BE9
:103340006C1B2C1A3C1E380E380E000000000000CA
:1033500000000000000000000FE00C701830301872
:10336000700C600EC00780038003C003E006700C81
:10337000301C18180C300E6007E000000000000040
:10338000000000000000000003C006600C301C3884
:103390003818300C6006E007C0038001800180010E
:1033A0008001800180018001800100000000000098
:1033B0000000000000000000FC7FFC7F0060003087
:1033C0000018000C000600038001C00060003000FF
:1033D00018000C000600FE7FFE7F000000000000C9
:1033E0000000000000000000E003E0036000600057
:1033F00060006000600060006000600060006000CD
:1034000060006000600060006000600060006000BC
:10341000E003E003000000003000300060006000C6
:103420006000C000C000C000C001800180018001B8
:103430000003000300030006000600000000000077
:103440000000000000000000E003E00300030003B0
:103450000003000300030003000300030003000354
:103460000003000300030003000300030003000344
:10347000E003E003000000000000C001C0016003A1
:103480006003600330063006180C180C00000000C2
:10349000000000000000000000000000000000002C
:1034A000000000000000000000000000000000001C
:1034B000000000000000000000000000000000000C
:1034C0000000000000000000FFFFFFFF0000000000
:1034D00000000000000000000C000C000C000C00BC
:1034E0000C000C00000000000000000000000000C4
:1034F00000000000000000000000000000000000CC
:1035000000000000000000000000000000000000BB
:103510000000F003F8071C0C0C0C000FF00FF80C67
:103520000C0C0C0C1C0FF80FF01800000000000031
:10353000000000000000000018001800180018002B
:103540001800D803F80F380C18181818181818187D
:1035500018181818380CF80FD803000000000000E5
:10356000000000000000000000000000000000005B
:103570000000C003F007300E180C180018001800E7
:103580001800180C300EF007C00300000000000007
:1035900000000000000000000018001800180018CB
:1035A0000018C01BF01F301C18181818181818180D
:1035B00018181818301CF01FC01B00000000000075
:1035C00000000000000000000000000000000000FB
:1035D0000000C003F00F300C1818F81FF81F180077
:1035E00018003818301CF00FC00700000000000061
:1035F0000000000000000000800FC00FC000C000ED
:10360000C000F007F007C000C000C000C000C0004C
:10361000C000C000C000C000C000000000000000EA
:10362000000000000000000000000000000000009A
:103630000000E00DF80F180E0C0C0C0C0C0C0C0C10
:103640000C0C0C0C180EF80FE00D000C0C0C1C06EA
:10365000F807F0010000000018001800180018001A
:103660001800D807F80F381C181818181818181848
:10367000181818181818181818180000000000005A
:103680000000000000000000C000C00000000000BA
:103690000000C000C000C000C000C000C000C000EA
:1036A000C000C000C000C000C0000000000000005A
:1036B0000000000000000000C000C000000000008A
:1036C0000000C000C000C000C000C000C000C000BA
:1036D000C000C000C000C000C000C000C000C000EA
:1036E000F8007800000000000C000C000C000C003A
:1036F0000C000C0C0C060C038C01CC006C00FC00C4
:103700009C018C030C030C060C0C00000000000054
:103710000000000000000000C000C000C000C000A9
:10372000C000C000C000C000C000C000C000C00099
:10373000C000C000C000C000C000000000000000C9
:103740000000000000000000000000000000000079
:1037500000007C3CFF7EC7E383C183C183C183C17A
:1037600083C183C183C183C183C100000000000005
:103770000000000000000000000000000000000049
:1037800000009807F80F381C18181818181818187F
:103790001818181818181818181800000000000039
:1037A0000000000000000000000000000000000019
:1037B0000000C003F00F300C18181818181818184B
:1037C00018181818300CF00FC0030000000000009B
:1037D00000000000000000000000000000000000E9
:1037E0000000D803F80F380C1818181818181818F3
:1037F00018181818380CF80FD803180018001800FB
:103800001800180000000000000000000000000088
:103810000000C01BF01F301C1818181818181818B2
:1038200018181818301CF01FC01B001800180018BA
:103830000018001800000000000000000000000058
:103840000000B007F003700030003000300030009E
:103850003000300030003000300000000000000078
:103860000000000000000000000000000000000058
:103870000000E003F003380E180C3800F003C00716
:10388000000C180C380EF007E003000000000000E8
:10389000000000000000000000008000C000C00028
:1038A000C000F007F007C000C000C000C000C000AA
:1038B000C000C000C000C00780070000000000007A
:1038C00000000000000000000000000000000000F8
:1038D0000000181818181818181818181818181898
:1038E00018181818381CF01FE0190000000000001C
:1038F00000000000000000000000000000000000C8
:1039000000000C18180C180C180C30063006300685
:10391000600360036003C001C001000000000000FC
:103920000000000000000000000000000000000097
:103930000000C141C141C3616363636363633636A1
:10394000363636361C1C1C1C1C1C000000000000F7
:103950000000000000000000000000000000000067
:1039600000001C38381C300C6006600360036003E4
:1039700060036006300C381C1C380000000000009A
:103980000000000000000000000000000000000037
:1039900000001830301830187018600C600CE00C03
:1039A000C006C00680038003800380018001C0013F
:1039B000F0007000000000000000000000000000A7
:1039C0000000FC1FFC1F000C000600038001C0006B
:1039D000600030001800FC1FFC1F00000000000009
:1039E000000000000000000000038001C000C000D3
:1039F000C000C000C000C000600060003000600077
:103A00004000C000C000C000C000C000C000800175
:103A1000000300000000000080018001800180019F
:103A2000800180018001800180018001800180018E
:103A3000800180018001800180018001800180017E
:103A400080018001000000006000C000C001800112
:103A50008001800180018001000300030006000353
:103A60000001800180018001800180018001C0008F
:103A700060000000000000000000000000000000E6
:103A8000000000000000F010F81F080F0000000008
:103A90000000000000000000000000000000000026
:103AA0000000000000000000000000000000010213
:103AB0000304060708090000D83A000800000020A7
:103AC0002800000014020008003B00082800002025
:103AD00060070000300200080000FFFF0000000047
:103AE00000000000000000000000000000000000D6
:103AF0001000000001000000000000000024F4009D
:04000005080001D915
:00000001FF
