:020000040800F2
:10000000C006002079020008EB13000891120008D6
:10001000E91300087F0300087118000800000000C1
:10002000000000000000000000000000EF130008C6
:100030008103000800000000ED130008F113000820
:10004000930200089302000893020008930200083C
:10005000930200089302000893020008930200082C
:10006000930200089302000893020008930200081C
:10007000930200089302000893020008930200080C
:100080009302000800000000930200089302000899
:1000900093020008930200089302000893020008EC
:1000A00093020008930200089302000893020008DC
:1000B00093020008930200089302000893020008CC
:1000C00093020008930200089302000893020008BC
:1000D00093020008930200089302000893020008AC
:1000E000930200089302000893020008930200089C
:1000F0009302000893020008930200080000000029
:1001000000000000930200080000000093020008B5
:100110009302000800000000930200089302000808
:10012000930200089302000893020008930200085B
:100130009302000800000000000000009302000885
:100140009302000893020008000000000000000075
:10015000000000000000000000000000000000009F
:1001600000000000000000000000000093020008F2
:1001700093020008000000000000000000000000E2
:1001800000000000930200080000000000000000D2
:10019000000000000000000000000000000000005F
:1001A0000000000000000000930200089302000815
:1001B0009302000893020008930200080000000068
:1001C0000000000093020008000000000000000092
:1001D000930200089302000800F002F800F03CF8D7
:1001E0000AA090E8000C82448344AAF10107DA4592
:1001F00001D100F031F8AFF2090EBAE80F0013F0A8
:10020000010F18BFFB1A43F001031847FC1600004A
:100210001C170000103A24BF78C878C1FAD85207DA
:1002200024BF30C830C144BF04680C607047000070
:100230000023002400250026103A28BF78C1FBD8EF
:10024000520728BF30C148BF0B6070471FB501F08F
:100250004DFB1FBD10B510BD00F058F81146FFF75B
:10026000F5FF01F017FB00F076F803B4FFF7F2FF9B
:1002700003BC00F07DF800000948804709480047AA
:10028000FEE7FEE7FEE7FEE7FEE7FEE7FEE7FEE746
:10029000FEE7FEE704480549054A064B70470000A3
:1002A0005D140008D9010008C0000020C00600202D
:1002B000C0020020C00200204FF0000200B513462B
:1002C00094469646203922BFA0E80C50A0E80C5076
:1002D000B1F12001BFF4F7AF090728BFA0E80C5027
:1002E00048BF0CC05DF804EB890028BF40F8042B20
:1002F00008BF704748BF20F8022B11F0804F18BF8D
:1003000000F8012B7047704770477047754600F042
:100310002BF8AE4605006946534620F00700854697
:1003200018B020B5FFF7B6FFBDE820404FF000063B
:100330004FF000074FF000084FF0000B21F00701CD
:10034000AC46ACE8C009ACE8C009ACE8C009ACE810
:10035000C0098D46704710B50446AFF300802046B3
:10036000BDE81040FFF781BF004870475C000020E7
:1003700001491820ABBEFEE7260002007047FEE7E9
:10038000704772B6FEE7000070B5044600F038F919
:100390000546601C02D004484068044400F030F96F
:1003A000401BA042FAD370BD000000202DE9F04FA1
:1003B000DFF82092002301260324A9F1040B85B065
:1003C0000F2709F1040AABF1040EFAE006FA03F56F
:1003D0002A407CD091F804C00CF0030CBCF1010F52
:1003E00002D0BCF1020F26D1D0F808C0CDF800C071
:1003F0004FEA430C04FA0CF8CDF810C0DDF800C049
:100400002CEA080CCDF800C0D1F80C80DDF810C043
:1004100008FA0CF8DDF800C048EA0C08C0F80880BB
:10042000D0F804C02CEA050C0D79C5F300159D40E9
:1004300045EA0C0545600D79ED43AD070ED0C56862
:100440004FEA430804FA08FC25EA0C05D1F808C075
:100450000CFA08FC4CEA050CC0F80CC00D7905F04C
:100460000305022D16D1DD0800EB850CCDF808C080
:10047000DCF820805D074FEAD56C07FA0CF528EA16
:1004800005080D6905FA0CF5DDF808C045EA080510
:10049000CCF8205005684FEA430CCDF808C004FAA8
:1004A0000CFC25EA0C0591F804C00CF00308DDF8FB
:1004B00008C008FA0CF848EA0508C0F800804D6842
:1004C00015F4403F7CD0444DD5F860C000E077E0A3
:1004D0004CF0010CC5F860C02D6E23F0030C05F044
:1004E000010500953D4D65440295AD684FEA837C5A
:1004F0004FEA1C7807FA08FC25EA0C05B0F1904F8A
:1005000006D0DFF8DCC0604505D14FF0010C20E0DB
:100510004FF0000C1DE0DFF8CCC0604502D14FF079
:10052000020C16E0DFF8C0C0604502D14FF0030CAA
:100530000FE0DFF8B8C0604502D14FF0040C08E0CE
:10054000DFF8ACC0604502D14FF0050C01E04FF080
:10055000060C0CFA08FC4CEA050C029DC5F808C014
:10056000D9F80050CC46D1F8048095435FEAC828FA
:1005700000D51543CCF80050DAF80050D446D1F835
:10058000048095435FEA882800D51543CCF80050D5
:10059000DBF80050DC46D1F8048095435FEA8838E8
:1005A00000D51543CCF80050DEF80050F446D1F8E1
:1005B000048095435FEAC83800D51543CCF8005055
:1005C0005B1C0A6832FA03F57FF400AF05B0BDE8A2
:1005D000F08F0000080401400010024000000140BC
:1005E0000004004800080048000C004800100048C3
:1005F000001400480AB181617047816270470000B1
:1006000001488068704700000000002002488168AF
:1006100042681144816070470000002010B500243A
:10062000032000F065F80F2000F008F808B101245D
:1006300001E000F025F8204610BD000070B50E4E18
:1006400005460024706898B14FF47A71B1FBF0F060
:100650000A490968B1FBF0F000F0EAFB40B9102D3F
:1006600006D200222946501E00F022F8356000E034
:100670000124204670BD0000000000200C00002076
:100680000A4882B0016E41F001010166016E01F07D
:1006900001010091816D41F080518165806D00F014
:1006A0008050009002B000F093B8000000100240AB
:1006B000F0B40E4B1B680C46C3F30223C3F10705CD
:1006C000042D00D90425191D072901D2002300E0BB
:1006D000DB1E012606FA05F1491E214099409E4085
:1006E000761E16403143F0BC01F0C3B80CED00E0BB
:1006F000064900F0070208684FF6FF03184040EA79
:100700000220034A10430860704700000CED00E02F
:100710000000FA052B492C4B0A6832214A432B4929
:1007200040B1B0F5007F086829D020F4C06040F4E3
:1007300080602CE00868C0F34120022804D051F802
:10074000800F20F4807022E0D1F8800020F48070C7
:10075000C1F88000086820F4C06040F400700860B0
:10076000B2FBF3F0401C00E0401E4A69520501D57F
:100770000028F9D1486940050AD503207047C0F325
:100780004120022806D051F8800F40F480700860A4
:1007900000207047D1F8800040F48070C1F88000DC
:1007A000086820F4C06040F400700860B2FBF3F009
:1007B000401C00E0401E4A695205DBD50028F9D1F3
:1007C000D8E700000C00002040420F0000700040FD
:1007D0000248816841F480418160704700700040A8
:1007E0002DE9F0470E4605004FF0000725D0DFF851
:1007F000AC81D8F8000000F00F00B0420CD2D8F85D
:10080000001021F00F013143C8F80010D8F80000A3
:1008100000F00F00B04210D12968614CC80741F2C6
:10082000883A5AD06868DFF87C91032808D00228FB
:1008300020682DD0400500282CDB0120BDE8F08782
:1008400020688001F9D5E06800F00302E068C0F399
:100850000310401C032A19D0534A00BFB2FBF0F02A
:10086000E268C2F306225043E268C2F34162521CBE
:100870005200B0FBF2F0484517D9A06810F0F00F15
:100880000CD0880711D5A86840B10EE0474AE5E7CB
:100890008003D0E700F092F8484506D9A06820F020
:1008A000F00040F08000A0608027A068696820F018
:1008B00003000843A060FFF7A3FE814606E000BFE7
:1008C000FFF79EFEA0EB090151453AD8A068696880
:1008D00000F00C00B0EB810FF2D12868810714D52D
:1008E000400703D5A06840F4E060A06028780007C6
:1008F00005D5A06820F4605040F4E060A060A068D6
:10090000A96820F0F000084304E0802F03D1A0681C
:1009100020F0F000A060D8F80010404601F00F0170
:10092000B14216D9016821F00F0131430160FFF790
:1009300067FE074607E000BFFFF762FEC11B514597
:1009400001D903207AE7D8F8000000F00F00B04288
:10095000F2D12878400705D5A068E96820F4E06066
:100960000843A0602878000706D5A068296920F40C
:10097000605040EAC100A06000F020F8A1680C4A75
:10098000C1F30311515C01F01F01C840094908601F
:1009900009480068BDE8F047FFF750BE002002405C
:1009A0000010024000B4C4040024F40000366E01BC
:1009B000F61800080C00002000000020184910B5AF
:1009C0008868C0F381021748012A0BD08A68164B49
:1009D000C2F38102022A06D08A68C2F38102032A86
:1009E00003D0002010BD184610BDCA6802F00304F1
:1009F000CA68C2F30312521C032C02D0B0FBF2F0FF
:100A000001E0B3FBF2F0CA68C968C2F306225043A2
:100A1000C1F34161491C4900B0FBF1F010BD000079
:100A2000001002400024F40000366E012DE9F84366
:100A300004007AD02078F84DC00747D0A868E9684C
:100A400000F00C0001F003010C2802D0082817D098
:100A500001E0032914D06068B0F5803F17D0B0F5ED
:100A6000A02F286817D020F480302860286820F450
:100A7000802028606068E0B1FFF7C2FD064614E000
:100A80002868800322D560680028D2D01EE028683C
:100A900040F48030EDE740F480202860F7E700BFA5
:100AA000FFF7AEFD801B642870D828688003F7D557
:100AB0000CE0FFF7A5FD064605E000BFFFF7A0FD2F
:100AC000801B6428F0D828688003F7D4207880073A
:100AD0004CD5A868E96800F00C0001F003010C286F
:100AE00002D004280DD001E002290AD0E0680028D5
:100AF00028682BD040F480702860FFF781FD0646FF
:100B000019E02868400502D5E068002891D068689F
:100B1000217C20F0FE4040EA01606860BF48006828
:100B2000FFF78CFD002800D120E072E1FFF768FD9F
:100B3000801B0228B8D828684005F7D56868217C52
:100B400020F0FE4040EA016068600FE020F4807011
:100B50002860FFF755FD064605E000BFFFF750FD92
:100B6000801B0228A0D828684005F7D42078000709
:100B700029D560690028D5F8940013D040F0010011
:100B8000C5F89400FFF73CFD064606E090E000BF84
:100B9000FFF736FD801B022886D8D5F89400800721
:100BA000F6D510E020F00100C5F89400FFF728FD0D
:100BB000064604E0FFF724FD801B022878D8D5F80C
:100BC00094008007F6D42078400761D5A86D0026F0
:100BD000C00008D4A86D40F08050A865A86D01261B
:100BE00000F0805000908E480168C90511D401685A
:100BF000804641F480710160FFF702FD074604E082
:100C0000FFF7FEFCC01B022852D8D8F80000C00530
:100C1000F6D5A068012815D00528D5F8900016D083
:100C200020F00100C5F89000D5F8900020F00400F5
:100C3000C5F89000A06841F28838B8B1FFF7E0FC31
:100C400007460EE0D5F8900040F00100F0E740F0D4
:100C50000400C5F89000F5E7FFF7D2FCC11B414541
:100C600026D8D5F890008007F6D50CE0FFF7C8FC31
:100C7000074604E0FFF7C4FCC11B414518D8D5F86E
:100C800090008007F6D41EB1A86D20F08050A865B2
:100C90002078800629D5A0690028D5F8980013D0BF
:100CA00040F00100C5F89800FFF7AAFC064606E0F0
:100CB00075E000BFFFF7A4FC801B02286FD8D5F8B1
:100CC00098008007F6D510E020F00100C5F89800E4
:100CD000FFF796FC064604E0FFF792FC801B022813
:100CE0005DD8D5F898008007F6D4E069F0B3A9681C
:100CF000C1F3810103295DD00228286820F08070AB
:100D0000286003D0FFF77CFC04464BE0FFF778FC3B
:100D1000064604E0FFF774FC801B02283FD82868D1
:100D20008001F7D4F4E908016FF00F0202EB011122
:100D30000843218A5204490802EB4151A26841EA62
:100D400002210843217D4FF07E42490802EB4161B8
:100D50000843217B40EAC160E968324A11400843F8
:100D6000E860286840F08070286000E05EE0E86895
:100D700040F08070E860FFF743FC044605E000BFE8
:100D8000FFF73EFC001B022809D828688001F7D530
:100D90004CE000BFFFF734FC001B022802D90320FF
:100DA000BDE8F88328688001F4D4E8681E4908404B
:100DB000E8603BE00128F3D0E868226A00F0030114
:100DC000914226D1616A00F0F00209011039914286
:100DD0001FD1A26A00F4FE41B1EB022F19D194F8A1
:100DE0002C2000F07841B1EBC26F12D1218E00F4BB
:100DF000C00249084905A1F50011914209D194F8B2
:100E0000341000F0C06049084906A1F10071814228
:100E10000CD00120C4E700000010024000000020B8
:100E2000007000400C809F01FCFFEEFE0020B7E741
:100E300010B5401EB0F1807F01D3012010BD4FF0EE
:100E4000E02460610F21601700F013FD0020A06115
:100E500007202061002010BD30B590F83C20012A09
:100E600042D0012280F83C20CA688B6822F440728C
:100E70001A434B6822F480621A430B6822F4006222
:100E80001A430B6922F480521A434B6922F4005230
:100E90001A430B6B22F480421A430B8B22F470220C
:100EA00042EA0342CB6922F080521A430F4D036895
:100EB0000024AB4202D00E4DAB4210D10D8D22F476
:100EC000700242EA05520D6A22F080722A434D6A8E
:100ED00022F000722A43C96A22F000520A435A647F
:100EE00080F83C40002030BD022030BD002C014085
:100EF00000340140F0B590F83C20012A3AD0012599
:100F000080F83C50022280F83D2003685A689C68B3
:100F1000194E1A4FB34201D0BB4204D122F4700CD7
:100F20004A6842EA0C02DFF858C002EA0C02D1F823
:100F300000C04CEA020CC3F804C00268B2420DD0F3
:100F4000B2F1804F0AD00F4B9A4207D00E4B9A4213
:100F500004D0BA4202D00D4B9A4204D1896824F0E1
:100F600080031943916080F83D50002180F83C10C7
:100F70000846F0BD0220F0BD002C014000340140C5
:100F80008FFFFFFD000400400008004000400140CA
:100F900010B586B0044614216846FFF78DF90E4956
:100FA0002068884216D10D48C16C41F00401C1642B
:100FB000C06C694600F0040005904FF4807000900A
:100FC0000220019000200290039004200490044825
:100FD000FFF7ECF906B010BD0034014000100240EC
:100FE0000008004870B5044690F83C0000260D4605
:100FF00001280BD0012084F83C000C2A4AD007DCE1
:1010000082B1042A20D0082A06D131E0022070BD26
:10101000102A53D0142A63D00126002084F83C0003
:10102000304670BD206800F08DFA2068816941F07B
:10103000080181612068816921F0040181612068D3
:1010400081692A69114311E0206800F0C9FA20681B
:10105000816941F4006181612068816921F48061C6
:101060008161206881692A6941EA02218161D4E7AE
:10107000206800F0FDFA2068C16941F00801C161F3
:101080002068C16921F00401C1612068C1692A6931
:10109000114311E0206800F033FB2068C16941F47E
:1010A0000061C1612068C16921F48061C16120686B
:1010B000C1692A6941EA0221C161AEE7206800F0F6
:1010C00067FB2068016D41F0080101652068016D32
:1010D00021F0040101652068016D2A69114311E0C6
:1010E000206800F08DFB2068016D41F4006101650E
:1010F0002068016D21F4806101652068016D2A6915
:1011000041EA0221016588E710B5040003D094F894
:101110003D0010B107E0012010BD002084F83C0024
:10112000204600F023F8022084F83D00211D2068AD
:1011300000F09CF9012084F8480084F83E0084F80F
:101140003F0084F8400084F8410084F8420084F8AD
:10115000430084F8440084F8450084F8460084F88D
:10116000470084F83D00002010BD000008B500686D
:101170000649884208D10648016E41F400510166D3
:10118000006E00F40050009008BD000000340140E3
:101190000010024030B50446022269B1042912D081
:1011A000082917D00C291CD0102921D094F843000D
:1011B000012824D0012030BD94F83E000128F9D147
:1011C00084F83E201DE094F83F000128F2D184F815
:1011D0003F2016E094F840000128EBD184F840202D
:1011E0000FE094F841000128E4D184F8412008E0A0
:1011F00094F842000128DDD184F8422001E084F80F
:1012000043200122206800F08FF9194B206819490A
:10121000194A984209D0884207D0904205D0174D0C
:10122000A84202D0164DA84203D1456C45F40045B2
:101230004564206898420CD0B0F1804F09D0114B22
:10124000984206D0104B984203D0884201D0904279
:1012500007D181680D4A1140062906D0B1F5803FBB
:1012600003D0016841F001010160002030BD0000A1
:10127000002C014000340140004001400044014086
:101280000048014000040040000800400700010041
:10129000FEE70000F0B587B014216846FFF70CF8B0
:1012A0002148C16C41F00401C164C16C01F004012A
:1012B0000591C16C41F02001C164C16C01F02001B5
:1012C0000591C16C41F00101C164C16C01F00101E3
:1012D0000591C16C41F00801C164C06C134E00F06F
:1012E00008004FF47E440590002221463046FFF767
:1012F00081F90F4F002204213846FFF77BF90125C1
:10130000CDE9004500240294694630460394FFF776
:101310004DF804200090CDE9015469463846039405
:10132000FFF744F807B0F0BD001002400008004885
:10133000000C004810B598B00024149415941C219A
:101340000DA81694FEF7B8FF34216846FEF7B4FFE7
:101350002448234901604F21C0E9011440F2F311F0
:10136000C0E9031444618461FFF7CEFE08B1FFF7C2
:1013700008F81494159414A91A481694FFF7BAFDA6
:1013800008B1FEF7FEFF6020CDE90D040F94109424
:101390001194129408220DA912481394FFF722FE0B
:1013A00008B1FEF7EEFF00944FF40050CDE9044081
:1013B00003940003CDE90840019402940694079435
:1013C0000A940B94694607480C94FFF745FD08B151
:1013D000FEF7D7FF0348FFF7DBFD18B010BD000094
:1013E0000034014010000020FEE7FEE77047704720
:1013F000FFF70CB910B594B038216846FEF75CFFD2
:1014000014210EA8FEF758FF4FF40070FFF782F981
:10141000012000900004019002200324CDE907047C
:101420001421CDE90A100C900D9009946846FFF73D
:10143000FDFA08B172B6FEE70F20CDE90E040020D8
:1014400010901190129002210EA8FFF7C9F9002800
:1014500001D072B6FEE714B010BD0000024801686A
:1014600041F470010160704788ED00E02DE9F04320
:101470000268264B264D274E274C4FF08049984254
:1014800007D0484505D0A84203D0B04201D0A042C1
:1014900003D122F070074A683A43204FDFF880C03A
:1014A000DFF8808098420DD048450BD0A84209D083
:1014B000B04207D0A04205D0B84203D0604501D069
:1014C000404503D122F44075CA682A434D6922F091
:1014D00080022A4302608A68C2620A688262984275
:1014E00007D0A04205D0B84203D0604501D04045A6
:1014F00001D109690163012141610169C90703D073
:10150000016921F001010161BDE8F083002C014077
:101510000004004000080040003401400040014049
:10152000004401400048014010B501F01F030121B3
:10153000046A99408C430462016A9A401143016233
:1015400010BD00002DE9F043056A026A22F0010295
:101550000262436882691C4C25F0020522400C6837
:1015600022F0030214438A68194E2A43174D194F7B
:10157000DFF864C0DFF86490A84207D0B04205D01D
:10158000B84203D0604501D0484506D122F0080892
:10159000CA6842EA080222F00402A84207D0B04218
:1015A00005D0B84203D0604501D0484505D14D690A
:1015B00023F440731D438B692B4343608461496866
:1015C00041630262BDE8F0838FFFFEFF002C014003
:1015D0000034014000400140004401400048014007
:1015E000F0B5056A026A22F010020262426883695D
:1015F000194C1B4E23400C6823F4407343EA042427
:1016000025F020038D6843EA0513144DA84201D04C
:10161000B04206D1CF6823F0800343EA071323F0DA
:101620004003A8420AD0B04208D00E4DA84205D0CF
:101630000D4DA84202D00D4DA84207D14D6922F4AC
:10164000406242EA85028D6942EA85024260846115
:10165000496881630362F0BDFF8FFFFE002C0140EB
:101660000034014000400140004401400048014076
:10167000F0B5056A026A22F4807202624368C269A8
:10168000194C1B4E22400C6822F00302144325F42F
:1016900000728D6842EA0522144DA84201D0B04282
:1016A00006D1CF6822F4006242EA072222F4806267
:1016B000A8420AD0B04208D00E4DA84205D00E4D27
:1016C000A84202D00D4DA84207D14D6923F44053E2
:1016D00043EA05138D6943EA05134360C461496811
:1016E000C1630262F0BD00008FFFFEFF002C0140CD
:1016F00000340140004001400044014000480140E6
:10170000F0B5056A026A22F4805202624268C36937
:10171000194C1B4E23400C6823F4407343EA042405
:1017200025F400538D6843EA0533144DA84201D0D7
:10173000B04206D1CF6823F4004343EA073323F4D1
:101740008043A8420AD0B04208D00E4DA84205D02E
:101750000D4DA84202D00D4DA84207D14D6922F48B
:10176000404242EA85128D6942EA85124260C461B4
:10177000496801640362F0BDFF8FFFFE002C014049
:101780000034014000400140004401400048014055
:1017900030B5056A026A22F4803202624268036D43
:1017A000114C23400C681C4325F400330D8943EA97
:1017B00005430E4DA8420BD00D4DA84208D00D4D4B
:1017C000A84205D00C4DA84202D00C4DA84204D12D
:1017D0004D6922F4803242EA05224260046549687C
:1017E0008164036230BD00008FFFFEFF002C0140CA
:1017F00000340140004001400044014000480140E5
:1018000030B5046A026A22F4801202624268036DF3
:10181000114D24F400142B400D6843EA05230D8973
:1018200044EA05540D4DA8420BD00D4DA84208D0F6
:101830000C4DA84205D00C4DA84202D00B4DA84239
:1018400004D14D6922F4802242EA85224260036578
:101850004968C164046230BDFF8FFFFE002C014067
:101860000034014000400140004401400048014074
:10187000FEE70907090E002804DB00F1E02080F8EC
:101880000014704700F00F0000F1E02080F8141DF4
:1018900070470000FEF7C2FEFFF7ACFDFFF7FAFC51
:1018A000FFF748FD08210F48FFF774FC01220421CF
:1018B0000D48FEF79FFE0B4D4FF4FA77002628687F
:1018C000C6630A20FEF760FD761CBE42F7DB3C468D
:1018D0002868C4630A20FEF757FD641E002CF7DC5D
:1018E000ECE7000010000020000C00484FF04070B2
:1018F000E1EE100A70470000000000000000010245
:101900000304060708090000281900080000002049
:101910001000000014020008381900081000002010
:10192000B0060000300200081000000001000000B6
:08193000000000000024F40097
:04000005080001D915
:00000001FF
