:020000040800F2
:10000000B8040020ED010008631C0008C91B0008AB
:10001000611C00089B07000819220008000000006E
:10002000000000000000000000000000671C000845
:100030009D07000800000000651C0008691C0008FE
:10004000070200080702000807020008070200086C
:10005000070200080702000807020008070200085C
:10006000070200080702000807020008070200084C
:10007000070200080702000807020008070200083C
:10008000070200080000000007020008070200083D
:10009000070200080702000807020008070200081C
:1000A000070200080702000807020008070200080C
:1000B00007020008070200080702000807020008FC
:1000C00007020008070200080702000807020008EC
:1000D000070200080D2200080702000807020008B6
:1000E00007020008070200080702000807020008CC
:1000F00007020008070200080702000800000000CD
:1001000000000000070200080000000007020008CD
:1001100007020008000000000702000807020008AC
:10012000070200080702000807020008070200088B
:10013000070200080000000000000000070200089D
:10014000070200080702000800000000000000008D
:10015000000000000000000000000000000000009F
:10016000000000000000000000000000070200087E
:10017000070200080000000000000000000000006E
:10018000000000000702000800000000000000005E
:10019000000000000000000000000000000000005F
:1001A000000000000000000007020008070200082D
:1001B000070200080702000807020008000000000C
:1001C000000000000702000800000000000000001E
:1001D0000702000807020008DFF80CD000F05CFA04
:1001E00000480047412B0008B8040020064880471B
:1001F00006480047FEE7FEE7FEE7FEE7FEE7FEE70C
:10020000FEE7FEE7FEE7FEE7D51C0008D90100087F
:100210002DE9F05F0546002092469B46884606463B
:10022000814640241BE0284641464746224600F0CE
:100230006AF853465A46C01A914110D311461846DF
:10024000224600F051F82D1A67EB01084F4622466E
:100250000120002100F048F817EB00094E41201E54
:10026000A4F10104DFDC484631462A464346BDE896
:10027000F09FD2B201E000F8012B491EFBD270477B
:100280000022F6E710B513460A4604461946FFF762
:10029000F0FF204610BD00F0004230F000400AD0D0
:1002A000C10D01F56071C0F3160042EA0151C208A8
:1002B00040071143704700200146704730B50B4698
:1002C000014600202022012409E021FA02F59D4286
:1002D00005D303FA02F5491B04FA02F52844151E5A
:1002E000A2F10102F1DC30BD202A04DB203A00FA41
:1002F00002F1002070479140C2F1200320FA03F37D
:10030000194390407047202A04DB203A21FA02F07A
:100310000021704721FA02F3D040C2F1200291403F
:100320000843194670472DE9FE4F804681EA0300D5
:10033000C00F0C46009021F0004123F00045B8EBBF
:100340000200A94105D24046214690461C460B4674
:10035000024623F00040104347D0270DC7F30A00A0
:10036000C3F30A510290401A019040286BDAC3F39C
:10037000130040F4801B0098924620B10023D2EB7A
:10038000030A63EB0B0B01985946C0F1400250463B
:10039000FFF7AAFF06460D4650465946019A00F05F
:1003A0008DF910EB08006141002487EA115284EABC
:1003B000E7731A4340D0009A62B3019A012A4FEAC8
:1003C000075215DC001B61EB02014FF0004202EA0C
:1003D0000752CDE90042001C41F5801132462B4600
:1003E00000F08DF903B0BDE8F08F40462146F9E7F3
:1003F000001B61EB0201001C41F5801300185B41FA
:100400002018A2F5001747EB030140EAD570B61992
:100410006D4111E06D084FEA360645EAC0754FEAB6
:100420000752001B61EB0201001C41F580114908D5
:100430004FEA30000019514132462B4603B0BDE867
:10044000F04F00F04DB90098012240000023D0EB9E
:10045000020263EBE073009821464FEAE074B8EBC8
:10046000000061EB0401E9E783F000435BE781F002
:10047000004158E72DE9FE4F81EA030404F00044EF
:1004800021F0004100944FF0000B23F0004350EAAC
:1004900001045ED052EA03045BD0C3F30A54C1F3F3
:1004A0000A552C44A4F2F3340194A0FB0254C1F386
:1004B000130141F48011C3F3130343F4801301FBD0
:1004C000024400FB034E840A970A44EA815447EA37
:1004D0008357A4FB076802958D0A05FB07854FEA41
:1004E000932C04FB0C542705029D4FEA065847EA5B
:1004F0001637B5EB08056EEB070C870E920E47EA30
:10050000811742EA8312A7FB0201B6EB0B0164EBF1
:1005100000042B0D43EA0C335E1844EB1C50DA4602
:100520005146E7FB0201C5F313044FEA0B3343EADC
:1005300014534FEA0432019C43EA0603A4F10C046D
:100540000294009CCDE900B400F0D9F803B0BDE8F6
:10055000F08F00200146F9E72DE9F04D81EA030410
:1005600004F0004B21F0004514464FF0000A23F040
:10057000004150EA050220D054EA01021DD0C5F323
:100580000A570246C5F31303C1F31300C1F30A5619
:1005900040F4801543F48013A7EB0608101BD646E1
:1005A00008F2FD3873EB050002D308F1010801E001
:1005B00092185B41B8F1000F03DA00200146BDE854
:1005C000F08D00204FF48011064684460EE0171B84
:1005D00073EB050705D3121B63EB050306434CEAD7
:1005E000010C49084FEA300092185B4150EA0107BC
:1005F000EDD152EA030012D082EA040083EA050139
:10060000084305D0101BAB4106D20122002306E0AF
:1006100000224FF0004302E06FF0010253101AEB8A
:1006200006004CEB085110EB0A0041EB0B01BDE852
:10063000F04D00F055B8C1F30A52C1F3130140F276
:10064000FF3341F480119A4202DA002001467047DC
:1006500040F233439A42A2F2334202DC5242FFF7A5
:1006600052BEFFF741BE000030B5041E71F1000418
:1006700004DB4FF00044404264EB0101141E73F1AF
:10068000000405DB1C464FF00043524263EB0403B9
:10069000994208BF904230BD064C074D06E0E06825
:1006A00040F0010394E8070098471034AC42F6D3B9
:1006B000FFF796FDE82B0008082C0008202A06DB2F
:1006C000CB17203A41FA02F043EAE07306E041FA20
:1006D00002F3D040C2F1200291400843194670470E
:1006E00010B5141E73F1000408DA401C41F100013A
:1006F00092185B411A4301D120F0010010BD2DE991
:10070000F04D92469B4611B1B1FA81F202E0B0FA87
:1007100080F220329046FFF7E7FD04460F4640EA9C
:100720000A0041EA0B0153465A46084313D01146CA
:1007300053EA010019D0C8F140025046FFF7E3FD2B
:1007400005460E46504659464246FFF7CDFD084342
:1007500005D0012004E020463946BDE8F08D002098
:10076000054346EAE0762C4337430A986305E40ADA
:10077000A0EB08000022FD0A44EA47540A3002D5E3
:1007800000200146E9E7010510196941DDE9084546
:1007900000196941BDE8F04DA2E7FEE7704772B667
:1007A000FEE710B590F8253000210122022B03D07E
:1007B0000421C163012122E003681C6824F00E04B7
:1007C0001C60836C1C6824F480741C6003681C68C3
:1007D00024F001041C6090F84430046C03F01F0303
:1007E00002FA03F36360D0E913345C60436D33B104
:1007F0001C6824F480741C60D0E916345C6080F8B6
:100800002520002280F82420084610BD70B590F8FD
:100810002520002401212346022A07D00422C26396
:1008200080F8251080F82430012429E0026815683A
:1008300025F00E0515600268156825F001051560A4
:10084000826C156825F48075156090F84420056C5D
:1008500002F01F0201FA02F26A60D0E91325556026
:10086000426D32B1156825F480751560D0E9162502
:10087000556080F8251080F82430816B01B18847DD
:10088000204670BD70B5044600F032F90546601C84
:1008900002D004484068044400F02AF9401BA042FA
:1008A000FAD370BD040000202DE9F04FDFF820924C
:1008B000002301260324A9F1040B85B00F2709F1B9
:1008C000040AABF1040EFAE006FA03F52A407CD0E4
:1008D00091F804C00CF0030CBCF1010F02D0BCF184
:1008E000020F26D1D0F808C0CDF800C04FEA430C63
:1008F00004FA0CF8CDF810C0DDF800C02CEA080CA2
:10090000CDF800C0D1F80C80DDF810C008FA0CF862
:10091000DDF800C048EA0C08C0F80880D0F804C030
:100920002CEA050C0D79C5F300159D4045EA0C0530
:1009300045600D79ED43AD070ED0C5684FEA430819
:1009400004FA08FC25EA0C05D1F808C00CFA08FCEA
:100950004CEA050CC0F80CC00D7905F00305022D1A
:1009600016D1DD0800EB850CCDF808C0DCF820803E
:100970005D074FEAD56C07FA0CF528EA05080D6902
:1009800005FA0CF5DDF808C045EA0805CCF820505A
:1009900005684FEA430CCDF808C004FA0CFC25EAC0
:1009A0000C0591F804C00CF00308DDF808C008FA43
:1009B0000CF848EA0508C0F800804D6815F4403F7F
:1009C0007CD0444DD5F860C000E077E04CF0010CDD
:1009D000C5F860C02D6E23F0030C05F001050095ED
:1009E0003D4D65440295AD684FEA837C4FEA1C7823
:1009F00007FA08FC25EA0C05B0F1904F06D0DFF8A5
:100A0000DCC0604505D14FF0010C20E04FF0000C38
:100A10001DE0DFF8CCC0604502D14FF0020C16E0BB
:100A2000DFF8C0C0604502D14FF0030C0FE0DFF8E3
:100A3000B8C0604502D14FF0040C08E0DFF8ACC04C
:100A4000604502D14FF0050C01E04FF0060C0CFAA6
:100A500008FC4CEA050C029DC5F808C0D9F8005006
:100A6000CC46D1F8048095435FEAC82800D51543E9
:100A7000CCF80050DAF80050D446D1F80480954301
:100A80005FEA882800D51543CCF80050DBF8005009
:100A9000DC46D1F8048095435FEA883800D51543D9
:100AA000CCF80050DEF80050F446D1F804809543AD
:100AB0005FEAC83800D51543CCF800505B1C0A68C3
:100AC00032FA03F57FF400AF05B0BDE8F08F000007
:100AD00008040140001002400000014000040048EA
:100AE00000080048000C00480010004800140048AE
:100AF00001488068704700000400002002488168B7
:100B000042681144816070470400002010B5002441
:100B1000032000F073F80F2000F008F808B101245A
:100B200001E000F025F8204610BD000070B50E4E23
:100B300005460024706898B14FF47A71B1FBF0F06B
:100B40000A490968B1FBF0F000F060FD40B9102DD2
:100B500006D200222946501E00F030F8356000E031
:100B60000124204670BD0000040000201000002079
:100B70000A4882B0016E41F001010166016E01F088
:100B800001010091816D41F080518165806D00F01F
:100B90008050009002B000F0A1B8000000100240A8
:100BA000002809DB00F01F0201219140400980006C
:100BB00000F1E020C0F8001170470000F0B40E4BC7
:100BC0001B680C46C3F30223C3F10705042D00D9AB
:100BD0000425191D072901D2002300E0DB1E012690
:100BE00006FA05F1491E214099409E40761E1640A6
:100BF0003143F0BC01F026BB0CED00E0064900F0EB
:100C0000070208684FF6FF03184040EA0220034A33
:100C100010430860704700000CED00E00000FA058A
:100C20002B492C4B0A6832214A432B4940B1B0F57D
:100C3000007F086829D020F4C06040F480602CE078
:100C40000868C0F34120022804D051F8800F20F436
:100C5000807022E0D1F8800020F48070C1F880001C
:100C6000086820F4C06040F400700860B2FBF3F044
:100C7000401C00E0401E4A69520501D50028F9D108
:100C8000486940050AD503207047C0F34120022877
:100C900006D051F8800F40F4807008600020704743
:100CA000D1F8800040F48070C1F88000086820F41A
:100CB000C06040F400700860B2FBF3F0401C00E03C
:100CC000401E4A695205DBD50028F9D1D8E700005B
:100CD0001000002040420F00007000400248816870
:100CE00041F4804181607047007000402DE9F84375
:100CF0000446006800269D4D00035ED5A86D0027C0
:100D0000C00008D4A86D40F08050A865A86D0127E8
:100D100000F080500090DFF85892D9F8001041F4AC
:100D20008071C9F80010FFF7E3FE804606E000BFBF
:100D3000FFF7DEFEA0EB080002282BD8D9F8000050
:100D4000C005F5D5D5F8900010F4407014D0216C92
:100D5000814211D0D5F89000D5F8901020F4407061
:100D600041F48031C5F89010D5F8901021F480310D
:100D7000C5F89010C5F89000C00711D0FFF7B8FE75
:100D8000804641F2883907E0FFF7B2FEA0EB080188
:100D9000494501D903260BE0D5F890008007F3D52B
:100DA000D5F89000216C20F440700843C5F89000FD
:100DB0001FB1A86D20F08050A8652078C00707D02B
:100DC000D5F88800616820F003000843C5F8880062
:100DD0002078800707D5D5F88800A16820F00C009E
:100DE0000843C5F888002078400707D5D5F8880063
:100DF000E16820F030000843C5F88800207800073B
:100E000007D5D5F88800216920F0C0000843C5F84F
:100E100088002078800607D5D5F88800616920F41D
:100E200040600843C5F888002078400607D5D5F80B
:100E30008800A16920F440500843C5F88800207854
:100E4000000607D5D5F88800E16920F44040084342
:100E5000C5F888002088C00507D5D5F88800216A24
:100E600020F440300843C5F888002088800507D565
:100E7000D5F88800616A20F440200843C5F888004E
:100E8000208840050FD5D5F88800A16A20F44010CD
:100E90000843C5F88800A06AB0F5801F03D1E86850
:100EA00040F48010E860208800050FD5D5F8880050
:100EB000E16A20F440000843C5F88800E06AB0F514
:100EC000800F03D1E86840F48010E8602088C004F7
:100ED0000FD5D5F88800216B20F040700843C5F885
:100EE0008800206BB0F1807F03D1E86840F4801067
:100EF000E86020884FF0006180040ED5D5F88800A6
:100F0000626B20F040601043C5F88800606B884237
:100F100003D1E86840F48010E860208840040ED5D2
:100F2000D5F88800A26B20F040601043C5F8880017
:100F3000A06B884203D1E86840F48010E860208804
:100F400000040FD5D5F88800E16B20F0405008432D
:100F5000C5F88800E06BB0F1805F03D1E86840F429
:100F60008030E8603046BDE8F883000000100240A1
:100F7000007000402DE9F0470E4605004FF00007D5
:100F800025D0DFF8AC81D8F8000000F00F00B042A7
:100F90000CD2D8F8001021F00F013143C8F800102E
:100FA000D8F8000000F00F00B04210D12968614C61
:100FB000C80741F2883A5AD06868DFF87C91032864
:100FC00008D0022820682DD0400500282CDB012005
:100FD000BDE8F08720688001F9D5E06800F00302E1
:100FE000E068C0F30310401C032A19D0534A00BF25
:100FF000B2FBF0F0E268C2F306225043E268C2F3AB
:101000004162521C5200B0FBF2F0484517D9A0686B
:1010100010F0F00F0CD0880711D5A86840B10EE091
:10102000474AE5E78003D0E700F0B6F8484506D91F
:10103000A06820F0F00040F08000A0608027A06849
:10104000696820F003000843A060FFF751FD814666
:1010500006E000BFFFF74CFDA0EB090151453AD86F
:10106000A068696800F00C00B0EB810FF2D128682D
:10107000810714D5400703D5A06840F4E060A06064
:101080002878000705D5A06820F4605040F4E0609F
:10109000A060A068A96820F0F000084304E0802F59
:1010A00003D1A06820F0F000A060D8F800104046FE
:1010B00001F00F01B14216D9016821F00F0131434F
:1010C0000160FFF715FD074607E000BFFFF710FDC1
:1010D000C11B514501D903207AE7D8F8000000F080
:1010E0000F00B042F2D12878400705D5A068E96822
:1010F00020F4E0600843A0602878000706D5A068C7
:10110000296920F4605040EAC100A06000F044F872
:10111000A1680C4AC1F30311515C01F01F01C840E2
:101120000949086009480068BDE8F047FFF7FEBCC0
:10113000002002400010024000B4C4040024F40067
:1011400000366E01D02B00081000002004000020A3
:101150000548064900688968054AC1F30221515CC7
:1011600001F01F01C840704710000020001002402D
:10117000E02B00080548064900688968054AC1F364
:10118000C221515C01F01F01C840704710000020CF
:1011900000100240E02B0008184910B58868C0F321
:1011A00081021748012A0BD08A68164BC2F38102CC
:1011B000022A06D08A68C2F38102032A03D00020E3
:1011C00010BD184610BDCA6802F00304CA68C2F315
:1011D0000312521C032C02D0B0FBF2F001E0B3FB6F
:1011E000F2F0CA68C968C2F306225043C1F34161F4
:1011F000491C4900B0FBF1F010BD00000010024096
:101200000024F40000366E012DE9F84304007AD082
:101210002078F84DC00747D0A868E96800F00C00B6
:1012200001F003010C2802D0082817D001E003299F
:1012300014D06068B0F5803F17D0B0F5A02F2868B3
:1012400017D020F480302860286820F4802028609F
:101250006068E0B1FFF74CFC064614E028688003A4
:1012600022D560680028D2D01EE0286840F4803083
:10127000EDE740F480202860F7E700BFFFF738FC77
:10128000801B642870D828688003F7D50CE0FFF72E
:101290002FFC064605E000BFFFF72AFC801B6428F0
:1012A000F0D828688003F7D4207880074CD5A86848
:1012B000E96800F00C0001F003010C2802D00428BA
:1012C0000DD001E002290AD0E068002828682BD060
:1012D00040F480702860FFF70BFC064619E0286890
:1012E000400502D5E068002891D06868217C20F094
:1012F000FE4040EA01606860BF480068FFF716FCE6
:10130000002800D120E072E1FFF7F2FB801B0228E9
:10131000B8D828684005F7D56868217C20F0FE40E1
:1013200040EA016068600FE020F480702860FFF7F9
:10133000DFFB064605E000BFFFF7DAFB801B022853
:10134000A0D828684005F7D42078000729D560691F
:101350000028D5F8940013D040F00100C5F894009F
:10136000FFF7C6FB064606E090E000BFFFF7C0FBB4
:10137000801B022886D8D5F894008007F6D510E0A7
:1013800020F00100C5F89400FFF7B2FB064604E028
:10139000FFF7AEFB801B022878D8D5F894008007B1
:1013A000F6D42078400761D5A86D0026C00008D487
:1013B000A86D40F08050A865A86D012600F080500F
:1013C00000908E480168C90511D40168804641F437
:1013D00080710160FFF78CFB074604E0FFF788FB94
:1013E000C01B022852D8D8F80000C005F6D5A06866
:1013F000012815D00528D5F8900016D020F001005E
:10140000C5F89000D5F8900020F00400C5F89000D1
:10141000A06841F28838B8B1FFF76AFB07460EE0D2
:10142000D5F8900040F00100F0E740F00400C5F866
:101430009000F5E7FFF75CFBC11B414526D8D5F8C6
:1014400090008007F6D50CE0FFF752FB074604E05A
:10145000FFF74EFBC11B414518D8D5F89000800717
:10146000F6D41EB1A86D20F08050A86520788006C3
:1014700029D5A0690028D5F8980013D040F00100C4
:10148000C5F89800FFF734FB064606E075E000BF9C
:10149000FFF72EFB801B02286FD8D5F89800800735
:1014A000F6D510E020F00100C5F89800FFF720FB0A
:1014B000064604E0FFF71CFB801B02285DD8D5F828
:1014C00098008007F6D4E069F0B3A968C1F3810100
:1014D00003295DD00228286820F08070286003D09E
:1014E000FFF706FB04464BE0FFF702FB064604E06D
:1014F000FFF7FEFA801B02283FD828688001F7D446
:10150000F4E908016FF00F0202EB01110843218A90
:101510005204490802EB4151A26841EA0221084302
:10152000217D4FF07E42490802EB41610843217B57
:1015300040EAC160E968324A11400843E86028681F
:1015400040F08070286000E05EE0E86840F0807065
:10155000E860FFF7CDFA044605E000BFFFF7C8FAE0
:10156000001B022809D828688001F7D54CE000BF8D
:10157000FFF7BEFA001B022802D90320BDE8F8835A
:1015800028688001F4D4E8681E490840E8603BE020
:101590000128F3D0E868226A00F00301914226D1C5
:1015A000616A00F0F0020901103991421FD1A26A6C
:1015B00000F4FE41B1EB022F19D194F82C2000F079
:1015C0007841B1EBC26F12D1218E00F4C0024908FC
:1015D0004905A1F50011914209D194F8341000F0A9
:1015E000C06049084906A1F1007181420CD0012078
:1015F000C4E700000010024004000020007000401A
:101600000C809F01FCFFEEFE0020B7E710B5401EE6
:10161000B0F1807F01D3012010BD4FF0E024606164
:101620000F21601700F00EFE0020A061072020614E
:10163000002010BD90F88410012918D0012180F8F5
:1016400084102421C0F8881001680A680B6823F010
:1016500001030B6022F0005100224266036819600A
:101660002021C0F8881080F884201046704702209E
:1016700070477047704770B5044690F884000128A1
:101680001DD0012084F884002420C4F8880020683C
:101690000568026822F0010202602068826822F078
:1016A00060620A438260204600F01CFB20680560EF
:1016B0002020C4F88800002084F8840070BD022037
:1016C00070BD70B5044690F8840001281DD001203B
:1016D00084F884002420C4F8880020680568026823
:1016E00022F0010202602068826822F060420A4310
:1016F0008260204600F0F6FA206805602020C4F8D9
:101700008800002084F8840070BD022070BD7047FE
:10171000704770472DE9F04103680446D86919689D
:101720009A6840F60F0528424FF000054FF0020678
:101730000AD187067ED501F0200702F0805C57EAC7
:101740000C0777D0616F3AE1B24FDFF8CCC2174097
:1017500001EA0C0C57EA0C0C6CD05FEAC07C0CD090
:101760005FEAC15C09D54FF0010CC3F820C0D4F882
:10177000903043F00103C4F89030830709D5D307B4
:1017800007D023681E62D4F8903043F00403C4F8F5
:10179000903043070AD5D30708D026680423336264
:1017A000D4F8903043F00203C4F8903003070CD50E
:1017B00001F020033B4308D0266808233362D4F8A5
:1017C000903043F00803C4F8903003050BD54B016B
:1017D00009D526684FF400633362D4F8903043F0A3
:1017E0002003C4F89030D4F89030002B3DD0800610
:1017F00009D501F0200002F08051084303D0616F49
:1018000009B120468847D4F89000216889684906C4
:1018100002D410F0280F2AD0204600F049FB20689F
:10182000806840061ED52068083050E8001F21F06F
:10183000400100E021E040E80012002AF3D1D4F892
:10184000800078B175498163D4F88000FEF7DEFF2F
:1018500000280AD0D4F88000816B00E02046BDE863
:10186000F04108472046FFF754FFBDE8F0812046CD
:10187000FFF74FFFC4F89050F7E7D4F86CC020276B
:10188000BCF1010F7ED15FEAC06C7BD55FEAC16C11
:1018900078D51020186220688068400645D5D4F8B5
:1018A0008010086840680004000CDED0B4F85C20AA
:1018B0008242DAD9A4F85E000868006880062CD459
:1018C000216851E8000F20F4807041E80002002AEE
:1018D000F6D12068083050E8001F21F0010140E8EF
:1018E0000012002AF5D12068083050E8001F21F0CE
:1018F000400140E80012002AF5D1C4F88C70E5667A
:10190000206850E8001F21F0100140E80012002A72
:10191000F6D1D4F88000FEF744FF2667B4F85C00E7
:10192000B4F85E10401A81B230E0B4F85C00B4F84C
:101930005E10401A81B2B4F85E00002895D00029EC
:1019400093D0226852E8000F20F4907042E8000320
:10195000002BF6D12F4BDB432068083050E8002FD6
:101960001A4040E8002CBCF1000FF5D1C4F88C708F
:10197000E5666567226852E8000F20F0100042E833
:10198000000300E006E0002BF4D126672046FFF7B5
:1019900070FE6AE7C60209D5560207D54FF48010DB
:1019A00018622046BDE8F041FFF7B2BE03060AD533
:1019B00001F0800302F40002134304D0A16F002958
:1019C0007FF44CAF51E7420611D54A060FD52046A9
:1019D000026852E8001F21F0400142E80013002B8A
:1019E000F6D1C0F88870856700F0EDF83DE7020297
:1019F00006D54A0004D52046BDE8F041FFF787BE72
:101A0000C001C6D50029C4DA2046BDE8F041FFF781
:101A100031BE000001000010200100049D1E0008DE
:101A200010B5040003D0D4F8880010B107E00120FD
:101A300010BD002084F88400204600F027F8242000
:101A4000C4F888002068016821F001010160A06AE3
:101A500010B1204600F068F9204600F053FA012842
:101A6000E6D02068416821F4904141602068816897
:101A700021F02A0181602068016841F001010160C4
:101A80002046BDE8104000F0B3B9000010B598B092
:101A90000446142111A8FEF7F3FB44216846FEF723
:101AA000EFFB1B492068884230D101200024CDE99A
:101AB00000046846FFF71AF908B1FEF770FE1548F2
:101AC000016E41F480410166016E01F4804116917E
:101AD000C16C41F00101C164C06C11A900F00100AA
:101AE00016904FF4C06011900220CDE91204072037
:101AF000CDE914404FF09040FEF7D6FE002211468B
:101B00002520FFF75BF82520FFF74AF818B010BD35
:101B100000380140001002402DE9F8430446D0F897
:101B20008800984616460D46202802D00220BDE8BF
:101B3000F883A5B19EB10020C4F890002120C4F81C
:101B400088001834FEF7D4FFA6878146E68754F84C
:101B5000100C2027183CB0F5805F02D003E0012074
:101B6000E5E7206910B12E46002510E000260EE0C2
:101B70008021204600F000FBC0B9DEB116F8010B51
:101B800021688862B4F85600401EA4F85600B4F8E4
:101B900056004B464FF00002CDF800800028E7D1F8
:101BA0004FF04001204600F0E7FA40B1C4F88870D9
:101BB0000320BCE735F8020BC0F30800E0E7C4F8E7
:101BC00088700020B3E77047FEE70000094808B5B9
:101BD000C16C41F02001C164C16C01F02001009191
:101BE000C16C41F00101C164C06C00F001000090C3
:101BF00008BD000000100240184810B516490160E9
:101C00004FF4E1314160002181600C22C160C0E9E4
:101C100004128161C161016241628162FFF700FFCC
:101C200008B1FEF7BCFD00210C48FFF74AFD08B1E2
:101C3000FEF7B5FD00210948FFF71DFD08B1FEF7CD
:101C4000AEFD0648FFF7F6FC002803D0BDE81040C3
:101C5000FEF7A5BD10BD00000038014024000020A3
:101C6000FEE7FEE770477047FEF748BF10B594B037
:101C700038216846FEF704FB14210EA8FEF700FB8E
:101C80004FF40070FEF7CCFF01200090000401909B
:101C900002200324CDE907041421CDE90A100C9099
:101CA0000D9009946846FFF7AFFA08B172B6FEE7E7
:101CB0000F20CDE90E040020109011901290022107
:101CC0000EA8FFF757F9002801D072B6FEE714B04E
:101CD00010BD00000248016841F4700101607047C6
:101CE00088ED00E030B5416EB9B102689168926844
:101CF000C1F342610B4B520F9C5CE50003F10804F9
:101D0000A25CB5FBF2F2A0F86A205A5C615CD200DA
:101D1000B2FBF1F1A0F8681030BD0121A0F86A1003
:101D2000F8E70000C02B000890F82810090706D536
:101D300001684A68836B22F400421A434A6090F8B3
:101D40002810C90706D001684A68C36A22F4003225
:101D50001A434A6090F82810890706D501684A6836
:101D6000036B22F480321A434A6090F82810490726
:101D700006D501684A68436B22F480221A434A6000
:101D800090F82810C90606D501688A68C36B22F44A
:101D900080521A438A6090F82810890606D5016897
:101DA0008A68036C22F400521A438A6090F8281063
:101DB000490611D501684A68436C22F480121A431F
:101DC0004A60416CB1F5801F06D101684A68836C96
:101DD00022F4C0021A434A6090F82810090606D57A
:101DE00001684A68C06C22F4002202434A607047CE
:101DF0002DE9F84300260446C0F89060FEF778FE0F
:101E00008046206800684FF0200500076FF07E478D
:101E100013D54346002229042046009700F0ACF970
:101E200058B1216851E8000F20F0800041E800021D
:101E3000002AF6D1C4F8885021E0206800684007E5
:101E400022D5434600224FF480012046009700F03F
:101E500093F9C8B1216851E8000F20F4907041E86F
:101E60000002002AF6D12068083050E8001F21F057
:101E7000010140E80012002AF5D1C4F88C5084F822
:101E800084600320BDE8F883C4F88850C4F88C50FF
:101E900044F86C6F666026760020F3E710B5806A20
:101EA0000021A0F85E10A0F85610FFF732FC10BD1C
:101EB00010B5026852E8001F21F4907142E8001347
:101EC000002BF6D10E4B0268083252E8001F194071
:101ED00042E80014002CF6D1C16E012908D1016836
:101EE00051E8002F22F0100241E80023002BF6D128
:101EF0002021C0F88C100021C166416710BD000090
:101F0000FEFFFFEF2DE9F041044601688068226979
:101F1000E3691043626900251A431043DFF82CC2BD
:101F20000A688B4B1A4002430A6020684168E268E5
:101F300021F44051114341602168A069614501D0FD
:101F4000226A10438A68834B1A4002438A602068E1
:101F5000C16A626A21F00F011143C1627E492368A0
:101F60007E488B420DD1D0F8880010F0030006D0D7
:101F7000012855D0022842D003283FD152E0012049
:101F80003DE077498B420BD1D0F8880010F00C006F
:101F900035D0042833D0082840D00C282ED141E079
:101FA00070498B420BD1D0F8880010F0300026D059
:101FB000102835D0202831D030281FD132E06A498E
:101FC0008B420BD1D0F8880010F0C00017D0402809
:101FD00026D0802822D0C02810D123E063450DD11F
:101FE000D0F8880010F4406009D0B0F5806F17D0A9
:101FF000B0F5006F12D0B0F5406F13D010205B49E0
:102000005B4F00264FF4004263453BD160B102288C
:1020100013D004280BD0082872D10DE00220EEE77F
:102020000420ECE70820EAE7FFF792F801E0FFF769
:10203000B3F8010001D17CE01146606A37F8102046
:102040006768B1FBF2F007EB4703834270D8B0EB4F
:10205000073F6DD8002308461946FEF7D9F8090254
:1020600041EA106102027808101871413A460023D3
:10207000FEF7CEF83F4AA0F54071914258D821684A
:10208000C86056E0E3694FF6EF7893422CD10928F7
:102090004ED2DFE800F00508114D0D4D4D4D1000FA
:1020A000FFF756F801E0FFF765F8010004D140E0C2
:1020B000FFF772F8F9E71146606A37F81000B1FBD4
:1020C000F0F04100606801EB5001B1FBF0F0A0F1CD
:1020D000100141452CD84FF6F0710140C0F3420089
:1020E00001432068C16024E0092821D2DFE800F024
:1020F000050912200E2020201100FFF729F802E028
:1021000016E0FFF737F8010004D112E0FFF744F8BA
:10211000F9E71146606A37F81000B1FBF0F160682A
:1021200001EB5001B1FBF0F0A0F1100141450AD9DB
:1021300001250120A4F86A0024F8680F2846E6600B
:102140002661BDE8F08180B299E700000080004080
:10215000F369FFCFFFF4FF11003801400010024087
:102160000044004000480040004C00400024F400BF
:10217000A82B0008FFFC0F002DE9F04799461746F1
:102180000D4604464FF00008089E33E0701C31D025
:10219000FEF7AEFCA0EB0900B04218D8BEB1206833
:1021A0000168490726D5802D24D0402D22D0C16951
:1021B000C94309070DD4082505622046FFF778FEBC
:1021C000C4F8905084F884800120BDE8F087032093
:1021D000FBE7C069C04300050CD421684FF40060E0
:1021E00008622046FFF764FE2020C4F8900084F8BF
:1021F0008480ECE72068C06935EA000004D0002044
:10220000B842C3D00020E0E70120F9E70148FFF71A
:1022100081BA000024000020FEE700000FB4084B44
:1022200010B504A902AA039800F0EEF8044602A92A
:10223000002000F080FC204610BC5DF814FB00007C
:10224000372B00080907090E002804DB00F1E02005
:1022500080F80014704700F00F0000F1E02080F8D3
:10226000141D704702E008C8121F08C1002AFAD1E5
:1022700070477047002001E001C1121F002AFBD106
:10228000704700002DE9FF5F82B00021DDE90430D6
:10229000020DDDF840B0034318D044F61050A2F20E
:1022A000FF3242431514119801281FD0A5EB0B00F3
:1022B000401C5FEA000A4FF000064E4FDFF83891ED
:1022C000B046504615D5CAF1000413E01198012418
:1022D0004AA3012801D16FEA0B010298119AC0E9C3
:1022E0000031C0E9024206B0BDE8F09FCBF100002A
:1022F000DFE704460021404A491842EB0450CDE98B
:10230000001012E0E00707D032463B4640464946FF
:10231000FEF7B0F88046894632463B4610461946DD
:10232000FEF7A8F806460F466410002CEAD1DDE956
:102330000401DDE90023BAF1000F06DAFEF79AF88E
:1023400042464B46FEF796F805E0FEF705F9424691
:102350004B46FEF701F904460E460022284BFEF7D5
:1023600083F903D84FF0FF30014607E00022254BE8
:1023700020463146FDF7D7FFFEF75DF9102409E04E
:10238000002C0ADB0A220023FDF742FF039B3032B8
:102390001A55641E50EA0102F2D1641C039AC4F17A
:1023A00011031444119A012A03D0012208430DD1CC
:1023B0000AE0084304D000204FF0110B119072E79F
:1023C000A3EB0B056D1E0DE05B4504DD4FF0000235
:1023D00005F1010504E003DA4FF00002A5F1010563
:1023E000002AECD002981199C0E90231C0E90045F9
:1023F00079E70000000014400000F03F30000000CA
:102400000000F0430000E03F2DE9FF4F95B09B46F0
:102410008946064600250FE2252877D10024274665
:10242000F84A0121059400E0044316F8013F203BDF
:1024300001FA03F01042F7D130782A2811D06FF05A
:102440002F033078A0F13002092A16D8059A44F0FB
:10245000020402EB820203EB42021044761C059058
:10246000EFE759F8042B0592002A03DA504244F4AE
:102470000054059044F00204761C30782E2816D1C2
:1024800016F8010F44F004042A280DD06FF02F0233
:102490003078A0F13003092B09D807EB870302EB52
:1024A0004303C718761CF3E759F8047B761C307891
:1024B0006C280FD006DC4C2817D068280DD06A286D
:1024C00014D104E0742810D07A280FD10DE044F420
:1024D00000140AE044F4801401E044F440147278DB
:1024E000824202D104F58014761C761C307866286E
:1024F0000BD013DC582877D009DC002875D045288C
:10250000F6D04628F4D047281AD19DE118E0632878
:1025100035D0642879D0652812D195E1702873D020
:1025200008DC6728F1D069286FD06E280DD06F289D
:1025300006D1B5E073282CD0752875D0782874D0D2
:102540005A46179990476D1C75E1C4F30250022852
:1025500009D003280DD0D9F8001004280DD00D6043
:1025600009F1040967E1D9F80010EA17C1E900523E
:10257000F6E7D9F800100D80F2E70D70F0E719F8D2
:10258000041B8DF8001000208DF80100EA460120A0
:1025900003E059F804AB4FF0FF3061074FF0000142
:1025A00002D40DE008F101018846B9420FDA8045F6
:1025B000F8DB1AF808100029F4D108E008F101014D
:1025C00088468142FADB1AF808100029F6D10598EE
:1025D0005B46A0EB080721463846179A00F094FAAC
:1025E000284400EB080507E04DE029E10DE01AF86A
:1025F000010B5A4617999047B8F10108F7D25B468C
:1026000021463846179A13E142E00A220092C4F3A9
:1026100002524FF0000A022A08D059F804CB032ACC
:102620004FEAEC710AD00DE029E02AE009F1070138
:1026300021F00702F2E802C1914609E00FFA8CFC92
:102640004FEAEC71042A03D14FFA8CFC4FEAEC718B
:10265000002907DA0A460021DCF1000C61EB0201D7
:102660002D2202E0220504D52B228DF80420012220
:1026700003E0E20701D02022F7E7904659E00A2163
:1026800002E010220DE010214FF0000A00910BE053
:1026900010224FF0000A44F004040827009203E0DF
:1026A00008224FF0000A0092C4F30252022A05D019
:1026B00059F804CB0021032A08D009E009F10701E9
:1026C00021F00702F2E802C1914605E01FFA8CFCF6
:1026D000042A01D10CF0FF0C4FF00008220728D586
:1026E000702806D0009B83F0100353EA0A0305D03C
:1026F0000EE040228DF80420012208E05CEA01028D
:1027000006D030228DF804208DF805000222904674
:10271000009B83F0080353EA0A030AD15CEA010232
:1027200001D1620705D530228DF804204FF0010851
:102730007F1E582804D034A003900EA802900DE00C
:1027400036A0F9E753466046009AFDF761FD8446DE
:102750000398825C0298401E029002705CEA0100BD
:10276000F0D1029806A9081A00F1200A600702D5E4
:1027700024F4803400E00127574502DDA7EB0A006E
:1027800000E0002000EB0A01009005984144401A47
:102790000590E00306D45B462146179A059800F0A1
:1027A000B3F90544002706E001A85A46C05D179911
:1027B00090476D1C7F1C4745F6DBE0030CD55B465C
:1027C0002146179A059800F09FF9054404E030204F
:1027D0005A46179990476D1C0099481E0090002991
:1027E000F5DC08E0029802995A460078491C0291EB
:1027F000179990476D1CBAF10001AAF1010AF1DCAA
:1028000065E10000092801003031323334353637B4
:10281000383961626364656600000000303132332C
:1028200034353637383941424344454600000000CC
:1028300000F058F90544761C307800287FF4ECADA0
:1028400019B02846BDE8F08F620700D4062709F1C9
:10285000070222F0070CFCE80223E14603F00048DF
:102860005FEA080C02D00FF2702C0DE05FEA045C06
:1028700002D50FF2682C07E05FEAC47C02D00FF2A9
:10288000602C01E0AFF2700C4FF0FF3823F00043F2
:10289000CDF850C065280CD006DC452809D0462864
:1028A0001DD047283DD13DE0662818D067287ED14D
:1028B00038E00021112F01DB112000E0781CCDE968
:1028C000000106A90EA8FFF7DDFCDDE90F010E9A55
:1028D00003910021009207F1010A04914DE04FF0AD
:1028E00000400097CDE9011006A90EA8FFF7CAFC29
:1028F000DDE90F0203920E9B11990022DDF80CA076
:102900000093049211B9791C00EB010AB7EB0A009D
:1029100004D4C0F1FF3007F1010A0490AAEB0700CC
:10292000019044E0012F00DA01270021112F01DD81
:10293000112000E03846CDE9000106A90EA8FFF7F6
:10294000A1FCDDE90F010E9A039100210491009290
:10295000BA4621070CD40399514500DA8A46BAF1E8
:10296000010F05DD009AAAF10101515C302908D060
:10297000B84202DA10F1040F06DA0121CDE90110A4
:1029800015E0AAF10101E9E7002805DC04990144FA
:102990000491AAEB000102E0411C514500DD8A468A
:1029A0000499401A401C01904FF00040029020070B
:1029B00004D40198504501DBCDF8048000208DF847
:1029C0004F0002980DF14F07B0F1004F25D02B209A
:1029D0000E9002984FF0020800280CDA4042029054
:1029E0002D200E9007E00A210298FDF767FC303198
:1029F000029007F8011DB8F10001A8F10108F2DC0E
:102A000002980028EFD1791E0E980870307800F0F7
:102A1000200040F0450007F8020D12A8C01B00F18D
:102A200007081498007800B1012000EB0A01019812
:102A300001EBE07105984144401A401E0590E00307
:102A400006D45B462146179A059800F05DF80544C8
:102A50001498007818B15A46179990476D1CE003F6
:102A600024D55B462146179A059800F04DF8054499
:102A70001CE00498002807DBDDE90301884203DD40
:102A80000098405C179901E0179930205A4690470A
:102A9000049805F10105401C04900198401E019026
:102AA00004D12E205A46179990476D1CBAF10001A7
:102AB000AAF1010ADDDC05E017F8010B5A46179967
:102AC00090476D1CB8F10001A8F10108F4DC5B46E9
:102AD0002146179A0598ABE62D0000002B00000058
:102AE000200000002DE9F041044600251E4617464F
:102AF000880404D405E039462020B0476D1C641ECC
:102B0000F9D52846BDE8F0812DE9F04104460025BD
:102B10001E469046C80301D5302700E020278804D0
:102B200004D505E041463846B0476D1C641EF9D512
:102B30002846BDE8F0810A68531C0B60107070478E
:102B4000FDF7E4FFFFF792F8FFF740F8FFF754F8BE
:102B50000D4C4FF47A752068FDF79DFB41EC100B8E
:102B60000AA153EC102B0E48FFF758FB322310221A
:102B70000B490C48FEF7D0FF10210948FDF780FBF8
:102B80002846FDF77FFEE6E7000000204144435F52
:102B900076616C75653A252E32660D0A00000000DC
:102BA00014000020240000200100020004000600A0
:102BB00008000A000C001000200040008000000106
:102BC00001010103070100000804020408010101DA
:102BD00000000000000000000102030406070809CD
:102BE0000000000001020304082C0008000000207F
:102BF00014000000642200081C2C000814000020AF
:102C0000A40400007422000800000040100000002E
:0C2C100001000000000000000024F4009F
:04000005080001D915
:00000001FF
