:020000040800F2
:10000000B807002099020008F72E0008FF26000814
:10001000F52E0008BB1300089B3400080000000008
:100020000000000000000000000000000F32000887
:10003000BD13000800000000F92E0008113200086E
:10004000B3020008B3020008B3020008B3020008BC
:10005000B3020008B3020008B3020008B3020008AC
:10006000B3020008B3020008B3020008B30200089C
:10007000B3020008B3020008B3020008B30200088C
:10008000B302000800000000B3020008B302000839
:10009000B3020008B3020008B3020008B30200086C
:1000A000B3020008B3020008B3020008B30200085C
:1000B0008D32000899320008B3020008B30200082C
:1000C000B3020008B3020008B3020008B30200083C
:1000D000B3020008B3020008B3020008B30200082C
:1000E000B3020008B3020008B3020008B30200081C
:1000F000B3020008B3020008B302000800000000C9
:1001000000000000B302000800000000B302000875
:10011000B302000800000000A5320008B302000886
:10012000B3020008B3020008B3020008B3020008DB
:10013000B30200080000000000000000B302000845
:10014000B3020008B3020008000000000000000035
:10015000000000000000000000000000000000009F
:10016000000000000000000000000000B3020008D2
:10017000B3020008000000000000000000000000C2
:1001800000000000B30200080000000000000000B2
:10019000000000000000000000000000000000005F
:1001A0000000000000000000B3020008B3020008D5
:1001B000B3020008B3020008B30200080000000008
:1001C00000000000B3020008000000000000000072
:1001D000B3020008B302000800F002F800F04CF887
:1001E0000AA090E8000C82448344AAF10107DA4592
:1001F00001D100F041F8AFF2090EBAE80F0013F098
:10020000010F18BFFB1A43F001031847344C0000DC
:10021000544C0000103A24BF78C878C1FAD852076D
:1002200024BF30C830C144BF04680C607047000070
:100230000023002400250026103A28BF78C1FBD8EF
:10024000520728BF30C148BF0B607047662903F0D2
:10025000BB84642900F08880002070471FB503F03C
:10026000AEFC00F06DFB04000020002103F0D2FA88
:10027000E0601FBD10B510BD00F062FC1146FFF735
:10028000EDFF03F08BFA00F080FC03B4FFF7F2FF00
:1002900003BC00F0C3FC0000094880470948004740
:1002A000FEE7FEE7FEE7FEE7FEE7FEE7FEE7FEE726
:1002B000FEE7FEE704480549054A064B7047000083
:1002C0007D320008D9010008B8010020B8070020DD
:1002D000B8030020B80300200FB41CB5074B06AAD2
:1002E0007B4469460090059800F011FB00206946A8
:1002F00000F020FB1CBC5DF814FB00005106000060
:100300002DE9F0410E460446002020622046E168B7
:10031000884730B3252805D0D4E901219047206AC9
:10032000401CF2E7E168204600278847050018D006
:10033000A5F14100192802D820354FF40067324654
:10034000294620462760FFF781FF40B1012804D0ED
:10035000F61D26F007060836D8E7361DD6E72846EC
:10036000DAE7206ABDE8F0812DE9F0410646002475
:1003700010687529314616A510D0AFF3008000280B
:1003800002DA404213A507E031688A0701D512A5B9
:1003900002E0490704D511A5012401E0AFF3008074
:1003A00000210A2206F1240709E0B0FBF2FCB0FBB1
:1003B000F2F302FB1C00303078541846491C002828
:1003C000F3D123462A463046BDE8F04100F032B86A
:1003D000000000002D0000002B00000020000000A5
:1003E0004FF0000200B5134694469646203922BFCE
:1003F000A0E80C50A0E80C50B1F12001BFF4F7AF19
:10040000090728BFA0E80C5048BF0CC05DF804EBFA
:10041000890028BF40F8042B08BF704748BF20F868
:10042000022B11F0804F18BF00F8012B7047704766
:10043000704770472DE9F0470D46994692460446AD
:1004400000F124080168880604D5E06921F0100154
:10045000216000E00120A84201DD471B00E00027E9
:10046000A1697A1902EB0900081AA0612078C00678
:1004700002D42046AFF30080002608E0D4E9012131
:100480001AF806009047206A401C761C20624E45F0
:10049000F4DB2078C0060AD52046AFF3008006E0E2
:1004A000D4E9012130209047206A401C2062381E88
:1004B000A7F10107F4DC07E0D4E9012118F80500F1
:1004C0009047206A401C2062281EA5F10105F3DC3C
:1004D0002046AFF300802078000602D50220BDE858
:1004E000F0870120FBE770472DE9FF4F0C461E46C1
:1004F0004FF0FF378BB0D2E90001DDF860800A9041
:100500008A46C1F30A5505B93D46002108464FF019
:100510000000BAF1000F00F4400005DA00EB8000A3
:100520004FF4400101EA50004FEA9059B9F1010F30
:1005300000DDB9460A9850EA4A000ED044F6105041
:10054000A5F2FF3545432F14B8F1000F1ED07542B8
:10055000291E1EDDC9F100021CE0B8F1010F4FF0A9
:10056000000001D0302103E0F24305E02154401C9B
:10057000B042FBDB30460022002121540B99C1F828
:100580000880C1E900200FB0BDE8F08FBD1B6D1CD5
:10059000DEE74A4600DA694206A800F05BFA06ABDD
:1005A00093E8070003AB83E8070050460A9900F080
:1005B0003CFB8DE80700A0F500501F380090039821
:1005C000002D0ADD42F21F014A460844002303A918
:1005D0000390684600F0A5FD09E0A0F500504A46EA
:1005E0001F38002303A90390684600F0AFFD8DE893
:1005F00007000004000C03D04FF0FF30410800E07A
:100600001046B8F1000F03D00022009215461EE0FC
:10061000751E05D400F098F9303262556D1EF9D57B
:10062000B3460122084302D000227F1C04E0207858
:10063000302801D100227F1E002A099784D01DE0B6
:10064000112D07DA00F080F9303262556D1C50EA46
:100650000102F5D1084302D00098C8B10EE0002194
:10066000681E05E0235C625C63542254401E491CF2
:100670008142F7DBAB46A81B401E0990002004F81E
:100680000B000B98099AC0F80880C0E9002B7AE7A4
:1006900011264FF0000857E72DE9F04F8846044631
:1006A000D21D22F0070191B0D1E90001CDE90A0184
:1006B00002F0F4FE02460B98C00F01D02D2007E097
:1006C0002068810701D52B2002E0202101EAC0002B
:1006D000032A099001D0072A05DB0346414620463C
:1006E00000F078F90BE12078800601D5E06900E0A0
:1006F0000620B8F1650F814606D0B8F1660F18D014
:10070000B8F1670F70D131E00020B9F1110F0090FE
:1007100001DB112301E009F101030AAA01A90CA8D8
:10072000FFF7E2FEDDE90C70002609F101058346C2
:1007300047E001204B4600904FF000470AAA01A96C
:100740000CA8FFF7D1FEDDE90DB00C995D4600263F
:1007500010B909F101000D18B9EB050003D4C0F17F
:10076000FF3609F10105A5EB09002BE0B9F1010FF6
:1007700001DA4FF001090020B9F1110F009048464D
:1007800001DD112300E003460AAA01A90CA8FFF726
:10079000ABFEDDE90C704D4600268346207800074D
:1007A0000AD4AB4500DA5D4601A8012D04DD4119EC
:1007B00011F8011C302907D04F4502DA17F1040F58
:1007C00004DA012082460FE06D1EEEE7002F02DC06
:1007D000ED1B3E4403E0781CA84200DD7D1CB81BE5
:1007E00000F1010A4FF000472078000703D4AA4522
:1007F00001DB4FF0FF3A0021B7F1004F0DF1430844
:100800008DF8431024D002202B23002F01DA7F42E1
:100810002D230A21021EA0F1010000DC5FB197FB2D
:10082000F1FC97FBF1F201FB1C7C17460CF1300C3C
:1008300008F801CDEEE7A8F1010003702188090551
:1008400001D5452100E06521A0F1010800F8011C57
:1008500009980FA9A1EB0807FF1D00B1012041195C
:1008600001EBEA70A1693844081A401EA0612078A3
:10087000C00602D42046AFF30080099828B1D4E91D
:1008800001219047206A401C20622078C00622D5B2
:100890002046AFF300801EE0002E04DBB34502DDEE
:1008A00001A8805D00E03020D4E901219047206A52
:1008B000401C2062761CAAF101005FEA000A0AD1FE
:1008C00000F03EF8C0680168405CD4E9012190471F
:1008D000206A401C2062281EA5F10105DCDC07E02F
:1008E000D4E9012118F8010B9047206A401C2062CE
:1008F000381EA7F10107F3DC2046AFF30080032088
:1009000011B041E601694A1C02610878704700B5E0
:100910008FB0CDE901310021059105497944CDE938
:10092000031011466846FFF7EBFC0FB000BD000056
:10093000E5FFFFFF0A6802F8010B0A60704700003C
:10094000004870477401002030B5B0F10A024FEA48
:10095000900E71F100034EEA817EB0EB0E0061EB68
:1009600091014FEA101E4EEA017E10EB0E0041EBA2
:1009700011114FEA102E4EEA016E10EB0E0041EB02
:1009800011214FEA104E4EEA014E10EB0E0041EBE2
:100990001141401841F100014FEAD00040EA417096
:1009A0004FEAD10110EB80054FEA810444EA9074CC
:1009B00044EB01046D1944EB0404521BA3414FF0B6
:1009C000000348BF0A3200D530BD401C41F1000190
:1009D00030BD00002DE9F0411F46044603260168A2
:1009E000072A01F4006004DB08B116A505E016A58E
:1009F00003E008B115A500E015A521F01000206066
:100A0000A069C01EA0610FB1401EA0612046AFF3D7
:100A100000804FB1D4E9012138469047206A401C3C
:100A20002062C01C206206E0206AFAE7D4E90121B6
:100A300015F8010B9047761EF8D22046AFF30080E0
:100A4000BDE8F0814E414E006E616E00494E460099
:100A5000696E66002DE9F047814616468AB0354832
:100A600078440DC88DE80D0032487844801C03ACF2
:100A70000DC884E80D0041F69B300844372190FBF7
:100A8000F1F290FBF1F5A5F1800501FB12041B3C8E
:100A900002D56442012000E00020DFF898A08046E3
:100AA0000027FA44AAF1BE0A0EE0E0070AD0324657
:100AB000684607EB470101230AEB810100F046FB82
:100AC0008DE8070064107F1C002CEED1194F7F4485
:100AD000AE3F19E0E80715D007EB04100DF1180A36
:100AE00090E80E008AE80E00C068F04201D1981923
:100AF00008903246012306A903A800F027FB03ABA8
:100B000083E807006D10641C002DE3D14FF0010352
:100B100032466946B8F1000F03A802D000F001FB8D
:100B200001E000F013FBC9E90001C9F808200AB090
:100B3000BDE8F087C443000000487047540100201E
:100B40007546FFF7F9FFAE4605006946534620F0AB
:100B50000700854618B020B5FFF7ACFBBDE8204084
:100B60004FF000064FF000074FF000084FF0000B69
:100B700021F00701AC46ACE8C009ACE8C009ACE81C
:100B8000C009ACE8C0098D46704710B50446AFF304
:100B900000802046BDE81040FFF777BB4FF0013CD6
:100BA00050F8042B51F8043B9A4221D1A2EB0C03DC
:100BB000934313EACC1317D150F8042B51F8043B9C
:100BC0009A4215D1A2EB0C03934313EACC130BD139
:100BD00050F8042B51F8043B9A4209D1A2EB0C03C4
:100BE000934313EACC13DBD04FF00000704700BFF3
:100BF000D01A01BAB1FA81F101F0180122FA01F01C
:100C0000CB40C1F12001DBB2C0B2C01A2CFA01F313
:100C1000D11A914311EAC311E6D170470149182056
:100C2000ABBEFEE72600020070475FEA400C08BF3B
:100C300091F0000F4FEA8C234FEAC12243EA515151
:100C40004FEA1C5018BF00F5F0404FEA300018BFC3
:100C500041F000415FEA6C5C00F02980BCF1FF3F8D
:100C600008BF40F080407047130C06BF12044FF0DD
:100C7000100C4FF0000C130E04BF12020CF1080C04
:100C8000130F04BF12010CF1040C930F04BF920068
:100C90000CF1020CD30F04BF52000CF1010C1146F1
:100CA0004FF00002A0F11F00A0EB0C00704711F004
:100CB000004F08BF704731F000413FF4D5AF0B0C37
:100CC00006BF09044FF0100C4FF0000C0B0E04BFD0
:100CD00009020CF1080C0B0F04BF09010CF1040C04
:100CE0008B0F04BF89000CF1020CCB0F04BF49002D
:100CF0000CF1010CCCF12003A0EB0C0022FA03F361
:100D000002FA0CF241EA030100F10100704720F001
:100D10007F4C80EA030023F07F47ACEB070303F529
:100D20007C5300F0004003F1FF032DE980494FEAB6
:100D3000154B09B44FEA144325EA0B4E24EA034845
:100D40000FF2042606EB132749083E785FEA3202C9
:100D500003FB0667C7F5000707FB06F64FEA5437A3
:100D60004FEAD64606F1020607FB066CCCF1005CA2
:100D70004FEA1C472CEA074C07FB06F40CFB06F570
:100D800004EB15464FEA961634BF00204FF00040A2
:100D90004FEAD13706FB07FC4FEA1C4C0CFB0BF764
:100DA000D21B03FB0CF761EB07010CFB0EF7B0EB5A
:100DB000074072EB17420CFB08F734BFA2EB074267
:100DC000B2EB074261EB17414FEA0C444FEA91073F
:100DD00006FB07FC4FEA1C4C0CFB0BF7B0EBC740C3
:100DE00072EB573203FB0CF734BFA2EBC742B2EBF6
:100DF000C74261EB57310CFB0EF7B0EBC70072EB4B
:100E000057720CFB08F734BFA2EBC702B2EBC70264
:100E100061EB5771039F4FEA816141EA921104EB44
:100E2000CC044FEAD1374FEA826206FB07FC42EA64
:100E300090124FEA80604FEA1C4C0CFB0BF7D21B60
:100E400003FB0CF761EB07010CFB0EF7B0EB07405F
:100E500072EB17420CFB08F734BFA2EB0742B2EB70
:100E6000074261EB17414FEA8C554FEA910704EBBB
:100E70009C2406FB07FC4FEA1C4C0CFB0BF7B0EB69
:100E8000C74072EB573203FB0CF734BFA2EBC742EB
:100E9000B2EBC74261EB57310CFB0EF7B0EBC7006A
:100EA00072EB57720CFB08F734BFA2EBC702B2EB30
:100EB000C70261EB577115EB4C254FEA816141EA9E
:100EC00092114FEA82624FEAD13742EA901206FB52
:100ED00007FC44F100044FEA80604FEA1C4C0CFB15
:100EE0000BF7D21B03FB0CF761EB07010CFB0EF7B2
:100EF000B0EB074072EB17420CFB08F734BFA2EBD4
:100F00000742B2EB074261EB174115EB1C154FEAA4
:100F1000813141EA92414FEA823242EA90424FEAFD
:100F200080304FEA0C7644F1000448EA03434EEA6D
:100F30000B484FF0000EB2EB080C71EB030724BF17
:100F4000624639464EEB0E0E4FF0000B0018524130
:100F500049414BEB0B0BB2EB080C71EB03077BF138
:100F6000000B24BF624639464EEB0E0E4FF0000BCD
:100F70000018524149414BEB0B0BB2EB080C71EBE3
:100F800003077BF1000B24BF624639464EEB0E0E81
:100F900051EA020718BF46F0010616EB0E7655F12E
:100FA000000254F1000103D5BDE88901BDE80088C5
:100FB000BDE88901BDE80048B619524141EB010185
:100FC000A3F10103704780807F7E7D7C7B7A7978F6
:100FD000777676757473727171706F6E6E6D6C6CFE
:100FE0006B6A6A69686867666665646463636261A0
:100FF0006160605F5F5E5E5D5D5C5C5B5B5A5A5921
:10100000595858575756565555555454535352528C
:101010005251515050504F4F4F4E4E4D4D4D4C4CE4
:101020004C4B4B4B4A4A4A4949494848484747472D
:10103000474646464545454444444443434343426A
:10104000424242414141002B9C4630D477002BD094
:101050001CB54FEA370703B44FF010004FF01001F2
:10106000BAF1000F06D0BCF1000FDCBF40F0080061
:1010700040F008014FF000000FBCBDE810400BF13C
:10108000010BBBF1010F08BF5FEA170722BF12F186
:10109000010211F101014FF0004143F1000300F0A2
:1010A000004043EA00007047F9D35708D0E746EA0A
:1010B000064613F1400F4FEA16461FDD13F1200FCD
:1010C000DFBF16430A46002120335B42BED0C3F186
:1010D000200746EA064602FA07F74FEA164646EAAE
:1010E0000706C3F1200722FA03F201FA07F721FAF3
:1010F00003F14FF0000342EA0702A7E746EA0206BF
:1011000046EA06464FEA164646EA0106BCBF46EAEC
:101110000646360C4FF000034FF000024FF000017E
:1011200094E72DE9804C9A46934670B491E83800D4
:1011300007C831EA400C48BF34EA430C03D5FFF737
:10114000E6FDFFF780FFF0BCBDE8008C2DE9804C88
:101150009A46934670B491E8380007C810F0804F63
:1011600008BF13F0804F03D100F005F8FFF76BFFC5
:10117000F0BCBDE8008C20F07F4780EA030023F03C
:101180007F4C07EB0C03A3F57C5300F00040A3F168
:10119000FE0392F0000F00F0B38095F0000F00F016
:1011A00077802DE901494FEA11404FEA144621EAC0
:1011B000004800FB06FC24EA064708FB06F607FB8E
:1011C00008F800FB07F718EB06484CEB164C4FEA03
:1011D000124B18EB07484FEA15464CEB174022EA32
:1011E0000B4E0BFB06FC25EA06470EFB06F607FB3B
:1011F0000EFE0BFB07F71EEB064E4CEB164C4FF0AA
:1012000000061EEB074E4CEB174B18EB0B0840F19A
:10121000000018EB0E0B58EB000840F100008F1A8D
:101220004FF000013CBFC943661B14BFB5EB040C73
:1012300000213CBFC943F61B4FEA17444EEA8E0E0D
:1012400027EA04454FEA1C4704FB07622CEA074CD7
:1012500005FB07F70CFB05F604FB0CFC16EB074639
:1012600042EB174216EB0C4642EB1C421BEB060608
:1012700058EB0202414146EA9E0601D5BDE80189CC
:10128000B619524141EB0101A3F10103BDE8018907
:101290004FEA14454FEA114724EA054621EA074C74
:1012A00005FB07F406FB07F70CFB06F105FB0CFC3E
:1012B00011EB074144EB17444FEA124711EB0C4185
:1012C00044EB1C4422EA074C05FB07F206FB07F738
:1012D0000CFB06F605FB0CFC16EB074642EB17422F
:1012E00016EB0C4642EB1C456A1854F1000148BF4E
:1012F0007047B619524141EB0101A3F10103704758
:1013000095F0000F37D04FEA11424FEA144721EA17
:10131000024624EA074C02FB07F106FB07F70CFB29
:1013200006F402FB0CFC14EB074441EB17414FEAB7
:10133000154714EB0C4441EB1C4125EA074C02FB1A
:1013400007F506FB07F70CFB06F602FB0CFC16EB99
:10135000074645EB174516EB0C4645EB1C421219A8
:1013600051F1000148BF7047B619524141EB0101EC
:10137000A3F1010370474FEA14454FEA114724EAED
:10138000054621EA074C05FB07F106FB07F70CFBB6
:1013900006F24FF0000605FB0CFC12EB074241EB96
:1013A000174112EB0C4251EB1C4148BF7047921899
:1013B00041EB0101A3F101037047FEE770470022F2
:1013C00040F6B83306E00021491C89B29942FBD3AC
:1013D000521C92B28242F6D3704772B6FEE700000A
:1013E00070B5044600F044F90546601C02D004487C
:1013F0004068044400F03CF9401BA042FAD370BDA1
:10140000240000202DE9F04FDFF820920023012670
:101410000324A9F1040B85B00F2709F1040AABF1ED
:10142000040EFAE006FA03F52A407CD091F804C0D5
:101430000CF0030CBCF1010F02D0BCF1020F26D15D
:10144000D0F808C0CDF800C04FEA430C04FA0CF8FD
:10145000CDF810C0DDF800C02CEA080CCDF800C0B3
:10146000D1F80C80DDF810C008FA0CF8DDF800C0E7
:1014700048EA0C08C0F80880D0F804C02CEA050C33
:101480000D79C5F300159D4045EA0C0545600D79C1
:10149000ED43AD070ED0C5684FEA430804FA08FCD7
:1014A00025EA0C05D1F808C00CFA08FC4CEA050C3A
:1014B000C0F80CC00D7905F00305022D16D1DD082A
:1014C00000EB850CCDF808C0DCF820805D074FEA02
:1014D000D56C07FA0CF528EA05080D6905FA0CF534
:1014E000DDF808C045EA0805CCF8205005684FEA49
:1014F000430CCDF808C004FA0CFC25EA0C0591F861
:1015000004C00CF00308DDF808C008FA0CF848EA3B
:101510000508C0F800804D6815F4403F7CD0444D6C
:10152000D5F860C000E077E04CF0010CC5F860C071
:101530002D6E23F0030C05F0010500953D4D65442B
:101540000295AD684FEA837C4FEA1C7807FA08FCE5
:1015500025EA0C05B0F1904F06D0DFF8DCC06045FD
:1015600005D14FF0010C20E04FF0000C1DE0DFF83A
:10157000CCC0604502D14FF0020C16E0DFF8C0C0CD
:10158000604502D14FF0030C0FE0DFF8B8C06045B2
:1015900002D14FF0040C08E0DFF8ACC0604502D186
:1015A0004FF0050C01E04FF0060C0CFA08FC4CEA79
:1015B000050C029DC5F808C0D9F80050CC46D1F8FA
:1015C000048095435FEAC82800D51543CCF8005045
:1015D000DAF80050D446D1F8048095435FEA8828B1
:1015E00000D51543CCF80050DBF80050DC46D1F8AC
:1015F000048095435FEA883800D51543CCF8005045
:10160000DEF80050F446D1F8048095435FEAC8380C
:1016100000D51543CCF800505B1C0A6832FA03F57C
:101620007FF400AF05B0BDE8F08F00000804014072
:10163000001002400000014000040048000800487B
:10164000000C0048001000480014004800690840E1
:1016500000D001207047426921EA02030A4043EAB0
:101660000241816170470AB18161704781627047B0
:10167000014880687047000024000020024881680B
:1016800042681144816070472400002010B5002496
:10169000032000F073F80F2000F008F808B10124CF
:1016A00001E000F025F8204610BD000070B50E4E98
:1016B00005460024706898B14FF47A71B1FBF0F0E0
:1016C0000A490968B1FBF0F000F0F8FB40B9102DB1
:1016D00006D200222946501E00F030F8356000E0A6
:1016E0000124204670BD00002400002030000020AE
:1016F0000A4882B0016E41F001010166016E01F0FD
:1017000001010091816D41F080518165806D00F093
:101710008050009002B000F0A1B80000001002401C
:10172000002809DB00F01F020121914040098000E0
:1017300000F1E020C0F8001170470000F0B40E4B3B
:101740001B680C46C3F30223C3F10705042D00D91F
:101750000425191D072901D2002300E0DB1E012604
:1017600006FA05F1491E214099409E40761E16401A
:101770003143F0BC01F0AABE0CED00E0064900F0D8
:10178000070208684FF6FF03184040EA0220034AA8
:1017900010430860704700000CED00E00000FA05FF
:1017A0002B492C4B0A6832214A432B4940B1B0F5F2
:1017B000007F086829D020F4C06040F480602CE0ED
:1017C0000868C0F34120022804D051F8800F20F4AB
:1017D000807022E0D1F8800020F48070C1F8800091
:1017E000086820F4C06040F400700860B2FBF3F0B9
:1017F000401C00E0401E4A69520501D50028F9D17D
:10180000486940050AD503207047C0F341200228EB
:1018100006D051F8800F40F48070086000207047B7
:10182000D1F8800040F48070C1F88000086820F48E
:10183000C06040F400700860B2FBF3F0401C00E0B0
:10184000401E4A695205DBD50028F9D1D8E70000CF
:101850003000002040420F000070004002488168C4
:1018600041F4804181607047007000402DE9F047ED
:101870000E4605004FF0000725D0DFF8AC81D8F800
:10188000000000F00F00B0420CD2D8F8001021F098
:101890000F013143C8F80010D8F8000000F00F0025
:1018A000B04210D12968614CC80741F2883A5AD039
:1018B0006868DFF87C91032808D0022820682DD0C2
:1018C000400500282CDB0120BDE8F087206880015E
:1018D000F9D5E06800F00302E068C0F30310401C93
:1018E000032A19D0534A00BFB2FBF0F0E268C2F3FA
:1018F00006225043E268C2F34162521C5200B0FB20
:10190000F2F0484517D9A06810F0F00F0CD0880706
:1019100011D5A86840B10EE0474AE5E78003D0E75B
:1019200000F092F8484506D9A06820F0F00040F099
:101930008000A0608027A068696820F00300084349
:10194000A060FFF795FE814606E000BFFFF790FE1E
:10195000A0EB090151453AD8A068696800F00C0075
:10196000B0EB810FF2D12868810714D5400703D569
:10197000A06840F4E060A0602878000705D5A06862
:1019800020F4605040F4E060A060A068A96820F0F6
:10199000F000084304E0802F03D1A06820F0F0009D
:1019A000A060D8F80010404601F00F01B14216D9EE
:1019B000016821F00F0131430160FFF759FE07462E
:1019C00007E000BFFFF754FEC11B514501D90320BA
:1019D0007AE7D8F8000000F00F00B042F2D1287882
:1019E000400705D5A068E96820F4E0600843A060DE
:1019F0002878000706D5A068296920F4605040EADD
:101A0000C100A06000F020F8A1680C4AC1F30311E6
:101A1000515C01F01F01C84009490860094800688D
:101A2000BDE8F047FFF742BE002002400010024030
:101A300000B4C4040024F40040787D019C4D0008EB
:101A40003000002024000020184910B58868C0F339
:101A500081021748012A0BD08A68164BC2F3810213
:101A6000022A06D08A68C2F38102032A03D000202A
:101A700010BD184610BDCA6802F00304CA68C2F35C
:101A80000312521C032C02D0B0FBF2F001E0B3FBB6
:101A9000F2F0CA68C968C2F306225043C1F341613B
:101AA000491C4900B0FBF1F010BD000000100240DD
:101AB0000024F40040787D012DE9F84304007AD039
:101AC0002078F84DC00747D0A868E96800F00C00FE
:101AD00001F003010C2802D0082817D001E00329E7
:101AE00014D06068B0F5803F17D0B0F5A02F2868FB
:101AF00017D020F480302860286820F480202860E7
:101B00006068E0B1FFF7B4FD064614E02868800382
:101B100022D560680028D2D01EE0286840F48030CA
:101B2000EDE740F480202860F7E700BFFFF7A0FD55
:101B3000801B642870D828688003F7D50CE0FFF775
:101B400097FD064605E000BFFFF792FD801B642865
:101B5000F0D828688003F7D4207880074CD5A8688F
:101B6000E96800F00C0001F003010C2802D0042801
:101B70000DD001E002290AD0E068002828682BD0A7
:101B800040F480702860FFF773FD064619E028686E
:101B9000400502D5E068002891D06868217C20F0DB
:101BA000FE4040EA01606860BF480068FFF77EFDC4
:101BB000002800D120E072E1FFF75AFD801B0228C7
:101BC000B8D828684005F7D56868217C20F0FE4029
:101BD00040EA016068600FE020F480702860FFF741
:101BE00047FD064605E000BFFFF742FD801B0228C7
:101BF000A0D828684005F7D42078000729D5606967
:101C00000028D5F8940013D040F00100C5F89400E6
:101C1000FFF72EFD064606E090E000BFFFF728FD27
:101C2000801B022886D8D5F894008007F6D510E0EE
:101C300020F00100C5F89400FFF71AFD064604E005
:101C4000FFF716FD801B022878D8D5F8940080078E
:101C5000F6D42078400761D5A86D0026C00008D4CE
:101C6000A86D40F08050A865A86D012600F0805056
:101C700000908E480168C90511D40168804641F47E
:101C800080710160FFF7F4FC074604E0FFF7F0FC09
:101C9000C01B022852D8D8F80000C005F6D5A068AD
:101CA000012815D00528D5F8900016D020F00100A5
:101CB000C5F89000D5F8900020F00400C5F8900019
:101CC000A06841F28838B8B1FFF7D2FC07460EE0B1
:101CD000D5F8900040F00100F0E740F00400C5F8AE
:101CE0009000F5E7FFF7C4FCC11B414526D8D5F8A5
:101CF00090008007F6D50CE0FFF7BAFC074604E039
:101D0000FFF7B6FCC11B414518D8D5F890008007F5
:101D1000F6D41EB1A86D20F08050A865207880060A
:101D200029D5A0690028D5F8980013D040F001000B
:101D3000C5F89800FFF79CFC064606E075E000BF7A
:101D4000FFF796FC801B02286FD8D5F89800800713
:101D5000F6D510E020F00100C5F89800FFF788FCE8
:101D6000064604E0FFF784FC801B02285DD8D5F806
:101D700098008007F6D4E069F0B3A968C1F3810147
:101D800003295DD00228286820F08070286003D0E5
:101D9000FFF76EFC04464BE0FFF76AFC064604E0E2
:101DA000FFF766FC801B02283FD828688001F7D423
:101DB000F4E908016FF00F0202EB01110843218AD8
:101DC0005204490802EB4151A26841EA022108434A
:101DD000217D4FF07E42490802EB41610843217B9F
:101DE00040EAC160E968324A11400843E860286867
:101DF00040F08070286000E05EE0E86840F08070AD
:101E0000E860FFF735FC044605E000BFFFF730FC53
:101E1000001B022809D828688001F7D54CE000BFD4
:101E2000FFF726FC001B022802D90320BDE8F88337
:101E300028688001F4D4E8681E490840E8603BE067
:101E40000128F3D0E868226A00F00301914226D10C
:101E5000616A00F0F0020901103991421FD1A26AB3
:101E600000F4FE41B1EB022F19D194F82C2000F0C0
:101E70007841B1EBC26F12D1218E00F4C002490843
:101E80004905A1F50011914209D194F8341000F0F0
:101E9000C06049084906A1F1007181420CD00120BF
:101EA000C4E7000000100240240000200070004041
:101EB0000C809F01FCFFEEFE0020B7E710B5401E2E
:101EC000B0F1807F01D3012010BD4FF0E0246061AC
:101ED0000F21601701F0FAFA0020A06107202061AD
:101EE000002010BD704770477047704770477047BB
:101EF000F0B590F83C20012A3AD0012580F83C50FA
:101F0000022280F83D2003685A689C68194E1A4FD7
:101F1000B34201D0BB4204D122F4700C4A6842EAB9
:101F20000C02DFF858C002EA0C02D1F800C04CEAFB
:101F3000020CC3F804C00268B2420DD0B2F1804F67
:101F40000AD00F4B9A4207D00E4B9A4204D0BA42A5
:101F500002D00D4B9A4204D1896824F080031943C2
:101F6000916080F83D50002180F83C100846F0BD9B
:101F70000220F0BD002C0140003401408FFFFFFD26
:101F8000000400400008004000400140704710B5C8
:101F9000040003D094F83D0010B107E0012010BD0B
:101FA000002084F83C00204600F022F8022084F84B
:101FB0003D00211D206801F07BF9012084F84800D4
:101FC00084F83E0084F83F0084F8400084F8410023
:101FD00084F8420084F8430084F8440084F8450003
:101FE00084F8460084F8470084F83D00002010BDC6
:101FF00010B586B0044614216846FEF7F1F9226850
:10200000002330480221B2F1804F25D02E4CA2424D
:1020100045D1826D42F002028265826D02F00202B9
:102020000592C26C42F00202C264C06C00F0020071
:10203000059010208DE80B00CDE903316946234857
:10204000FFF7E0F9002202211D20FFF777FB1D209A
:10205000FFF766FB06B010BD826D42F0010282659B
:10206000826D02F001020592C26C42F00102C2646C
:10207000C06C00F0010005904FF400408DE80B00AB
:102080000120CDE9033069464FF09040FFF7BAF9DF
:10209000002201211C20FFF751FB1C20D8E70C492E
:1020A0008A42D7D1816D41F010018165806D002297
:1020B00000F01000059011463620FFF73FFB362058
:1020C000C6E7000000100240000400400004004881
:1020D0000010004090F83D10012901D00120704708
:1020E000022180F83D100168CA6842F00102CA600E
:1020F0000068104988420ED0B0F1804F0BD00E49D5
:10210000884208D00D49884205D00D49884202D046
:102110000C49884207D181680B4A1140062906D034
:10212000B1F5803F03D0016841F00101016000205A
:1021300070470000002C01400004004000080040EF
:1021400000340140004001400700010070B5044622
:1021500090F83C000025012814D0012684F83C604A
:10216000022084F83D0022689068364B184020F425
:102170007F409060086870282ED010DC10F00F0FA0
:1021800003D021E04FF0020070BD4FEA2012072A71
:102190001AD2DFE802F0525252524A3840002A4B1B
:1021A000C21A984249D009DCB0F5805F0DD0B0F575
:1021B000005F1CD0B0F1101F06D13EE0102A3CD0C9
:1021C000202A3AD0502A38D0012584F83D600020DA
:1021D00084F83C00284670BDCB68D1E90121206815
:1021E00001F0D1F82068816841F0770109E0CB68FF
:1021F000D1E90121206801F0C6F82068816841F426
:1022000080418160E1E7CA684968206801F0D0F840
:102210005021206806E0CA684968206801F010F97A
:102220006021206801F0BAF8CFE7CA6849682068E1
:1022300001F0BEF840212068F4E72268014610460C
:10224000F0E7000088FFCEFF2000100010B5026804
:10225000516A00235362074C074A084BA04202D13F
:10226000B2FBF1F4DC60064CA04202D1B2FBF1F00B
:10227000186110BD7000002040420F0008000020CF
:10228000BC0000202DE9F041054690F83C000026F6
:102290000C46012810D0012085F83C0072B1042AB8
:1022A0001CD0082A2CD00C2A50D00126002085F8FA
:1022B0003C003046BDE8F0810220FBE7D4E9001283
:1022C000E368286801F086F82868816921F00C012C
:1022D000816128688169A26811430FE0D4E9001286
:1022E000E368286801F0BEF82868816921F440613C
:1022F000816128688169A26841EA02218161D5E78C
:102300002868D4E9002C277B036A016A21F48071D4
:102310000162C16923F4206321F0030141EA0C0149
:1023200021F0F00C39074FF420674CEA116107EAFD
:1023300002221A43C16102622868C16921F00C01BE
:10234000C1612868C169A26811432BE02868D4E9FB
:102350000021E768036AD0F820C02CF4805CC0F844
:1023600020C0D0F81CC023F420432CF4407C4CEA5D
:10237000012121F4704C4FF6FF7101EA07314FF44F
:10238000204741EA0C0107EA02321A43C1610262A6
:102390002868C16921F44061C1612868C169A268E7
:1023A00041EA0221C16181E710B5040003D094F82D
:1023B0003D0010B107E0012010BD002084F83C0072
:1023C000204600F022F8022084F83D00211D2068FC
:1023D00000F06EFF012084F8480084F83E0084F885
:1023E0003F0084F8400084F8410084F8420084F8FB
:1023F000430084F8440084F8450084F8460084F8DB
:10240000470084F83D00002010BD704730B50446F9
:10241000002571B1042911D0082914D00C2917D036
:10242000102918D094F8430094F84720012817D1B8
:1024300014E094F83E0094F84420F7E794F83F0045
:1024400094F84520F2E794F8400094F84620EDE730
:1024500094F84100E8E794F84200E5E7012A01D04A
:10246000012030BD022079B1042916D008291DD0E1
:102470000C2949D010294AD084F8430084F8470039
:102480000C2947D001253DE084F83E0084F8440043
:102490002068C26842F0020210E084F83F0084F82D
:1024A00045002068C26842F0040207E084F840005A
:1024B00084F846002068C26842F00802C260012227
:1024C000206800F053FF1649206888420ED0B0F112
:1024D000804F0BD01349884208D01349884205D059
:1024E0001249884202D01249884207D18168114AB4
:1024F0001140062906D0B1F5803F03D0016841F0B4
:1025000001010160284630BD84F84100B6E784F837
:102510004200B3E72068C26842F01002CEE7000034
:10252000002C01400004004000080040003401403D
:1025300000400140070001002DE9F0410446006819
:10254000C66805694FF00007A90713D5B10711D573
:10255000F91E0161012020772068806980072046EC
:1025600002D0FFF773FE04E000F0B7F8204600F059
:10257000B5F82777680716D5700714D521686FF06E
:1025800004000861022020772068806910F4407FF1
:10259000204602D0FFF75AFE04E000F09EF82046E5
:1025A00000F09CF82777280715D5300713D5216848
:1025B0006FF008000861042020772068C069800758
:1025C000204602D0FFF742FE04E000F086F82046E5
:1025D00000F084F82777E80616D5F00614D52168B0
:1025E0006FF010000861082020772068C06910F49F
:1025F000407F204602D0FFF729FE04E000F06DF88E
:10260000204600F06BF82777E80708D0F00706D0DF
:1026100021686FF001000861204600F061F828068B
:1026200001D4A80408D5300606D521686FF40250FD
:1026300008612046FFF757FCE80508D5300606D5A7
:1026400021686FF4807008612046FFF74BFC680634
:1026500008D5700606D521686FF040000861204655
:1026600000F04CF8A80608D5B00606D521686FF032
:10267000200008612046FFF737FCE80208D5F00289
:1026800006D521686FF4801008612046FFF72EFC04
:10269000A80208D5B00206D521686FF400100861C1
:1026A0002046FFF722FC680208D5700206D5216893
:1026B0006FF4800008612046FFF719FC28020AD554
:1026C000300208D521686FF4000008612046BDE89B
:1026D000F041FFF75BBCBDE8F08170477047000038
:1026E00000680449884204D14FF6FF710248FEF7A2
:1026F000B2BF704700100040000800487047FEE776
:1027000030B5364C6425344B6242354901280ED031
:10271000022830D00022032849D0042806D1887826
:10272000401CC0B28870022800D98A7030BD8878F9
:102730000128FBD1887930B101280DD00228F5D1CC
:102740008869643022E00889643025E00D8130BD5D
:102750009042FCD30A8130BD4869643023E04A616D
:1027600030BD9842FCD34B6130BD8C6130BD90428E
:10277000FCDB8A6130BD88780128FBD1887948B1BB
:1027800001280ED00228F5D1886964388861A042FA
:10279000EDDCEAE70889643880B208816428D7D87C
:1027A000D4E74869643848619042DAD8D7E7887836
:1027B00048B10128DED18879401CC0B28871022856
:1027C000D8D98A7130BDC878401CC0B2C870012801
:1027D000F8D9CA7030BD0000A086010018FCFFFFC8
:1027E0000800002070B50A20FEF7FAFD2B4D2C4C96
:1027F0004FF090462878012829D101212046FEF784
:1028000025FF70B102212046FEF720FF48B10421C8
:102810002046FEF71BFF20B101213046FEF716FFD0
:10282000A8B90020287001212046FEF70FFF88B1CB
:1028300002212046FEF70AFF70B104212046FEF770
:1028400005FF58B101213046FEF700FF40B128785E
:1028500040B120E0012070BD022070BD032070BD9A
:10286000042070BD01212046FEF7F0FE012812D1A0
:1028700002212046FEF7EAFE01280CD10421204661
:10288000FEF7E4FE012806D101213046FEF7DEFE08
:10289000012800D12870002070BD00000800002031
:1028A0000004004800B585B014216846FDF798FD86
:1028B0004FF6FF70009000200321CDE90201019046
:1028C00069460248FEF79EFD05B000BD00080048BD
:1028D00000B585B014216846FDF782FD4FF6FF7004
:1028E000009001200190032003900020029069468F
:1028F0000248FEF787FD05B000BD00000008004853
:1029000070B5002406462146204600F003F900F089
:1029100041F94FF49635304600F010F9641CAC4292
:10292000F9D370BD30B587B014216846FDF758FD66
:102930001E48C16C41F00401C164C16C01F0040186
:102940000591C16C41F00101C164C16C01F001014C
:102950000591C16C41F00201C164C06C012500F019
:10296000020005904FF44870CDE90005002403945F
:10297000694602940E48FEF745FD28020394009034
:10298000CDE901544FF0904469462046FEF73AFDE8
:10299000FFF79EFFA06940F48070A06104481830E2
:1029A000016841F40871016007B030BD00100240B9
:1029B00000040048203AD2B2034B02EB420203EB80
:1029C000021200F019B80000CC3B0008F0B50E462A
:1029D0000746002540F23F1407E021463846FFF73E
:1029E000E9FF103C6D1CA4B2761C3278002A01D09D
:1029F000142DF2D3F0BD00002DE9F04791468A4630
:102A00000026044600F086F8DFF84080012700BF6A
:102A100000F0C0F85FF0000539F8160007FA05F17C
:102A20000842404601D1408800E0008800F086F866
:102A30006D1C102DF0D3641CE4B25146204600F00A
:102A400069F8761C182EE3D3BDE8F087000000205B
:102A500010B5FFF767FF002000F014F8084CA080C5
:102A6000A088A0F50241303906D000F0CFFA00204E
:102A700000F008F8A08010BD00F03FFAF7E7000072
:102A80000000002070B51D490A6842F400720A6017
:102A90000A6842F480720A60184C103C226842F0C6
:102AA00020022260164A1060086840F0200008608A
:102AB00000BF00BF00BF206840F0200020602068F9
:102AC00040F480702060FFF7EDFE4FF09041886A7F
:102AD00040F48070886200BF00BF00BF0848001F3C
:102AE000006885B2886940F480708861FFF7F0FE65
:102AF000206840F400702060284670BD280400481B
:102B00001408004801B5BDF800000149488008BD1F
:102B10000000002010B50C460146202000F068F8A7
:102B20002146BDE81040212000F062B801B5BDF893
:102B300000000149088008BD00000020134A116808
:102B400041F400711160114910390B6843F480732E
:102B50000B600B6843F020030B600D4B186010688E
:102B600040F02000106000BF00BF00BF086840F0C8
:102B700020000860086840F48070086000BF00BF53
:102B800000BF086840F400700860704728040048DF
:102B9000140800481449086840F400700860086888
:102BA00040F48070086010481038026842F020023B
:102BB00002600E4B22221A600A6842F020020A606C
:102BC00000BF00BF00BF016841F020010160016843
:102BD00041F48071016000BF00BF00BF016841F493
:102BE0000071016070470000280400481408004884
:102BF000184B10B51A6842F400721A601A6842F451
:102C000080721A60134A103A146844F02004146069
:102C1000114C2060186840F02000186000BF00BF11
:102C200000BF106840F020001060106840F4807011
:102C300010602160186840F02000186000BF00BFDD
:102C400000BF106840F020001060106840F48070F1
:102C5000106010BD28040048140800482DE9F04F0A
:102C600087B014216846FDF7BBFB4048C16C41F0BA
:102C70000401C164C16C01F004010591C16C41F013
:102C80002001C164C16C01F020010591C16C41F0CB
:102C90000101C164C16C01F001010591C16C41F0F9
:102CA0000201C164C16C01F002010591C16C41F0E7
:102CB0000801C164C06CDFF8B88000F008004FF66E
:102CC000FF740590002221464046FEF7CCFC4FF4ED
:102CD00080764FF09049002231464846FEF7C3FC0B
:102CE000DFF890A0002204215046FEF7BCFCDFF87C
:102CF00088B04FF44877002239465846FEF7B3FCB7
:102D00000125CDE90045002402946946404603941C
:102D1000FEF778FBCDE90054694648460294FEF779
:102D200071FB0720CDE90004694658460294FEF77E
:102D300069FB0096CDE90154694648460394FEF7C5
:102D400061FB04200090CDE901546946504603948C
:102D5000FEF758FB0097CDE90154694658460394A5
:102D6000FEF750FB07B0BDE8F08F000000100240F6
:102D700000080048000C00480004004810B58CB062
:102D800000240594214804940694079408940A9416
:102D900009940094019402944FF0804103940160DF
:102DA0004F21C0E901141A49C0E903148461FFF7F7
:102DB000EEF808B1FEF711FB4FF48050049004A91F
:102DC0001248FFF7C3F908B1FEF707FB0F48FFF7FA
:102DD000EBFA08B1FEF701FB089408A90B480A9426
:102DE000FFF786F808B1FEF7F8FA0120CDE90040B8
:102DF00002940022694605480394FFF743FA00282D
:102E000001D0FEF7EAFA0CB010BD000070000020FF
:102E1000AF000A0010B58CB0002405942248049439
:102E20000694079408940A940994009401940294D7
:102E30001C49039401604F21C0E901144FF6FF7152
:102E4000C0E903148461FFF7A2F808B1FEF7C5FAE0
:102E50004FF48050049004A91348FFF777F908B1A4
:102E6000FEF7BBFA1048FFF79FFA08B1FEF7B5FA74
:102E7000089408A90C480A94FFF73AF808B1FEF73D
:102E8000ACFA0120CDE900400294002269460648D0
:102E90000394FFF7F7F9002801D0FEF79EFA0CB073
:102EA00010BD000000040040BC0000203EB500241E
:102EB0000F48009401940D49029401604FF4FA51B7
:102EC000C0E9011442F210718461C160FFF75FF83C
:102ED00008B1FEF782FA0094694605480294FFF7AC
:102EE00007F8002801D0FEF778FA3EBD0010004038
:102EF00008010020FEE7FEE7704730B50121002001
:102F0000FFF776FE4FF47A70FEF759FA00210120A0
:102F1000FFF76EFE41F290711020FFF769FE4FF44B
:102F20001C516020FFF764FE01216120FFF760FE65
:102F300002214620FFF75CFE48F210011320FFF744
:102F400057FE48F2FE011220FFF752FE4FF4A06137
:102F50000220FFF74DFE41F230010320FFF748FE4B
:102F600040F2033421463020FFF742FE2146312053
:102F7000FFF73EFE21463220FFF73AFEE51E2946C6
:102F80003320FFF735FE03213420FFF731FE2146C1
:102F90003520FFF72DFE14213620FFF729FE2146AC
:102FA0003720FFF725FE21463820FFF721FE214676
:102FB0003920FFF71DFE29463A20FFF719FE0321AD
:102FC0003B20FFF715FE21463C20FFF711FE4FF492
:102FD000A0513D20FFF70CFE4FF400719220FFF747
:102FE00007FE21469320FFF703FE40F60D019020D7
:102FF000FFF7FEFD41F218010320FFF7F9FDBDE8E0
:10300000304040F273110720FFF7F2BD10B543F2D4
:103010000801E320FFF7ECFD1221E720FFF7E8FDB0
:1030200041F23121EF20FFF7E3FD00210120FFF7FE
:10303000DFFD4FF4E0610220FFF7DAFD41F23001DD
:103040000320FFF7D5FD00210420FFF7D1FD40F25A
:1030500007210820FFF7CCFD00210920FFF7C8FD5C
:1030600000210A20FFF7C4FD00210C20FFF7C0FD5E
:1030700000210D20FFF7BCFD00210F20FFF7B8FD58
:1030800000211020FFF7B4FD07211120FFF7B0FD4C
:1030900000211220FFF7ACFD00211320FFF7A8FD4F
:1030A000C820FEF79DF941F290611020FFF7A0FDC6
:1030B00040F227211120FFF79BFD3220FEF790F907
:1030C0001D211220FFF794FD3220FEF789F94FF4FD
:1030D00000611320FFF78CFD14212920FFF788FDE4
:1030E0000B212B20FFF784FD3220FEF779F9002118
:1030F0002020FFF77DFD00212120FFF779FD07212A
:103100003020FFF775FD40F207713120FFF770FDA9
:1031100006213220FFF76CFD40F204713520FFF7E5
:1031200067FD41F604713620FFF762FD0421372068
:10313000FFF75EFD00213820FFF75AFD40F20671CF
:103140003920FFF755FD40F201713C20FFF750FD9B
:103150000F213D20FFF74CFD00215020FFF748FDD7
:10316000EF215120FFF744FD00215220FFF740FDE1
:1031700040F23F115320FFF73BFD4FF41C516020FC
:10318000FFF736FD01216120FFF732FD00216A20A3
:10319000FFF72EFD00218020FFF72AFD002181206E
:1031A000FFF726FD00218220FFF722FD002183206A
:1031B000FFF71EFD00218420FFF71AFD0021852066
:1031C000FFF716FD10219020FFF712FD002192203D
:1031D000FFF70EFD03219320FFF70AFD4FF48871DE
:1031E0009520FFF705FD00219720FFF701FD002145
:1031F0009820FFF7FDFC41F218010320FFF7F8FCCF
:10320000BDE8104040F273110720FFF7F1BC704792
:10321000FEF734BA10B594B038216846FDF7E0F8EF
:1032200014210EA8FDF7DCF84FF40070FEF7B8FA91
:10323000012000900004032405210190CDE90841FC
:1032400002202021CDE90A1007900C900D906846CD
:10325000FEF732FC08B172B6FEE70F20CDE90E048E
:10326000002010901190129002210EA8FEF7FEFA95
:10327000002801D072B6FEE714B010BD0248016804
:1032800041F470010160704788ED00E00148FFF7EC
:1032900053B90000700000200148FFF74DB900004D
:1032A000BC0000200148FFF747B9000008010020DA
:1032B0002DE9F0430268264B264D274E274C4FF050
:1032C0008049984207D0484505D0A84203D0B04273
:1032D00001D0A04203D122F070074A683A43204F40
:1032E000DFF880C0DFF8808098420DD048450BD0D1
:1032F000A84209D0B04207D0A04205D0B84203D0BE
:10330000604501D0404503D122F44075CA682A4384
:103310004D6922F080022A4302608A68C2620A680C
:103320008262984207D0A04205D0B84203D06045DF
:1033300001D0404501D10969016301214161016961
:10334000C90703D0016921F001010161BDE8F083E3
:10335000002C0140000400400008004000340140FF
:1033600000400140004401400048014010B501F018
:103370001F030121046A99408C430462016A9A4048
:103380001143016210BD10B5846842EA032224F49F
:103390007F440A432243826010BD00008268034BD1
:1033A0001A400A4342F00701816070478FFFCFFF48
:1033B00010B5036A046A24F001040462846924F0ED
:1033C000F00444EA021423F00A020A438461026210
:1033D00010BD000070B5056A046A24F0010404629F
:1033E0008469124EB0420ED0B0F1804F0BD0104E17
:1033F000B04208D00F4EB04205D00F4EB04202D0BE
:103400000E4EB04203D124F00304144301E044F013
:1034100001041A0724F0F00444EA126225F00A03BA
:1034200001F00A0119438261016270BD002C014064
:10343000000400400008004000340140004001400A
:1034400010B5036A046A24F010040462846923F04E
:10345000A00324F4704444EA023243EA0111826179
:10346000016210BD30B5046A056A25F010050562D9
:10347000856925F4407545EA022222F470454FF62D
:10348000FF7202EA033224F0A0032A43A02404EAD4
:10349000011119438261016230BDFEE703B4019856
:1034A0004100009850EAC12018BF04204A0D18BFFF
:1034B00040F0010040F2FF72B2EB515F08BF40F0F4
:1034C0000200012808BF052002B070470907090E55
:1034D000002804DB00F1E02080F80014704700F0C1
:1034E0000F0000F1E02080F8141D704710B5554C16
:1034F0002DED028BA078002829D001287CD002284D
:1035000079D151A13020FFF761FA227952A15748B1
:10351000FCF7E2FE55496020FFF758FA627954A1A2
:103520005248FCF7D9FE51497820FFF74FFA6279EB
:1035300054A14E48FCF7D0FE4C499020FFF746FAC4
:10354000627955A14948FCF7C7FE48493DE0E0785B
:1035500000283CD0012872D154A13020FFF736FA60
:10356000206900F0C5FA41EC100B53EC102B9FEDD5
:10357000538B51EC180B00F063F941EC100B51A187
:1035800053EC102B3948FCF7A7FE38496020FFF7B1
:103590001DFAE06800F0ACFA41EC100B51EC180B8E
:1035A00053EC102B00F04CF941EC100B4BA153ECF9
:1035B000102B2E48FCF790FE2C497820FFF706FAD6
:1035C0004CA19020FFF702FA4AA1A82031E04DA1BA
:1035D0003020FFF7FBF94FA124482269FCF77CFE5D
:1035E00022496020FFF7F2F950A12048E268FCF779
:1035F00073FEE1E700E022E052A13020FFF7E6F998
:10360000228954A11948FCF767FE18496020FFF78A
:10361000DDF956A115486269FCF75EFE1349782072
:10362000FFF7D4F957A11148A269FCF755FE0F49DD
:103630009020BDEC028BBDE81040FFF7C7B9BDEC90
:10364000028B10BD080000202020202020202052C6
:103650004543442020200000202020202020204E10
:1036600044413D256420485A2000000034000020D9
:10367000202020202020204E44423D256420485A0E
:1036800020000000202020202020204E48413D2501
:103690006420485A20000000202020202020204EB6
:1036A00048423D256420485A200000002020202068
:1036B00020202044415441283229200000000000ED
:1036C00000408F4020202020202020413D256620E2
:1036D0004D532020202020202000000020202020EA
:1036E000202020423D2566204D53202020202020F0
:1036F000200000002020202020202020202020202A
:103700002020200020202020202020444154412837
:103710003129200020202020202020413D25642028
:10372000485A2020202020200000000020202020B7
:10373000202020423D256420485A2020202020209F
:103740002020000020202020202020504152412015
:10375000202000002020202020202050523D2564E1
:1037600020485A2020202020200000002020202057
:1037700020202050483D256420485A202020202029
:10378000200000002020202020202050583D2564CB
:1037900020485A202020202020000000FDF776FF3E
:1037A000FFF738FDFFF75AFAFFF7E8FAFFF732FBA9
:1037B000FFF77CFB012204211148FDF754FFFFF7BE
:1037C00047F90020FFF79CF80020FFF79BF94FF620
:1037D000FF70FFF7ABF90B48FEF77CFC00210A48AD
:1037E000FEF714FE00210948FEF710FE084C00BF4A
:1037F000FEF7F8FF6070FEF783FFFFF777FEF7E74D
:10380000000C004808010020BC00002070000020CF
:103810000800002010B500290AD00878002807D039
:1038200005487844FDF7BAF9002801D0002010BD02
:103830000248784410BD00003E1600003616000015
:103840002DE9C04130B4DFF8A0C23CEA111418BF22
:103850003CEA131400F0EC8081EA03051CEA111421
:1038600044EAD57418BF1CEA131500F0C780A4EB16
:1038700005044FF0004545EAC12145EAC32341EA6A
:10388000505143EA525304F17F74994204F50034D5
:103890004FEAC0204FEAC22208BF904200F09C804D
:1038A0004FEA13650FF24016765D4FEA134506FBAB
:1038B00005F7C7F1807706FB07F74FEAD737A7FB75
:1038C00003687642C8F58038A7FB06CE38BFA8F15A
:1038D000010807FB08E64FF0000EA6FB028CE6FB92
:1038E00003CEDCF1000CCEF1004E38BFAEF1010E7C
:1038F000A6FB0C584FF000074FF00005E6FB0E87C3
:10390000A1FB08C6A0FB07CE16EB0E0645F100058D
:10391000E1FB076515F1E04E7EBFA4F580345FEA58
:1039200046066D4116F1800745F100054FEA17275D
:103930004FEA066647EA0567A6F1DE46B6F1805F04
:103940004FEA15251FD9384624F0010C05EBC47148
:10395000BCF1FE6F01EB0C1102D8F0BCBDE8008198
:1039600024425CBF01F5801E9EEAC47F02D4F0BCF5
:10397000BDE80081244238D4F0BCA1F1C041BDE8CB
:10398000004100F016B94FEAD22242EA43524FEA10
:10399000D323A7FB02864FEAD02040EA415007FB21
:1039A00003661EEA0E0F4FEAD12105FB026658BFDF
:1039B000A6EB0056B6EB00564FEA520E4EEAC37E17
:1039C00018EB0E0E56EB530EBDD518EB02085E41F8
:1039D0007F1C55F10005B6E74FF480154FF0000746
:1039E0004FF000064FF00008ADE7F0BC4FF00000CC
:1039F00001F1C04101F00041BDE8008111EA0C1F56
:103A00000CEA131500D00CE013EA0C1F00F025801F
:103A10004FF00000F0BC81EA030101F00041BDE875
:103A20000081F0BCBDE8004181EA030100F0C1B8AB
:103A3000F0BCBDE8004170B500F06DF8097EFC3EB9
:103A400000F007B881EA03014FF0000001F00041E7
:103A5000704781EA030100F0ACB8F0BCBDE800415A
:103A60004FF0000021497047FFFDFBF9F7F5F4F234
:103A7000F0EEEDEBE9E8E6E4E3E1E0DEDDDBDAD809
:103A8000D7D5D4D3D1D0CFCDCCCBCAC8C7C6C5C467
:103A9000C2C1C0BFBEBDBCBBBAB9B8B7B6B5B4B37E
:103AA000B2B1B0AFAEADACABAAA9A8A8A7A6A5A469
:103AB000A3A3A2A1A09F9F9E9D9C9C9B9A9999982D
:103AC0009797969595949393929191908F8F8E8ED0
:103AD0008D8C8C8B8B8A898988888787868585845D
:103AE00084838382828181800000FF070000F87F49
:103AF000B0FA80F310FA03F10AD0C3F11D0303F505
:103B000080634FEA41504FEA035202EBD1217047E4
:103B10004FF0000070470EF1020E2EF0030E5EF81B
:103B2000046B364205D4012A43EB030515F5001F4B
:103B300012D8012841EB010C1CF5001F0CD80ED146
:103B40004FEAD17C15F5001F0CEB4C0C0CF1020C6C
:103B500008BF4CEBD37C04E04FF0080C01E04FEAC7
:103B6000D37C0CEB4C0526FA05F606F00706B6F1F9
:103B7000040C06D20EEB860CBDE870404CF0010C34
:103B80006047DFE80CF0090B02024FF000414FF0F4
:103B90000000A1F5002170BD19461046012851EB27
:103BA000010418BFD4F5001484BF002001F00041C7
:103BB00070BD0808A0F500114FEA310170474FF0C1
:103BC0004070E1EE100A7047FCF766BD000000008F
:103BD00000000000000000000000000000000000E5
:103BE00000000000000000000000000000000000D5
:103BF0000000000000000000000000000000800144
:103C000080018001800180018001800180018001AC
:103C1000800180018001800100000000800180019E
:103C20000000000000000000000000000000000094
:103C3000CC00CC00CC00CC00CC00CC0000000000BC
:103C40000000000000000000000000000000000074
:103C50000000000000000000000000000000000064
:103C60000000000000000000600C600C600C3006DA
:103C70003006FE1FFE1F300638071803FE1FFE1F0A
:103C8000180318038C018C018C01000000008000D7
:103C9000E003F80F9C0E8C1C8C188C009800F80127
:103CA000E007800E801C8C188C189C18B80CF00F44
:103CB000E003800080000000000000000000000021
:103CC00000000E181B0C110C110611061103110334
:103CD0009B018E01C038C06C604460443044304465
:103CE0001844186C0C380000000000000000E001CF
:103CF000F0033807180618063003F001F000F8004A
:103D00009C310E33061E061C061C063FFC73F02178
:103D100000000000000000000000000000000000A3
:103D20000C000C000C000C000C000C00000000004B
:103D30000000000000000000000000000000000083
:103D40000000000000000000000000000000000271
:103D500000038001C000C00060006000300030003F
:103D60003000300030003000300030006000600073
:103D7000C000C0008001000300020000000020001D
:103D80006000C000800180010003000300060006FF
:103D900000060006000600060006000600030003F9
:103DA00080018001C00060002000000000000000D1
:103DB0000000000000000000C000C000D806F807A6
:103DC000E0013003380700000000000000000000A0
:103DD00000000000000000000000000000000000E3
:103DE00000000000000000008001800180018001CF
:103DF0008001FC3FFC3F8001800180018001800147
:103E000000000000000000000000000000000000B2
:103E100000000000000000000000000000000000A2
:103E20000000000000000000000000000000800111
:103E3000800100010001800000000000000000007F
:103E40000000000000000000000000000000000072
:103E500000000000E007E007000000000000000094
:103E60000000000000000000000000000000000052
:103E70000000000000000000000000000000000042
:103E80000000000000000000000000000000C00072
:103E9000C000000000000000000000000000000C56
:103EA000000C000600060006000300030003800368
:103EB000800180018001C000C000C000600060007F
:103EC0000000000000000000000000000000E0030F
:103ED000F007380E180C0C180C180C180C180C18CD
:103EE0000C180C180C180C18180C380EF007E003FE
:103EF00000000000000000000000000000000001C1
:103F00008001C001F00198018801800180018001D9
:103F10008001800180018001800180018001800199
:103F20000000000000000000000000000000E003AE
:103F3000F80F180C0C180C1800180018000C0006CC
:103F400000038001C000600030001800FC1FFC1F4F
:103F50000000000000000000000000000000E00180
:103F6000F807180E0C0C0C0C000C0006C003C00760
:103F7000000C001800180C180C18180CF807E003B7
:103F80000000000000000000000000000000000C25
:103F9000000E000F000F800DC00C600C600C300C88
:103FA000180C0C0CFC3FFC3F000C000C000C000C2F
:103FB0000000000000000000000000000000F80FFA
:103FC000F80F180018000C00EC03FC071C0E001C76
:103FD0000018001800180C181C0C180EF807E00345
:103FE0000000000000000000000000000000C0070A
:103FF000F00F381C181818000C00CC03EC0F3C0E06
:104000001C1C0C180C180C18181C380EF007E003B8
:104010000000000000000000000000000000FC1F85
:10402000FC1F000C00060006000380038001C00195
:10403000C000E00060006000700030003000300020
:104040000000000000000000000000000000E0038D
:10405000F007380E180C180C180C3806F007F0078B
:10406000180C0C180C180C180C18380CF80FE0036E
:104070000000000000000000000000000000E0035D
:10408000F007380E1C0C0C180C180C181C1C381ED1
:10409000F81BE0190018000C000C1C0EF807F001CA
:1040A0000000000000000000000000000000000010
:1040B00000000000000000008001800100000000FE
:1040C00000000000000000000000000080018001EE
:1040D00000000000000000000000000000000000E0
:1040E00000000000000000008001800100000000CE
:1040F00000000000000000000000000080018001BE
:10410000000100018000000000000000000000002D
:104110000000000000000000000000000010001C73
:10412000800FE003F8001800F800E003800F001C87
:10413000001000000000000000000000000000006F
:10414000000000000000000000000000F81F000058
:1041500000000000F81F0000000000000000000048
:10416000000000000000000000000000000000004F
:1041700000000000000000000000000008003800FF
:10418000F001C007001F0018001FC007F001380031
:104190000800000000000000000000000000E00334
:1041A000F80F180C0C180C180018000C000600036F
:1041B0008001C000C000C00000000000C000C000BE
:1041C00000000000000000000000000000000000EF
:1041D000E00718180420C229224A1144094409445E
:1041E000094409221113E20C024004201818E007C8
:1041F000000000000000000000000000000080033C
:104200008003C006C006C006600C600C3018301871
:104210003018F83FF83F1C700C600C6006C006C0F8
:104220000000000000000000000000000000FC038F
:10423000FC0F0C0C0C180C180C180C0CFC07FC0FC9
:104240000C180C300C300C300C300C18FC1FFC0718
:104250000000000000000000000000000000C00797
:10426000F01F38381C300C7006600600060006008F
:1042700006000600060006600C701C30F01FE00708
:104280000000000000000000000000000000FE032D
:10429000FE0F060E061806180630063006300630E9
:1042A00006300630063006180618060EFE0FFE030E
:1042B0000000000000000000000000000000FC3FC3
:1042C000FC3F0C000C000C000C000C00FC1FFC1F41
:1042D0000C000C000C000C000C000C00FC3FFC3F20
:1042E0000000000000000000000000000000F83F97
:1042F000F83F18001800180018001800F81FF81FE1
:1043000018001800180018001800180018001800ED
:104310000000000000000000000000000000E00FAE
:10432000F83F3C780E6006E007C00300030003FE80
:1043300003FE03C007C006C00EC03CF0F83FE00F0C
:1043400000000000000000000000000000000C3031
:104350000C300C300C300C300C300C30FC3FFC3F7F
:104360000C300C300C300C300C300C300C300C306D
:1043700000000000000000000000000000008001BC
:104380008001800180018001800180018001800125
:104390008001800180018001800180018001800115
:1043A0000000000000000000000000000000000607
:1043B00000060006000600060006000600060006CD
:1043C000000600060006180618063807F003E0018C
:1043D00000000000000000000000000000000630A7
:1043E0000618060C060606038601C600660076005F
:1043F000DE008E0106030606060C0618063006606F
:104400000000000000000000000000000000180094
:1044100018001800180018001800180018001800DC
:10442000180018001800180018001800F81FF81FCE
:1044300000000000000000000000000000000EE08E
:104440001EF01EF01EF036D836D836D836D866CCD8
:1044500066CC66CCC6C6C6C6C6C6C6C686C386C336
:1044600000000000000000000000000000000C3010
:104470001C303C303C306C306C30CC30CC308C312B
:104480000C330C330C360C360C3C0C3C0C380C301A
:104490000000000000000000000000000000E00735
:1044A000F81F1C380E70066003C003C003C003C0B1
:1044B00003C003C003C006600E701C38F81FE0077D
:1044C0000000000000000000000000000000FC0FE1
:1044D000FC1F0C380C300C300C300C300C18FC1F4E
:1044E000FC070C000C000C000C000C000C000C0075
:1044F0000000000000000000000000000000E007D5
:10450000F81F1C380E70066003E003C003C003C030
:1045100003C003C007E006630E3F1C3CF83FE0F712
:1045200000C0000000000000000000000000FE0FBE
:10453000FE1F06380630063006300638FE1FFE071E
:1045400006030606060C0618061806300630066036
:104550000000000000000000000000000000E00378
:10456000F80F1C0C0C180C180C001C00F803E00FC2
:10457000001E0038063006300E301C1CF80FE00715
:104580000000000000000000000000000000FE7FAE
:10459000FE7F800180018001800180018001800117
:1045A0008001800180018001800180018001800103
:1045B00000000000000000000000000000000C30BF
:1045C0000C300C300C300C300C300C300C300C300B
:1045D0000C300C300C300C300C301818F81FE00781
:1045E0000000000000000000000000000000036068
:1045F0000630063006300C180C180C18180C180C65
:10460000380E30063006700760036003C001C00139
:104610000000000000000000000000000000036037
:10462000C361C361C3616633663366336633663321
:1046300066336C1B6C1B6C1B2C1A3C1E380E380E20
:1046400000000000000000000000000000000FE07B
:104650000C7018303018700C600EC0078003800397
:10466000C003E006700C301C18180C300E6007E018
:10467000000000000000000000000000000003C077
:1046800006600C301C383818300C6006E007C00398
:104690008001800180018001800180018001800112
:1046A0000000000000000000000000000000FC7F8F
:1046B000FC7F006000300018000C00060003800141
:1046C000C0006000300018000C000600FE7FFE7F76
:1046D0000000000000000000000000000000E003F7
:1046E000E003600060006000600060006000600047
:1046F00060006000600060006000600060006000BA
:10470000600060006000E003E00300000000300093
:104710003000600060006000C000C000C000C00148
:1047200080018001800100030003000300060006F1
:104730000000000000000000000000000000E00396
:10474000E003000300030003000300030003000371
:104750000003000300030003000300030003000341
:10476000000300030003E003E0030000000000007A
:10477000C001C00160036003600330063006180CFE
:10478000180C000000000000000000000000000005
:104790000000000000000000000000000000000019
:1047A0000000000000000000000000000000000009
:1047B0000000000000000000000000000000FFFFFB
:1047C000FFFF0000000000000000000000000C00DF
:1047D0000C000C000C000C000C000000000000009D
:1047E00000000000000000000000000000000000C9
:1047F00000000000000000000000000000000000B9
:104800000000000000000000F003F8071C0C0C0C76
:10481000000FF00FF80C0C0C0C0C1C0FF80FF0181C
:104820000000000000000000000000000000180070
:104830001800180018001800D803F80F380C1818C2
:1048400018181818181818181818380CF80FD80352
:104850000000000000000000000000000000000058
:104860000000000000000000C003F007300E180C2C
:104870001800180018001800180C300EF007C003BC
:104880000000000000000000000000000000001810
:104890000018001800180018C01BF01F301C181852
:1048A00018181818181818181818301CF01FC01BE2
:1048B00000000000000000000000000000000000F8
:1048C0000000000000000000C003F00F300C1818BA
:1048D000F81FF81F180018003818301CF00FC00718
:1048E0000000000000000000000000000000800F39
:1048F000C00FC000C000C000F007F007C000C0003B
:10490000C000C000C000C000C000C000C000C000A7
:104910000000000000000000000000000000000097
:104920000000000000000000E00DF80F180E0C0C55
:104930000C0C0C0C0C0C0C0C0C0C180EF80FE00DE5
:10494000000C0C0C1C06F807F00100000000180019
:104950001800180018001800D807F80F381C18188D
:1049600018181818181818181818181818181818C7
:104970000000000000000000000000000000C00077
:10498000C000000000000000C000C000C000C00067
:10499000C000C000C000C000C000C000C000C00017
:1049A0000000000000000000000000000000C00047
:1049B000C000000000000000C000C000C000C00037
:1049C000C000C000C000C000C000C000C000C000E7
:1049D000C000C000C000F8007800000000000C001B
:1049E0000C000C000C000C000C0C0C060C038C01D1
:1049F000CC006C00FC009C018C030C030C060C0C1E
:104A00000000000000000000000000000000C000E6
:104A1000C000C000C000C000C000C000C000C00096
:104A2000C000C000C000C000C000C000C000C00086
:104A30000000000000000000000000000000000076
:104A400000000000000000007C3CFF7EC7E383C143
:104A500083C183C183C183C183C183C183C183C136
:104A60000000000000000000000000000000000046
:104A700000000000000000009807F80F381C18180C
:104A800018181818181818181818181818181818A6
:104A90000000000000000000000000000000000016
:104AA0000000000000000000C003F00F300C1818D8
:104AB00018181818181818181818300CF00FC00308
:104AC00000000000000000000000000000000000E6
:104AD0000000000000000000D803F80F380C181880
:104AE00018181818181818181818380CF80FD803B0
:104AF000180018001800180018000000000000003E
:104B00000000000000000000C01BF01F301C18183F
:104B100018181818181818181818301CF01FC01B6F
:104B2000001800180018001800180000000000000D
:104B30000000000000000000B007F003700030002B
:104B400030003000300030003000300030003000E5
:104B50000000000000000000000000000000000055
:104B60000000000000000000E003F003380E180C05
:104B70003800F003C007000C180C380EF007E003F3
:104B80000000000000000000000000000000000025
:104B90008000C000C000C000F007F007C000C000E7
:104BA000C000C000C000C000C000C000C007800737
:104BB00000000000000000000000000000000000F5
:104BC0000000000000000000181818181818181825
:104BD00018181818181818181818381CF01FE01989
:104BE00000000000000000000000000000000000C5
:104BF00000000000000000000C18180C180C180C25
:104C0000300630063006600360036003C001C00157
:104C10000000000000000000000000000000000094
:104C20000000000000000000C141C141C361636396
:104C3000636363633636363636361C1C1C1C1C1CFC
:104C40000000000000000000000000000000000064
:104C500000000000000000001C38381C300C60060A
:104C600060036003600360036006300C381C1C386E
:104C70000000000000000000000000000000000034
:104C800000000000000000001830301830187018C4
:104C9000600C600CE00CC006C0068003800380033B
:104CA00080018001C001F0007000000000000000E1
:104CB0000000000000000000FC1FFC1F000C0006AC
:104CC00000038001C000600030001800FC1FFC1FC2
:104CD00000000000000000000000000000000003D1
:104CE0008001C000C000C000C000C000C000600063
:104CF0006000300060004000C000C000C000C00084
:104D0000C000C0008001000300000000000080011E
:104D1000800180018001800180018001800180018B
:104D2000800180018001800180018001800180017B
:104D3000800180018001800180010000000060008E
:104D4000C000C0018001800180018001800100035A
:104D50000003000600030001800180018001800142
:104D600080018001C0006000000000000000000021
:104D7000000000000000000000000000F010F81F1C
:104D8000080F00000000000000000000000000000C
:104D90000000000000000000000000000000000013
:104DA0000000000001020304060708090240000099
:104DB000000000A00000000005400000000000C846
:104DC000000000000C4000000000409C00000000BB
:104DD000194000000020BCBE00000000344000006C
:104DE000BFC91B8E00000004B5400000504BCFD05F
:104DF0006607E2CF010000006C4100003E8251AA2C
:104E0000DFEEA73401000000D9420000DCB5A0E2CB
:104E10003A301F97FFFFFFFFB4450000FD25A0C8F3
:104E2000E9A3C14FFFFFFFFFFF3F0000000000802C
:104E300000000000FF3F00000000008000000000B4
:104E40007C4E00080000002034000000140200081E
:104E5000B04E000834000020840700003002000833
:104E60001C00000043000000F8FFFFFF0C000000E2
:104E70000E0000000F0000002E0000000000FFFFE9
:104E80000000000001000000000000000000000021
:104E90000000000000000000000000000000000012
:104EA0001000000001000000000000000024F400D9
:04000005080001D915
:00000001FF
