:020000040800F2
:10000000B8060020F1010008E73700083D2E00087F
:10001000E5370008F9090008514300080000000016
:10002000000000000000000000000000FF3A00088F
:10003000B70A000800000000E9370008013B00088B
:100040000B0200080B0200080B0200080B0200085C
:100050000B0200080B0200080B0200080B0200084C
:100060000B0200080B0200080B020008FD09000843
:10007000090A00080B0200080B0200080B02000826
:100080000B020008000000000B0200080B02000831
:100090000B0200080B0200080B0200080B0200080C
:1000A0000B0200080B0200080B0200080B020008FC
:1000B0000B0200080B0200080B0200080B020008EC
:1000C0000B0200080B0200080B0200080B020008DC
:1000D0000B020008454300080B0200080B02000851
:1000E0000B0200080B0200080B0200080B020008BC
:1000F0000B0200080B0200080B02000800000000C1
:10010000000000000B020008000000000B020008C5
:100110000B020008000000007D3B0008893B00083E
:100120000B0200080B0200080B0200080B0200087B
:100130000B02000800000000000000000B02000895
:100140000B0200080B020008000000000000000085
:10015000000000000000000000000000000000009F
:100160000000000000000000000000000B0200087A
:100170000B0200080000000000000000000000006A
:10018000000000000B02000800000000000000005A
:10019000000000000000000000000000000000005F
:1001A00000000000000000000B0200080B02000825
:1001B0000B0200080B0200080B0200080000000000
:1001C000000000000B02000800000000000000001A
:1001D0000B0200080B020008DFF810D000F014FB3F
:1001E00000480047894C0008AFF30080B8060020A3
:1001F0000648804706480047FEE7FEE7FEE7FEE7C1
:10020000FEE7FEE7FEE7FEE7FEE7FEE76D3B0008E0
:10021000D90100082DE9F05F0546002092469B4673
:1002200088460646814640241BE02846414647460C
:10023000224600F0FFF853465A46C01A914110D3A7
:1002400011461846224600F0E6F82D1A67EB010821
:100250004F4622460120002100F0DDF817EB00098F
:100260004E41201EA4F10104DFDC484631462A46F7
:100270004346BDE8F09FD2B201E000F8012B491ED1
:10028000FBD270470022F6E710B513460A46044633
:100290001946FFF7F0FF204610BD421C10F8011B65
:1002A0000029FBD1801A70472DE9FE4F81EA030433
:1002B00004F0004421F0004100944FF0000B23F0C3
:1002C000004350EA01045ED052EA03045BD0C3F35A
:1002D0000A54C1F30A552C44A4F2F3340194A0FB50
:1002E0000254C1F3130141F48011C3F3130343F427
:1002F000801301FB024400FB034E840A970A44EA80
:10030000815447EA8357A4FB076802958D0A05FBD1
:1003100007854FEA932C04FB0C542705029D4FEAF6
:10032000065847EA1637B5EB08056EEB070C870E43
:10033000920E47EA811742EA8312A7FB0201B6EB4D
:100340000B0164EB00042B0D43EA0C335E1844EB05
:100350001C50DA465146E7FB0201C5F313044FEA8D
:100360000B3343EA14534FEA0432019C43EA060379
:10037000A4F10C040294009CCDE900B400F0B0F8A4
:1003800003B0BDE8F08F00200146F9E700F000421D
:1003900030F000400AD0C10D01F56071C0F31600C5
:1003A00042EA0151C208400711437047002001464C
:1003B000704701F0004330B421F0004150EA0102DF
:1003C00006D00A0DA2F56072C1F31301002A02DC07
:1003D00030BC00207047440F44EAC104C100E0185B
:1003E00030BC00EBC25000F035B830B50B460146CA
:1003F00000202022012409E021FA02F59D4205D3C4
:1004000003FA02F5491B04FA02F52844151EA2F16D
:100410000102F1DC30BD202A04DB203A00FA02F1AF
:10042000002070479140C2F1200320FA03F31943E2
:1004300090407047202A04DB203A21FA02F0002184
:10044000704721FA02F3D040C2F1200291400843E4
:10045000194670470029A8BF7047401C490008BFD3
:1004600020F00100704710B4B0FA80FC00FA0CF0E4
:1004700050EA010404BF10BC704749B1CCF120041C
:1004800021FA04F411FA0CF118BF012121430843A9
:10049000A3EB0C01CB1D4FEA00614FEA102042BFD5
:1004A000002010BC704700EBC35010440029A4BFCB
:1004B00010BC7047401C490008BF20F0010010BC70
:1004C000704710B5141E73F1000408DA401C41F1A6
:1004D000000192185B411A4301D120F0010010BDC8
:1004E0002DE9F04D92469B4611B1B1FA81F202E03E
:1004F000B0FA80F220329046FFF78DFF04460F4697
:1005000040EA0A0041EA0B0153465A46084313D019
:10051000114653EA010019D0C8F140025046FFF7D6
:1005200089FF05460E46504659464246FFF773FF7F
:10053000084305D0012004E020463946BDE8F08D8F
:100540000020054346EAE0762C4337430A986305CA
:10055000E40AA0EB08000022FD0A44EA47540A30EE
:1005600002D500200146E9E7010510196941DDE9DE
:10057000084500196941BDE8F04DA2E72DE9FE4F9D
:10058000804681EA0300C00F0C46009021F0004134
:1005900023F00045B8EB0200A94105D240462146B0
:1005A00090461C460B46024623F00040104347D0BD
:1005B000270DC7F30A00C3F30A510290401A0190B5
:1005C00040286BDAC3F3130040F4801B0098924676
:1005D00020B10023D2EB030A63EB0B0B01985946C1
:1005E000C0F140025046FFF716FF06460D46504642
:1005F0005946019A00F01AF910EB080061410024F5
:1006000087EA115284EAE7731A4340D0009A62B332
:10061000019A012A4FEA075215DC001B61EB020127
:100620004FF0004202EA0752CDE90042001C41F5BA
:10063000801132462B46FFF753FF03B0BDE8F08F21
:1006400040462146F9E7001B61EB0201001C41F521
:10065000801300185B412018A2F5001747EB030137
:1006600040EAD570B6196D4111E06D084FEA3606C3
:1006700045EAC0754FEA0752001B61EB0201001CFE
:1006800041F5801149084FEA3000001951413246C6
:100690002B4603B0BDE8F04FFFF713BF00980122CF
:1006A00040000023D0EB020263EBE0730098214688
:1006B0004FEAE074B8EB000061EB0401E9E783F076
:1006C00000435BE781F0004158E72DE9F04D81EAF6
:1006D000030404F0004B21F0004514464FF0000ADB
:1006E00023F0004150EA050220D054EA01021DD057
:1006F000C5F30A570246C5F31303C1F31300C1F350
:100700000A5640F4801543F48013A7EB0608101B2B
:10071000D64608F2FD3873EB050002D308F1010854
:1007200001E092185B41B8F1000F03DA00200146A6
:10073000BDE8F08D00204FF48011064684460EE09F
:10074000171B73EB050705D3121B63EB0503064369
:100750004CEA010C49084FEA300092185B4150EA1C
:100760000107EDD152EA030012D082EA040083EAC5
:100770000501084305D0101BAB4106D2012200231E
:1007800006E000224FF0004302E06FF00102531038
:100790001AEB06004CEB085110EB0A0041EB0B0181
:1007A000BDE8F04DFFF78DBEC1F30A52C1F313014E
:1007B00040F2FF3341F480119A4202DA00200146F0
:1007C000704740F233439A42A2F2334202DC524273
:1007D000FFF730BEFFF71FBE30B5041E71F10004F5
:1007E00004DB4FF00044404264EB0101141E73F13E
:1007F000000405DB1C464FF00043524263EB040348
:10080000994208BF904230BD064C074D06E0E068B3
:1008100040F0010394E8070098471034AC42F6D347
:10082000FFF7DEFCB45F0008D45F0008202A06DB77
:10083000CB17203A41FA02F043EAE07306E041FAAE
:1008400002F3D040C2F1200291400843194670479C
:1008500070B50446006881688268C1F3400112F0F7
:10086000010F28D039BB816801F00D01012914D195
:100870008168124A1140891C816021680320086048
:1008800000F0EEFF054612E000F0EAFF401B0228F0
:100890000DD920688068C00709D0E06D40F01000D5
:1008A000E065206E40F001002066012070BD2068E8
:1008B0008068C007E8D1002070BD0000C0FFFF7F46
:1008C000F8B50446002000902068816811F0010FFF
:1008D00041D18168214A11422ED18168D5432940F6
:1008E000491C81601E48806800F0E07000020DD550
:1008F0001C481D490068B0FBF1F0401C00EB4000B3
:10090000800000E0401E00900028FBD100F0A8FF0E
:1009100006461BE0816811F0010F03D18168294070
:10092000491C816000F09CFF801B02280ED92068C2
:100930000068C043C00709D0E06D40F01000E065DA
:10094000206E40F0010020660120F8BD206801689B
:10095000C943C907DED10020F8BD00003F00008078
:100960000003005030000020400D030010B519486E
:1009700000F048FC174800F00BFB00EE100A164C84
:10098000B8EE400A84ED040A10EE100AFFF7FEFCF0
:100990009FED121B53EC112BFFF786FC9FED111BF3
:1009A00053EC112BFFF780FCFFF703FD00EE100A5C
:1009B000DFED0E0A10EE100A0D4960EE200A84EDFC
:1009C000050A8842C4ED060A03DD9FED0A0A84ED9C
:1009D000060A10BD600000200800002066666666FA
:1009E00066660A40000000000000303F0000C84278
:1009F0000000404000009643FEE70000014800F080
:100A0000ECBC0000F8010020014800F0E6BC00004A
:100A1000580200200D4902688A4201D20C4901E0C7
:100A20000B492031D2B21423083AB2FBF3F2436CE3
:100A300002F01F0223F0030319448164044980314A
:100A4000C164012191400165704700000804024023
:100A5000000802400179074A02EB81024265054A1B
:100A60004432491E826501F01F0201219140C16597
:100A700070470000FC08024030B5D0E913456560BE
:100A8000446D14B1D0E91645656090F8444004F017
:100A90001F050124AC40056C6C60046863608368CA
:100AA000102B036803D099600068C26030BD9A6063
:100AB0000068C16030BD7047002240F6B83306E0E0
:100AC0000021491C89B29942FBD3521C92B2824246
:100AD000F6D3704772B6FEE7F8B5002604460096D6
:100AE00090F858000D4601280BD0012084F85800DA
:100AF0002046FFF7ADFE0100E06D04D040F010008D
:100B00002AE00220F8BD20F4885040F00200E065A1
:100B100020688268134B1A4005F080431A4342F064
:100B200000428260104A20680EE0009B5B1C00932C
:100B3000934209D3E06D20F0020040F01000E06520
:100B400084F858600120F8BD8368DB0FEDD1E06DBB
:100B500020F0020040F00100E06584F8586008468B
:100B6000F8BD0000C0FFFF3F02DE04002DE9F84F92
:100B700000270446009790F85800DFF8E0930D46F0
:100B8000B846012811D0012684F85860206802F088
:100B90009FFC60B1E06D40F02000E0655FF0010770
:100BA00084F858803846BDE8F88F0220FBE7D5E985
:100BB00000210C23206803EA91131844036B01F011
:100BC0001F014FF01F0C0CFA01FCC2F3846223EAF0
:100BD0000C038A4013430363206802F079FC8246C9
:100BE000206802F071FC5AEA00003CD1AA6829682A
:100BF0002068B2F1004F37D002F06EFC20684169E6
:100C000021F00041416120686969C268C2F3C102F4
:100C1000520091402A69042A31D000EB82002B68EF
:100C2000026EDFF83CC303F0F84302EA0C020B4308
:100C30001A4342F00041016620682A69A96900EB65
:100C40008200026E22F080720A430266297F2268C7
:100C50002869012910D0002102EB8000026E22F0E9
:100C600000720A4302667DE0002202F035FC206833
:100C7000416941F00041C5E74FF00071ECE7002108
:100C800002F01CFC400320684FF0000172D002F01B
:100C900015FC90FAA0F0B0FA80F1286842036ED0FB
:100CA00090FAA0F0B0FA80F0814204D100221146FF
:100CB000206802F020FC0121206802F0FFFB4003C5
:100CC00020684FF001015DD002F0F8FB90FAA0F02F
:100CD000B0FA80F12868420359D090FAA0F0B0FA37
:100CE00080F0814204D100220121206802F003FC3F
:100CF0000221206802F0E2FB400320684FF002016D
:100D000048D002F0DBFB90FAA0F0B0FA80F128683E
:100D1000420344D090FAA0F0B0FA80F0814204D1AE
:100D200000220221206802F0E6FB0321206802F085
:100D3000C5FB400320684FF0030133D002F0BEFB37
:100D400090FAA0F0B0FA80F1286842032FD090FA10
:100D5000A0F0B0FA80F0814204D100220321206883
:100D600002F0C9FB2068816811F0010F22D0ACE0CD
:100D700000E004E002F0A2FBC0F384618DE7C0F361
:100D8000846091E702F09AFBC0F38461A2E7C0F3AC
:100D90008460A6E702F092FBC0F38461B7E7C0F37A
:100DA0008460BBE702F08AFBC0F38461CCE7C0F348
:100DB0008460D0E72A7B296850F8B03FC1F3120C59
:100DC00023EA0C0302F0180C664A22FA0CF20A40DD
:100DD00013430360E968494577D1286841031CD073
:100DE00090FAA0F1B1FA81F1491C01F01F01092923
:100DF0004FEA403132D8002912D000BF90FAA0F15A
:100E0000B1FA81F101F1010101F01F0106FA01F6C9
:100E100009D100BFC0F3846109E0C0F38461E3E756
:100E2000C0F38461EEE790FAA0F1B1FA81F101F12B
:100E3000010101F01F0146EA816102D1C0F3846023
:100E400003E090FAA0F0B0FA80F000F1010000F0A9
:100E50001F0000EB400041EA005132E000290ED0B3
:100E600090FAA0F1B1FA81F101F1010101F01F0145
:100E700006FA01F606D100BFC0F3846106E0C0F3B4
:100E80008461F1E790FAA0F1B1FA81F101F1010179
:100E900001F01F0146EA816102D1C0F3846003E0E2
:100EA00090FAA0F0B0FA80F000F1010000F01F000D
:100EB0002D4A00EB400002EB005041EA000141F0F6
:100EC0000071AA68206802F007FB28482A680242DD
:100ED0003FF466AE26488168264B01F0E0719A42E5
:100EE00002D0254B9A421CD10B021AD42268B2F1CF
:100EF000A04F7FF455AE826841F4000122F0E07209
:100F00000A4382601D481E490068B0FBF1F0401C96
:100F100000EB4000800000E0401E00900028FBD164
:100F20003EE6184D184BAA4207D1CD0105D42268E0
:100F30009A42F5D041F0807109E0144DAA42EFD1F8
:100F40004A02EDD422689A42EAD041F480018268D4
:100F500022F0E0720A43826022E6000000007F4037
:100F600000F0FF03FFFF0700000020FE00000880E4
:100F700000030050000021C31000C090300000208A
:100F8000400D0300000052C700010050000084CB58
:100F90000068006C70470000F8B54FF000050400D1
:100FA0002E46009502D0E06D10B107E00120F8BD9B
:100FB000204600F0EBF8266684F8586020688168C7
:100FC000C1F3407119B18168684A1140816020689D
:100FD0008168C1F3007189B98168654A114041F0A7
:100FE00080518160634864490068B0FBF1F04000C3
:100FF000801C00E0401E00900028FBD12068816822
:10100000C1F3007141B9E16D41F01001E165216E5C
:1010100041F001012166012502F05AFAE16DC9068D
:1010200000D430B1E06D40F01000E06501252846A5
:10103000F8BDE06D20F4807040F00200E0652068AB
:10104000806810F0010F11D14FF0A04080684B492B
:1010500000F00100896801F00101084306D1484809
:101060006168826822F47C120A438260E168E06B66
:10107000627F0843A16841EA4231084394F8241092
:1010800040EA0140012904D1218D3E4A02EB414151
:101090000843E16A29B101F47871226B014342EA05
:1010A00001002268D168384B19400143D1602068A3
:1010B0000169626B21F0406111430161206802F017
:1010C00003FA70BB207F94F83810800340EA410295
:1010D0002168C86844F2020398431043C86020693D
:1010E0000028206801690AD041F48031016120683C
:1010F00050F8C01F22696FF30D01114307E021F47E
:1011000080310161206850F8C01F6FF30D0101604C
:1011100094F8400001280CD02068016921F00101F9
:101120000161606901282068016B21F00F0111D075
:1011300013E0D4E911010843D4E913121143084321
:1011400021680A6940F2FC739A43104340F00100A1
:101150000861E6E7226A521E11430163E06D20F048
:10116000020040F00100E06561E70000C0FFFF5FA2
:10117000C0FFFF7F30000020400D03000001005041
:10118000000300500000FEFF0740F0FF10B598B0CC
:101190000446142111A8FFF775F844216846FFF7AB
:1011A00071F815492068884223D1C4014005009494
:1011B0000F90684600F052FC08B1FFF78BFC0F4817
:1011C000C16C41F40051C164C16C01F4005116912D
:1011D000C16C41F00201C164C06C11A900F00200B1
:1011E00016900320CDE9114000201390044800F030
:1011F00009FA18B010BD00000001005000100240B4
:10120000000400482DE9F04104463848806800F0A9
:101210001F05206802F05CF918B102210846BDE8FC
:10122000F08194F8580001280CD0012084F858006F
:101230002046FFF745FB01004FF0000304D084F87F
:101240005830EBE70220EAE7E06D40F60162904398
:1012500040F48070E065264A20684FF0A046904236
:1012600001D1374600E00746874200D01DB9E76D3F
:1012700027F48017E765E76DFF0404D5276E27F094
:101280000607276600E023661C27076084F85830AD
:101290002068904201D1334600E00346834215D0D6
:1012A000A5B1052D12D0092D10D0E36D43F48013A4
:1012B000E365904200D13046C0688001AED5E06D54
:1012C00020F4005040F48050E065A7E7C268920126
:1012D00005D5E26D22F4005242F48052E265826844
:1012E000044B1A40121D826098E700000003005072
:1012F00000010050C0FFFF7F10B590F8253000219D
:101300000122022B03D00421C163012122E00368E2
:101310001C6824F00E041C60836C1C6824F4807428
:101320001C6003681C6824F001041C6090F84430C1
:10133000046C03F01F0302FA03F36360D0E9133473
:101340005C60436D33B11C6824F480741C60D0E988
:1013500016345C6080F82520002280F8242008469E
:1013600010BD70B590F82520002401212346022AE3
:1013700007D00422C26380F8251080F824300124AD
:1013800029E00268156825F00E05156002681568E9
:1013900025F001051560826C156825F480751560CF
:1013A00090F84420056C02F01F0201FA02F26A6014
:1013B000D0E913255560426D32B1156825F480756A
:1013C0001560D0E91625556080F8251080F8243086
:1013D000816B01B18847204670BDF0B4016C0C6888
:1013E00001680D6890F8442002F01F06042202FAFA
:1013F00006F3234211D06B070FD50B689B0603D46D
:101400000B6823F004030B6090F8441001F01F01F7
:101410008A40016C4A60016B1DE0022303FA06F763
:1014200027424FF0000C4FF0010218D0AF0716D53D
:101430000C68A40605D40C6824F00A040C6080F83B
:10144000252090F8441001F01F018B40016C4B6087
:1014500080F824C0C16A00291AD0F0BC08470823CC
:10146000B340234214D02B0712D50B6823F00E0390
:101470000B6090F84410036C01F01F0102FA01F1B7
:101480005960C26380F8252080F824C0416BE2E7F0
:10149000F0BC704770B504000CD02B4A21681420B2
:1014A000914209D2294A0A44B2FBF0F080006064FC
:1014B00027480AE0012070BD234A52420A44B2FB89
:1014C000F0F080006064204808382064022084F82E
:1014D00025000A6847F6F0708243D4E902031843F6
:1014E000D4E904352B431843A3691843E36918432F
:1014F000236A1843104308602046FFF78BFAA06860
:101500000025B0F5804F00D16560A16C207908609E
:10151000D4E9130141606068401E032808D82046C2
:10152000FFF798FA606D0560D4E91601416002E0AA
:101530006565A565E565E563012084F8250084F807
:101540002450002070BD000008040240F8FFFDBFD9
:101550000000024070B5044690F8240000250128E0
:101560000CD0012084F8240094F825600020012E7E
:1015700006D084F824000225284670BD022070BDE4
:10158000022684F82560E0632068066826F00106DC
:1015900006602046FFF770FA206B0028206801687B
:1015A00002D041F00E0106E021F004010160206844
:1015B000016841F00A010160A06C0168C90303D50C
:1015C000016841F480710160606D18B1016841F4F7
:1015D000807101602068016841F001010160CBE782
:1015E00070B5044600F03CF90546601C02D0044882
:1015F0004068044400F034F9401BA042FAD370BDA7
:10160000240000202DE9F04FDFF82092002301266E
:101610000324A9F1040B85B00F2709F1040AABF1EB
:10162000040EFAE006FA03F52A407CD091F804C0D3
:101630000CF0030CBCF1010F02D0BCF1020F26D15B
:10164000D0F808C0CDF800C04FEA430C04FA0CF8FB
:10165000CDF810C0DDF800C02CEA080CCDF800C0B1
:10166000D1F80C80DDF810C008FA0CF8DDF800C0E5
:1016700048EA0C08C0F80880D0F804C02CEA050C31
:101680000D79C5F300159D4045EA0C0545600D79BF
:10169000ED43AD070ED0C5684FEA430804FA08FCD5
:1016A00025EA0C05D1F808C00CFA08FC4CEA050C38
:1016B000C0F80CC00D7905F00305022D16D1DD0828
:1016C00000EB850CCDF808C0DCF820805D074FEA00
:1016D000D56C07FA0CF528EA05080D6905FA0CF532
:1016E000DDF808C045EA0805CCF8205005684FEA47
:1016F000430CCDF808C004FA0CFC25EA0C0591F85F
:1017000004C00CF00308DDF808C008FA0CF848EA39
:101710000508C0F800804D6815F4403F7CD0444D6A
:10172000D5F860C000E077E04CF0010CC5F860C06F
:101730002D6E23F0030C05F0010500953D4D654429
:101740000295AD684FEA837C4FEA1C7807FA08FCE3
:1017500025EA0C05B0F1904F06D0DFF8DCC06045FB
:1017600005D14FF0010C20E04FF0000C1DE0DFF838
:10177000CCC0604502D14FF0020C16E0DFF8C0C0CB
:10178000604502D14FF0030C0FE0DFF8B8C06045B0
:1017900002D14FF0040C08E0DFF8ACC0604502D184
:1017A0004FF0050C01E04FF0060C0CFA08FC4CEA77
:1017B000050C029DC5F808C0D9F80050CC46D1F8F8
:1017C000048095435FEAC82800D51543CCF8005043
:1017D000DAF80050D446D1F8048095435FEA8828AF
:1017E00000D51543CCF80050DBF80050DC46D1F8AA
:1017F000048095435FEA883800D51543CCF8005043
:10180000DEF80050F446D1F8048095435FEAC8380A
:1018100000D51543CCF800505B1C0A6832FA03F57A
:101820007FF400AF05B0BDE8F08F00000804014070
:101830000010024000000140000400480008004879
:10184000000C0048001000480014004800690840DF
:1018500000D0012070470AB18161704781627047F2
:101860000148806870470000240000200248816819
:1018700042681144816070472400002010B50024A4
:10188000032000F073F80F2000F008F808B10124DD
:1018900001E000F025F8204610BD000070B50E4EA6
:1018A00005460024706898B14FF47A71B1FBF0F0EE
:1018B0000A490968B1FBF0F000F060FD40B9102D55
:1018C00006D200222946501E00F030F8356000E0B4
:1018D0000124204670BD00002400002030000020BC
:1018E0000A4882B0016E41F001010166016E01F00B
:1018F00001010091816D41F080518165806D00F0A2
:101900008050009002B000F0A1B80000001002402A
:10191000002809DB00F01F020121914040098000EE
:1019200000F1E020C0F8001170470000F0B40E4B49
:101930001B680C46C3F30223C3F10705042D00D92D
:101940000425191D072901D2002300E0DB1E012612
:1019500006FA05F1491E214099409E40761E164028
:101960003143F0BC02F01ABD0CED00E0064900F076
:10197000070208684FF6FF03184040EA0220034AB6
:1019800010430860704700000CED00E00000FA050D
:101990002B492C4B0A6832214A432B4940B1B0F500
:1019A000007F086829D020F4C06040F480602CE0FB
:1019B0000868C0F34120022804D051F8800F20F4B9
:1019C000807022E0D1F8800020F48070C1F880009F
:1019D000086820F4C06040F400700860B2FBF3F0C7
:1019E000401C00E0401E4A69520501D50028F9D18B
:1019F000486940050AD503207047C0F341200228FA
:101A000006D051F8800F40F48070086000207047C5
:101A1000D1F8800040F48070C1F88000086820F49C
:101A2000C06040F400700860B2FBF3F0401C00E0BE
:101A3000401E4A695205DBD50028F9D1D8E70000DD
:101A40003000002040420F000070004002488168D2
:101A500041F4804181607047007000402DE9F843F7
:101A60000446006800269D4D00035ED5A86D002742
:101A7000C00008D4A86D40F08050A865A86D01276B
:101A800000F080500090DFF85892D9F8001041F42F
:101A90008071C9F80010FFF7E3FE804606E000BF42
:101AA000FFF7DEFEA0EB080002282BD8D9F80000D3
:101AB000C005F5D5D5F8900010F4407014D0216C15
:101AC000814211D0D5F89000D5F8901020F44070E4
:101AD00041F48031C5F89010D5F8901021F4803190
:101AE000C5F89010C5F89000C00711D0FFF7B8FEF8
:101AF000804641F2883907E0FFF7B2FEA0EB08010B
:101B0000494501D903260BE0D5F890008007F3D5AD
:101B1000D5F89000216C20F440700843C5F890007F
:101B20001FB1A86D20F08050A8652078C00707D0AD
:101B3000D5F88800616820F003000843C5F88800E4
:101B40002078800707D5D5F88800A16820F00C0020
:101B50000843C5F888002078400707D5D5F88800E5
:101B6000E16820F030000843C5F8880020780007BD
:101B700007D5D5F88800216920F0C0000843C5F8D2
:101B800088002078800607D5D5F88800616920F4A0
:101B900040600843C5F888002078400607D5D5F88E
:101BA0008800A16920F440500843C5F888002078D7
:101BB000000607D5D5F88800E16920F440400843C5
:101BC000C5F888002088C00507D5D5F88800216AA7
:101BD00020F440300843C5F888002088800507D5E8
:101BE000D5F88800616A20F440200843C5F88800D1
:101BF000208840050FD5D5F88800A16A20F4401050
:101C00000843C5F88800A06AB0F5801F03D1E868D2
:101C100040F48010E860208800050FD5D5F88800D2
:101C2000E16A20F440000843C5F88800E06AB0F596
:101C3000800F03D1E86840F48010E8602088C00479
:101C40000FD5D5F88800216B20F040700843C5F807
:101C50008800206BB0F1807F03D1E86840F48010E9
:101C6000E86020884FF0006180040ED5D5F8880028
:101C7000626B20F040601043C5F88800606B8842BA
:101C800003D1E86840F48010E860208840040ED555
:101C9000D5F88800A26B20F040601043C5F888009A
:101CA000A06B884203D1E86840F48010E860208887
:101CB00000040FD5D5F88800E16B20F040500843B0
:101CC000C5F88800E06BB0F1805F03D1E86840F4AC
:101CD0008030E8603046BDE8F88300000010024024
:101CE000007000402DE9F0470E4605004FF0000758
:101CF00025D0DFF8AC81D8F8000000F00F00B0422A
:101D00000CD2D8F8001021F00F013143C8F80010B0
:101D1000D8F8000000F00F00B04210D12968614CE3
:101D2000C80741F2883A5AD06868DFF87C910328E6
:101D300008D0022820682DD0400500282CDB012087
:101D4000BDE8F08720688001F9D5E06800F0030263
:101D5000E068C0F30310401C032A19D0534A00BFA7
:101D6000B2FBF0F0E268C2F306225043E268C2F32D
:101D70004162521C5200B0FBF2F0484517D9A068EE
:101D800010F0F00F0CD0880711D5A86840B10EE014
:101D9000474AE5E78003D0E700F0B6F8484506D9A2
:101DA000A06820F0F00040F08000A0608027A068CC
:101DB000696820F003000843A060FFF751FD8146E9
:101DC00006E000BFFFF74CFDA0EB090151453AD8F2
:101DD000A068696800F00C00B0EB810FF2D12868B0
:101DE000810714D5400703D5A06840F4E060A060E7
:101DF0002878000705D5A06820F4605040F4E06022
:101E0000A060A068A96820F0F000084304E0802FDB
:101E100003D1A06820F0F000A060D8F80010404680
:101E200001F00F01B14216D9016821F00F013143D1
:101E30000160FFF715FD074607E000BFFFF710FD43
:101E4000C11B514501D903207AE7D8F8000000F002
:101E50000F00B042F2D12878400705D5A068E968A4
:101E600020F4E0600843A0602878000706D5A06849
:101E7000296920F4605040EAC100A06000F044F8F5
:101E8000A1680C4AC1F30311515C01F01F01C84065
:101E90000949086009480068BDE8F047FFF7FEBC43
:101EA000002002400010024000B4C4040024F400EA
:101EB00000366E019C5F00083000002024000020E6
:101EC0000548064900688968054AC1F30221515C4A
:101ED00001F01F01C8407047300000200010024090
:101EE000AC5F00080548064900688968054AC1F3E7
:101EF000C221515C01F01F01C84070473000002032
:101F000000100240AC5F0008184910B58868C0F3A3
:101F100081021748012A0BD08A68164BC2F381024E
:101F2000022A06D08A68C2F38102032A03D0002065
:101F300010BD184610BDCA6802F00304CA68C2F397
:101F40000312521C032C02D0B0FBF2F001E0B3FBF1
:101F5000F2F0CA68C968C2F306225043C1F3416176
:101F6000491C4900B0FBF1F010BD00000010024018
:101F70000024F40000366E012DE9F84304007AD005
:101F80002078F84DC00747D0A868E96800F00C0039
:101F900001F003010C2802D0082817D001E0032922
:101FA00014D06068B0F5803F17D0B0F5A02F286836
:101FB00017D020F480302860286820F48020286022
:101FC0006068E0B1FFF74CFC064614E02868800327
:101FD00022D560680028D2D01EE0286840F4803006
:101FE000EDE740F480202860F7E700BFFFF738FCFA
:101FF000801B642870D828688003F7D50CE0FFF7B1
:102000002FFC064605E000BFFFF72AFC801B642872
:10201000F0D828688003F7D4207880074CD5A868CA
:10202000E96800F00C0001F003010C2802D004283C
:102030000DD001E002290AD0E068002828682BD0E2
:1020400040F480702860FFF70BFC064619E0286812
:10205000400502D5E068002891D06868217C20F016
:10206000FE4040EA01606860BF480068FFF716FC68
:10207000002800D120E072E1FFF7F2FB801B02286C
:10208000B8D828684005F7D56868217C20F0FE4064
:1020900040EA016068600FE020F480702860FFF77C
:1020A000DFFB064605E000BFFFF7DAFB801B0228D6
:1020B000A0D828684005F7D42078000729D56069A2
:1020C0000028D5F8940013D040F00100C5F8940022
:1020D000FFF7C6FB064606E090E000BFFFF7C0FB37
:1020E000801B022886D8D5F894008007F6D510E02A
:1020F00020F00100C5F89400FFF7B2FB064604E0AB
:10210000FFF7AEFB801B022878D8D5F89400800733
:10211000F6D42078400761D5A86D0026C00008D409
:10212000A86D40F08050A865A86D012600F0805091
:1021300000908E480168C90511D40168804641F4B9
:1021400080710160FFF78CFB074604E0FFF788FB16
:10215000C01B022852D8D8F80000C005F6D5A068E8
:10216000012815D00528D5F8900016D020F00100E0
:10217000C5F89000D5F8900020F00400C5F8900054
:10218000A06841F28838B8B1FFF76AFB07460EE055
:10219000D5F8900040F00100F0E740F00400C5F8E9
:1021A0009000F5E7FFF75CFBC11B414526D8D5F849
:1021B00090008007F6D50CE0FFF752FB074604E0DD
:1021C000FFF74EFBC11B414518D8D5F8900080079A
:1021D000F6D41EB1A86D20F08050A8652078800646
:1021E00029D5A0690028D5F8980013D040F0010047
:1021F000C5F89800FFF734FB064606E075E000BF1F
:10220000FFF72EFB801B02286FD8D5F898008007B7
:10221000F6D510E020F00100C5F89800FFF720FB8C
:10222000064604E0FFF71CFB801B02285DD8D5F8AA
:1022300098008007F6D4E069F0B3A968C1F3810182
:1022400003295DD00228286820F08070286003D020
:10225000FFF706FB04464BE0FFF702FB064604E0EF
:10226000FFF7FEFA801B02283FD828688001F7D4C8
:10227000F4E908016FF00F0202EB01110843218A13
:102280005204490802EB4151A26841EA0221084385
:10229000217D4FF07E42490802EB41610843217BDA
:1022A00040EAC160E968324A11400843E8602868A2
:1022B00040F08070286000E05EE0E86840F08070E8
:1022C000E860FFF7CDFA044605E000BFFFF7C8FA63
:1022D000001B022809D828688001F7D54CE000BF10
:1022E000FFF7BEFA001B022802D90320BDE8F883DD
:1022F00028688001F4D4E8681E490840E8603BE0A3
:102300000128F3D0E868226A00F00301914226D147
:10231000616A00F0F0020901103991421FD1A26AEE
:1023200000F4FE41B1EB022F19D194F82C2000F0FB
:102330007841B1EBC26F12D1218E00F4C00249087E
:102340004905A1F50011914209D194F8341000F02B
:10235000C06049084906A1F1007181420CD00120FA
:10236000C4E700000010024024000020007000407C
:102370000C809F01FCFFEEFE0020B7E710B5401E69
:10238000B0F1807F01D3012010BD4FF0E0246061E7
:102390000F21601702F002F80020A06107202061E1
:1023A000002010BD704770477047704770477047F6
:1023B000F0B590F83C20012A3AD0012580F83C5035
:1023C000022280F83D2003685A689C68194E1A4F13
:1023D000B34201D0BB4204D122F4700C4A6842EAF5
:1023E0000C02DFF858C002EA0C02D1F800C04CEA37
:1023F000020CC3F804C00268B2420DD0B2F1804FA3
:102400000AD00F4B9A4207D00E4B9A4204D0BA42E0
:1024100002D00D4B9A4204D1896824F080031943FD
:10242000916080F83D50002180F83C100846F0BDD6
:102430000220F0BD002C0140003401408FFFFFFD61
:10244000000400400008004000400140704710B503
:10245000040003D094F83D0010B107E0012010BD46
:10246000002084F83C00204600F022F8022084F886
:102470003D00211D206801F08DFB012084F84800FB
:1024800084F83E0084F83F0084F8400084F841005E
:1024900084F8420084F8430084F8440084F845003E
:1024A00084F8460084F8470084F83D00002010BD01
:1024B00008B5154A0168154891420ED1816D41F069
:1024C00010018165806D002200F01000009011461F
:1024D0003620FFF72BFA362010E00D4A914211D139
:1024E000816D41F020018165806D002200F02000A7
:1024F000009011463720FFF719FA3720BDE8084051
:10250000FFF706BA08BD00000010004000100240AE
:102510000014004090F83D10012901D001207047BF
:10252000022180F83D100168CA6842F00102CA60C9
:102530000068104988420ED0B0F1804F0BD00E4990
:10254000884208D00D49884205D00D49884202D002
:102550000C49884207D181680B4A1140062906D0F0
:10256000B1F5803F03D0016841F001010160002016
:1025700070470000002C01400004004000080040AB
:102580000034014000400140070001000168CA68B2
:1025900022F00102CA6001680A6A41F211131A426C
:1025A00007D10A6A9B001A4203D10A6822F001028D
:1025B0000A60012180F83D100020704770472DE926
:1025C000F04104460068C66805694FF00007A90796
:1025D00013D5B10711D5F91E0161012020772068BC
:1025E00080698007204602D0FFF7E8FF04E000F092
:1025F000B7F8204600F0B5F82777680716D57007BA
:1026000014D521686FF0040008610220207720684B
:10261000806910F4407F204602D0FFF7CFFF04E02E
:1026200000F09EF8204600F09CF82777280715D583
:10263000300713D521686FF0080008610420207767
:102640002068C0698007204602D0FFF7B7FF04E08A
:1026500000F086F8204600F084F82777E80616D5C3
:10266000F00614D521686FF010000861082020776B
:102670002068C06910F4407F204602D0FFF79EFF1B
:1026800004E000F06DF8204600F06BF82777E807CB
:1026900008D0F00706D021686FF0010008612046DD
:1026A00000F060F8280601D4A80408D5300606D545
:1026B00021686FF4025008612046FFF774FEE805B8
:1026C00008D5300606D521686FF480700861204671
:1026D000FFF768FE680608D5700606D521686FF01A
:1026E00040000861204600F06FF8A80608D5B00643
:1026F00006D521686FF0200008612046FFF754FEE0
:10270000E80208D5F00206D521686FF48010086150
:102710002046FFF74BFEA80208D5B00206D5216877
:102720006FF4001008612046FFF73FFE680208D5ED
:10273000700206D521686FF4800008612046FFF71B
:1027400036FE28020AD5300208D521686FF4000051
:1027500008612046BDE8F041FFF778BEBDE8F08192
:1027600070477047154A01681548914202D1C278F6
:10277000521CC270134A91421FD1017A012904D11F
:10278000C179491CC171C90703D0817921F00101C8
:1027900002E0817941F001018171417A012904D17E
:1027A000C179491CC171C90703D0817921F00201A7
:1027B00002E0817941F00201817170470010004010
:1027C0000800002000140040704790F88410012990
:1027D00018D0012180F884102421C0F888100168E5
:1027E0000A680B6823F001030B6022F000510022FD
:1027F0004266036819602021C0F8881080F88420A0
:10280000104670470220704710B50446D0F88C007F
:10281000202801D0022010BD61B15AB10120E0662C
:1028200000202067204601F0EFFC0028F3D1E16E84
:10283000012901D0012010BD2268102111622268F7
:1028400052E8001F41F0100142E80013002BF6D1BE
:1028500010BD0000034901201422087102490348F9
:10286000FFF7D2BF080000204C00002064010020C8
:10287000704770B5044690F8840001281DD00120EF
:1028800084F884002420C4F8880020680568026861
:1028900022F0010202602068826822F060620A432E
:1028A0008260204601F0D4F9206805602020C4F839
:1028B0008800002084F8840070BD022070BD70B5CF
:1028C000044690F8840001281DD0012084F884007B
:1028D0002420C4F8880020680568026822F00102FC
:1028E00002602068826822F060420A4382602046CB
:1028F00001F0AEF9206805602020C4F888000020AF
:1029000084F8840070BD022070BD70477047704726
:102910002DE9F04103680446D86919689A6840F6C1
:102920000F0528424FF000054FF002060AD1870636
:102930007ED501F0200702F0805C57EA0C0777D0C3
:10294000616F42E1B64FDFF8DCC2174001EA0C0CC0
:1029500057EA0C0C6CD05FEAC07C0CD05FEAC15C1B
:1029600009D54FF0010CC3F820C0D4F8903043F0E3
:102970000103C4F89030830709D5D30707D0236833
:102980001E62D4F8903043F00403C4F8903043073B
:102990000AD5D30708D0266804233362D4F89030D0
:1029A00043F00203C4F8903003070CD501F0200374
:1029B0003B4308D0266808233362D4F8903043F0B4
:1029C0000803C4F8903003050BD54B0109D52668E0
:1029D0004FF400633362D4F8903043F02003C4F81E
:1029E0009030D4F89030002B3DD0800609D501F00E
:1029F000200002F08051084303D0616F09B12046E6
:102A00008847D4F8900021688968490602D410F0FC
:102A1000280F2AD0204601F07BFA20688068400603
:102A20001ED52068083050E8001F21F0400100E06A
:102A300021E040E80012002AF3D1D4F8800078B1F8
:102A400079498163D4F88000FEF78BFC00280AD016
:102A5000D4F88000816B00E02046BDE8F0410847D3
:102A60002046FFF754FFBDE8F0812046FFF74FFFF7
:102A7000C4F89050F7E7D4F86CC02027BCF1010FE0
:102A80007ED15FEAC06C7BD55FEAC16C78D510203F
:102A9000186220688068400651D5D4F880100A6812
:102AA00050680004000C3ED0B4F85C3083423AD940
:102AB000A4F85E000868006880062CD4216851E8FC
:102AC000000F20F4807041E80002002AF6D120684F
:102AD000083050E8001F21F0010140E80012002AF0
:102AE000F5D12068083050E8001F21F0400140E88F
:102AF0000012002AF5D1C4F88C70E566216851E80F
:102B0000000F20F0100041E80002002AF6D1D4F8AE
:102B10008000FEF7F1FB2667B4F85C00B4F85E10A5
:102B2000401A81B207E0B4F85C1081429BD1106872
:102B3000800698D526672046FFF78CFE93E7B4F809
:102B40005C00B4F85E10401A81B2B4F85E00002850
:102B500089D0002987D0226852E8000F20F49070B5
:102B600042E80003002BF6D12D4BDB4320680830F0
:102B700050E8002F1A4040E8002CBCF1000F00E0A4
:102B80000EE0F3D1C4F88C70E5666567206850E804
:102B9000002F22F0100240E80023002BF6D1C9E7F5
:102BA000C60209D5560207D54FF480101862204698
:102BB000BDE8F041FFF7AABE03060AD501F0800385
:102BC00002F40002134304D0A16F00297FF444AF44
:102BD00049E7420611D54A060FD52046016851E85B
:102BE000002F22F0400241E80023002BF6D1C0F86C
:102BF0008870856700F021F935E7020206D54A00A2
:102C000004D52046BDE8F041FFF77FBEC00195D551
:102C1000002993DA2046BDE8F041FFF729BE000005
:102C20000100001020010004093E000810B5040056
:102C300003D0D4F8880010B107E0012010BD0020B7
:102C400084F88400204600F027F82420C4F8880087
:102C50002068016821F001010160A06A10B12046DE
:102C600001F018F8204601F095F90128E6D0206817
:102C7000416821F4904141602068816821F02A0177
:102C800081602068016841F0010101602046BDE8D3
:102C9000104001F063B80000F0B597B0064614216B
:102CA00011A8FDF7EFFA44216846FDF7EBFA324927
:102CB000306888425ED101200024CDE900046846D6
:102CC000FEF7CCFE08B1FDF705FF2C48016E41F47C
:102CD00080410166016E01F480411691C16C41F0A2
:102CE0000101C164C06C11A900F0010016904FF4FD
:102CF000C06011900220CDE912040720CDE91440F4
:102D00004FF09040FEF77EFC1E4D1D488027286046
:102D10001820C5E90104C5E903476C61AC61EC61A9
:102D200028462C62FEF7B6FB08B1FDF7D3FEC6F8C5
:102D30008050AE62134D124860351430286019205F
:102D4000686005F10801102081E891006C61AC61B8
:102D5000EC6128462C62FEF79DFB08B1FDF7BAFE38
:102D6000F567002211462520AE62FEF7DFFD252023
:102D7000FEF7CEFD17B0F0BD003801400010024054
:102D800008000240F8010020704770472DE9F84321
:102D90000446D0F88800984616460D46202802D0F2
:102DA0000220BDE8F883A5B19EB10020C4F89000D0
:102DB0002120C4F888001834FEF752FDA68781460A
:102DC000E68754F8100C2027183CB0F5805F02D03D
:102DD00003E00120E5E7206910B12E46002510E050
:102DE00000260EE08021204601F062FAC0B9DEB173
:102DF00016F8010B21688862B4F85600401EA4F84A
:102E00005600B4F856004B464FF00002CDF8008053
:102E10000028E7D14FF04001204601F049FA40B1C7
:102E2000C4F888700320BCE735F8020BC0F3080033
:102E3000E0E7C4F888700020B3E77047FEE70000C1
:102E40002DE9F041254C06460025607804F10A087A
:102E5000012808D1012E3FD1657098F80000A070BC
:102E60001FA001F077FA6078002835D1A0780127FB
:102E70004C280AD0522815D0032E01D0042E2BD175
:102E80001AA0BDE8F04101F065BA1A48FFF742FB0D
:102E9000E078052804D82772032E1DD125720BE097
:102EA000257213E01348FFF735FBE07805280CD8AE
:102EB0006772042E10D1657298F80000A070E5705A
:102EC0000C48FFF763FB06A0DBE765726770E570EF
:102ED0000848FFF75BFBD3E7BDE8F081080000205E
:102EE000537563636573730D0A0000005761726E5A
:102EF0000D0A0000CC00002070B52D4D2D4C4FF078
:102F00009046287801282CD101212046FEF79EFC0E
:102F100070B102212046FEF799FC48B104212046F9
:102F2000FEF794FC20B101213046FEF78FFCC0B9BA
:102F3000002028700A20FEF753FB01212046FEF7EF
:102F400085FC88B102212046FEF780FC70B1042187
:102F50002046FEF77BFC58B101213046FEF776FC97
:102F600040B1287840B120E0012070BD022070BD42
:102F7000032070BD042070BD01212046FEF766FCD1
:102F8000012812D102212046FEF760FC01280CD155
:102F900004212046FEF75AFC012806D101213046C3
:102FA000FEF754FC012800D12870002070BD0000FD
:102FB000080000200004004800B585B014216846D0
:102FC000FDF760F94FF6FF70009000200321CDE976
:102FD0000201019069460248FEF714FB05B000BDEE
:102FE0000008004800B585B014216846FDF74AF98D
:102FF0004FF6FF7000900120019003200390002005
:10300000029069460248FEF7FDFA05B000BD0000D7
:103010000008004870B5002406462146204600F00E
:1030200003F900F041F94FF49635304600F010F9FD
:10303000641CAC42F9D370BD30B587B0142168462A
:10304000FDF720F91E48C16C41F00401C164C16C58
:1030500001F004010591C16C41F00101C164C16C32
:1030600001F001010591C16C41F00201C164C06C25
:10307000012500F0020005904FF44870CDE90005ED
:1030800000240394694602940E48FEF7BBFA280216
:1030900003940090CDE901544FF0904469462046D6
:1030A000FEF7B0FAFFF79EFFA06940F48070A061C0
:1030B00004481830016841F40871016007B030BD60
:1030C0000010024000040048203AD2B2034B02EB49
:1030D000420203EB021200F019B80000A44D0008F0
:1030E000F0B50E460746002540F23F1407E02146A2
:1030F0003846FFF7E9FF103C6D1CA4B2761C32780D
:10310000002A01D0142DF2D3F0BD00002DE9F047C4
:1031100091468A460026044600F086F8DFF8408093
:10312000012700BF00F0C0F85FF0000539F8160075
:1031300007FA05F10842404601D1408800E00088C6
:1031400000F086F86D1C102DF0D3641CE4B25146DB
:10315000204600F069F8761C182EE3D3BDE8F0870E
:103160000000002010B5FFF767FF002000F014F802
:10317000084CA080A088A0F50241303906D000F0AC
:10318000BDFB002000F008F8A08010BD00F02DFB72
:10319000F7E700000000002070B51D490A6842F4FE
:1031A00000720A600A6842F480720A60184C103C8F
:1031B000226842F020022260164A1060086840F03F
:1031C0002000086000BF00BF00BF206840F0200062
:1031D0002060206840F480702060FFF7EDFE4FF023
:1031E0009041886A40F48070886200BF00BF00BFD1
:1031F0000848001F006885B2886940F480708861C3
:10320000FFF7F0FE206840F400702060284670BD93
:10321000280400481408004801B5BDF80000014921
:10322000488008BD0000002010B50C460146202053
:1032300000F068F82146BDE81040212000F062B897
:1032400001B5BDF800000149088008BD000000205C
:10325000134A116841F400711160114910390B686B
:1032600043F480730B600B6843F020030B600D4B3D
:103270001860106840F02000106000BF00BF00BF61
:10328000086840F020000860086840F4807008601A
:1032900000BF00BF00BF086840F4007008607047BE
:1032A00028040048140800481449086840F40070D5
:1032B0000860086840F480700860104810380268A0
:1032C00042F0200202600E4B22221A600A6842F08D
:1032D00020020A6000BF00BF00BF016841F020016A
:1032E0000160016841F48071016000BF00BF00BF50
:1032F000016841F400710160704700002804004833
:1033000014080048184B10B51A6842F400721A608D
:103310001A6842F480721A60134A103A146844F032
:1033200020041460114C2060186840F020001860E0
:1033300000BF00BF00BF106840F0200010601068A0
:1033400040F4807010602160186840F02000186020
:1033500000BF00BF00BF106840F020001060106880
:1033600040F48070106010BD280400481408004824
:1033700010B5184C607898B101282AD116A11820F0
:10338000FFF7AEFE1BA14820FFF7AAFE20A12748A9
:1033900000F0F0FFBDE8104024496020FFF7A0BE18
:1033A00023A11820FFF79CFEA27826A11F4800F059
:1033B000E1FF1E494820FFF793FEA069FCF7E6FFF6
:1033C00041EC100B22A153EC102B184800F0D2FF57
:1033D000E0E710BD08000020202020202020202031
:1033E00020202020202020202020202020202020DD
:1033F000200000002020202020202020202020202D
:10340000202020202020202020202020000000003C
:1034100020202020202020205741524E20202020F4
:103420002020202020202020202000003800002004
:1034300020202020202020204441544120202020F2
:1034400020000000202020202020204E3A2563006C
:1034500020202020202020443A252E316620000004
:1034600070B50D4D0446012204212846FEF7F3F9FC
:103470000A4E01224FF47F413046FEF7ECF921025B
:1034800000223046FEF7E7F92846BDE870400022EA
:103490000421FEF7E0B90000000C004800080048D5
:1034A00005484178012903D1817941F0800181717A
:1034B0008079FFF7D5BF00000800002000EB8100F5
:1034C000006E00F0F84070478068C0F3C00070479D
:1034D0008068C0F380007047042303EAD15310B51D
:1034E00018444369C1F3045107248C40A3438A4024
:1034F0001343436110BD00EB8100016E21F00041D8
:10350000114301667047000030B589B0202168463C
:10351000FCF7B8FE19481849002401604902C0E9C7
:103520000114C46004250461C0E9054504774477AB
:103530000121016280F82440C462046380F83840AD
:10354000C46380F84040FDF727FD08B1FDF7C2FADB
:103550000B48009006200190072002907F200594E0
:10356000CDE9030569460548FDF700FB002801D0B9
:10357000FDF7B0FA09B030BD000100506000002036
:103580000080F03E114808B5816C41F0040181646F
:10359000816C01F004010091816C41F001018164B2
:1035A000806C002200F00100009011460B20FEF715
:1035B000BDF90B20FEF7ACF9002211460C20FEF7F6
:1035C000B5F9BDE808400C20FEF7A2B90010024092
:1035D0002DE9F04F87B014216846FCF753FE3F48B1
:1035E000C16C41F00401C164C16C01F0040105919A
:1035F000C16C41F02001C164C16C01F02001059152
:10360000C16C41F00101C164C16C01F0010105917F
:10361000C16C41F00201C164C16C01F0020105916D
:10362000C16C41F00801C164C06CDFF8B48000F0E7
:1036300008004FF6FF740590002221464046FEF731
:103640000AF94FF480764FF09049002231464846FF
:10365000FEF701F9DFF88CA0002204215046FEF7A6
:10366000FAF8DFF884B04FF448770022394658461C
:10367000FEF7F1F80125CDE90045002402946946E2
:1036800040460394FDF7BEFFCDE900546946484625
:103690000295FDF7B7FF07208DE8310069465846CF
:1036A000FDF7B0FF0096CDE9015469464846039402
:1036B000FDF7A8FF04200090CDE90154694650466B
:1036C0000394FDF79FFF0097CDE9015469465846E2
:1036D0000394FDF797FF07B0BDE8F08F001002409C
:1036E00000080048000C0048000400483EB50024D3
:1036F0000F48009401940D490294016041F63F7116
:10370000C0E9011442F20F718461C160FEF79FFEAF
:1037100008B1FDF7DFF90094694605480294FEF709
:1037200047FE002801D0FDF7D5F93EBD001000404E
:10373000CC0000203EB500240F48009401940D49B0
:103740000294016041F63F71C0E90114C91084611F
:10375000C160FEF77CFE08B1FDF7BCF90094694634
:1037600005480294FEF724FE002801D0FDF7B2F9C7
:103770003EBD00000014004018010020184810B59C
:10378000164901604FF416514160002181600C22FE
:10379000C160C0E904128161C1610162416281625C
:1037A000FFF744FA08B1FDF795F900210C48FFF73F
:1037B00086F808B1FDF78EF900210948FFF759F89E
:1037C00008B1FDF787F90648FEF7FFFF002803D090
:1037D000BDE81040FDF77EB910BD00000038014083
:1037E00064010020FEE7FEE7704730B501210020AC
:1037F000FFF788FD4FF47A70FDF75EF90021012094
:10380000FFF780FD41F290711020FFF77BFD4FF430
:103810001C516020FFF776FD01216120FFF772FD4A
:1038200002214620FFF76EFD48F210011320FFF73A
:1038300069FD48F2FE011220FFF764FD4FF4A0611C
:103840000220FFF75FFD41F230010320FFF75AFD30
:1038500040F2033421463020FFF754FD2146312049
:10386000FFF750FD21463220FFF74CFDE51E2946AB
:103870003320FFF747FD03213420FFF743FD2146A6
:103880003520FFF73FFD14213620FFF73BFD214691
:103890003720FFF737FD21463820FFF733FD21465B
:1038A0003920FFF72FFD29463A20FFF72BFD032192
:1038B0003B20FFF727FD21463C20FFF723FD4FF477
:1038C000A0513D20FFF71EFD4FF400719220FFF73D
:1038D00019FD21469320FFF715FD40F60D019020BC
:1038E000FFF710FD41F218010320FFF70BFDBDE8C3
:1038F000304040F273110720FFF704BD10B543F2CA
:103900000801E320FFF7FEFC1221E720FFF7FAFC95
:1039100041F23121EF20FFF7F5FC00210120FFF7F4
:10392000F1FC4FF4E0610220FFF7ECFC41F23001C2
:103930000320FFF7E7FC00210420FFF7E3FC40F23F
:1039400007210820FFF7DEFC00210920FFF7DAFC41
:1039500000210A20FFF7D6FC00210C20FFF7D2FC43
:1039600000210D20FFF7CEFC00210F20FFF7CAFC3D
:1039700000211020FFF7C6FC07211120FFF7C2FC31
:1039800000211220FFF7BEFC00211320FFF7BAFC34
:10399000C820FDF725FE41F290611020FFF7B2FC30
:1039A00040F227211120FFF7ADFC3220FDF718FE71
:1039B0001D211220FFF7A6FC3220FDF711FE4FF467
:1039C00000611320FFF79EFC14212920FFF79AFCC9
:1039D0000B212B20FFF796FC3220FDF701FE002182
:1039E0002020FFF78FFC00212120FFF78BFC07210F
:1039F0003020FFF787FC40F207713120FFF782FC8F
:103A000006213220FFF77EFC40F204713520FFF7DB
:103A100079FC41F604713620FFF774FC042137204D
:103A2000FFF770FC00213820FFF76CFC40F20671B4
:103A30003920FFF767FC40F201713C20FFF762FC80
:103A40000F213D20FFF75EFC00215020FFF75AFCBC
:103A5000EF215120FFF756FC00215220FFF752FCC6
:103A600040F23F115320FFF74DFC4FF41C516020F2
:103A7000FFF748FC01216120FFF744FC00216A2088
:103A8000FFF740FC00218020FFF73CFC0021812053
:103A9000FFF738FC00218220FFF734FC002183204F
:103AA000FFF730FC00218420FFF72CFC002185204B
:103AB000FFF728FC10219020FFF724FC0021922022
:103AC000FFF720FC03219320FFF71CFC4FF48871C3
:103AD0009520FFF717FC00219720FFF713FC00212A
:103AE0009820FFF70FFC41F218010320FFF70AFCB2
:103AF000BDE8104040F273110720FFF703BC704788
:103B0000FDF7B4BE10B594B038216846FCF7BAFB97
:103B100014210EA8FCF7B6FB4FF40070FDF738FF38
:103B2000012000900004019002200324CDE9070445
:103B30001421CDE90A100C900D9009946846FEF707
:103B40001BFA08B172B6FEE70F20CDE90E04002083
:103B500010901190129002210EA8FEF7C3F80028D1
:103B600001D072B6FEE714B010BD00000248016833
:103B700041F470010160704788ED00E00148FEF7F4
:103B80001EBD0000CC0000200148FEF718BD00005B
:103B9000180100202DE9F0430268264B264D274EE0
:103BA000274C4FF08049984207D0484505D0A8429D
:103BB00003D0B04201D0A04203D122F070074A687E
:103BC0003A43204FDFF880C0DFF8808098420DD064
:103BD00048450BD0A84209D0B04207D0A04205D03A
:103BE000B84203D0604501D0404503D122F440756E
:103BF000CA682A434D6922F080022A4302608A681B
:103C0000C2620A688262984207D0A04205D0B842D8
:103C100003D0604501D0404501D10969016301210C
:103C200041610169C90703D0016921F00101016106
:103C3000BDE8F083002C0140000400400008004073
:103C40000034014000400140004401400048014070
:103C500030B5416EB9B1026891689268C1F34261B2
:103C60000B4B520F9C5CE50003F10804A25CB5FB12
:103C7000F2F2A0F86A205A5C615CD200B2FBF1F16A
:103C8000A0F8681030BD0121A0F86A10F8E7000024
:103C90008C5F000890F82810090706D501684A686B
:103CA000836B22F400421A434A6090F82810C90737
:103CB00006D001684A68C36A22F400321A434A6097
:103CC00090F82810890706D501684A68036B22F42A
:103CD00080321A434A6090F82810490706D50168D7
:103CE0004A68436B22F480221A434A6090F82810F5
:103CF000C90606D501688A68C36B22F480521A434C
:103D00008A6090F82810890606D501688A68036CD5
:103D100022F400521A438A6090F82810490611D5FF
:103D200001684A68436C22F480121A434A60416C6D
:103D3000B1F5801F06D101684A68836C22F4C00285
:103D40001A434A6090F82810090606D501684A68A7
:103D5000C06C22F4002202434A6070472DE9F84308
:103D600000260446C0F89060FDF77AFD8046206882
:103D700000684FF0200500076FF07E4713D54346DB
:103D8000002229042046009700F092FA58B12168D9
:103D900051E8000F20F0800041E80002002AF6D12F
:103DA000C4F8885021E020680068400722D54346C7
:103DB00000224FF480012046009700F079FAC8B144
:103DC000216851E8000F20F4907041E80002002AB9
:103DD000F6D12068083050E8001F21F0010140E8CA
:103DE0000012002AF5D1C4F88C5084F884600320B6
:103DF000BDE8F883C4F88850C4F88C5044F86C6F60
:103E0000666026760020F3E710B5806A0021A0F8EE
:103E10005E10FEF77CFD10BD70B5846AD4F8880092
:103E2000D4F88C50216889684FF00006090606D541
:103E3000212804D1A4F85660204600F093F82068A9
:103E40008068400606D5222D04D1A4F85E60204685
:103E500000F05EF8D4F8900040F01000C4F8900034
:103E60002046FEF754FD70BD10B50146806A096812
:103E700009684FF0000289062DD4A0F85E2003687F
:103E800053E8001F21F4807143E80014002CF6D1A0
:103E90000168083151E8003F23F0010341E8003494
:103EA000002CF5D10168083151E8003F23F04003B0
:103EB00041E80034002CF5D12021C0F88C10C16EEF
:103EC000012908D1016851E8003F23F0100341E8BF
:103ED0000034002CF6D10267C16E012902D0FEF732
:103EE00053FF10BDB0F85C10FEF7B4FC10BD10B568
:103EF000806A01210167C16E012902D0FEF745FFEA
:103F000010BDB0F85C104908FEF7A4FC10BD00001D
:103F100010B5026852E8001F21F4907142E80013C6
:103F2000002BF6D10E4B0268083252E8001F1940F0
:103F300042E80014002CF6D1C16E012908D10168B5
:103F400051E8002F22F0100241E80023002BF6D1A7
:103F50002021C0F88C100021C166416710BD00000F
:103F6000FEFFFFEF026852E8001F21F0C00142E8A7
:103F70000013002BF6D10168083151E8002F22F41C
:103F8000000241E80023002BF5D12021C0F8881061
:103F9000704700002DE9F0410446016880682269FD
:103FA000E3691043626900251A431043DFF82CC20D
:103FB0000A688B4B1A4002430A6020684168E26835
:103FC00021F44051114341602168A069614501D04D
:103FD000226A10438A68834B1A4002438A60206831
:103FE000C16A626A21F00F011143C1627E492368F0
:103FF0007E488B420DD1D0F8880010F0030006D027
:10400000012855D0022842D003283FD152E0012098
:104010003DE077498B420BD1D0F8880010F00C00BE
:1040200035D0042833D0082840D00C282ED141E0C8
:1040300070498B420BD1D0F8880010F0300026D0A8
:10404000102835D0202831D030281FD132E06A49DD
:104050008B420BD1D0F8880010F0C00017D0402858
:1040600026D0802822D0C02810D123E063450DD16E
:10407000D0F8880010F4406009D0B0F5806F17D0F8
:10408000B0F5006F12D0B0F5406F13D010205B492F
:104090005B4F00264FF4004263453BD160B10228DC
:1040A00013D004280BD0082872D10DE00220EEE7CF
:1040B0000420ECE70820EAE7FDF702FF01E0FDF746
:1040C00023FF010001D17CE01146606A37F810201F
:1040D0006768B1FBF2F007EB4703834270D8B0EB9F
:1040E000073F6DD8002308461946FCF793F80902EC
:1040F00041EA106102027808101871413A46002323
:10410000FCF788F83F4AA0F54071914258D82168E1
:10411000C86056E0E3694FF6EF7893422CD1092846
:104120004ED2DFE800F00508114D0D4D4D4D100049
:10413000FDF7C6FE01E0FDF7D5FE010004D140E029
:10414000FDF7E2FEF9E71146606A37F81000B1FBAF
:10415000F0F04100606801EB5001B1FBF0F0A0F11C
:10416000100141452CD84FF6F0710140C0F34200D8
:1041700001432068C16024E0092821D2DFE800F073
:10418000050912200E2020201100FDF799FE02E003
:1041900016E0FDF7A7FE010004D112E0FDF7B4FE22
:1041A000F9E71146606A37F81000B1FBF0F160687A
:1041B00001EB5001B1FBF0F0A0F1100141450AD92B
:1041C00001250120A4F86A0024F8680F2846E6605B
:1041D0002661BDE8F08180B299E7000000800040D0
:1041E000F369FFCFFFF4FF110038014000100240D7
:1041F0000044004000480040004C00400024F4000F
:10420000745F0008FFFC0F0070B58165A0F85C20AA
:1042100000210446C0F890102220C4F88C00D4F885
:104220008000F0B11F4BC362D4F880301E48186381
:10423000D4F880301D485863D4F880001346816359
:10424000A56D21682A462431D4F88000FDF782F953
:1042500038B11020C4F890002020C4F88C00012050
:1042600070BD206940B1216851E8000F40F48070B2
:1042700041E80002002AF6D12068083050E8001F0B
:1042800041F0010140E80012002AF5D12068083011
:1042900050E8001F41F0400140E80012002AF5D12B
:1042A000002070BD693E0008EF3E0008193E00087E
:1042B0002DE9F047994617460D4604464FF0000891
:1042C000089E33E0701C31D0FDF7CAFAA0EB09005C
:1042D000B04218D8BEB120680168490726D5802DA4
:1042E00024D0402D22D0C169C94309070DD4082527
:1042F00005622046FFF70CFEC4F8905084F88480D5
:104300000120BDE8F0870320FBE7C069C04300053A
:104310000CD421684FF4006008622046FFF7F8FDD6
:104320002020C4F8900084F88480ECE72068C069FD
:1043300035EA000004D00020B842C3D00020E0E7F6
:104340000120F9E70148FEF7E3BA0000640100200C
:10435000FEE700000FB4054B10B503A9044A02980C
:1043600000F0FEF810BC5DF814FB0000714C000872
:10437000340000200FB4084B10B504A902AA03981A
:1043800000F0EEF8044602A9002000F06CFC204684
:1043900010BC5DF814FB0000674C00080907090E0B
:1043A000002804DB00F1E02080F80014704700F0E2
:1043B0000F0000F1E02080F8141D704702E008C8EB
:1043C000121F08C1002AFAD170477047002001E08F
:1043D00001C1121F002AFBD1704700002DE9FF5FC9
:1043E00082B00021DDE90430020DDDF840B0034366
:1043F00018D044F61050A2F2FF324243151411981F
:1044000001281FD0A5EB0B00401C5FEA000A4FF00B
:1044100000064E4FDFF83891B046504615D5CAF128
:10442000000413E0119801244AA3012801D16FEA86
:104430000B010298119AC0E90031C0E9024206B0AE
:10444000BDE8F09FCBF10000DFE704460021404AC1
:10445000491842EB0450CDE9001012E0E00707D004
:1044600032463B4640464946FBF71EFF804689469A
:1044700032463B4610461946FBF716FF06460F46E6
:104480006410002CEAD1DDE90401DDE90023BAF172
:10449000000F06DAFBF708FF42464B46FBF704FF26
:1044A00005E0FCF712F942464B46FCF70EF90446CC
:1044B0000E460022284BFCF78FF903D84FF0FF304F
:1044C000014607E00022254B20463146FCF756F80E
:1044D000FCF76AF9102409E0002C0ADB0A22002309
:1044E000FBF798FE039B30321A55641E50EA010216
:1044F000F2D1641C039AC4F111031444119A012AE5
:1045000003D0012208430DD10AE0084304D0002063
:104510004FF0110B119072E7A3EB0B056D1E0DE030
:104520005B4504DD4FF0000205F1010504E003DA0C
:104530004FF00002A5F10105002AECD00298119974
:10454000C0E90231C0E9004579E7000000001440ED
:104550000000F03F300000000000F0430000E03FAA
:104560002DE9FF4F95B09A46884606460025EEE1B4
:10457000252877D100242746F94A0121039400E039
:10458000044316F8013F203B01FA03F01042F7D133
:1045900030782A2811D06FF02F033078A0F1300244
:1045A000092A16D8039A44F0020402EB820203EBB4
:1045B00042021044761C0390EFE758F8042B039254
:1045C000002A03DA504244F40054039044F00204F9
:1045D000761C30782E2816D116F8010F44F004040A
:1045E0002A280DD06FF02F023078A0F13003092B6C
:1045F00009D807EB870302EB4303C718761CF3E7E0
:1046000058F8047B761C30786C280FD006DC4C28D8
:1046100017D068280DD06A2814D104E0742810D06F
:104620007A280FD10DE044F400140AE044F4801419
:1046300001E044F440147278824202D104F58014FF
:10464000761C761C307866280BD013DC582877D07F
:1046500009DC002875D04528F6D04628F4D0472834
:104660001AD193E118E0632835D0642879D0652801
:1046700012D18BE1702873D008DC6728F1D069284B
:104680006FD06E280DD06F2806D1ACE073282CD0E7
:10469000752874D0782853D05246179990476D1CCE
:1046A00054E1C4F30250022809D003280DD0D8F8F1
:1046B000001004280DD00D6008F1040846E1D8F878
:1046C0000010EA17C1E90052F6E7D8F800100D8093
:1046D000F2E70D70F0E718F8041B8DF800100020C9
:1046E0008DF80100EB46012003E058F804BB4FF0C1
:1046F000FF3061074FF0000102D40DE009F1010124
:104700008946B9420FDA8145F8DB1BF80910002908
:10471000F4D108E009F1010189468142FADB1BF876
:1047200009100029F6D103985346A0EB090721464A
:104730003846179A00F080FA284400EB090507E094
:1047400044E008E10DE01BF8010B52461799904731
:10475000B9F10109F7D2534621463846179AF2E0DB
:1047600039E00A21C4F302524FF0000B0091022AF3
:1047700006D058F8040BC117032A09D00AE023E039
:1047800008F1070020F00702F2E80201904605E078
:1047900000B2C117042A01D140B2C117002906DABC
:1047A0000A460021404261EB02012D2202E022056F
:1047B00004D52B228DF80420012203E0E20701D06A
:1047C0002022F7E7914657E00A2100E010214FF040
:1047D000000B00910BE010214FF0000B44F004049B
:1047E0000827009103E008204FF0000B0090C4F36D
:1047F0000252022A05D058F8040B0021032A08D0DF
:1048000008E008F1070020F00702F2E802019046F4
:1048100003E080B2042A00D1C0B24FF000092207A1
:104820002AD53278702A07D0DDF800C08CF0100C41
:104830005CEA0B0C05D00EE040228DF8042001222A
:1048400008E050EA010306D030238DF804308DF8DB
:10485000052002229146009B83F0080353EA0B03D4
:104860000AD150EA010201D1620705D530228DF844
:1048700004204FF001097F1E3278582A04D039A253
:104880000C920CAA02920BE03BA2F9E75B46009A5D
:10489000FBF7C0FC0C9B9B5C029A521E02921370A9
:1048A00050EA0102F2D1029804A9081A00F1200B83
:1048B000600702D524F4803400E001275F4502DD63
:1048C000A7EB0B0000E0002000EB0B010090039829
:1048D0004944401A0390E00306D453462146179AF0
:1048E000039800F0A9F90544002706E001A8524604
:1048F000C05D179990476D1C7F1C4F45F6DBE003A8
:104900000CD553462146179A039800F095F90544B3
:1049100004E030205246179990476D1C0099481EBC
:1049200000900029F5DC08E00298029952460078D0
:10493000491C0291179990476D1CBBF10001ABF126
:10494000010BF1DC5BE100F065F90544761C307881
:1049500000287FF40DAE19B02846BDE8F08F0000A6
:104960000928010030313233343536373839616245
:104970006364656600000000303132333435363709
:10498000383941424344454600000000600700D4E6
:10499000062708F1070020F00700F0E80223804610
:1049A00003F0004C5FEA0C0001D097A009E020055D
:1049B00001D596A005E0E00701D095A001E0AFF297
:1049C0004C001390307823F0004365280CD006DCAF
:1049D000452809D046281DD047287FD13BE06628CE
:1049E00018D067287AD136E00021112F01DB112081
:1049F00000E0781CCDE9000104A90CA8FFF7EEFC4B
:104A0000DDE90D010C9A4FF0000B07F1010910923E
:104A100000914EE04FF000400097CDE9011004A94D
:104A20000CA8FFF7DBFCDDE90D020C9B0F994FF0A2
:104A3000000B91461093009211B9791C00EB01090B
:104A4000B7EB090003D4C0F1FF3B07F10109A9EB63
:104A50000700019042E0012F00DA01270021112F09
:104A600001DD112000E03846CDE9000104A90CA8C1
:104A7000FFF7B4FCDDE90D010C9A00914FF0000B3B
:104A8000B946109221070FD4009A4A4503DA91469D
:104A900001E0A9F10109B9F1010F05DD109AA9F1B1
:104AA0000101515C3029F4D0B84202DA10F1040F50
:104AB00003DA0121CDE9011010E0002803DC834472
:104AC000A9EB000102E0411C494500DD8946A0EB4D
:104AD0000B00401C01904FF000400290200705D4CD
:104AE0000198484502DB4FF0FF30019000208DF81F
:104AF0004B0002980DF14B07B0F1004F25D002207A
:104B00000C902B200D90029800280CDA4042029065
:104B10002D200D9007E00A210298FBF766FC30314A
:104B2000029007F8011D0C99481E0C900029F2DC38
:104B300002980028EFD1791E0D980870307800F0A7
:104B4000200040F0450007F8020D11A8C01BC01D51
:104B500002901398007800B1012000EB0901019840
:104B600001EBE071029801440398401A401E039043
:104B7000E00306D453462146179A039800F05CF8E8
:104B800005441398007818B15246179990476D1C48
:104B9000E00323D553462146179A039800F04CF8BA
:104BA00005441BE0BBF1000F07DB0098584504DD0E
:104BB0001098179910F80B0001E017993020524611
:104BC000904701980BF1010B401E05F10105019082
:104BD00004D12E205246179990476D1CB9F100015F
:104BE000A9F10109DEDC05E017F8010B524617991F
:104BF00090476D1C0299481E02900029F4DC534630
:104C00002146179A03989EE62D0000002B00000015
:104C1000200000002DE9F041044600251E461746FD
:104C2000880404D405E039462020B0476D1C641E7A
:104C3000F9D52846BDE8F0812DE9F041044600256C
:104C40001E469046C80301D5302700E0202788047F
:104C500004D505E041463846B0476D1C641EF9D5C1
:104C60002846BDE8F0810A68531C0B60107070473D
:104C700013B53223012269460248FEF787F80098EF
:104C80001CBD000064010020FCF7F8FDFEF73AFFB0
:104C9000FEF79EFCFEF776FCFEF736FCFEF726FDDF
:104CA000FEF76CFDFEF746FDFEF75CFA0020FEF70E
:104CB000B1F90020FEF7B0FA4FF6FF70FEF7C0FA28
:104CC0007F210F48FBF708FF14220E490E48FDF71D
:104CD0009BFD0E48FDF71EFC0D480D4C0A3C00786C
:104CE00084F80200FEF744FBFBF740FEFEF704F9F0
:104CF0006071FEF7A5F800F00DF8FEF7D1FBF1E7C3
:104D0000600000204C0000206401002018010020F9
:104D1000120000202DE9F0411C4C2079012832D1ED
:104D200060780026F8B91A4D267104F10A07287830
:104D30004C2806D12846FBF7B0FA012801D1B878F3
:104D4000A0702878522806D11148FBF7A6FA01284E
:104D500001D17878A0700E48FBF79FFA012802D99C
:104D60000CA0FFF7F7FA6078012806D12079012816
:104D700003D1267109A0FFF7EDFABDE8F041142137
:104D80000348FBF77FBABDE8F0810000080000206F
:104D90004C0000204552524F520D0A0057414954D1
:104DA0000D0A0000000000000000000000000000EC
:104DB00000000000000000000000000000000000F3
:104DC00000000000000000000000000000000000E3
:104DD000000000000000800180018001800180014E
:104DE00080018001800180018001800180018001BB
:104DF00000000000800180010000000000000000B1
:104E00000000000000000000CC00CC00CC00CC0072
:104E1000CC00CC00000000000000000000000000FA
:104E20000000000000000000000000000000000082
:104E30000000000000000000000000000000000072
:104E4000600C600C600C30063006FE1FFE1F300642
:104E500038071803FE1FFE1F180318038C018C016E
:104E60008C01000000008000E003F80F9C0E8C1CF9
:104E70008C188C009800F801E007800E801C8C18BC
:104E80008C189C18B80CF00FE00380008000000024
:104E9000000000000000000000000E181B0C110CA8
:104EA00011061106110311039B018E01C038C06C5D
:104EB00060446044304430441844186C0C3800009E
:104EC000000000000000E001F00338071806180693
:104ED0003003F001F000F8009C310E33061E061C72
:104EE000061C063FFC73F0210000000000000000DB
:104EF00000000000000000000C000C000C000C0082
:104F00000C000C0000000000000000000000000089
:104F10000000000000000000000000000000000091
:104F2000000000000000000200038001C000C0007B
:104F30006000600030003000300030003000300091
:104F40003000300060006000C000C000800100033D
:104F500000020000000020006000C000800180010D
:104F60000003000300060006000600060006000617
:104F7000000600060003000380018001C0006000FD
:104F80002000000000000000000000000000000001
:104F9000C000C000D806F807E00130033807000061
:104FA0000000000000000000000000000000000001
:104FB00000000000000000000000000000000000F1
:104FC00080018001800180018001FC3FFC3F800165
:104FD00080018001800180010000000000000000CD
:104FE00000000000000000000000000000000000C1
:104FF00000000000000000000000000000000000B1
:10500000000000000000800180010001000180001C
:105010000000000000000000000000000000000090
:10502000000000000000000000000000E007E007B2
:105030000000000000000000000000000000000070
:105040000000000000000000000000000000000060
:105050000000000000000000000000000000000050
:10506000000000000000C000C000000000000000C0
:10507000000000000000000C000C00060006000606
:105080000003000300038003800180018001C00051
:10509000C000C000600060000000000000000000D0
:1050A000000000000000E003F007380E180C0C1898
:1050B0000C180C180C180C180C180C180C180C18D0
:1050C000180C380EF007E00300000000000000009C
:1050D00000000000000000018001C001F001980103
:1050E00088018001800180018001800180018001B0
:1050F00080018001800180010000000000000000AC
:10510000000000000000E003F80F180C0C180C1849
:1051100000180018000C000600038001C0006000A9
:1051200030001800FC1FFC1F000000000000000001
:10513000000000000000E001F807180E0C0C0C0C39
:10514000000C0006C003C007000C001800180C1863
:105150000C18180CF807E003000000000000000025
:10516000000000000000000C000E000F000F800D7A
:10517000C00C600C600C300C180C0C0CFC3FFC3F9D
:10518000000C000C000C000C0000000000000000EF
:10519000000000000000F80FF80F180018000C00C5
:1051A000EC03FC071C0E001C0018001800180C185B
:1051B0001C0C180EF807E0030000000000000000BF
:1051C000000000000000C007F00F381C181818007D
:1051D0000C00CC03EC0F3C0E1C1C0C180C180C180B
:1051E000181C380EF007E00300000000000000006B
:1051F000000000000000FC1FFC1F000C0006000661
:10520000000380038001C001C000E0006000600076
:10521000700030003000300000000000000000008E
:10522000000000000000E003F007380E180C180C16
:10523000180C3806F007F007180C0C180C180C188E
:105240000C18380CF80FE00300000000000000000C
:10525000000000000000E003F007380E1C0C0C18E2
:105260000C180C181C1C381EF81BE0190018000C38
:10527000000C1C0EF807F001000000000000000008
:10528000000000000000000000000000000000001E
:10529000800180010000000000000000000000000C
:1052A00000000000800180010000000000000000FC
:1052B00000000000000000000000000000000000EE
:1052C00080018001000000000000000000000000DC
:1052D000000000008001800100010001800000004A
:1052E00000000000000000000000000000000000BE
:1052F000000000000010001C800FE003F800180000
:10530000F800E003800F001C001000000000000007
:10531000000000000000000000000000000000008D
:1053200000000000F81F000000000000F81F00004F
:10533000000000000000000000000000000000006D
:10534000000000000000000000000000000000005D
:105350000000000008003800F001C007001F00181E
:10536000001FC007F0013800080000000000000026
:10537000000000000000E003F80F180C0C180C18D7
:105380000018000C000600038001C000C000C0002F
:1053900000000000C000C00000000000000000008D
:1053A0000000000000000000E00718180420C229D7
:1053B000224A114409440944094409221113E20C08
:1053C000024004201818E007000000000000000060
:1053D00000000000000080038003C006C006C00675
:1053E000600C600C301830183018F83FF83F1C7013
:1053F0000C600C6006C006C0000000000000000049
:10540000000000000000FC03FC0F0C0C0C180C1832
:105410000C180C0CFC07FC0F0C180C300C300C306A
:105420000C300C18FC1FFC070000000000000000FE
:10543000000000000000C007F01F38381C300C705E
:10544000066006000600060006000600060006606C
:105450000C701C30F01FE00700000000000000008E
:10546000000000000000FE03FE0F060E06180618DE
:105470000630063006300630063006300630061894
:105480000618060EFE0FFE030000000000000000DC
:10549000000000000000FC3FFC3F0C000C000C0072
:1054A0000C000C00FC1FFC1F0C000C000C000C007E
:1054B0000C000C00FC3FFC3F00000000000000005E
:1054C000000000000000F83FF83F18001800180026
:1054D00018001800F81FF81F18001800180018000E
:1054E000180018001800180000000000000000005C
:1054F000000000000000E00FF83F3C780E6006E07E
:1055000007C00300030003FE03FE03C007C006C07C
:105510000EC03CF0F83FE00F00000000000000006B
:105520000000000000000C300C300C300C300C304F
:105530000C300C30FC3FFC3F0C300C300C300C308D
:105540000C300C300C300C3000000000000000006B
:1055500000000000000080018001800180018001C6
:105560008001800180018001800180018001800133
:105570008001800180018001000000000000000027
:1055800000000000000000060006000600060006FD
:1055900000060006000600060006000600061806C3
:1055A00018063807F003E0010000000000000000CA
:1055B00000000000000006300618060C0606060370
:1055C0008601C60066007600DE008E010603060630
:1055D000060C0618063006600000000000000000FF
:1055E0000000000000001800180018001800180043
:1055F00018001800180018001800180018001800EB
:1056000018001800F81FF81F00000000000000003C
:105610000000000000000EE01EF01EF01EF036D864
:1056200036D836D836D866CC66CC66CCC6C6C6C6A2
:10563000C6C6C6C686C386C30000000000000000C0
:105640000000000000000C301C303C303C306C305E
:105650006C30CC30CC308C310C330C330C360C36F7
:105660000C3C0C3C0C380C3000000000000000002A
:10567000000000000000E007F81F1C380E700660F4
:1056800003C003C003C003C003C003C003C006605F
:105690000E701C38F81FE00700000000000000003A
:1056A000000000000000FC0FFC1F0C380C300C3018
:1056B0000C300C300C18FC1FFC070C000C000C000C
:1056C0000C000C000C000C000000000000000000AA
:1056D000000000000000E007F81F1C380E70066094
:1056E00003E003C003C003C003C003C007E00663B8
:1056F0000E3F1C3CF83FE0F700C000000000000037
:10570000000000000000FE0FFE1F063806300630C5
:1057100006300638FE1FFE0706030606060C0618AE
:105720000618063006300660000000000000000089
:10573000000000000000E003F80F1C0C0C180C180F
:105740000C001C00F803E00F001E00380630063085
:105750000E301C1CF80FE0070000000000000000E5
:10576000000000000000FE7FFE7F800180018001BC
:105770008001800180018001800180018001800121
:105780008001800180018001000000000000000015
:105790000000000000000C300C300C300C300C30DD
:1057A0000C300C300C300C300C300C300C300C3019
:1057B0000C301818F81FE00700000000000000007F
:1057C00000000000000003600630063006300C18B0
:1057D0000C180C18180C180C380E30063006700710
:1057E00060036003C001C001000000000000000071
:1057F0000000000000000360C361C361C361663341
:10580000663366336633663366336C1B6C1B6C1B06
:105810002C1A3C1E380E380E00000000000000005C
:105820000000000000000FE00C7018303018700C01
:10583000600EC00780038003C003E006700C301CBC
:1058400018180C300E6007E0000000000000000097
:1058500000000000000003C006600C301C3838183F
:10586000300C6006E007C0038001800180018001E8
:105870008001800180018001000000000000000024
:10588000000000000000FC7FFC7F0060003000187A
:10589000000C000600038001C0006000300018000A
:1058A0000C000600FE7FFE7F0000000000000000EC
:1058B000000000000000E003E00360006000600002
:1058C00060006000600060006000600060006000D8
:1058D0006000600060006000600060006000E00345
:1058E000E003000000003000300060006000600055
:1058F000C000C000C000C001800180018001000321
:105900000003000300060006000000000000000085
:10591000000000000000E003E003000300030003B8
:10592000000300030003000300030003000300035F
:105930000003000300030003000300030003E0036F
:10594000E003000000000000C001C001600360032C
:10595000600330063006180C180C00000000000030
:105960000000000000000000000000000000000037
:105970000000000000000000000000000000000027
:105980000000000000000000000000000000000017
:10599000000000000000FFFFFFFF0000000000000B
:1059A0000000000000000C000C000C000C000C00BB
:1059B0000C000000000000000000000000000000DB
:1059C00000000000000000000000000000000000D7
:1059D00000000000000000000000000000000000C7
:1059E000F003F8071C0C0C0C000FF00FF80C0C0C5B
:1059F0000C0C1C0FF80FF018000000000000000055
:105A0000000000000000180018001800180018001E
:105A1000D803F80F380C1818181818181818181870
:105A20001818380CF80FD803000000000000000020
:105A30000000000000000000000000000000000066
:105A4000C003F007300E180C1800180018001800DA
:105A5000180C300EF007C00300000000000000002A
:105A600000000000000000180018001800180018BE
:105A7000C01BF01F301C1818181818181818181800
:105A80001818301CF01FC01B0000000000000000B0
:105A90000000000000000000000000000000000006
:105AA000C003F00F300C1818F81FF81F180018006A
:105AB0003818301CF00FC007000000000000000084
:105AC000000000000000800FC00FC000C000C00038
:105AD000F007F007C000C000C000C000C000C00058
