:020000040800F2
:1000000080050020ED0100087F2D00080524000870
:100010007D2D00088D070008753B000800000000DA
:10002000000000000000000000000000393100085E
:100030008F07000800000000812D00083B310008F8
:10004000070200080702000807020008070200086C
:10005000070200080702000807020008070200085C
:10006000070200080702000807020008070200084C
:10007000070200080702000807020008070200083C
:10008000070200080000000007020008070200083D
:10009000070200080702000807020008070200081C
:1000A000070200080702000807020008070200080C
:1000B0000702000807020008B5310008070200081F
:1000C00007020008070200080702000807020008EC
:1000D000070200085D3B000807020008070200084D
:1000E00007020008070200080702000807020008CC
:1000F00007020008070200080702000800000000CD
:1001000000000000070200080000000007020008CD
:1001100007020008000000000702000807020008AC
:10012000070200080702000807020008070200088B
:10013000070200080000000000000000070200089D
:10014000070200080702000800000000000000008D
:10015000000000000000000000000000000000009F
:10016000000000000000000000000000070200087E
:10017000070200080000000000000000000000006E
:10018000000000000702000800000000000000005E
:10019000000000000000000000000000000000005F
:1001A000000000000000000007020008070200082D
:1001B000070200080702000807020008000000000C
:1001C000000000000702000800000000000000001E
:1001D0000702000807020008DFF80CD000F0B2FAAE
:1001E00000480047E1460008800500200648804797
:1001F00006480047FEE7FEE7FEE7FEE7FEE7FEE70C
:10020000FEE7FEE7FEE7FEE7A5310008D90100089A
:100210002DE9F05F0546002092469B46884606463B
:10022000814640241BE0284641464746224600F0CE
:10023000D3F853465A46C01A914110D31146184676
:10024000224600F0BAF82D1A67EB01084F46224605
:100250000120002100F0B1F817EB00094E41201EEB
:10026000A4F10104DFDC484631462A464346BDE896
:10027000F09FD2B201E000F8012B491EFBD270477B
:100280000022F6E710B513460A4604461946FFF762
:10029000F0FF204610BD2DE9F04D81EA030404F083
:1002A000004B21F0004514464FF0000A23F00041B6
:1002B00050EA050220D054EA01021DD0C5F30A57C6
:1002C0000246C5F31303C1F31300C1F30A5640F409
:1002D000801543F48013A7EB0608101BD64608F2DE
:1002E000FD3873EB050002D308F1010801E0921814
:1002F0005B41B8F1000F03DA00200146BDE8F08D44
:1003000000204FF48011064684460EE0171B73EB65
:10031000050705D3121B63EB050306434CEA010CEA
:1003200049084FEA300092185B4150EA0107EDD1CD
:1003300052EA030012D082EA040083EA050108436E
:1003400005D0101BAB4106D20122002306E000229B
:100350004FF0004302E06FF0010253101AEB060069
:100360004CEB085110EB0A0041EB0B01BDE8F04DDE
:1003700000F042B80EB540F2334102910021CDE9C0
:1003800000110A460B4600F046F803B000BD30B538
:100390000B46014600202022012409E021FA02F543
:1003A0009D4205D303FA02F5491B04FA02F52844DD
:1003B000151EA2F10102F1DC30BD202A04DB203A37
:1003C00000FA02F1002070479140C2F1200320FAA8
:1003D00003F3194390407047202A04DB203A21FAA6
:1003E00002F00021704721FA02F3D040C2F120024E
:1003F000914008431946704710B5141E73F100046C
:1004000008DA401C41F1000192185B411A4301D106
:1004100020F0010010BD2DE9F04D92469B4611B130
:10042000B1FA81F202E0B0FA80F220329046FFF792
:10043000C4FF04460F4640EA0A0041EA0B01534656
:100440005A46084313D0114653EA010019D0C8F1A7
:1004500040025046FFF7C0FF05460E46504659463B
:100460004246FFF7AAFF084305D0012004E02046DA
:100470003946BDE8F08D0020054346EAE0762C437E
:1004800037430A986305E40AA0EB08000022FD0A3E
:1004900044EA47540A3002D500200146E9E7010545
:1004A00010196941DDE9084500196941BDE8F04DC1
:1004B000A2E72DE9FE4F804681EA0300C00F0C46FB
:1004C000009021F0004123F00045B8EB0200A94163
:1004D00005D24046214690461C460B46024623F074
:1004E0000040104347D0270DC7F30A00C3F30A5159
:1004F0000290401A019040286BDAC3F3130040F4D5
:10050000801B0098924620B10023D2EB030A63EBD4
:100510000B0B01985946C0F140025046FFF74DFFC2
:1005200006460D4650465946019A00F01DF910EB5B
:1005300008006141002487EA115284EAE7731A43F4
:1005400040D0009A62B3019A012A4FEA075215DCA3
:10055000001B61EB02014FF0004202EA0752CDE9B5
:100560000042001C41F5801132462B46FFF753FF35
:1005700003B0BDE8F08F40462146F9E7001B61EB70
:100580000201001C41F5801300185B412018A2F500
:10059000001747EB030140EAD570B6196D4111E031
:1005A0006D084FEA360645EAC0754FEA0752001B50
:1005B00061EB0201001C41F5801149084FEA30004F
:1005C0000019514132462B4603B0BDE8F04FFFF70A
:1005D00013BF0098012240000023D0EB020263EB1E
:1005E000E073009821464FEAE074B8EB000061EB3D
:1005F0000401E9E783F000435BE781F0004158E73D
:100600002DE9FE4F81EA030404F0004421F000418B
:1006100000944FF0000B23F0004350EA01045ED039
:1006200052EA03045BD0C3F30A54C1F30A552C44C5
:10063000A4F2F3340194A0FB0254C1F3130141F47A
:100640008011C3F3130343F4801301FB024400FB46
:10065000034E840A970A44EA815447EA8357A4FB6D
:10066000076802958D0A05FB07854FEA932C04FB6A
:100670000C542705029D4FEA065847EA1637B5EB9A
:1006800008056EEB070C870E920E47EA811742EAC7
:100690008312A7FB0201B6EB0B0164EB00042B0DE8
:1006A00043EA0C335E1844EB1C50DA465146E7FB34
:1006B0000201C5F313044FEA0B3343EA14534FEA24
:1006C0000432019C43EA0603A4F10C040294009C4A
:1006D000CDE900B4FFF79FFE03B0BDE8F08F002026
:1006E0000146F9E7C1F30A52C1F3130140F2FF33A7
:1006F00041F480119A4202DA00200146704740F22C
:1007000033439A42A2F2334202DC5242FFF764BE04
:10071000FFF753BE30B5041E71F1000404DB4FF047
:100720000044404264EB0101141E73F1000405DB38
:100730001C464FF00043524263EB0403994208BF4A
:10074000904230BD064C074D06E0E06840F00103E2
:1007500094E8070098471034AC42F6D3FFF740FD09
:100760007C5900089C590008202A06DBCB17203A48
:1007700041FA02F043EAE07306E041FA02F3D040A6
:10078000C2F120029140084319467047FEE77047C6
:10079000002240F6B83306E00021491C89B2994294
:1007A000FBD3521C92B28242F6D3704772B6FEE778
:1007B00010B590F8253000210122022B03D004212E
:1007C000C163012122E003681C6824F00E041C6050
:1007D000836C1C6824F480741C6003681C6824F01B
:1007E00001041C6090F84430046C03F01F0302FA0B
:1007F00003F36360D0E913345C60436D33B11C686C
:1008000024F480741C60D0E916345C6080F82520E4
:10081000002280F82420084610BD70B590F82520ED
:10082000002401212346022A07D00422C26380F853
:10083000251080F82430012429E00268156825F08D
:100840000E0515600268156825F001051560826CBB
:10085000156825F48075156090F84420056C02F049
:100860001F0201FA02F26A60D0E913255560426D59
:1008700032B1156825F480751560D0E916255560EC
:1008800080F8251080F82430816B01B1884720461C
:1008900070BD000070B5044600F03CF90546601CD0
:1008A00002D004484068044400F034F9401BA042E0
:1008B000FAD370BD140000202DE9F04FDFF820922C
:1008C000002301260324A9F1040B85B00F2709F1A9
:1008D000040AABF1040EFAE006FA03F52A407CD0D4
:1008E00091F804C00CF0030CBCF1010F02D0BCF174
:1008F000020F26D1D0F808C0CDF800C04FEA430C53
:1009000004FA0CF8CDF810C0DDF800C02CEA080C91
:10091000CDF800C0D1F80C80DDF810C008FA0CF852
:10092000DDF800C048EA0C08C0F80880D0F804C020
:100930002CEA050C0D79C5F300159D4045EA0C0520
:1009400045600D79ED43AD070ED0C5684FEA430809
:1009500004FA08FC25EA0C05D1F808C00CFA08FCDA
:100960004CEA050CC0F80CC00D7905F00305022D0A
:1009700016D1DD0800EB850CCDF808C0DCF820802E
:100980005D074FEAD56C07FA0CF528EA05080D69F2
:1009900005FA0CF5DDF808C045EA0805CCF820504A
:1009A00005684FEA430CCDF808C004FA0CFC25EAB0
:1009B0000C0591F804C00CF00308DDF808C008FA33
:1009C0000CF848EA0508C0F800804D6815F4403F6F
:1009D0007CD0444DD5F860C000E077E04CF0010CCD
:1009E000C5F860C02D6E23F0030C05F001050095DD
:1009F0003D4D65440295AD684FEA837C4FEA1C7813
:100A000007FA08FC25EA0C05B0F1904F06D0DFF894
:100A1000DCC0604505D14FF0010C20E04FF0000C28
:100A20001DE0DFF8CCC0604502D14FF0020C16E0AB
:100A3000DFF8C0C0604502D14FF0030C0FE0DFF8D3
:100A4000B8C0604502D14FF0040C08E0DFF8ACC03C
:100A5000604502D14FF0050C01E04FF0060C0CFA96
:100A600008FC4CEA050C029DC5F808C0D9F80050F6
:100A7000CC46D1F8048095435FEAC82800D51543D9
:100A8000CCF80050DAF80050D446D1F804809543F1
:100A90005FEA882800D51543CCF80050DBF80050F9
:100AA000DC46D1F8048095435FEA883800D51543C9
:100AB000CCF80050DEF80050F446D1F8048095439D
:100AC0005FEAC83800D51543CCF800505B1C0A68B3
:100AD00032FA03F57FF400AF05B0BDE8F08F0000F7
:100AE00008040140001002400000014000040048DA
:100AF00000080048000C004800100048001400489E
:100B00000069084000D0012070470AB18161704738
:100B1000816270470148806870470000140000201F
:100B200002488168426811448160704714000020C7
:100B300010B50024032000F073F80F2000F008F82F
:100B400008B1012401E000F025F8204610BD0000A6
:100B500070B50E4E05460024706898B14FF47A7156
:100B6000B1FBF0F00A490968B1FBF0F000F060FD5C
:100B700040B9102D06D200222946501E00F030F850
:100B8000356000E00124204670BD00001400002004
:100B9000200000200A4882B0016E41F00101016688
:100BA000016E01F001010091816D41F0805181657C
:100BB000806D00F08050009002B000F0A1B80000FD
:100BC00000100240002809DB00F01F0201219140C3
:100BD0004009800000F1E020C0F8001170470000DB
:100BE000F0B40E4B1B680C46C3F30223C3F1070598
:100BF000042D00D90425191D072901D2002300E086
:100C0000DB1E012606FA05F1491E214099409E404F
:100C1000761E16403143F0BC02F0D2BF0CED00E06E
:100C2000064900F0070208684FF6FF03184040EA43
:100C30000220034A10430860704700000CED00E0FA
:100C40000000FA052B492C4B0A6832214A432B49F4
:100C500040B1B0F5007F086829D020F4C06040F4AE
:100C600080602CE00868C0F34120022804D051F8CD
:100C7000800F20F4807022E0D1F8800020F4807092
:100C8000C1F88000086820F4C06040F4007008607B
:100C9000B2FBF3F0401C00E0401E4A69520501D54A
:100CA0000028F9D1486940050AD503207047C0F3F0
:100CB0004120022806D051F8800F40F4807008606F
:100CC00000207047D1F8800040F48070C1F88000A7
:100CD000086820F4C06040F400700860B2FBF3F0D4
:100CE000401C00E0401E4A695205DBD50028F9D1BE
:100CF000D8E700002000002040420F0000700040B4
:100D00000248816841F48041816070470070004072
:100D10002DE9F8430446006800269D4D00035ED58A
:100D2000A86D0027C00008D4A86D40F08050A865C9
:100D3000A86D012700F080500090DFF85892D9F894
:100D4000001041F48071C9F80010FFF7E3FE8046FF
:100D500006E000BFFFF7DEFEA0EB080002282BD85C
:100D6000D9F80000C005F5D5D5F8900010F4407012
:100D700014D0216C814211D0D5F89000D5F8901094
:100D800020F4407041F48031C5F89010D5F89010EF
:100D900021F48031C5F89010C5F89000C00711D03B
:100DA000FFF7B8FE804641F2883907E0FFF7B2FE50
:100DB000A0EB0801494501D903260BE0D5F89000C6
:100DC0008007F3D5D5F89000216C20F440700843DB
:100DD000C5F890001FB1A86D20F08050A86520785C
:100DE000C00707D0D5F88800616820F003000843E9
:100DF000C5F888002078800707D5D5F88800A16855
:100E000020F00C000843C5F888002078400707D57B
:100E1000D5F88800E16820F030000843C5F8880064
:100E20002078000707D5D5F88800216920F0C00098
:100E30000843C5F888002078800607D5D5F88800D3
:100E4000616920F440600843C5F8880020784006B6
:100E500007D5D5F88800A16920F440500843C5F8AB
:100E600088002078000607D5D5F88800E16920F4CD
:100E700040400843C5F888002088C00507D5D5F84C
:100E80008800216A20F440300843C5F88800208893
:100E9000800507D5D5F88800616A20F44020084312
:100EA000C5F88800208840050FD5D5F88800A16ACC
:100EB00020F440100843C5F88800A06AB0F5801FF0
:100EC00003D1E86840F48010E860208800050FD561
:100ED000D5F88800E16A20F440000843C5F888008E
:100EE000E06AB0F5800F03D1E86840F48010E86054
:100EF0002088C0040FD5D5F88800216B20F0407001
:100F00000843C5F88800206BB0F1807F03D1E86802
:100F100040F48010E86020884FF0006180040ED516
:100F2000D5F88800626B20F040601043C5F8880057
:100F3000606B884203D1E86840F48010E860208844
:100F400040040ED5D5F88800A26B20F04060104315
:100F5000C5F88800A06B884203D1E86840F480108F
:100F6000E860208800040FD5D5F88800E16B20F0F8
:100F700040500843C5F88800E06BB0F1805F03D1B2
:100F8000E86840F48030E8603046BDE8F88300004F
:100F900000100240007000402DE9F0470E460500A9
:100FA0004FF0000725D0DFF8AC81D8F8000000F042
:100FB0000F00B0420CD2D8F8001021F00F013143DD
:100FC000C8F80010D8F8000000F00F00B04210D1AF
:100FD0002968614CC80741F2883A5AD06868DFF83E
:100FE0007C91032808D0022820682DD040050028D5
:100FF0002CDB0120BDE8F08720688001F9D5E0688E
:1010000000F00302E068C0F30310401C032A19D06B
:10101000534A00BFB2FBF0F0E268C2F3062250432D
:10102000E268C2F34162521C5200B0FBF2F0484544
:1010300017D9A06810F0F00F0CD0880711D5A86858
:1010400040B10EE0474AE5E78003D0E700F0B6F88C
:10105000484506D9A06820F0F00040F08000A0606C
:101060008027A068696820F003000843A060FFF7AC
:1010700051FD814606E000BFFFF74CFDA0EB0901E2
:1010800051453AD8A068696800F00C00B0EB810FB8
:10109000F2D12868810714D5400703D5A06840F431
:1010A000E060A0602878000705D5A06820F46050B3
:1010B00040F4E060A060A068A96820F0F000084358
:1010C00004E0802F03D1A06820F0F000A060D8F8E1
:1010D0000010404601F00F01B14216D9016821F01D
:1010E0000F0131430160FFF715FD074607E000BF20
:1010F000FFF710FDC11B514501D903207AE7D8F84D
:10110000000000F00F00B042F2D12878400705D56A
:10111000A068E96820F4E0600843A0602878000730
:1011200006D5A068296920F4605040EAC100A0609B
:1011300000F044F8A1680C4AC1F30311515C01F0BE
:101140001F01C8400949086009480068BDE8F04728
:10115000FFF7FEBC002002400010024000B4C404AF
:101160000024F40000366E016459000820000020BD
:10117000140000200548064900688968054AC1F343
:101180000221515C01F01F01C8407047200000207F
:101190000010024074590008054806490068896833
:1011A000054AC1F3C221515C01F01F01C8407047DC
:1011B000200000200010024074590008184910B5A2
:1011C0008868C0F381021748012A0BD08A68164B41
:1011D000C2F38102022A06D08A68C2F38102032A7E
:1011E00003D0002010BD184610BDCA6802F00304E9
:1011F000CA68C2F30312521C032C02D0B0FBF2F0F7
:1012000001E0B3FBF2F0CA68C968C2F3062250439A
:10121000C1F34161491C4900B0FBF1F010BD000071
:10122000001002400024F40000366E012DE9F8435E
:1012300004007AD02078F84DC00747D0A868E96844
:1012400000F00C0001F003010C2802D0082817D090
:1012500001E0032914D06068B0F5803F17D0B0F5E5
:10126000A02F286817D020F480302860286820F448
:10127000802028606068E0B1FFF74CFC064614E06F
:101280002868800322D560680028D2D01EE0286834
:1012900040F48030EDE740F480202860F7E700BF9D
:1012A000FFF738FC801B642870D828688003F7D5C6
:1012B0000CE0FFF72FFC064605E000BFFFF72AFC15
:1012C000801B6428F0D828688003F7D42078800732
:1012D0004CD5A868E96800F00C0001F003010C2867
:1012E00002D004280DD001E002290AD0E0680028CD
:1012F00028682BD040F480702860FFF70BFC06466E
:1013000019E02868400502D5E068002891D0686897
:10131000217C20F0FE4040EA01606860BF48006820
:10132000FFF716FC002800D120E072E1FFF7F2FB86
:10133000801B0228B8D828684005F7D56868217C4A
:1013400020F0FE4040EA016068600FE020F4807009
:101350002860FFF7DFFB064605E000BFFFF7DAFB7A
:10136000801B0228A0D828684005F7D42078000701
:1013700029D560690028D5F8940013D040F0010009
:10138000C5F89400FFF7C6FB064606E090E000BFF4
:10139000FFF7C0FB801B022886D8D5F89400800791
:1013A000F6D510E020F00100C5F89400FFF7B2FB7D
:1013B000064604E0FFF7AEFB801B022878D8D5F87C
:1013C00094008007F6D42078400761D5A86D0026E8
:1013D000C00008D4A86D40F08050A865A86D012613
:1013E00000F0805000908E480168C90511D4016852
:1013F000804641F480710160FFF78CFB074604E0F2
:10140000FFF788FBC01B022852D8D8F80000C0059F
:10141000F6D5A068012815D00528D5F8900016D07B
:1014200020F00100C5F89000D5F8900020F00400ED
:10143000C5F89000A06841F28838B8B1FFF76AFBA0
:1014400007460EE0D5F8900040F00100F0E740F0CC
:101450000400C5F89000F5E7FFF75CFBC11B4145B0
:1014600026D8D5F890008007F6D50CE0FFF752FBA0
:10147000074604E0FFF74EFBC11B414518D8D5F8DD
:1014800090008007F6D41EB1A86D20F08050A865AA
:101490002078800629D5A0690028D5F8980013D0B7
:1014A00040F00100C5F89800FFF734FB064606E05F
:1014B00075E000BFFFF72EFB801B02286FD8D5F820
:1014C00098008007F6D510E020F00100C5F89800DC
:1014D000FFF720FB064604E0FFF71CFB801B0228F9
:1014E0005DD8D5F898008007F6D4E069F0B3A96814
:1014F000C1F3810103295DD00228286820F08070A3
:10150000286003D0FFF706FB04464BE0FFF702FB21
:10151000064604E0FFF7FEFA801B02283FD8286841
:101520008001F7D4F4E908016FF00F0202EB01111A
:101530000843218A5204490802EB4151A26841EA5A
:1015400002210843217D4FF07E42490802EB4161B0
:101550000843217B40EAC160E968324A11400843F0
:10156000E860286840F08070286000E05EE0E8688D
:1015700040F08070E860FFF7CDFA044605E000BF58
:10158000FFF7C8FA001B022809D828688001F7D5A0
:101590004CE000BFFFF7BEFA001B022802D903206F
:1015A000BDE8F88328688001F4D4E8681E49084043
:1015B000E8603BE00128F3D0E868226A00F003010C
:1015C000914226D1616A00F0F0020901103991427E
:1015D0001FD1A26A00F4FE41B1EB022F19D194F899
:1015E0002C2000F07841B1EBC26F12D1218E00F4B3
:1015F000C00249084905A1F50011914209D194F8AA
:10160000341000F0C06049084906A1F10071814220
:101610000CD00120C4E7000000100240140000209C
:10162000007000400C809F01FCFFEEFE0020B7E739
:1016300010B5401EB0F1807F01D3012010BD4FF0E6
:10164000E02460610F21601702F0BAFA0020A06167
:1016500007202061002010BD704770477047704719
:1016600070477047F0B590F83C20012A3AD0012528
:1016700080F83C50022280F83D2003685A689C683C
:10168000194E1A4FB34201D0BB4204D122F4700C60
:101690004A6842EA0C02DFF858C002EA0C02D1F8AC
:1016A00000C04CEA020CC3F804C00268B2420DD07C
:1016B000B2F1804F0AD00F4B9A4207D00E4B9A429C
:1016C00004D0BA4202D00D4B9A4204D1896824F06A
:1016D00080031943916080F83D50002180F83C1050
:1016E0000846F0BD0220F0BD002C0140003401404E
:1016F0008FFFFFFD00040040000800400040014053
:10170000704710B5040003D094F83D0010B107E015
:10171000012010BD002084F83C00204600F022F893
:10172000022084F83D00211D206801F049FD0120C0
:1017300084F8480084F83E0084F83F0084F84000B4
:1017400084F8410084F8420084F8430084F844009F
:1017500084F8450084F8460084F8470084F83D008A
:10176000002010BD08B500680B49884212D10B4813
:10177000816D41F004018165806D002200F004005C
:10178000009011461E20FFF72BFABDE808401E20EE
:10179000FFF718BA08BD0000000800400010024022
:1017A00090F83D10012901D001207047022180F8F6
:1017B0003D100168CA6842F00102CA600068104921
:1017C00088420ED0B0F1804F0BD00E49884208D02D
:1017D0000D49884205D00D49884202D00C49884203
:1017E00007D181680B4A1140062906D0B1F5803F28
:1017F00003D0016841F00101016000207047000042
:10180000002C01400004004000080040003401406A
:10181000004001400700010070B5044690F83C000C
:101820000025012814D0012684F83C60022084F8A9
:101830003D0022689068364B184020F47F4090604D
:10184000086870282ED010DC10F00F0F03D021E0B4
:101850004FF0020070BD4FEA2012072A1AD2DFE8CB
:1018600002F0525252524A3840002A4BC21A984251
:1018700049D009DCB0F5805F0DD0B0F5005F1CD019
:10188000B0F1101F06D13EE0102A3CD0202A3AD0F9
:10189000502A38D0012584F83D60002084F83C00AF
:1018A000284670BDCB68D1E90121206801F0F3FC26
:1018B0002068816841F0770109E0CB68D1E9012116
:1018C000206801F0E8FC2068816841F48041816073
:1018D000E1E7CA684968206801F088FE5021206865
:1018E00006E0CA684968206801F091FE602120681E
:1018F00001F0DCFCCFE7CA684968206801F076FE99
:1019000040212068F4E7226801461046F0E7000015
:1019100088FFCEFF2000100070472DE9F0410446FB
:101920000068C66805694FF00007A90713D5B1071D
:1019300011D5F91E01610120207720688069800798
:10194000204602D0FFF7E8FF04E000F0DDF8204673
:1019500000F0B0F92777680716D5700714D521680D
:101960006FF004000861022020772068806910F47D
:10197000407F204602D0FFF7CFFF04E000F0C4F81C
:10198000204600F097F92777280715D5300713D59B
:1019900021686FF008000861042020772068C06982
:1019A0008007204602D0FFF7B7FF04E000F0ACF854
:1019B000204600F07FF92777E80616D5F00614D503
:1019C00021686FF010000861082020772068C06946
:1019D00010F4407F204602D0FFF79EFF04E000F0A5
:1019E00093F8204600F066F92777E80708D0F0075B
:1019F00006D021686FF001000861204600F0DAF996
:101A0000280601D4A80408D5300606D521686FF44D
:101A1000025008612046FFF720FEE80508D5300691
:101A200006D521686FF4807008612046FFF714FE28
:101A3000680608D5700606D521686FF04000086179
:101A4000204600F0C5F9A80608D5B00606D52168DD
:101A50006FF0200008612046FFF700FEE80208D57D
:101A6000F00206D521686FF4801008612046FFF768
:101A7000F7FDA80208D5B00206D521686FF4001062
:101A800008612046FFF7EBFD680208D5700206D515
:101A900021686FF4800008612046FFF7E2FD28020C
:101AA0000AD5300208D521686FF40000086120468D
:101AB000BDE8F041FFF724BEBDE8F08110B586B067
:101AC000044614216846FEF7DBFB2068B0F1804F26
:101AD00015D10C48C16C41F00101C164C06C69466C
:101AE00000F001000590022000900190002002907B
:101AF0000390012004904FF09040FEF7DDFE06B009
:101B000010BD000000100240704770B5044690F808
:101B10003C0000260D4601280BD0012084F83C0033
:101B20000C2A4AD007DC82B1042A20D0082A06D128
:101B300031E0022070BD102A53D0142A63D0012650
:101B4000002084F83C00304670BD206801F0B8FBEE
:101B50002068816941F0080181612068816921F074
:101B600004018161206881692A69114311E02068BC
:101B700001F0F4FB2068816941F400618161206813
:101B8000816921F480618161206881692A6941EA63
:101B900002218161D4E7206801F028FC2068C16936
:101BA00041F00801C1612068C16921F00401C161EF
:101BB0002068C1692A69114311E0206801F05EFCC8
:101BC0002068C16941F40061C1612068C16921F4E4
:101BD0008061C1612068C1692A6941EA0221C1614D
:101BE000AEE7206801F092FC2068016D41F0080129
:101BF00001652068016D21F0040101652068016D17
:101C00002A69114311E0206801F0B8FC2068016DD9
:101C100041F4006101652068016D21F48061016576
:101C20002068016D2A6941EA0221016588E710B543
:101C3000040003D094F83D0010B107E0012010BD6E
:101C4000002084F83C00204600F022F8022084F8AE
:101C50003D00211D206801F0B3FA012084F84800FE
:101C600084F83E0084F83F0084F8400084F8410086
:101C700084F8420084F8430084F8440084F8450066
:101C800084F8460084F8470084F83D00002010BD29
:101C900008B50068B0F1804F08D10548816D41F06A
:101CA00001018165806D00F00100009008BD000019
:101CB000001002407047000030B50446022269B1AE
:101CC000042912D0082917D00C291CD0102921D0A2
:101CD00094F84300012824D0012030BD94F83E0040
:101CE0000128F9D184F83E201DE094F83F00012836
:101CF000F2D184F83F2016E094F840000128EBD19F
:101D000084F840200FE094F841000128E4D184F8E1
:101D1000412008E094F842000128DDD184F84220F7
:101D200001E084F843200122206801F0A7FA194B52
:101D300020681949194A984209D0884207D0904230
:101D400005D0174DA84202D0164DA84203D1456CCC
:101D500045F400454564206898420CD0B0F1804FAE
:101D600009D0114B984206D0104B984203D08842BC
:101D700001D0904207D181680D4A1140062906D052
:101D8000B1F5803F03D0016841F0010101600020FE
:101D900030BD0000002C01400034014000400140F3
:101DA0000044014000480140000400400008004099
:101DB0000700010000680449884203D103494879BB
:101DC000401C4871704700000008004006000020D9
:101DD000704790F88410012918D0012180F88410F0
:101DE0002421C0F8881001680A680B6823F00103F9
:101DF0000B6022F000510022426603681960202126
:101E0000C0F8881080F88420104670470220704780
:101E10007047704770B5044690F8840001281DD0C3
:101E2000012084F884002420C4F888002068056814
:101E3000026822F0010202602068826822F060627B
:101E40000A438260204601F0F5FB206805602020EF
:101E5000C4F88800002084F8840070BD022070BDA2
:101E600070B5044690F8840001281DD0012084F844
:101E700084002420C4F8880020680568026822F0E5
:101E8000010202602068826822F060420A43826098
:101E9000204601F0CFFB206805602020C4F88800B0
:101EA000002084F8840070BD022070BD7047704728
:101EB000704700002DE9F04103680446D8691968AD
:101EC0009A6840F60F0528424FF000054FF00206D1
:101ED0000AD187067ED501F0200702F0805C57EA20
:101EE0000C0777D0616F3AE1B24FDFF8CCC21740F0
:101EF00001EA0C0C57EA0C0C6CD05FEAC07C0CD0E9
:101F00005FEAC15C09D54FF0010CC3F820C0D4F8DA
:101F1000903043F00103C4F89030830709D5D3070C
:101F200007D023681E62D4F8903043F00403C4F84D
:101F3000903043070AD5D30708D0266804233362BC
:101F4000D4F8903043F00203C4F8903003070CD566
:101F500001F020033B4308D0266808233362D4F8FD
:101F6000903043F00803C4F8903003050BD54B01C3
:101F700009D526684FF400633362D4F8903043F0FB
:101F80002003C4F89030D4F89030002B3DD0800668
:101F900009D501F0200002F08051084303D0616FA1
:101FA00009B120468847D4F890002168896849061D
:101FB00002D410F0280F2AD0204601F021FC20681E
:101FC000806840061ED52068083050E8001F21F0C8
:101FD000400100E021E040E80012002AF3D1D4F8EB
:101FE000800078B175498163D4F88000FEF715FC54
:101FF00000280AD0D4F88000816B00E02046BDE8BC
:10200000F04108472046FFF753FFBDE8F081204626
:10201000FFF74EFFC4F89050F7E7D4F86CC02027C4
:10202000BCF1010F7ED15FEAC06C7BD55FEAC16C69
:1020300078D51020186220688068400645D5D4F80D
:102040008010086840680004000CDED0B4F85C2002
:102050008242DAD9A4F85E000868006880062CD4B1
:10206000216851E8000F20F4807041E80002002A46
:10207000F6D12068083050E8001F21F0010140E847
:102080000012002AF5D12068083050E8001F21F026
:10209000400140E80012002AF5D1C4F88C70E566D2
:1020A000206850E8001F21F0100140E80012002ACB
:1020B000F6D1D4F88000FEF77BFB2667B4F85C000D
:1020C000B4F85E10401A81B230E0B4F85C00B4F8A5
:1020D0005E10401A81B2B4F85E00002895D0002945
:1020E00093D0226852E8000F20F4907042E8000379
:1020F000002BF6D12F4BDB432068083050E8002F2F
:102100001A4040E8002CBCF1000FF5D1C4F88C70E7
:10211000E5666567226852E8000F20F0100042E88B
:10212000000300E006E0002BF4D126672046FFF70D
:102130006FFE6AE7C60209D5560207D54FF4801034
:1021400018622046BDE8F041FFF7B1BE03060AD58C
:1021500001F0800302F40002134304D0A16F0029B0
:102160007FF44CAF51E7420611D54A060FD5204601
:10217000026852E8001F21F0400142E80013002BE2
:10218000F6D1C0F88870856700F03BF93DE70202A0
:1021900006D54A0004D52046BDE8F041FFF786BECB
:1021A000C001C6D50029C4DA2046BDE8F041FFF7DA
:1021B00030BE00000100001020010004ED370008CF
:1021C00010B5040003D0D4F8880010B107E0012056
:1021D00010BD002084F88400204600F027F8242059
:1021E000C4F888002068016821F001010160A06A3C
:1021F00010B1204601F040FA204601F02BFB0128E7
:10220000E6D02068416821F49041416020688168EF
:1022100021F02A0181602068016841F0010101601C
:102220002046BDE8104001F08BBA000010B598B010
:102230000446142111A8FEF723F844216846FEF74E
:102240001FF81B492068884230D101200024CDE9C5
:1022500000046846FEF75CFD08B1FEF7A7FA1548D2
:10226000016E41F480410166016E01F480411691D6
:10227000C16C41F00101C164C06C11A900F0010002
:1022800016904FF4C06011900220CDE9120407208F
:10229000CDE914404FF09040FEF70EFB00221146AE
:1022A0002520FEF79DFC2520FEF78CFC18B010BD04
:1022B000003801400010024070B52DED028B82B055
:1022C000194A01681948914202D10268202111621D
:1022D0000068426A174C1649607A0A54401C6072C2
:1022E00008783F281CD1E078FEF744F89FED128B68
:1022F00053EC182BFDF7CFFF05460E466078FEF72E
:1023000039F853EC182BFDF7C6FF41EC100BCDE963
:10231000005653EC102B0AA001F02EFC0020607236
:1023200002B0BDEC028B70BD00380140E800002017
:102330003C000020060000200000000000002440B7
:10234000583A25322E31662C593A25322E31660DF7
:102350000A0000002DE9F8430446D0F888009846AA
:1023600016460D46202802D00220BDE8F883A5B10C
:102370009EB10020C4F890002120C4F888001834D1
:10238000FEF7C8FBA6878146E68754F8100C202785
:10239000183CB0F5805F02D003E00120E5E720693A
:1023A00010B12E46002510E000260EE080212046C8
:1023B00001F08AFBC0B9DEB116F8010B2168886212
:1023C000B4F85600401EA4F85600B4F856004B4628
:1023D0004FF00002CDF800800028E7D14FF0400117
:1023E000204601F071FB40B1C4F888700320BCE7BF
:1023F00035F8020BC0F30800E0E7C4F8887000204D
:10240000B3E77047FEE7000000B585B014216846C9
:10241000FDF736FFC02000900120019002900220BD
:10242000039069460248FEF747FA05B000BD000078
:102430000004004870B50446082516E000F02CFEA4
:10244000142002F03BF804F0800000F053FE14204A
:1024500002F034F86006040E142002F02FF8012078
:1024600000F01AFE142002F029F86D1EEDB24FF0B4
:102470000000E3D200F010FEBDE87040142002F02E
:102480001DB810B5012000F035FE142002F016F83A
:10249000012000F001FE142002F010F8002000F0EE
:1024A00029FE142002F00AF8002000F0F5FDBDE836
:1024B0001040142002F002B810B5002000F0ECFD2E
:1024C000142001F0FBFF002000F014FE142001F0A6
:1024D000F5FF012000F0E0FD142001F0EFFF0120E6
:1024E00000F008FEBDE81040142001F0E7BF10B571
:1024F000052400F0E9FD142001F0E0FF012000F0C8
:10250000CBFD142001F0DAFF05E0641EA4B2142014
:1025100001F0D4FF6CB100F0CBFD0028F5D100F044
:10252000F5FD002000F0B8FD142001F0C7FF0020E9
:1025300010BD00F0EBFDFFF7BFFF012010BD000054
:102540002DE9FC473F4C002780462178012832D0F6
:1025500020464FF00A0990F802C04378C679B8F1D6
:10256000020F2FD00546B8F1030F2879EA782D7AAB
:1025700047D0B8F1040F1CD100291AD1401B20719B
:10258000ACEB0600A07016FB03F015FB0200FDF794
:10259000F1FE9FED2D1B53EC112BFDF77CFECDE9D9
:1025A00000012A4631462AA001F0E6FAE7712772B7
:1025B0006771BDE8FC87491CC8B220700228F8D9B1
:1025C0002770F6E711B1012907D011E0761CF0B2AF
:1025D000E0716045EDD9E771EBE75B1CD8B2607044
:1025E0001528E6D3484684F80190022101F06CFFDB
:1025F00020780228DDD1A078401CC0B2A070002154
:102600001CE011B1012907D010E06D1CE9B2217264
:102610008142CED92772CCE7521CD1B2E170152984
:10262000C7D384F80390012101F04EFF20780228DF
:10263000BFD12079401CC0B220710321BDE8FC4706
:1026400001F042BF0600002000000000000024400E
:10265000583A25642C793A25642C7A3A252E31662D
:102660000000000070B52D4D2D4C4FF09046A8791C
:1026700001282CD101212046FEF742FA70B1022137
:102680002046FEF73DFA48B104212046FEF738FA0D
:1026900020B101213046FEF733FAC0B90020A871FD
:1026A0000A20FEF7F7F801212046FEF729FA88B143
:1026B00002212046FEF724FA70B104212046FEF7DD
:1026C0001FFA58B101213046FEF71AFA40B1A87935
:1026D00040B120E0012070BD022070BD032070BD1C
:1026E000042070BD01212046FEF70AFA012812D10C
:1026F00002212046FEF704FA01280CD104212046CD
:10270000FEF7FEF9012806D101213046FEF7F8F95F
:10271000012800D1A871002070BD00000600002033
:102720000004004800B585B014216846FDF7A8FDF7
:102730004FF6FF70009000200321CDE902010190C7
:1027400069460248FEF7B8F805B000BD0008004829
:1027500000B585B014216846FDF792FD4FF6FF7075
:102760000090012001900320039000200290694610
:102770000248FEF7A1F805B000BD000000080048BF
:1027800070B5002406462146204600F003F900F00B
:1027900041F94FF49635304600F010F9641CAC4214
:1027A000F9D370BD30B587B014216846FDF768FDD8
:1027B0001E48C16C41F00401C164C16C01F0040108
:1027C0000591C16C41F00101C164C16C01F00101CE
:1027D0000591C16C41F00201C164C06C012500F09B
:1027E000020005904FF44870CDE9000500240394E1
:1027F000694602940E48FEF75FF8280203940090A1
:10280000CDE901544FF0904469462046FEF754F854
:10281000FFF79EFFA06940F48070A0610448183063
:10282000016841F40871016007B030BD001002403A
:1028300000040048203AD2B2034B02EB420203EB01
:10284000021200F019B800006C470008F0B50E46FF
:102850000746002540F23F1407E021463846FFF7BF
:10286000E9FF103C6D1CA4B2761C3278002A01D01E
:10287000142DF2D3F0BD00002DE9F04791468A46B1
:102880000026044600F086F8DFF84080012700BFEC
:1028900000F0C0F85FF0000539F8160007FA05F1FE
:1028A0000842404601D1408800E0008800F086F8E8
:1028B0006D1C102DF0D3641CE4B25146204600F08C
:1028C00069F8761C182EE3D3BDE8F08700000020DD
:1028D00010B5FFF767FF002000F014F8084CA08047
:1028E000A088A0F50241303906D000F0D3FA0020CC
:1028F00000F008F8A08010BD00F043FAF7E70000F0
:102900000000002070B51D490A6842F400720A6098
:102910000A6842F480720A60184C103C226842F047
:1029200020022260164A1060086840F0200008600B
:1029300000BF00BF00BF206840F02000206020687A
:1029400040F480702060FFF7EDFE4FF09041886A00
:1029500040F48070886200BF00BF00BF0848001FBD
:10296000006885B2886940F480708861FFF7F0FEE6
:10297000206840F400702060284670BD280400489C
:102980001408004801B5BDF800000149488008BDA1
:102990000000002010B50C460146202000F068F829
:1029A0002146BDE81040212000F062B801B5BDF815
:1029B00000000149088008BD00000020134A11688A
:1029C00041F400711160114910390B6843F48073B0
:1029D0000B600B6843F020030B600D4B1860106810
:1029E00040F02000106000BF00BF00BF086840F04A
:1029F00020000860086840F48070086000BF00BFD5
:102A000000BF086840F40070086070472804004860
:102A1000140800481449086840F400700860086809
:102A200040F48070086010481038026842F02002BC
:102A300002600E4B22221A600A6842F020020A60ED
:102A400000BF00BF00BF016841F0200101600168C4
:102A500041F48071016000BF00BF00BF016841F414
:102A60000071016070470000280400481408004805
:102A7000184B10B51A6842F400721A601A6842F4D2
:102A800080721A60134A103A146844F020041460EB
:102A9000114C2060186840F02000186000BF00BF93
:102AA00000BF106840F020001060106840F4807093
:102AB00010602160186840F02000186000BF00BF5F
:102AC00000BF106840F020001060106840F4807073
:102AD000106010BD280400481408004870B50D4D62
:102AE0000446012204212846FEF70FF80A4E01226F
:102AF0004FF47F413046FEF708F8210200223046AD
:102B0000FEF703F82846BDE8704000220421FDF7D7
:102B1000FCBF0000000C0048000800482DE9F04F01
:102B200087B014216846FDF7ABFB3F48C16C41F00C
:102B30000401C164C16C01F004010591C16C41F054
:102B40002001C164C16C01F020010591C16C41F00C
:102B50000101C164C16C01F001010591C16C41F03A
:102B60000201C164C16C01F002010591C16C41F028
:102B70000801C164C06CDFF8B48000F008004FF6B3
:102B8000FF740590002221464046FDF7BEFF4FF43A
:102B900080764FF09049002231464846FDF7B5FF58
:102BA000DFF88CA0002204215046FDF7AEFFDFF8CD
:102BB00084B04FF47877002239465846FDF7A5FFD8
:102BC0000125CDE90045002402946946404603945E
:102BD000FDF772FECDE90054694648460295FDF7BF
:102BE0006BFE07208DE8310069465846FDF764FE0C
:102BF0000096CDE90154694648460394FDF75CFE12
:102C000004200090CDE90154694650460394FDF735
:102C100053FE0097CDE90154694658460394FDF7E9
:102C20004BFE07B0BDE8F08F0010024000080048DE
:102C3000000C00480004004810B58AB00024079436
:102C400008941C2168460994FDF71AFB15484FF0BB
:102C5000804101603221C0E9011441F6DC61C0E924
:102C600003148461FEF7E3FF08B1FDF79FFD0794AD
:102C700007A90C480994FEF7F5FC08B1FDF796FD8D
:102C80006020CDE9000402940422694605480494BA
:102C9000FEF73BFF08B1FDF789FD0248FEF70EFF86
:102CA0000AB010BD5000002010B588B000241848AC
:102CB0000094019402940394049405941349069497
:102CC000016042F20F71C0E9011441F63F71C0E9A1
:102CD00003148461FEF715FD08B1FDF767FD4FF49D
:102CE0008050009069460A48FEF796FD08B1FDF74E
:102CF0005DFD049404A906480694FEF7B3FC002881
:102D000001D0FDF753FD08B010BD000000080040E1
:102D10009C000020184810B5164901604FF4E131BD
:102D20004160002181600C22C160C0E90412816110
:102D3000C161016241628162FFF742FA08B1FDF7A9
:102D400035FD00210C48FFF78BF808B1FDF72EFD8B
:102D500000210948FFF75EF808B1FDF727FD064896
:102D6000FFF737F8002803D0BDE81040FDF71EBD7F
:102D700010BD000000380140E8000020FEE7FEE73B
:102D8000704730B501210020FFF772FE4FF47A70D2
:102D9000FDF7FEFC00210120FFF76AFE41F2907171
:102DA0001020FFF765FE4FF41C516020FFF760FE16
:102DB00001216120FFF75CFE02214620FFF758FE4B
:102DC00048F210011320FFF753FE48F2FE011220D3
:102DD000FFF74EFE4FF4A0610220FFF749FE41F2DB
:102DE00030010320FFF744FE40F203342146302037
:102DF000FFF73EFE21463120FFF73AFE2146322002
:102E0000FFF736FEE51E29463320FFF731FE03218A
:102E10003420FFF72DFE21463520FFF729FE14212F
:102E20003620FFF725FE21463720FFF721FE2146F9
:102E30003820FFF71DFE21463920FFF719FE2946ED
:102E40003A20FFF715FE03213B20FFF711FE214634
:102E50003C20FFF70DFE4FF4A0513D20FFF708FE88
:102E60004FF400719220FFF703FE21469320FFF7F5
:102E7000FFFD40F60D019020FFF7FAFD41F2180129
:102E80000320FFF7F5FDBDE8304040F27311072045
:102E9000FFF7EEBD10B543F20801E320FFF7E8FDB0
:102EA0001221E720FFF7E4FD41F23121EF20FFF787
:102EB000DFFD00210120FFF7DBFD4FF4E061022080
:102EC000FFF7D6FD41F230010320FFF7D1FD0021CD
:102ED0000420FFF7CDFD40F207210820FFF7C8FDD1
:102EE00000210920FFF7C4FD00210A20FFF7C0FDE3
:102EF00000210C20FFF7BCFD00210D20FFF7B8FDDD
:102F000000210F20FFF7B4FD00211020FFF7B0FDD6
:102F100007211120FFF7ACFD00211220FFF7A8FDCB
:102F200000211320FFF7A4FDC820FDF7B3FC41F2F8
:102F300090611020FFF79CFD40F227211120FFF740
:102F400097FD3220FDF7A6FC1D211220FFF790FD12
:102F50003220FDF79FFC4FF400611320FFF788FD3E
:102F600014212920FFF784FD0B212B20FFF780FD82
:102F70003220FDF78FFC00212020FFF779FD002192
:102F80002120FFF775FD07213020FFF771FD40F28A
:102F900007713120FFF76CFD06213220FFF768FD35
:102FA00040F204713520FFF763FD41F604713620CD
:102FB000FFF75EFD04213720FFF75AFD002138207E
:102FC000FFF756FD40F206713920FFF751FD40F240
:102FD00001713C20FFF74CFD0F213D20FFF748FD1C
:102FE00000215020FFF744FDEF215120FFF740FD65
:102FF00000215220FFF73CFD40F23F115320FFF724
:1030000037FD4FF41C516020FFF732FD0121612094
:10301000FFF72EFD00216A20FFF72AFD0021802006
:10302000FFF726FD00218120FFF722FD00218220ED
:10303000FFF71EFD00218320FFF71AFD00218420E9
:10304000FFF716FD00218520FFF712FD10219020CB
:10305000FFF70EFD00219220FFF70AFD03219320C8
:10306000FFF706FD4FF488719520FFF701FD002161
:103070009720FFF7FDFC00219820FFF7F9FC41F2B3
:1030800018010320FFF7F4FCBDE8104040F2731173
:103090000720FFF7EDBC000008B1044801E0034839
:1030A0001030016841F04001016070471804004889
:1030B00010B580210348FDF723FD012800D0002032
:1030C00010BD00000004004800B585B0142168461A
:1030D000FDF7D6F88020009000200190012002909A
:1030E0000220039069460248FDF7E6FB05B000BDEB
:1030F0000004004808B1044801E0034810300168AA
:1031000041F08001016070471804004800B585B0A7
:1031100014216846FDF7B4F880200090112001903A
:10312000002002900220039069460248FDF7C4FB8C
:1031300005B000BD000400487047FDF7F1BC10B5B4
:1031400094B038216846FDF79BF814210EA8FDF7CE
:1031500097F84FF40070FDF775FD01200090000412
:10316000019002200324CDE907041421CDE90A10BF
:103170000C900D9009946846FEF758F808B172B6A5
:10318000FEE70F20CDE90E04002010901190129060
:1031900002210EA8FDF700FF002801D072B6FEE75D
:1031A00014B010BD0248016841F47001016070471D
:1031B00088ED00E00148FEF7B0BB00009C00002055
:1031C0002DE9F0430268264B264D274E274C4FF041
:1031D0008049984207D0484505D0A84203D0B04264
:1031E00001D0A04203D122F070074A683A43204F31
:1031F000DFF880C0DFF8808098420DD048450BD0C2
:10320000A84209D0B04207D0A04205D0B84203D0AE
:10321000604501D0404503D122F44075CA682A4375
:103220004D6922F080022A4302608A68C2620A68FD
:103230008262984207D0A04205D0B84203D06045D0
:1032400001D0404501D10969016301214161016952
:10325000C90703D0016921F001010161BDE8F083D4
:10326000002C0140000400400008004000340140F0
:1032700000400140004401400048014010B501F009
:103280001F030121046A99408C430462016A9A4039
:103290001143016210BD10B5846842EA032224F490
:1032A0007F440A432243826010BD00008268034BC2
:1032B0001A400A4342F00701816070478FFFCFFF39
:1032C0002DE9F043056A026A22F0010202624368B6
:1032D00082691C4C25F0020522400C6822F0030292
:1032E00014438A68194E2A43174D194FDFF864C0FA
:1032F000DFF86490A84207D0B04205D0B84203D0AE
:10330000604501D0484506D122F00808CA6842EA63
:10331000080222F00402A84207D0B04205D0B84209
:1033200003D0604501D0484505D14D6923F4407371
:103330001D438B692B43436084614968416302628A
:10334000BDE8F0838FFFFEFF002C014000340140F8
:10335000004001400044014000480140F0B5056ACA
:10336000026A22F01002026242688369194C1B4E05
:1033700023400C6823F4407343EA042425F020031F
:103380008D6843EA0513144DA84201D0B04206D11E
:10339000CF6823F0800343EA071323F04003A842D9
:1033A0000AD0B04208D00E4DA84205D00D4DA8421B
:1033B00002D00D4DA84207D14D6922F4406242EA85
:1033C00085028D6942EA85024260846149688163B1
:1033D0000362F0BDFF8FFFFE002C0140003401406E
:1033E000004001400044014000480140F0B5056A3A
:1033F000026A22F4807202624368C269194C1B4E51
:1034000022400C6822F00302144325F400728D68F8
:1034100042EA0522144DA84201D0B04206D1CF683D
:1034200022F4006242EA072222F48062A8420AD013
:10343000B04208D00E4DA84205D00E4DA84202D091
:103440000D4DA84207D14D6923F4405343EA0513BB
:103450008D6943EA05134360C4614968C163026230
:10346000F0BD00008FFFFEFF002C01400034014042
:10347000004001400044014000480140F0B5056AA9
:10348000026A22F4805202624268C369194C1B4EE0
:1034900023400C6823F4407343EA042425F40053CA
:1034A0008D6843EA0533144DA84201D0B04206D1DD
:1034B000CF6823F4004343EA073323F48043A84250
:1034C0000AD0B04208D00E4DA84205D00D4DA842FA
:1034D00002D00D4DA84207D14D6922F4404242EA84
:1034E00085128D6942EA85124260C46149680164AF
:1034F0000362F0BDFF8FFFFE002C0140003401404D
:1035000000400140004401400048014030B5056AD8
:10351000026A22F4803202624268036D114C234039
:103520000C681C4325F400330D8943EA05430E4D16
:10353000A8420BD00D4DA84208D00D4DA84205D091
:103540000C4DA84202D00C4DA84204D14D6922F482
:10355000803242EA05224260046549688164036260
:1035600030BD00008FFFFEFF002C01400034014001
:1035700000400140004401400048014030B5046A69
:10358000026A22F4801202624268036D114D24F433
:1035900000142B400D6843EA05230D8944EA0554C5
:1035A0000D4DA8420BD00D4DA84208D00C4DA8429D
:1035B00005D00C4DA84202D00B4DA84204D14D6954
:1035C00022F4802242EA8522426003654968C16490
:1035D000046230BDFF8FFFFE002C0140003401402B
:1035E00000400140004401400048014010B5036A1A
:1035F000046A24F001040462846924F0F00444EABB
:10360000021423F00A020A438461026210BD10B55D
:10361000036A046A24F010040462846923F0A0039E
:1036200024F4704444EA023243EA011182610162E7
:1036300010BD000030B5416EB9B102689168926862
:10364000C1F342610B4B520F9C5CE50003F108048F
:10365000A25CB5FBF2F2A0F86A205A5C615CD20071
:10366000B2FBF1F1A0F8681030BD0121A0F86A109A
:10367000F8E700005459000890F82810090706D50B
:1036800001684A68836B22F400421A434A6090F84A
:103690002810C90706D001684A68C36A22F40032BC
:1036A0001A434A6090F82810890706D501684A68CD
:1036B000036B22F480321A434A6090F828104907BD
:1036C00006D501684A68436B22F480221A434A6097
:1036D00090F82810C90606D501688A68C36B22F4E1
:1036E00080521A438A6090F82810890606D501682E
:1036F0008A68036C22F400521A438A6090F82810FA
:10370000490611D501684A68436C22F480121A43B5
:103710004A60416CB1F5801F06D101684A68836C2C
:1037200022F4C0021A434A6090F82810090606D510
:1037300001684A68C06C22F4002202434A60704764
:103740002DE9F84300260446C0F89060FDF7E2F941
:103750008046206800684FF0200500076FF07E4724
:1037600013D54346002229042046009700F0ACF907
:1037700058B1216851E8000F20F0800041E80002B4
:10378000002AF6D1C4F8885021E02068006840077C
:1037900022D5434600224FF480012046009700F0D6
:1037A00093F9C8B1216851E8000F20F4907041E806
:1037B0000002002AF6D12068083050E8001F21F0EE
:1037C000010140E80012002AF5D1C4F88C5084F8B9
:1037D00084600320BDE8F883C4F88850C4F88C5096
:1037E00044F86C6F666026760020F3E710B5806AB7
:1037F0000021A0F85E10A0F85610FEF759FB10BD8E
:1038000010B5026852E8001F21F4907142E80013DD
:10381000002BF6D10E4B0268083252E8001F194007
:1038200042E80014002CF6D1C16E012908D10168CC
:1038300051E8002F22F0100241E80023002BF6D1BE
:103840002021C0F88C100021C166416710BD000026
:10385000FEFFFFEF2DE9F041044601688068226910
:10386000E3691043626900251A431043DFF82CC254
:103870000A688B4B1A4002430A6020684168E2687C
:1038800021F44051114341602168A069614501D094
:10389000226A10438A68834B1A4002438A60206878
:1038A000C16A626A21F00F011143C1627E49236837
:1038B0007E488B420DD1D0F8880010F0030006D06E
:1038C000012855D0022842D003283FD152E00120E0
:1038D0003DE077498B420BD1D0F8880010F00C0006
:1038E00035D0042833D0082840D00C282ED141E010
:1038F00070498B420BD1D0F8880010F0300026D0F0
:10390000102835D0202831D030281FD132E06A4924
:103910008B420BD1D0F8880010F0C00017D040289F
:1039200026D0802822D0C02810D123E063450DD1B5
:10393000D0F8880010F4406009D0B0F5806F17D03F
:10394000B0F5006F12D0B0F5406F13D010205B4976
:103950005B4F00264FF4004263453BD160B1022823
:1039600013D004280BD0082872D10DE00220EEE716
:103970000420ECE70820EAE7FDF7FCFB01E0FDF797
:103980001DFC010001D17CE01146606A37F810206F
:103990006768B1FBF2F007EB4703834270D8B0EBE6
:1039A000073F6DD8002308461946FCF731FC090291
:1039B00041EA106102027808101871413A4600236A
:1039C000FCF726FC3F4AA0F54071914258D8216887
:1039D000C86056E0E3694FF6EF7893422CD109288E
:1039E0004ED2DFE800F00508114D0D4D4D4D100091
:1039F000FDF7C0FB01E0FDF7CFFB010004D140E083
:103A0000FDF7DCFBF9E71146606A37F81000B1FBFF
:103A1000F0F04100606801EB5001B1FBF0F0A0F163
:103A2000100141452CD84FF6F0710140C0F342001F
:103A300001432068C16024E0092821D2DFE800F0BA
:103A4000050912200E2020201100FDF793FB02E053
:103A500016E0FDF7A1FB010004D112E0FDF7AEFB7B
:103A6000F9E71146606A37F81000B1FBF0F16068C1
:103A700001EB5001B1FBF0F0A0F1100141450AD972
:103A800001250120A4F86A0024F8680F2846E660A2
:103A90002661BDE8F08180B299E700000080004017
:103AA000F369FFCFFFF4FF1100380140001002401E
:103AB0000044004000480040004C00400024F40056
:103AC0003C590008FFFC0F002DE9F04799461746C6
:103AD0000D4604464FF00008089E33E0701C31D0BC
:103AE000FDF718F8A0EB0900B04218D8BEB1206865
:103AF0000168490726D5802D24D0402D22D0C169E8
:103B0000C94309070DD4082505622046FFF778FE52
:103B1000C4F8905084F884800120BDE8F087032029
:103B2000FBE7C069C04300050CD421684FF4006076
:103B300008622046FFF764FE2020C4F8900084F855
:103B40008480ECE72068C06935EA000004D00020DA
:103B5000B842C3D00020E0E70120F9E710B50448DF
:103B6000FEF7AAFBBDE810400148FEF7A3B900002C
:103B7000E8000020FEE700000FB4054B10B503A9D4
:103B8000044A029800F0FEF810BC5DF814FB000037
:103B9000F9440008240000200FB4084B10B504A914
:103BA00002AA039800F0EEF8044602A9002000F0F3
:103BB00080FC204610BC5DF814FB0000B3440008F4
:103BC0000907090E002804DB00F1E02080F800144A
:103BD000704700F00F0000F1E02080F8141D7047DE
:103BE00002E008C8121F08C1002AFAD170477047C6
:103BF000002001E001C1121F002AFBD17047000024
:103C00002DE9FF5F82B00021DDE90430020DDDF80F
:103C100040B0034318D044F61050A2F2FF324243A2
:103C20001514119801281FD0A5EB0B00401C5FEA6A
:103C3000000A4FF000064E4FDFF83891B04650466C
:103C400015D5CAF1000413E0119801244AA30128F4
:103C500001D16FEA0B010298119AC0E90031C0E965
:103C6000024206B0BDE8F09FCBF10000DFE704465A
:103C70000021404A491842EB0450CDE9001012E0FF
:103C8000E00707D032463B4640464946FCF7B8FCC1
:103C90008046894632463B4610461946FCF7B0FC42
:103CA00006460F466410002CEAD1DDE90401DDE987
:103CB0000023BAF1000F06DAFCF7A2FC42464B469D
:103CC000FCF79EFC05E0FCF7E6FA42464B46FCF7A3
:103CD000E2FA04460E460022284BFCF71BFD03D8EF
:103CE0004FF0FF30014607E00022254B20463146C9
:103CF000FCF7DFFBFCF7F6FC102409E0002C0ADBE4
:103D00000A220023FCF784FA039B30321A55641E02
:103D100050EA0102F2D1641C039AC4F11103144465
:103D2000119A012A03D0012208430DD10AE0084369
:103D300004D000204FF0110B119072E7A3EB0B059C
:103D40006D1E0DE05B4504DD4FF0000205F101053D
:103D500004E003DA4FF00002A5F10105002AECD0DF
:103D600002981199C0E90231C0E9004579E70000E5
:103D7000000014400000F03F300000000000F0435D
:103D80000000E03F2DE9FF4F95B09B46894606466F
:103D900000250FE2252877D100242746F84A012183
:103DA000059400E0044316F8013F203B01FA03F0BC
:103DB0001042F7D130782A2811D06FF02F033078D5
:103DC000A0F13002092A16D8059A44F0020402EB49
:103DD000820203EB42021044761C0590EFE759F88B
:103DE000042B0592002A03DA504244F40054059053
:103DF00044F00204761C30782E2816D116F8010FF4
:103E000044F004042A280DD06FF02F023078A0F17E
:103E10003003092B09D807EB870302EB4303C718CC
:103E2000761CF3E759F8047B761C30786C280FD0A9
:103E300006DC4C2817D068280DD06A2814D104E07D
:103E4000742810D07A280FD10DE044F400140AE051
:103E500044F4801401E044F440147278824202D1A8
:103E600004F58014761C761C307866280BD013DCA1
:103E7000582877D009DC002875D04528F6D0462888
:103E8000F4D047281AD19DE118E0632835D0642882
:103E900079D0652812D195E1702873D008DC6728A5
:103EA000F1D069286FD06E280DD06F2806D1B5E00B
:103EB00073282CD0752875D0782874D05A46179955
:103EC00090476D1C75E1C4F30250022809D0032805
:103ED0000DD0D9F8001004280DD00D6009F10409A7
:103EE00067E1D9F80010EA17C1E90052F6E7D9F8FE
:103EF00000100D80F2E70D70F0E719F8041B8DF843
:103F0000001000208DF80100EA46012003E059F876
:103F100004AB4FF0FF3061074FF0000102D40DE019
:103F200008F101018846B9420FDA8045F8DB1AF83A
:103F300008100029F4D108E008F101018846814207
:103F4000FADB1AF808100029F6D105985B46A0EBB9
:103F5000080721463846179A00F094FA284400EBE7
:103F6000080507E04DE029E10DE01AF8010B5A467B
:103F700017999047B8F10108F7D25B4621463846B9
:103F8000179A13E142E00A220092C4F302524FF062
:103F9000000A022A08D059F804CB032A4FEAEC7130
:103FA0000AD00DE029E02AE009F1070121F007021B
:103FB000F2E802C1914609E00FFA8CFC4FEAEC717D
:103FC000042A03D14FFA8CFC4FEAEC71002907DA7E
:103FD0000A460021DCF1000C61EB02012D2202E017
:103FE000220504D52B228DF80420012203E0E207EC
:103FF00001D02022F7E7904659E00A2102E0102282
:104000000DE010214FF0000A00910BE010224FF05C
:10401000000A44F004040827009203E008224FF04D
:10402000000A0092C4F30252022A05D059F804CBC8
:104030000021032A08D009E009F1070121F0070255
:10404000F2E802C1914605E01FFA8CFC042A01D176
:104050000CF0FF0C4FF00008220728D5702806D07E
:10406000009B83F0100353EA0A0305D00EE04022C0
:104070008DF80420012208E05CEA010206D030221B
:104080008DF804208DF8050002229046009B83F0F5
:10409000080353EA0A030AD15CEA010201D162076C
:1040A00005D530228DF804204FF001087F1E5828D6
:1040B00004D034A003900EA802900DE036A0F9E7DA
:1040C00053466046009AFCF7A3F884460398825C46
:1040D0000298401E029002705CEA0100F0D1029842
:1040E00006A9081A00F1200A600702D524F48034DA
:1040F00000E00127574502DDA7EB0A0000E00020A1
:1041000000EB0A01009005984144401A0590E00335
:1041100006D45B462146179A059800F0B3F905448A
:10412000002706E001A85A46C05D179990476D1C0C
:104130007F1C4745F6DBE0030CD55B462146179A0A
:10414000059800F09FF9054404E030205A4617997D
:1041500090476D1C0099481E00900029F5DC08E08E
:10416000029802995A460078491C02911799904783
:104170006D1CBAF10001AAF1010AF1DC65E1000051
:10418000092801003031323334353637383961622D
:1041900063646566000000003031323334353637F1
:1041A00038394142434445460000000000F058F9C8
:1041B0000544761C307800287FF4ECAD19B0284611
:1041C000BDE8F08F620700D4062709F1070222F04C
:1041D000070CFCE80223E14603F000485FEA080C04
:1041E00002D00FF2702C0DE05FEA045C02D50FF2F2
:1041F000682C07E05FEAC47C02D00FF2602C01E07B
:10420000AFF2700C4FF0FF3823F00043CDF850C0F0
:1042100065280CD006DC452809D046281DD0472843
:104220003DD13DE0662818D067287ED138E00021D6
:10423000112F01DB112000E0781CCDE9000106A957
:104240000EA8FFF7DDFCDDE90F010E9A03910021B6
:10425000009207F1010A04914DE04FF000400097F1
:10426000CDE9011006A90EA8FFF7CAFCDDE90F028F
:1042700003920E9B11990022DDF80CA0009304928A
:1042800011B9791C00EB010AB7EB0A0004D4C0F1A4
:10429000FF3007F1010A0490AAEB0700019044E007
:1042A000012F00DA01270021112F01DD112000E08C
:1042B0003846CDE9000106A90EA8FFF7A1FCDDE90B
:1042C0000F010E9A0391002104910092BA46210732
:1042D0000CD40399514500DA8A46BAF1010F05DD85
:1042E000009AAAF10101515C302908D0B84202DAE3
:1042F00010F1040F06DA0121CDE9011015E0AAF151
:104300000101E9E7002805DC049901440491AAEBC6
:10431000000102E0411C514500DD8A460499401A23
:10432000401C01904FF000400290200704D40198F7
:10433000504501DBCDF8048000208DF84F00029835
:104340000DF14F07B0F1004F25D02B200E900298B1
:104350004FF0020800280CDA404202902D200E9007
:1043600007E00A210298FCF712F83031029007F8B2
:10437000011DB8F10001A8F10108F2DC0298002843
:10438000EFD1791E0E980870307800F0200040F0D0
:10439000450007F8020D12A8C01B00F10708149889
:1043A000007800B1012000EB0A01019801EBE071F7
:1043B00005984144401A401E0590E00306D45B4630
:1043C0002146179A059800F05DF805441498007886
:1043D00018B15A46179990476D1CE00324D55B46E7
:1043E0002146179A059800F04DF805441CE0049802
:1043F000002807DBDDE90301884203DD0098405C0B
:10440000179901E0179930205A469047049805F112
:104410000105401C04900198401E019004D12E20FB
:104420005A46179990476D1CBAF10001AAF1010A8A
:10443000DDDC05E017F8010B5A46179990476D1C13
:10444000B8F10001A8F10108F4DC5B462146179A97
:104450000598ABE62D0000002B00000020000000B6
:104460002DE9F041044600251E461746880404D471
:1044700005E039462020B0476D1C641EF9D528465A
:10448000BDE8F0812DE9F041044600251E46904626
:10449000C80301D5302700E02027880404D505E0B3
:1044A00041463846B0476D1C641EF9D52846BDE824
:1044B000F0810A68531C0B6010707047002100E007
:1044C000491C8142FCD3704770B50D460446FDF788
:1044D000D8FFA020FDF7AEFFFEF709F82046FDF754
:1044E000A9FFFEF704F82846FDF7A4FFFDF7FFFF3C
:1044F000BDE87040FDF7E0BF13B5322301226946E5
:104500000248FDF727FF00981CBD0000E8000020CE
:1045100010B5354C2DED028B2078A8B933A1302091
:10452000FEF794F9E27935A13848FFF735FB3749B2
:104530006020FEF78BF9227A35A13448FFF72CFB77
:1045400032497820FEF782F9207801282BD134A156
:104550003020FEF77BF96078FBF70CFF9FED348B82
:1045600053EC182BFBF797FE41EC100B32A153ECE8
:10457000102B2648FFF710FB24496020FEF766F950
:10458000E078FBF7F7FE53EC182BFBF784FE41ECC9
:10459000100B2EA153EC102B1C48FFF7FDFA1B4902
:1045A0007820FEF753F92078022819D12CA1302069
:1045B000FEF74CF9A2782EA11448FFF7EDFA134943
:1045C0006020FEF743F922792EA11048FFF7E4FAA4
:1045D000BDEC028B7820BDE810400C49FEF736B9DF
:1045E000BDEC028B10BD0000060000202020202022
:1045F000202020202053484F502000002020202041
:104600002020202020783A25642000002800002067
:10461000202020202020202020793A25642000001E
:1046200020202020202020202050524943450000F7
:104630000000000000002440202020202020202016
:1046400020783A25322E316620202000202020209C
:104650002020202020793A25322E3166202020008B
:104660002020202020202020205245502020000003
:10467000202020202020202020783A25642020207F
:1046800000000000202020202020202020793A2532
:10469000642020200000000010490F480A680146ED
:1046A0004379897A052B04D241F001018172962168
:1046B00003E021F00101817219219163817802796F
:1046C0001143817A05D021F002018172C8B2FEF750
:1046D00005BA81F00201F8E7060000205000002032
:1046E000FCF726FAFEF72BFDFEF718FAFEF712FB91
:1046F000FEF7A2FAFEF7D8FA012204211648FCF7C9
:1047000004FAFEF7E5F80020FEF73AF80020FEF77D
:1047100039F94FF6FF70FEF749F9FDF775FE0F48BE
:10472000FDF73EF80E480068016841F02001016085
:1047300004210C48FDF7C0FA0B4C00BFFDF792FFB7
:10474000E072FDF7FDFEFFF7E3FEFFF7A5FF642033
:10475000FCF7A0F8F2E70000000C00489C000020E5
:10476000E8000020500000200600002000000000AB
:104770000000000000000000000000000000000039
:104780000000000000000000000000000000000029
:104790000000000000000000000000000000800198
:1047A0008001800180018001800180018001800101
:1047B00080018001800180010000000080018001F3
:1047C00000000000000000000000000000000000E9
:1047D000CC00CC00CC00CC00CC00CC000000000011
:1047E00000000000000000000000000000000000C9
:1047F00000000000000000000000000000000000B9
:104800000000000000000000600C600C600C30062E
:104810003006FE1FFE1F300638071803FE1FFE1F5E
:10482000180318038C018C018C010000000080002B
:10483000E003F80F9C0E8C1C8C188C009800F8017B
:10484000E007800E801C8C188C189C18B80CF00F98
:10485000E003800080000000000000000000000075
:1048600000000E181B0C110C110611061103110388
:104870009B018E01C038C06C6044604430443044B9
:104880001844186C0C380000000000000000E00123
:10489000F0033807180618063003F001F000F8009E
:1048A0009C310E33061E061C061C063FFC73F021CD
:1048B00000000000000000000000000000000000F8
:1048C0000C000C000C000C000C000C0000000000A0
:1048D00000000000000000000000000000000000D8
:1048E00000000000000000000000000000000002C6
:1048F00000038001C000C000600060003000300094
:1049000030003000300030003000300060006000C7
:10491000C000C00080010003000200000000200071
:104920006000C00080018001000300030006000653
:10493000000600060006000600060006000300034D
:1049400080018001C0006000200000000000000025
:104950000000000000000000C000C000D806F807FA
:10496000E0013003380700000000000000000000F4
:104970000000000000000000000000000000000037
:104980000000000000000000800180018001800123
:104990008001FC3FFC3F800180018001800180019B
:1049A0000000000000000000000000000000000007
:1049B00000000000000000000000000000000000F7
:1049C0000000000000000000000000000000800166
:1049D00080010001000180000000000000000000D4
:1049E00000000000000000000000000000000000C7
:1049F00000000000E007E0070000000000000000E9
:104A000000000000000000000000000000000000A6
:104A10000000000000000000000000000000000096
:104A20000000000000000000000000000000C000C6
:104A3000C000000000000000000000000000000CAA
:104A4000000C0006000600060003000300038003BC
:104A5000800180018001C000C000C00060006000D3
:104A60000000000000000000000000000000E00363
:104A7000F007380E180C0C180C180C180C180C1821
:104A80000C180C180C180C18180C380EF007E00352
:104A90000000000000000000000000000000000115
:104AA0008001C001F001980188018001800180012E
:104AB00080018001800180018001800180018001EE
:104AC0000000000000000000000000000000E00303
:104AD000F80F180C0C180C1800180018000C000621
:104AE00000038001C000600030001800FC1FFC1FA4
:104AF0000000000000000000000000000000E001D5
:104B0000F807180E0C0C0C0C000C0006C003C007B4
:104B1000000C001800180C180C18180CF807E0030B
:104B20000000000000000000000000000000000C79
:104B3000000E000F000F800DC00C600C600C300CDC
:104B4000180C0C0CFC3FFC3F000C000C000C000C83
:104B50000000000000000000000000000000F80F4E
:104B6000F80F180018000C00EC03FC071C0E001CCA
:104B70000018001800180C181C0C180EF807E00399
:104B80000000000000000000000000000000C0075E
:104B9000F00F381C181818000C00CC03EC0F3C0E5A
:104BA0001C1C0C180C180C18181C380EF007E0030D
:104BB0000000000000000000000000000000FC1FDA
:104BC000FC1F000C00060006000380038001C001EA
:104BD000C000E00060006000700030003000300075
:104BE0000000000000000000000000000000E003E2
:104BF000F007380E180C180C180C3806F007F007E0
:104C0000180C0C180C180C180C18380CF80FE003C2
:104C10000000000000000000000000000000E003B1
:104C2000F007380E1C0C0C180C180C181C1C381E25
:104C3000F81BE0190018000C000C1C0EF807F0011E
:104C40000000000000000000000000000000000064
:104C50000000000000000000800180010000000052
:104C60000000000000000000000000008001800142
:104C70000000000000000000000000000000000034
:104C80000000000000000000800180010000000022
:104C90000000000000000000000000008001800112
:104CA0000001000180000000000000000000000082
:104CB0000000000000000000000000000010001CC8
:104CC000800FE003F8001800F800E003800F001CDC
:104CD00000100000000000000000000000000000C4
:104CE000000000000000000000000000F81F0000AD
:104CF00000000000F81F000000000000000000009D
:104D000000000000000000000000000000000000A3
:104D10000000000000000000000000000800380053
:104D2000F001C007001F0018001FC007F001380085
:104D30000800000000000000000000000000E00388
:104D4000F80F180C0C180C180018000C00060003C3
:104D50008001C000C000C00000000000C000C00012
:104D60000000000000000000000000000000000043
:104D7000E00718180420C229224A114409440944B2
:104D8000094409221113E20C024004201818E0071C
:104D90000000000000000000000000000000800390
:104DA0008003C006C006C006600C600C30183018C6
:104DB0003018F83FF83F1C700C600C6006C006C04D
:104DC0000000000000000000000000000000FC03E4
:104DD000FC0F0C0C0C180C180C180C0CFC07FC0F1E
:104DE0000C180C300C300C300C300C18FC1FFC076D
:104DF0000000000000000000000000000000C007EC
:104E0000F01F38381C300C700660060006000600E3
:104E100006000600060006600C701C30F01FE0075C
:104E20000000000000000000000000000000FE0381
:104E3000FE0F060E0618061806300630063006303D
:104E400006300630063006180618060EFE0FFE0362
:104E50000000000000000000000000000000FC3F17
:104E6000FC3F0C000C000C000C000C00FC1FFC1F95
:104E70000C000C000C000C000C000C00FC3FFC3F74
:104E80000000000000000000000000000000F83FEB
:104E9000F83F18001800180018001800F81FF81F35
:104EA0001800180018001800180018001800180042
:104EB0000000000000000000000000000000E00F03
:104EC000F83F3C780E6006E007C00300030003FED5
:104ED00003FE03C007C006C00EC03CF0F83FE00F61
:104EE00000000000000000000000000000000C3086
:104EF0000C300C300C300C300C300C30FC3FFC3FD4
:104F00000C300C300C300C300C300C300C300C30C1
:104F10000000000000000000000000000000800110
:104F20008001800180018001800180018001800179
:104F30008001800180018001800180018001800169
:104F4000000000000000000000000000000000065B
:104F50000006000600060006000600060006000621
:104F6000000600060006180618063807F003E001E0
:104F700000000000000000000000000000000630FB
:104F80000618060C060606038601C60066007600B3
:104F9000DE008E0106030606060C061806300660C3
:104FA00000000000000000000000000000001800E9
:104FB0001800180018001800180018001800180031
:104FC000180018001800180018001800F81FF81F23
:104FD00000000000000000000000000000000EE0E3
:104FE0001EF01EF01EF036D836D836D836D866CC2D
:104FF00066CC66CCC6C6C6C6C6C6C6C686C386C38B
:1050000000000000000000000000000000000C3064
:105010001C303C303C306C306C30CC30CC308C317F
:105020000C330C330C360C360C3C0C3C0C380C306E
:105030000000000000000000000000000000E00789
:10504000F81F1C380E70066003C003C003C003C005
:1050500003C003C003C006600E701C38F81FE007D1
:105060000000000000000000000000000000FC0F35
:10507000FC1F0C380C300C300C300C300C18FC1FA2
:10508000FC070C000C000C000C000C000C000C00C9
:105090000000000000000000000000000000E00729
:1050A000F81F1C380E70066003E003C003C003C085
:1050B00003C003C007E006630E3F1C3CF83FE0F767
:1050C00000C0000000000000000000000000FE0F13
:1050D000FE1F06380630063006300638FE1FFE0773
:1050E00006030606060C061806180630063006608B
:1050F0000000000000000000000000000000E003CD
:10510000F80F1C0C0C180C180C001C00F803E00F16
:10511000001E0038063006300E301C1CF80FE00769
:105120000000000000000000000000000000FE7F02
:10513000FE7F80018001800180018001800180016B
:105140008001800180018001800180018001800157
:1051500000000000000000000000000000000C3013
:105160000C300C300C300C300C300C300C300C305F
:105170000C300C300C300C300C301818F81FE007D5
:1051800000000000000000000000000000000360BC
:105190000630063006300C180C180C18180C180CB9
:1051A000380E30063006700760036003C001C0018E
:1051B000000000000000000000000000000003608C
:1051C000C361C361C3616633663366336633663376
:1051D00066336C1B6C1B6C1B2C1A3C1E380E380E75
:1051E00000000000000000000000000000000FE0D0
:1051F0000C7018303018700C600EC00780038003EC
:10520000C003E006700C301C18180C300E6007E06C
:10521000000000000000000000000000000003C0CB
:1052200006600C301C383818300C6006E007C003EC
:105230008001800180018001800180018001800166
:105240000000000000000000000000000000FC7FE3
:10525000FC7F006000300018000C00060003800195
:10526000C0006000300018000C000600FE7FFE7FCA
:105270000000000000000000000000000000E0034B
:10528000E00360006000600060006000600060009B
:10529000600060006000600060006000600060000E
:1052A000600060006000E003E003000000003000E8
:1052B0003000600060006000C000C000C000C0019D
:1052C0008001800180010003000300030006000646
:1052D0000000000000000000000000000000E003EB
:1052E000E0030003000300030003000300030003C6
:1052F0000003000300030003000300030003000396
:10530000000300030003E003E003000000000000CE
:10531000C001C00160036003600330063006180C52
:10532000180C000000000000000000000000000059
:10533000000000000000000000000000000000006D
:10534000000000000000000000000000000000005D
:105350000000000000000000000000000000FFFF4F
:10536000FFFF0000000000000000000000000C0033
:105370000C000C000C000C000C00000000000000F1
:10538000000000000000000000000000000000001D
:10539000000000000000000000000000000000000D
:1053A0000000000000000000F003F8071C0C0C0CCB
:1053B000000FF00FF80C0C0C0C0C1C0FF80FF01871
:1053C00000000000000000000000000000001800C5
:1053D0001800180018001800D803F80F380C181817
:1053E00018181818181818181818380CF80FD803A7
:1053F00000000000000000000000000000000000AD
:105400000000000000000000C003F007300E180C80
:105410001800180018001800180C300EF007C00310
:105420000000000000000000000000000000001864
:105430000018001800180018C01BF01F301C1818A6
:1054400018181818181818181818301CF01FC01B36
:10545000000000000000000000000000000000004C
:105460000000000000000000C003F00F300C18180E
:10547000F81FF81F180018003818301CF00FC0076C
:105480000000000000000000000000000000800F8D
:10549000C00FC000C000C000F007F007C000C0008F
:1054A000C000C000C000C000C000C000C000C000FC
:1054B00000000000000000000000000000000000EC
:1054C0000000000000000000E00DF80F180E0C0CAA
:1054D0000C0C0C0C0C0C0C0C0C0C180EF80FE00D3A
:1054E000000C0C0C1C06F807F0010000000018006E
:1054F0001800180018001800D807F80F381C1818E2
:10550000181818181818181818181818181818181B
:105510000000000000000000000000000000C000CB
:10552000C000000000000000C000C000C000C000BB
:10553000C000C000C000C000C000C000C000C0006B
:105540000000000000000000000000000000C0009B
:10555000C000000000000000C000C000C000C0008B
:10556000C000C000C000C000C000C000C000C0003B
:10557000C000C000C000F8007800000000000C006F
:105580000C000C000C000C000C0C0C060C038C0125
:10559000CC006C00FC009C018C030C030C060C0C72
:1055A0000000000000000000000000000000C0003B
:1055B000C000C000C000C000C000C000C000C000EB
:1055C000C000C000C000C000C000C000C000C000DB
:1055D00000000000000000000000000000000000CB
:1055E00000000000000000007C3CFF7EC7E383C198
:1055F00083C183C183C183C183C183C183C183C18B
:10560000000000000000000000000000000000009A
:1056100000000000000000009807F80F381C181860
:1056200018181818181818181818181818181818FA
:10563000000000000000000000000000000000006A
:105640000000000000000000C003F00F300C18182C
:1056500018181818181818181818300CF00FC0035C
:10566000000000000000000000000000000000003A
:105670000000000000000000D803F80F380C1818D4
:1056800018181818181818181818380CF80FD80304
:105690001800180018001800180000000000000092
:1056A0000000000000000000C01BF01F301C181894
:1056B00018181818181818181818301CF01FC01BC4
:1056C0000018001800180018001800000000000062
:1056D0000000000000000000B007F0037000300080
:1056E000300030003000300030003000300030003A
:1056F00000000000000000000000000000000000AA
:105700000000000000000000E003F003380E180C59
:105710003800F003C007000C180C380EF007E00347
:105720000000000000000000000000000000000079
:105730008000C000C000C000F007F007C000C0003B
:10574000C000C000C000C000C000C000C00780078B
:105750000000000000000000000000000000000049
:105760000000000000000000181818181818181879
:1057700018181818181818181818381CF01FE019DD
:105780000000000000000000000000000000000019
:1057900000000000000000000C18180C180C180C79
:1057A000300630063006600360036003C001C001AC
:1057B00000000000000000000000000000000000E9
:1057C0000000000000000000C141C141C3616363EB
:1057D000636363633636363636361C1C1C1C1C1C51
:1057E00000000000000000000000000000000000B9
:1057F00000000000000000001C38381C300C60065F
:1058000060036003600360036006300C381C1C38C2
:105810000000000000000000000000000000000088
:105820000000000000000000183030183018701818
:10583000600C600CE00CC006C0068003800380038F
:1058400080018001C001F000700000000000000035
:105850000000000000000000FC1FFC1F000C000600
:1058600000038001C000600030001800FC1FFC1F16
:105870000000000000000000000000000000000325
:105880008001C000C000C000C000C000C0006000B7
:105890006000300060004000C000C000C000C000D8
:1058A000C000C00080010003000000000000800173
:1058B00080018001800180018001800180018001E0
:1058C00080018001800180018001800180018001D0
:1058D00080018001800180018001000000006000E3
:1058E000C000C001800180018001800180010003AF
:1058F0000003000600030001800180018001800197
:1059000080018001C0006000000000000000000075
:10591000000000000000000000000000F010F81F70
:10592000080F000000000000000000000000000060
:105930000000000000000000000000000100020064
:105940000400060008000A000C00100020004000BF
:1059500080000001010101030701000008040204A6
:105960000801010100000000000000000102030422
:105970000607080900000000010203049C59000802
:105980000000002028000000E03B0008C459000887
:105990002800002058050000F03B00080000FFFF31
:1059A0000000000A0A0A0A060100000000000000C8
:1059B0001000000001000000000000000024F400BE
:0459C00000000000E3
:04000005080001D915
:00000001FF
