:020000040800F2
:1000000058050020F101000897200008031F000890
:10001000952000085D080008C127000800000000C6
:100020000000000000000000000000009B2000080D
:100030005F08000800000000992000089D200008CB
:100040000B0200080B0200080B0200080B0200085C
:100050000B0200080B0200080B0200080B0200084C
:100060000B0200080B0200080B0200080B0200083C
:100070000B0200080B0200080B0200080B0200082C
:100080000B020008000000000B0200080B02000831
:100090000B0200080B0200080B0200080B0200080C
:1000A0000B0200080B0200080B0200080B020008FC
:1000B00019210008252100080B0200080B02000886
:1000C0000B0200080B0200080B0200080B020008DC
:1000D0000B0200080B0200080B0200080B020008CC
:1000E0000B0200080B0200080B0200080B020008BC
:1000F0000B0200080B0200080B02000800000000C1
:10010000000000000B020008000000000B020008C5
:100110000B020008000000000B0200080B020008A0
:100120000B0200080B0200080B0200080B0200087B
:100130000B02000800000000000000000B02000895
:100140000B0200080B020008000000000000000085
:10015000000000000000000000000000000000009F
:100160000000000000000000000000000B0200087A
:100170000B0200080000000000000000000000006A
:10018000000000000B02000800000000000000005A
:10019000000000000000000000000000000000005F
:1001A00000000000000000000B0200080B02000825
:1001B0000B0200080B0200080B0200080000000000
:1001C000000000000B02000800000000000000001A
:1001D0000B0200080B020008DFF810D000F01AFB39
:1001E00000480047C9300008AFF3008058050020E0
:1001F0000648804706480047FEE7FEE7FEE7FEE7C1
:10020000FEE7FEE7FEE7FEE7FEE7FEE7092100085E
:10021000D90100082DE9F05F0546002092469B4673
:1002200088460646814640241BE02846414647460C
:10023000224600F002F953465A46C01A914110D3A3
:1002400011461846224600F0E9F82D1A67EB01081E
:100250004F4622460120002100F0E0F817EB00098C
:100260004E41201EA4F10104DFDC484631462A46F7
:100270004346BDE8F09FD2B201E000F8012B491ED1
:10028000FBD270470022F6E710B513460A46044633
:100290001946FFF7F0FF204610BD2DE9F04D81EA29
:1002A000030404F0004B21F0004514464FF0000A0F
:1002B00023F0004150EA050220D054EA01021DD08B
:1002C000C5F30A570246C5F31303C1F31300C1F384
:1002D0000A5640F4801543F48013A7EB0608101B60
:1002E000D64608F2FD3873EB050002D308F1010889
:1002F00001E092185B41B8F1000F03DA00200146DB
:10030000BDE8F08D00204FF48011064684460EE0D3
:10031000171B73EB050705D3121B63EB050306439D
:100320004CEA010C49084FEA300092185B4150EA50
:100330000107EDD152EA030012D082EA040083EAF9
:100340000501084305D0101BAB4106D20122002352
:1003500006E000224FF0004302E06FF0010253106C
:100360001AEB06004CEB085110EB0A0041EB0B01B5
:10037000BDE8F04D00F0A8B80EB540F2334102914F
:100380000021CDE900110A460B4600F0ACF803B09D
:1003900000BD00F0004230F000400AD0C10D01F570
:1003A0006071C0F3160042EA0151C20840071143D0
:1003B000704700200146704701F0004330B421F03F
:1003C000004150EA010206D00A0DA2F56072C1F3A5
:1003D0001301002A02DC30BC00207047440F44EABD
:1003E000C104C100E01830BC00EBC25000F035B8C9
:1003F00030B50B46014600202022012409E021FAF5
:1004000002F59D4205D303FA02F5491B04FA02F5F1
:100410002844151EA2F10102F1DC30BD202A04DBC4
:10042000203A00FA02F1002070479140C2F1200307
:1004300020FA03F3194390407047202A04DB203A46
:1004400021FA02F00021704721FA02F3D040C2F1F4
:10045000200291400843194670470029A8BF704701
:10046000401C490008BF20F00100704710B4B0FAEA
:1004700080FC00FA0CF050EA010404BF10BC704785
:1004800049B1CCF1200421FA04F411FA0CF118BF9F
:10049000012121430843A3EB0C01CB1D4FEA00616E
:1004A0004FEA102042BF002010BC704700EBC35041
:1004B00010440029A4BF10BC7047401C490008BF6D
:1004C00020F0010010BC704710B5141E73F1000439
:1004D00008DA401C41F1000192185B411A4301D136
:1004E00020F0010010BD2DE9F04D92469B4611B160
:1004F000B1FA81F202E0B0FA80F220329046FFF7C2
:100500008DFF04460F4640EA0A0041EA0B015346BC
:100510005A46084313D0114653EA010019D0C8F1D6
:1005200040025046FFF789FF05460E4650465946A1
:100530004246FFF773FF084305D0012004E0204640
:100540003946BDE8F08D0020054346EAE0762C43AD
:1005500037430A986305E40AA0EB08000022FD0A6D
:1005600044EA47540A3002D500200146E9E7010574
:1005700010196941DDE9084500196941BDE8F04DF0
:10058000A2E72DE9FE4F804681EA0300C00F0C462A
:10059000009021F0004123F00045B8EB0200A94192
:1005A00005D24046214690461C460B46024623F0A3
:1005B0000040104347D0270DC7F30A00C3F30A5188
:1005C0000290401A019040286BDAC3F3130040F404
:1005D000801B0098924620B10023D2EB030A63EB04
:1005E0000B0B01985946C0F140025046FFF716FF29
:1005F00006460D4650465946019A00F01DF910EB8B
:1006000008006141002487EA115284EAE7731A4323
:1006100040D0009A62B3019A012A4FEA075215DCD2
:10062000001B61EB02014FF0004202EA0752CDE9E4
:100630000042001C41F5801132462B46FFF753FF64
:1006400003B0BDE8F08F40462146F9E7001B61EB9F
:100650000201001C41F5801300185B412018A2F52F
:10066000001747EB030140EAD570B6196D4111E060
:100670006D084FEA360645EAC0754FEA0752001B7F
:1006800061EB0201001C41F5801149084FEA30007E
:100690000019514132462B4603B0BDE8F04FFFF739
:1006A00013BF0098012240000023D0EB020263EB4D
:1006B000E073009821464FEAE074B8EB000061EB6C
:1006C0000401E9E783F000435BE781F0004158E76C
:1006D0002DE9FE4F81EA030404F0004421F00041BB
:1006E00000944FF0000B23F0004350EA01045ED069
:1006F00052EA03045BD0C3F30A54C1F30A552C44F5
:10070000A4F2F3340194A0FB0254C1F3130141F4A9
:100710008011C3F3130343F4801301FB024400FB75
:10072000034E840A970A44EA815447EA8357A4FB9C
:10073000076802958D0A05FB07854FEA932C04FB99
:100740000C542705029D4FEA065847EA1637B5EBC9
:1007500008056EEB070C870E920E47EA811742EAF6
:100760008312A7FB0201B6EB0B0164EB00042B0D17
:1007700043EA0C335E1844EB1C50DA465146E7FB63
:100780000201C5F313044FEA0B3343EA14534FEA53
:100790000432019C43EA0603A4F10C040294009C79
:1007A000CDE900B4FFF79FFE03B0BDE8F08F002055
:1007B0000146F9E7C1F30A52C1F3130140F2FF33D6
:1007C00041F480119A4202DA00200146704740F25B
:1007D00033439A42A2F2334202DC5242FFF72DBE6B
:1007E000FFF71CBE30B5041E71F1000404DB4FF0AE
:1007F0000044404264EB0101141E73F1000405DB68
:100800001C464FF00043524263EB0403994208BF79
:10081000904230BD064C074D06E0E06840F0010311
:1008200094E8070098471034AC42F6D3FFF7D8FCA1
:100830007C3100089C310008202A06DBCB17203AC7
:1008400041FA02F043EAE07306E041FA02F3D040D5
:10085000C2F120029140084319467047FEE77047F5
:1008600072B6FEE72DE9F04FDFF820920023012653
:100870000324A9F1040B85B00F2709F1040AABF199
:10088000040EFAE006FA03F52A407CD091F804C081
:100890000CF0030CBCF1010F02D0BCF1020F26D109
:1008A000D0F808C0CDF800C04FEA430C04FA0CF8A9
:1008B000CDF810C0DDF800C02CEA080CCDF800C05F
:1008C000D1F80C80DDF810C008FA0CF8DDF800C093
:1008D00048EA0C08C0F80880D0F804C02CEA050CDF
:1008E0000D79C5F300159D4045EA0C0545600D796D
:1008F000ED43AD070ED0C5684FEA430804FA08FC83
:1009000025EA0C05D1F808C00CFA08FC4CEA050CE5
:10091000C0F80CC00D7905F00305022D16D1DD08D5
:1009200000EB850CCDF808C0DCF820805D074FEAAD
:10093000D56C07FA0CF528EA05080D6905FA0CF5DF
:10094000DDF808C045EA0805CCF8205005684FEAF4
:10095000430CCDF808C004FA0CFC25EA0C0591F80C
:1009600004C00CF00308DDF808C008FA0CF848EAE7
:100970000508C0F800804D6815F4403F7CD0444D18
:10098000D5F860C000E077E04CF0010CC5F860C01D
:100990002D6E23F0030C05F0010500953D4D6544D7
:1009A0000295AD684FEA837C4FEA1C7807FA08FC91
:1009B00025EA0C05B0F1904F06D0DFF8DCC06045A9
:1009C00005D14FF0010C20E04FF0000C1DE0DFF8E6
:1009D000CCC0604502D14FF0020C16E0DFF8C0C079
:1009E000604502D14FF0030C0FE0DFF8B8C060455E
:1009F00002D14FF0040C08E0DFF8ACC0604502D132
:100A00004FF0050C01E04FF0060C0CFA08FC4CEA24
:100A1000050C029DC5F808C0D9F80050CC46D1F8A5
:100A2000048095435FEAC82800D51543CCF80050F0
:100A3000DAF80050D446D1F8048095435FEA88285C
:100A400000D51543CCF80050DBF80050DC46D1F857
:100A5000048095435FEA883800D51543CCF80050F0
:100A6000DEF80050F446D1F8048095435FEAC838B8
:100A700000D51543CCF800505B1C0A6832FA03F528
:100A80007FF400AF05B0BDE8F08F0000080401401E
:100A90000010024000000140000400480008004827
:100AA000000C00480010004800140048014880680D
:100AB0007047000018000020024881684268114415
:100AC000816070471800002010B50024032000F05A
:100AD00073F80F2000F008F808B1012401E000F0DD
:100AE00025F8204610BD000070B50E4E05460024C6
:100AF000706898B14FF47A71B1FBF0F00A49096857
:100B0000B1FBF0F000F060FD40B9102D06D20022DC
:100B10002946501E00F030F8356000E001242046E0
:100B200070BD000018000020240000200A4882B098
:100B3000016E41F001010166016E01F001010091B9
:100B4000816D41F080518165806D00F08050009092
:100B500002B000F0A1B8000000100240002809DB3C
:100B600000F01F02012191404009800000F1E020C7
:100B7000C0F8001170470000F0B40E4B1B680C4623
:100B8000C3F30223C3F10705042D00D90425191D61
:100B9000072901D2002300E0DB1E012606FA05F139
:100BA000491E214099409E40761E16403143F0BCBC
:100BB00001F018BE0CED00E0064900F007020868DD
:100BC0004FF6FF03184040EA0220034A1043086032
:100BD000704700000CED00E00000FA052B492C4B9B
:100BE0000A6832214A432B4940B1B0F5007F0868BA
:100BF00029D020F4C06040F480602CE00868C0F385
:100C00004120022804D051F8800F20F4807022E0A7
:100C1000D1F8800020F48070C1F88000086820F4CA
:100C2000C06040F400700860B2FBF3F0401C00E0CC
:100C3000401E4A69520501D50028F9D1486940058E
:100C40000AD503207047C0F34120022806D051F88E
:100C5000800F40F48070086000207047D1F8800059
:100C600040F48070C1F88000086820F4C06040F44F
:100C700000700860B2FBF3F0401C00E0401E4A69BF
:100C80005205DBD50028F9D1D8E700002400002068
:100C900040420F00007000400248816841F48041EA
:100CA00081607047007000402DE9F84304460068F9
:100CB00000269D4D00035ED5A86D0027C00008D416
:100CC000A86D40F08050A865A86D012700F0805005
:100CD0000090DFF85892D9F8001041F48071C9F8FB
:100CE0000010FFF7E3FE804606E000BFFFF7DEFEE0
:100CF000A0EB080002282BD8D9F80000C005F5D5D4
:100D0000D5F8900010F4407014D0216C814211D0BD
:100D1000D5F89000D5F8901020F4407041F480315F
:100D2000C5F89010D5F8901021F48031C5F89010D6
:100D3000C5F89000C00711D0FFF7B8FE804641F219
:100D4000883907E0FFF7B2FEA0EB0801494501D959
:100D500003260BE0D5F890008007F3D5D5F8900076
:100D6000216C20F440700843C5F890001FB1A86DB5
:100D700020F08050A8652078C00707D0D5F88800FB
:100D8000616820F003000843C5F8880020788007D8
:100D900007D5D5F88800A16820F00C000843C5F8F5
:100DA00088002078400707D5D5F88800E16820F052
:100DB00030000843C5F888002078000707D5D5F82B
:100DC0008800216920F0C0000843C5F88800207819
:100DD000800607D5D5F88800616920F44060084393
:100DE000C5F888002078400607D5D5F88800A169A5
:100DF00020F440500843C5F888002078000607D545
:100E0000D5F88800E16920F440400843C5F888001F
:100E10002088C00507D5D5F88800216A20F4403025
:100E20000843C5F888002088800507D5D5F88800D4
:100E3000616A20F440200843C5F8880020884005F6
:100E40000FD5D5F88800A16A20F440100843C5F8F2
:100E50008800A06AB0F5801F03D1E86840F48010D4
:100E6000E860208800050FD5D5F88800E16A20F4F5
:100E700040000843C5F88800E06AB0F5800F03D150
:100E8000E86840F48010E8602088C0040FD5D5F8E9
:100E90008800216B20F040700843C5F88800206B63
:100EA000B0F1807F03D1E86840F48010E8602088CA
:100EB0004FF0006180040ED5D5F88800626B20F0F9
:100EC00040601043C5F88800606B884203D1E86831
:100ED00040F48010E860208840040ED5D5F88800E2
:100EE000A26B20F040601043C5F88800A06B8842D8
:100EF00003D1E86840F48010E860208800040FD532
:100F0000D5F88800E16B20F040500843C5F8880010
:100F1000E06BB0F1805F03D1E86840F48030E860B6
:100F20003046BDE8F8830000001002400070004029
:100F30002DE9F0470E4605004FF0000725D0DFF8F9
:100F4000AC81D8F8000000F00F00B0420CD2D8F805
:100F5000001021F00F013143C8F80010D8F800004C
:100F600000F00F00B04210D12968614CC80741F26F
:100F7000883A5AD06868DFF87C91032808D00228A4
:100F800020682DD0400500282CDB0120BDE8F0872B
:100F900020688001F9D5E06800F00302E068C0F342
:100FA0000310401C032A19D0534A00BFB2FBF0F0D3
:100FB000E268C2F306225043E268C2F34162521C67
:100FC0005200B0FBF2F0484517D9A06810F0F00FBE
:100FD0000CD0880711D5A86840B10EE0474AE5E774
:100FE0008003D0E700F0B6F8484506D9A06820F0A5
:100FF000F00040F08000A0608027A068696820F0C1
:1010000003000843A060FFF751FD814606E000BFE2
:10101000FFF74CFDA0EB090151453AD8A06869687B
:1010200000F00C00B0EB810FF2D12868810714D5D5
:10103000400703D5A06840F4E060A060287800076E
:1010400005D5A06820F4605040F4E060A060A0687E
:10105000A96820F0F000084304E0802F03D1A068C5
:1010600020F0F000A060D8F80010404601F00F0119
:10107000B14216D9016821F00F0131430160FFF739
:1010800015FD074607E000BFFFF710FDC11B5145E6
:1010900001D903207AE7D8F8000000F00F00B04231
:1010A000F2D12878400705D5A068E96820F4E0600F
:1010B0000843A0602878000706D5A068296920F4B5
:1010C000605040EAC100A06000F044F8A1680C4AFA
:1010D000C1F30311515C01F01F01C84009490860C8
:1010E00009480068BDE8F047FFF7FEBC0020024059
:1010F0000010024000B4C4040024F40000366E0165
:10110000643100082400002018000020054806492A
:1011100000688968054AC1F30221515C01F01F0192
:10112000C8407047240000200010024074310008BD
:101130000548064900688968054AC1F3C221515C27
:1011400001F01F01C8407047240000200010024039
:1011500074310008184910B58868C0F38102174837
:10116000012A0BD08A68164BC2F38102022A06D0EC
:101170008A68C2F38102032A03D0002010BD1846FA
:1011800010BDCA6802F00304CA68C2F30312521CFD
:10119000032C02D0B0FBF2F001E0B3FBF2F0CA681E
:1011A000C968C2F306225043C1F34161491C49009A
:1011B000B0FBF1F010BD0000001002400024F4006C
:1011C00000366E012DE9F84304007AD02078F84DFE
:1011D000C00747D0A868E96800F00C0001F00301DF
:1011E0000C2802D0082817D001E0032914D0606829
:1011F000B0F5803F17D0B0F5A02F286817D020F4A5
:1012000080302860286820F4802028606068E0B181
:10121000FFF74CFC064614E02868800322D560687E
:101220000028D2D01EE0286840F48030EDE740F47A
:1012300080202860F7E700BFFFF738FC801B642898
:1012400070D828688003F7D50CE0FFF72FFC06461E
:1012500005E000BFFFF72AFC801B6428F0D828684F
:101260008003F7D4207880074CD5A868E96800F09F
:101270000C0001F003010C2802D004280DD001E07D
:1012800002290AD0E068002828682BD040F480703A
:101290002860FFF70BFC064619E02868400502D5D8
:1012A000E068002891D06868217C20F0FE4040EA88
:1012B00001606860BF480068FFF716FC002800D195
:1012C00020E072E1FFF7F2FB801B0228B8D8286803
:1012D0004005F7D56868217C20F0FE4040EA0160B7
:1012E00068600FE020F480702860FFF7DFFB06469F
:1012F00005E000BFFFF7DAFB801B0228A0D82868B2
:101300004005F7D42078000729D560690028D5F872
:10131000940013D040F00100C5F89400FFF7C6FB1D
:10132000064606E090E000BFFFF7C0FB801B0228E6
:1013300086D8D5F894008007F6D510E020F001009B
:10134000C5F89400FFF7B2FB064604E0FFF7AEFBDA
:10135000801B022878D8D5F894008007F6D420782E
:10136000400761D5A86D0026C00008D4A86D40F0E4
:101370008050A865A86D012600F0805000908E482E
:101380000168C90511D40168804641F4807101608B
:10139000FFF78CFB074604E0FFF788FBC01B022821
:1013A00052D8D8F80000C005F6D5A068012815D09D
:1013B0000528D5F8900016D020F00100C5F890005F
:1013C000D5F8900020F00400C5F89000A06841F224
:1013D0008838B8B1FFF76AFB07460EE0D5F89000F1
:1013E00040F00100F0E740F00400C5F89000F5E798
:1013F000FFF75CFBC11B414526D8D5F8900080075C
:10140000F6D50CE0FFF752FB074604E0FFF74EFB72
:10141000C11B414518D8D5F890008007F6D41EB1FD
:10142000A86D20F08050A8652078800629D5A06995
:101430000028D5F8980013D040F00100C5F89800B6
:10144000FFF734FB064606E075E000BFFFF72EFB12
:10145000801B02286FD8D5F898008007F6D510E0D9
:1014600020F00100C5F89800FFF720FB064604E0D5
:10147000FFF71CFB801B02285DD8D5F89800800779
:10148000F6D4E069F0B3A968C1F3810103295DD006
:101490000228286820F08070286003D0FFF706FB40
:1014A00004464BE0FFF702FB064604E0FFF7FEFAB6
:1014B000801B02283FD828688001F7D4F4E908018E
:1014C0006FF00F0202EB01110843218A5204490810
:1014D00002EB4151A26841EA02210843217D4FF00D
:1014E0007E42490802EB41610843217B40EAC1602A
:1014F000E968324A11400843E860286840F080708B
:10150000286000E05EE0E86840F08070E860FFF787
:10151000CDFA044605E000BFFFF7C8FA001B022819
:1015200009D828688001F7D54CE000BFFFF7BEFA64
:10153000001B022802D90320BDE8F8832868800137
:10154000F4D4E8681E490840E8603BE00128F3D085
:10155000E868226A00F00301914226D1616A00F036
:10156000F0020901103991421FD1A26A00F4FE4134
:10157000B1EB022F19D194F82C2000F07841B1EB97
:10158000C26F12D1218E00F4C00249084905A1F5AD
:101590000011914209D194F8341000F0C06049085C
:1015A0004906A1F1007181420CD00120C4E700007E
:1015B0000010024018000020007000400C809F01C5
:1015C000FCFFEEFE0020B7E710B5401EB0F1807FB3
:1015D00001D3012010BD4FF0E02460610F2160179E
:1015E00001F000F90020A06107202061002010BD5B
:1015F000704770477047704770477047F0B590F874
:101600003C20012A3AD0012580F83C50022280F883
:101610003D2003685A689C68194E1A4FB34201D0A6
:10162000BB4204D122F4700C4A6842EA0C02DFF893
:1016300058C002EA0C02D1F800C04CEA020CC3F810
:1016400004C00268B2420DD0B2F1804F0AD00F4BF5
:101650009A4207D00E4B9A4204D0BA4202D00D4BA8
:101660009A4204D1896824F080031943916080F87C
:101670003D50002180F83C100846F0BD0220F0BD2E
:10168000002C0140003401408FFFFFFD00040040AA
:1016900000080040004001407047000070B505465A
:1016A0002DED028B00260068234C9FED248BB0F1BA
:1016B000804F1AD10021234800F0D8FA401CFEF7D1
:1016C0005BFE41EC100B1F4884ED020B0068466284
:1016D00053EC102B51EC180BFEF7DFFDFEF76CFE00
:1016E00020600021174800F057F917492868884200
:1016F0001ED10021154800F0B9FA401CFEF73CFE4F
:1017000041EC100B114884ED040B0068466253EC69
:10171000102B51EC180BFEF7C0FDFEF74DFE60607C
:101720000021BDEC028B0948BDE8704000F034B9DF
:10173000BDEC028B70BD0000000000200000000026
:1017400080842E412C0000200004004078000020FE
:101750002DE9F041054690F83C0000260C46012892
:1017600010D0012085F83C0072B1042A1CD0082A50
:101770002CD00C2A50D00126002085F83C003046A1
:10178000BDE8F0810220FBE7D4E90012E368286895
:1017900000F03AFD2868816921F00C018161286818
:1017A0008169A26811430FE0D4E90012E368286858
:1017B00000F060FD2868816921F44061816128683A
:1017C0008169A26841EA02218161D5E72868D4E9EC
:1017D000002C277B036A016A21F480710162C169D0
:1017E00023F4206321F0030141EA0C0121F0F00C05
:1017F00039074FF420674CEA116107EA02221A43C5
:10180000C16102622868C16921F00C01C1612868C8
:10181000C169A26811432BE02868D4E90021E76878
:10182000036AD0F820C02CF4805CC0F820C0D0F847
:101830001CC023F420432CF4407C4CEA012121F409
:10184000704C4FF6FF7101EA07314FF4204741EA2F
:101850000C0107EA02321A43C16102622868C169B9
:1018600021F44061C1612868C169A26841EA02218E
:10187000C16181E710B5040003D094F83D0010B1B8
:1018800007E0012010BD002084F83C00204600F055
:1018900023F8022084F83D00211D206800F048FC58
:1018A000012084F8480084F83E0084F83F0084F862
:1018B000400084F8410084F8420084F8430084F832
:1018C000440084F8450084F8460084F8470084F812
:1018D0003D00002010BD000010B586B00446142164
:1018E0006846FEF7CFFC2368002128480222B3F1A6
:1018F000804F27D0264CA34222D1836D43F00203B0
:101900008365836D03F002030593C36C43F0020308
:10191000C364C06C00F00200059010200090CDE977
:101920000121CDE9031269461A48FEF79BFF002208
:1019300011461D20FFF720F95FF01D00FFF70EF99B
:1019400006B010BD836D43F001038365836D03F022
:1019500001030593C36C43F00103C364C06C00F042
:10196000010005904FF400400090CDE901210120D5
:10197000CDE9031069464FF09040FEF773FF002257
:1019800011461C20FFF7F8F81C20D7E70010024092
:10199000000400400004004830B50446002571B141
:1019A000042911D0082914D00C2917D0102918D0D7
:1019B00094F8430094F84720012817D114E094F8D4
:1019C0003E0094F84420F7E794F83F0094F845204F
:1019D000F2E794F8400094F84620EDE794F84100CF
:1019E000E8E794F84200E5E7012A01D0012030BD84
:1019F000022079B1042916D008291DD00C2949D01C
:101A000010294AD084F8430084F847000C2947D0B5
:101A100001253DE084F83E0084F844002068C26857
:101A200042F0020210E084F83F0084F8450020688C
:101A3000C26842F0040207E084F8400084F84600DF
:101A40002068C26842F00802C2600122206800F0EB
:101A5000CDFB1649206888420ED0B0F1804F0BD0E4
:101A60001349884208D01349884205D01249884258
:101A700002D01249884207D18168114A11400629D3
:101A800006D0B1F5803F03D0016841F0010101604B
:101A9000284630BD84F84100B6E784F84200B3E739
:101AA0002068C26842F01002CEE70000002C01401E
:101AB00000040040000800400034014000400140A4
:101AC000070001002DE9F04104460068C668056979
:101AD0004FF00007A90713D5B10711D5F91E016111
:101AE00001202077206880698007204602D0FFF718
:101AF000D5FD04E000F0B7F8204600F0B5F82777F0
:101B0000680716D5700714D521686FF004000861C6
:101B1000022020772068806910F4407F204602D0A0
:101B2000FFF7BCFD04E000F09EF8204600F09CF8B2
:101B30002777280715D5300713D521686FF00800DF
:101B40000861042020772068C0698007204602D001
:101B5000FFF7A4FD04E000F086F8204600F084F8CA
:101B60002777E80616D5F00614D521686FF0100027
:101B70000861082020772068C06910F4407F204663
:101B800002D0FFF78BFD04E000F06DF8204600F076
:101B90006BF82777E80708D0F00706D021686FF0C8
:101BA00001000861204600F060F8280601D4A8046E
:101BB00008D5300606D521686FF40250086120462A
:101BC000FFF717FDE80508D5300606D521686FF444
:101BD000807008612046FFF70BFD680608D5700687
:101BE00006D521686FF040000861204600F053F8E8
:101BF000A80608D5B00606D521686FF02000086158
:101C00002046FFF7F7FCE80208D5F00206D5216868
:101C10006FF4801008612046FFF7EEFCA80208D59B
:101C2000B00206D521686FF4001008612046FFF766
:101C3000E2FC680208D5700206D521686FF48000C6
:101C400008612046FFF7D9FC28020AD5300208D5E2
:101C500021686FF4000008612046BDE8F041FFF7FD
:101C60001BBDBDE8F08170477047704702460020F9
:101C700041B1042909D008290AD00C2901D11068E2
:101C8000006C70471068406B70471068806B70473D
:101C90001068C06B7047704790F88410012918D005
:101CA000012180F884102421C0F8881001680A6896
:101CB0000B6823F001030B6022F000510022426602
:101CC000036819602021C0F8881080F8842010462D
:101CD00070470220704770B5044690F884000128D0
:101CE0001DD0012084F884002420C4F888002068D6
:101CF0000568026822F0010202602068826822F012
:101D000060620A438260204600F0D0FA20680560D5
:101D10002020C4F88800002084F8840070BD0220D0
:101D200070BD70B5044690F8840001281DD00120D4
:101D300084F884002420C4F88800206805680268BC
:101D400022F0010202602068826822F060420A43A9
:101D50008260204600F0AAFA206805602020C4F8BE
:101D60008800002084F8840070BD022070BD10B58A
:101D7000040003D0D4F8880010B107E0012010BDA2
:101D8000002084F88400204600F026F82420C4F8BF
:101D900088002068016821F001010160A06A10B18B
:101DA000204600F0A5FA204600F086FB0128E6D088
:101DB0002068416821F4904141602068816821F0E9
:101DC0002A0181602068016841F00101016020461C
:101DD000BDE8104000F0F0BA10B598B004461421E8
:101DE00011A8FEF74FFA44216846FEF74BFA164950
:101DF0002068884226D101200024CDE900046846ED
:101E0000FEF752FF08B1FEF72BFD1048016E41F4BA
:101E100080410166016E01F480411691C16C41F070
:101E20000401C164C06C11A900F0040016903020B8
:101E300011900220CDE912040720CDE91440044896
:101E4000FEF710FD18B010BD003801400010024030
:101E5000000800482DE9F8430446D0F88800984669
:101E600016460D46202802D00220BDE8F883A5B111
:101E70009EB10020C4F890002120C4F888001834D6
:101E8000FEF714FEA6878146E68754F8100C20273B
:101E9000183CB0F5805F02D003E00120E5E720693F
:101EA00010B12E46002510E000260EE080212046CD
:101EB00000F03CFCC0B9DEB116F8010B2168886265
:101EC000B4F85600401EA4F85600B4F856004B462D
:101ED0004FF00002CDF800800028E7D14FF040011C
:101EE000204600F023FC40B1C4F888700320BCE712
:101EF00035F8020BC0F30800E0E7C4F88870002052
:101F0000B3E7FEE7114808B5C16C41F02001C16498
:101F1000C16C01F020010091C16C41F00401C16469
:101F2000C16C01F004010091C16C41F00101C16478
:101F3000C16C01F001010091C16C41F00201C1646A
:101F4000C06C00F00200009008BD000000100240CC
:101F500010B588B0002418480594069404940094A1
:101F6000019402944FF08041039401604F21C0E935
:101F70000114611EC0E903148461FFF77BFC08B102
:101F8000FEF76EFC049404A90B480694FFF736FB99
:101F900008B1FEF765FC0120CDE900400294002263
:101FA000694605480394FFF7D3FB002801D0FEF7EC
:101FB00057FC08B010BD00002C00002010B588B000
:101FC0000024194805940694049400940194029402
:101FD0001449039401604F21C0E901144FF6FF71C9
:101FE000C0E903148461FFF745FC08B1FEF738FC33
:101FF000049404A90C480694FFF700FB08B1FEF70F
:102000002FFC0120CDE900400294002269460648D9
:102010000394FFF79DFB002801D0FEF721FC08B0D8
:1020200010BD00000004004078000020184810B5E2
:10203000164901604FF416514160002181600C2265
:10204000C160C0E904128161C161016241628162C3
:10205000FFF78DFE08B1FEF703FC00210C48FFF7E7
:1020600060FE08B1FEF7FCFB00210948FFF733FED4
:1020700008B1FEF7F5FB0648FFF70EFE002803D077
:10208000BDE81040FEF7ECBB10BD00000038014079
:10209000C4000020FEE7FEE770477047FEF70CBD66
:1020A00010B594B038216846FEF7ECF814210EA85C
:1020B000FEF7E8F84FF40070FEF790FD0120009065
:1020C0000004019002200324CDE907041421CDE986
:1020D0000A100C900D9009946846FFF773F808B148
:1020E00072B6FEE70F20CDE90E040020109011908B
:1020F000129002210EA8FEF71BFF002801D072B635
:10210000FEE714B010BD00000248016841F4700100
:102110000160704788ED00E00148FFF7D3BC000084
:102120002C0000200148FFF7CDBC00007800002003
:102130002DE9F0430268264B264D274E274C4FF0E1
:102140008049984207D0484505D0A84203D0B04204
:1021500001D0A04203D122F070074A683A43204FD1
:10216000DFF880C0DFF8808098420DD048450BD062
:10217000A84209D0B04207D0A04205D0B84203D04F
:10218000604501D0404503D122F44075CA682A4316
:102190004D6922F080022A4302608A68C2620A689E
:1021A0008262984207D0A04205D0B84203D0604571
:1021B00001D0404501D109690163012141610169F3
:1021C000C90703D0016921F001010161BDE8F08375
:1021D000002C014000040040000800400034014091
:1021E00000400140004401400048014010B501F0AA
:1021F0001F030121046A99408C430462016A9A40DA
:102200001143016210BD000070B5056A046A24F034
:10221000010404628469124EB0420ED0B0F1804FC6
:102220000BD0104EB04208D00F4EB04205D00F4E2A
:10223000B04202D00E4EB04203D124F00304144346
:1022400001E044F001041A0724F0F00444EA1262A9
:1022500025F00A0301F00A0119438261016270BD91
:10226000002C014000040040000800400034014000
:102270000040014030B5046A056A25F0100505628A
:10228000856925F4407545EA022222F470454FF62F
:10229000FF7202EA033224F0A0032A43A02404EAD6
:1022A000011119438261016230BD000030B5416EF9
:1022B000B9B1026891689268C1F342610B4B520F49
:1022C0009C5CE50003F10804A25CB5FBF2F2A0F807
:1022D0006A205A5C615CD200B2FBF1F1A0F8681090
:1022E00030BD0121A0F86A10F8E700005431000861
:1022F00090F82810090706D501684A68836B22F414
:1023000000421A434A6090F82810C90706D00168B5
:102310004A68C36A22F400321A434A6090F82810CF
:10232000890706D501684A68036B22F480321A4394
:102330004A6090F82810490706D501684A68436B3F
:1023400022F480221A434A6090F82810C90606D564
:1023500001688A68C36B22F480521A438A6090F83D
:102360002810890606D501688A68036C22F4005299
:102370001A438A6090F82810490611D501684A6806
:10238000436C22F480121A434A60416CB1F5801FFD
:1023900006D101684A68836C22F4C0021A434A607D
:1023A00090F82810090606D501684A68C06C22F426
:1023B000002202434A6070472DE9F8430026044694
:1023C000C0F89060FEF772FB8046206800684FF00E
:1023D000200500076FF07E4713D5434600222904ED
:1023E0002046009700F0A2F958B1216851E8000F8B
:1023F00020F0800041E80002002AF6D1C4F888509D
:1024000021E020680068400722D5434600224FF4AF
:1024100080012046009700F089F9C8B1216851E891
:10242000000F20F4907041E80002002AF6D12068E5
:10243000083050E8001F21F0010140E80012002A96
:10244000F5D1C4F88C5084F884600320BDE8F8838B
:10245000C4F88850C4F88C5044F86C6F66602676D7
:102460000020F3E710B5026852E8001F21F49071D4
:1024700042E80013002BF6D10E4B0268083252E8F6
:10248000001F194042E80014002CF6D1C16E01294A
:1024900008D1016851E8002F22F0100241E8002322
:1024A000002BF6D12021C0F88C100021C1664167B5
:1024B00010BD0000FEFFFFEF2DE9F041044601686A
:1024C00080682269E3691043626900251A4310435A
:1024D000DFF82CC20A688B4B1A4002430A6020685E
:1024E0004168E26821F44051114341602168A069CC
:1024F000614501D0226A10438A68834B1A40024327
:102500008A602068C16A626A21F00F011143C162CA
:102510007E4923687E488B420DD1D0F8880010F0A8
:10252000030006D0012855D0022842D003283FD10D
:1025300052E001203DE077498B420BD1D0F8880072
:1025400010F00C0035D0042833D0082840D00C28D7
:102550002ED141E070498B420BD1D0F8880010F0A9
:10256000300026D0102835D0202831D030281FD177
:1025700032E06A498B420BD1D0F8880010F0C000DD
:1025800017D0402826D0802822D0C02810D123E0A0
:1025900063450DD1D0F8880010F4406009D0B0F543
:1025A000806F17D0B0F5006F12D0B0F5406F13D028
:1025B00010205B495B4F00264FF4004263453BD13E
:1025C00060B1022813D004280BD0082872D10DE086
:1025D0000220EEE70420ECE70820EAE7FEF796FD8C
:1025E00001E0FEF7B7FD010001D17CE01146606A11
:1025F00037F810206768B1FBF2F007EB470383421E
:1026000070D8B0EB073F6DD8002308461946FDF798
:1026100001FE090241EA10610202780810187141B6
:102620003A460023FDF7F6FD3F4AA0F5407191427E
:1026300058D82168C86056E0E3694FF6EF789342B6
:102640002CD109284ED2DFE800F00508114D0D4DC0
:102650004D4D1000FEF75AFD01E0FEF769FD010047
:1026600004D140E0FEF776FDF9E71146606A37F8DD
:102670001000B1FBF0F04100606801EB5001B1FBCC
:10268000F0F0A0F1100141452CD84FF6F071014057
:10269000C0F3420001432068C16024E0092821D230
:1026A000DFE800F0050912200E2020201100FEF7BF
:1026B0002DFD02E016E0FEF73BFD010004D112E023
:1026C000FEF748FDF9E71146606A37F81000B1FBE4
:1026D000F0F1606801EB5001B1FBF0F0A0F11001E6
:1026E00041450AD901250120A4F86A0024F8680FA1
:1026F0002846E6602661BDE8F08180B299E70000D7
:1027000000800040F369FFCFFFF4FF110038014063
:10271000001002400044004000480040004C0040CF
:102720000024F4003C310008FFFC0F002DE9F047C5
:10273000994617460D4604464FF00008089E33E0C0
:10274000701C31D0FEF7B2F9A0EB0900B04218D8E6
:10275000BEB120680168490726D5802D24D0402DC0
:1027600022D0C169C94309070DD408250562204656
:10277000FFF778FEC4F8905084F884800120BDE80B
:10278000F0870320FBE7C069C04300050CD4216833
:102790004FF4006008622046FFF764FE2020C4F872
:1027A000900084F88480ECE72068C06935EA000076
:1027B00004D00020B842C3D00020E0E70120F9E7B0
:1027C000FEE700000FB4054B10B503A9044A0298B8
:1027D00000F0EAF810BC5DF814FB0000B13000080E
:1027E000280000200907090E002804DB00F1E02082
:1027F00080F80014704700F00F0000F1E02080F82E
:10280000141D704702E008C8121F08C1002AFAD13F
:1028100070477047002001E001C1121F002AFBD160
:10282000704700002DE9FF5F82B00021DDE9043030
:10283000020DDDF840B0034318D044F61050A2F268
:10284000FF3242431514119801281FD0A5EB0B004D
:10285000401C5FEA000A4FF000064E4FDFF8389147
:10286000B046504615D5CAF1000413E01198012472
:102870004AA3012801D16FEA0B010298119AC0E91D
:102880000031C0E9024206B0BDE8F09FCBF1000084
:10289000DFE704460021404A491842EB0450CDE9E5
:1028A000001012E0E00707D032463B46404649465A
:1028B000FDF70EFF8046894632463B4610461946D4
:1028C000FDF706FF06460F466410002CEAD1DDE94D
:1028D0000401DDE90023BAF1000F06DAFDF7F8FE86
:1028E00042464B46FDF7F4FE05E0FDF7D6FC4246B6
:1028F0004B46FDF7D2FC04460E460022284BFDF75E
:1029000071FF03D84FF0FF30014607E00022254B4E
:1029100020463146FDF735FEFDF74CFF102409E057
:10292000002C0ADB0A220023FDF774FC039B3032E3
:102930001A55641E50EA0102F2D1641C039AC4F1D4
:1029400011031444119A012A03D0012208430DD126
:102950000AE0084304D000204FF0110B119072E7F9
:10296000A3EB0B056D1E0DE05B4504DD4FF000028F
:1029700005F1010504E003DA4FF00002A5F10105BD
:10298000002AECD002981199C0E90231C0E9004553
:1029900079E70000000014400000F03F3000000024
:1029A0000000F0430000E03F2DE9FF4F95B09A464C
:1029B000884606460025EEE1252877D100242746E3
:1029C000F94A0121039400E0044316F8013F203B3B
:1029D00001FA03F01042F7D130782A2811D06FF0B5
:1029E0002F033078A0F13002092A16D8039A44F058
:1029F000020402EB820203EB42021044761C0390B5
:102A0000EFE758F8042B0392002A03DA504244F40B
:102A10000054039044F00204761C30782E2816D11E
:102A200016F8010F44F004042A280DD06FF02F028D
:102A30003078A0F13003092B09D807EB870302EBAC
:102A40004303C718761CF3E758F8047B761C3078EC
:102A50006C280FD006DC4C2817D068280DD06A28C7
:102A600014D104E0742810D07A280FD10DE044F47A
:102A700000140AE044F4801401E044F44014727835
:102A8000824202D104F58014761C761C30786628C8
:102A90000BD013DC582877D009DC002875D04528E6
:102AA000F6D04628F4D047281AD193E118E06328DD
:102AB00035D0642879D0652812D18BE1702873D085
:102AC00008DC6728F1D069286FD06E280DD06F28F8
:102AD00006D1ACE073282CD0752874D0782853D058
:102AE0005246179990476D1C54E1C4F302500228D6
:102AF00009D003280DD0D8F8001004280DD00D609F
:102B000008F1040846E1D8F80010EA17C1E90052BC
:102B1000F6E7D8F800100D80F2E70D70F0E718F82E
:102B2000041B8DF8001000208DF80100EB460120F9
:102B300003E058F804BB4FF0FF3061074FF000018D
:102B400002D40DE009F101018946B9420FDA81454D
:102B5000F8DB1BF809100029F4D108E009F10101A4
:102B600089468142FADB1BF809100029F6D1039847
:102B70005346A0EB090721463846179A00F080FA21
:102B8000284400EB090507E044E008E10DE01BF8EC
:102B9000010B524617999047B9F10109F7D25346F4
:102BA00021463846179AF2E039E00A21C4F302526E
:102BB0004FF0000B0091022A06D058F8040BC11701
:102BC000032A09D00AE023E008F1070020F00702F9
:102BD000F2E80201904605E000B2C117042A01D1D3
:102BE00040B2C117002906DA0A460021404261EBD3
:102BF00002012D2202E0220504D52B228DF80420AB
:102C0000012203E0E20701D02022F7E7914657E0D6
:102C10000A2100E010214FF0000B00910BE0102181
:102C20004FF0000B44F004040827009103E0082053
:102C30004FF0000B0090C4F30252022A05D058F85E
:102C4000040B0021032A08D008E008F1070020F057
:102C50000702F2E80201904603E080B2042A00D1A4
:102C6000C0B24FF0000922072AD53278702A07D067
:102C7000DDF800C08CF0100C5CEA0B0C05D00EE007
:102C800040228DF80420012208E050EA010306D01A
:102C900030238DF804308DF8052002229146009BE8
:102CA00083F0080353EA0B030AD150EA010201D171
:102CB000620705D530228DF804204FF001097F1EF0
:102CC0003278582A04D039A20C920CAA02920BE056
:102CD0003BA2F9E75B46009AFDF79CFA0C9B9B5CD4
:102CE000029A521E0292137050EA0102F2D1029827
:102CF00004A9081A00F1200B600702D524F48034DF
:102D000000E001275F4502DDA7EB0B0000E000209B
:102D100000EB0B01009003984944401A0390E00334
:102D200006D453462146179A039800F0A9F90544A2
:102D3000002706E001A85246C05D179990476D1C18
:102D40007F1C4F45F6DBE0030CD553462146179A0E
:102D5000039800F095F9054404E030205246179995
:102D600090476D1C0099481E00900029F5DC08E092
:102D70000298029952460078491C0291179990478F
:102D80006D1CBBF10001ABF1010BF1DC5BE100F06C
:102D900065F90544761C307800287FF40DAE19B033
:102DA0002846BDE8F08F0000092801003031323399
:102DB0003435363738396162636465660000000077
:102DC0003031323334353637383941424344454661
:102DD00000000000600700D4062708F1070020F07B
:102DE0000700F0E80223804603F0004C5FEA0C0085
:102DF00001D097A009E0200501D596A005E0E007E5
:102E000001D095A001E0AFF24C001390307823F090
:102E1000004365280CD006DC452809D046281DD083
:102E200047287FD13BE0662818D067287AD136E062
:102E30000021112F01DB112000E0781CCDE90001F9
:102E400004A90CA8FFF7EEFCDDE90D010C9A4FF088
:102E5000000B07F10109109200914EE04FF0004085
:102E60000097CDE9011004A90CA8FFF7DBFCDDE910
:102E70000D020C9B0F994FF0000B9146109300929E
:102E800011B9791C00EB0109B7EB090003D4C0F1BB
:102E9000FF3B07F10109A9EB0700019042E0012F78
:102EA00000DA01270021112F01DD112000E0384652
:102EB000CDE9000104A90CA8FFF7B4FCDDE90D0180
:102EC0000C9A00914FF0000BB946109221070FD4D5
:102ED000009A4A4503DA914601E0A9F10109B9F1E6
:102EE000010F05DD109AA9F10101515C3029F4D0E0
:102EF000B84202DA10F1040F03DA0121CDE9011022
:102F000010E0002803DC8344A9EB000102E0411C2F
:102F1000494500DD8946A0EB0B00401C01904FF0B5
:102F200000400290200705D40198484502DB4FF08D
:102F3000FF30019000208DF84B0002980DF14B07F7
:102F4000B0F1004F25D002200C902B200D9002985C
:102F500000280CDA404202902D200D9007E00A2153
:102F60000298FDF745FA3031029007F8011D0C99DF
:102F7000481E0C900029F2DC02980028EFD1791E3F
:102F80000D980870307800F0200040F0450007F8F8
:102F9000020D11A8C01BC01D02901398007800B14B
:102FA000012000EB0901019801EBE0710298014456
:102FB0000398401A401E0390E00306D4534621466E
:102FC000179A039800F05CF805441398007818B13C
:102FD0005246179990476D1CE00323D5534621466E
:102FE000179A039800F04CF805441BE0BBF1000F62
:102FF00007DB0098584504DD1098179910F80B006E
:1030000001E0179930205246904701980BF1010BCF
:10301000401E05F10105019004D12E20524617995A
:1030200090476D1CB9F10001A9F10109DEDC05E052
:1030300017F8010B5246179990476D1C0299481ECC
:1030400002900029F4DC53462146179A03989EE625
:103050002D0000002B000000200000002DE9F041B1
:10306000044600251E461746880404D405E0394668
:103070002020B0476D1C641EF9D52846BDE8F081BC
:103080002DE9F041044600251E469046C80301D5AF
:10309000302700E02027880404D505E04146384663
:1030A000B0476D1C641EF9D52846BDE8F0810000CC
:1030B00013B53223012269460248FEF7CBFE009881
:1030C0001CBD0000C40000201CB5FDF7FDFCFEF790
:1030D000E7FFFEF717FFFEF73BFFFEF76FFFFEF778
:1030E000A5FF00210C48FEF757FC00210B48FEF716
:1030F00053FC0B4C6068FDF74CF905460E46206802
:10310000FDF747F941EC100BCDE9005653EC102BBD
:1031100004A0FFF757FBEDE72C000020780000200B
:1031200000000020667271313A252E30662C4672FE
:1031300071323A252E30660D0A00000001000200AF
:103140000400060008000A000C00100020004000E7
:1031500080000001010101030701000008040204CE
:10316000080101010000000000000000010203044A
:103170000607080900000000010203049C31000852
:10318000000000202C00000004280008C8310008BE
:103190002C0000202C05000014280008000000006E
:1031A000000000000000000000000000000000001F
:1031B00000000000100000000100000000000000FE
:0831C0000024F40000000000EF
:04000005080001D915
:00000001FF
